S03A0000626F6F746C6F616465722D73746F726167652D696E7465726E616C2D73696E676C652D323034386B5F332D636F6D62696E65642E733337CE
S3150FE100000A4880F308880A4800470000000000000C
S3150FE1001000000000000000000000000000000000EA
S3150FE1002000000000000000001C06E10F9004002014
S3150FE100300506E10F10B57A497A4A01E021B1491E69
S3150FE100401369DC07FAD411B96FF0020010BD5060E5
S3150FE10050012010601169480702D54FF0FF3010BD3E
S3150FE10060002010BD2DE9F041044610460B46002253
S3150FE10070002B41D06FF001056FF002086849694F17
S3150FE10080A8B994469C4537D254F8040BF8600CF1A5
S3150FE10090010C08203860084601E080B3401E3E6936
S3150FE100A0F607FAD458B338698007EBD523E0EFF3B7
S3150FE100B0108072B694460FE03E6906F01906102ECF
S3150FE100C008BF3E603E693607F6D554F8046BFE600D
S3150FE100D00CF1010C10263E609C45F3D318B962B6BC
S3150FE100E001E021B1491E3869C307FAD401B9424685
S3150FE100F03869810700D52A461046BDE8F0814246A8
S3150FE10100FAE72DE9F84F454CA56BADB205B10125DF
S3150FE1011041F67136A6634FEA92083F4E3768366865
S3150FE10120266846F0010626604FF0000906468A4624
S3150FE101309B46002013E0C7F30B07C7F58057BF08AF
S3150FE10140A8EB0900B84238BF07465A46394650462A
S3150FE10150FFF788FF010010D1B9440AEB870AC145C1
S3150FE101600BD206EB89073846FFF764FF0100E2D0B1
S3150FE10170216849084900216003E0226852085200CC
S3150FE101802260EDB20DB10021A163BDE8F28F70B52A
S3150FE10190224B23490246986B80B200B1012041F60A
S3150FE101A071349C631C4C256824681E6846F0010671
S3150FE101B01E609A6001225A605C69620704D500F0FD
S3150FE101C021F84FF0FF3070BD02225A605A69D40709
S3150FE101D010D5002918BF491EF8D10BE0002919687F
S3150FE101E004D100F010F86FF0020070BD00F00BF8CB
S3150FE101F0002070BD5A699407F0D500F003F86FF04F
S3150FE10200010070BD196849084900196008B100205D
S3150FE1021098637047002374E704300E4008000040EE
S3150FE10220809698000C00004010B53B4C41F67131B9
S3150FE10230A1632268520852002260FFF7A8FF2268E5
S3150FE1024052080146520022600020A063481E8041F9
S3150FE10250C00F10BD38B58308800705D54FF6FF727D
S3150FE1026042EA0142009204E041F07F4141F47F010D
S3150FE10270009141F67130284CA063042225686D0880
S3150FE102806D00256069469800FFF7C4FF22685208A2
S3150FE10290520022600021A16332BD2DE9F0410546EE
S3150FE102A08846144605F0010104F00100014330D1FF
S3150FE102B06CB3AA0707D538F8021B2846FFF7CAFF22
S3150FE102C038BBAD1CA41E042C1AD3134E41F6713064
S3150FE102D0B063A7083168490849003160BF003A4663
S3150FE102E041462846FFF796FF3168490849003160D4
S3150FE102F000227908B26308EB41087D19E41B40B986
S3150FE103002CB1B8F800102846FFF7A4FF08B9012071
S3150FE1031000E00020BDE8F08108000040F8B5314863
S3150FE1032001680869CD68846AAC4225D305F5E041D9
S3150FE103308C4221D2641B04192B4E2168B1421BD189
S3150FE10340E1682A4F4FF0FF3200F056F8B84213D169
S3150FE1035000F040F80ED20268B2420BD18168A26872
S3150FE10360914207D3C1684FF0FF32284600F044F8B7
S3150FE10370B84201D00120F2BD0020F2BDF8B519480F
S3150FE1038000680569C468AE6A361BAE19274604E0F4
S3150FE103903846FFF749FF07F58057F268101987428C
S3150FE103A0F6D329462046FFF778FF90B100F012F811
S3150FE103B00CD202680C498A4208D1C1684FF0FF326C
S3150FE103C0204600F019F80949884201D00020F2BD14
S3150FE103D00120F2BD0648074900680918B1F5E04F5B
S3150FE103E0704700002800E10F07B0CD5EE320BBDECA
S3150FE103F02810E10F00F01EF030B50A4B1C6844F4EB
S3150FE1040080741C600125084B1D609A605D6002E0F7
S3150FE1041010F8014B9C610A46511E002AF8D1D869A2
S3150FE1042030BD00BFB0400E4000C0014080B51A4854
S3150FE104301A4A01681A4811604023C36001684A03EA
S3150FE10440FCD4FFF79BFF0028FBD040F2022000F01F
S3150FE1045031F8002002BD10B5124C1348206000F0B0
S3150FE1046049F812490A68B2F5803F0AD040F20921EC
S3150FE10470884218BFB0F5007F03D1FFF74FFF00B1F8
S3150FE1048010BD0B482060016881F3088881F3098864
S3150FE1049040688047FEE70000880000208C000020BE
S3150FE104A004300E4008ED00E00000E10F04500E406D
S3150FE104B00010E10F4FF0005108804FF20F00488016
S3150FE104C00948016821F4E06141F480610160BFF3FD
S3150FE104D04F8F064906480A6802F4E06202430A6052
S3150FE104E0BFF34F8F00BFFDE700500E400CED00E06C
S3150FE104F00400FA054FF000514FF20F02488890427F
S3150FE1050001D108887047002804BF0888012802D165
S3150FE1051040F2022070474FF40070704730B450F844
S3150FE10520041B79B10268436802440830DC0744BF13
S3150FE10530A9F10104E31852F8045B43F8045B091FC0
S3150FE10540F9D1ECE730BC704710B50749794418315A
S3150FE10550064C7C44163404E00A68081D11448847AA
S3150FE105600146A142F8D110BD2C0000003C0000006D
S3150FE105704EF68851CEF20001086840F4700008602B
S3150FE10580BFF34F8FBFF36F8F4FF00070E1EE100A9D
S3150FE105907047000089FFFFFF100000009400000084
S3150FE105A08000002000000000044905480860054866
S3150FE105B0026842F4700202607047000008ED00E045
S3150FE105C02C00E10F88ED00E00120C046002801D0A4
S3150FE105D0FFF7BAFFAFF300800020AFF30080FFF71C
S3150FE105E025FF00F000F800F001B800000746384695
S3150FE105F000F002F8FBE7000020210903263118205D
S3150FE10600ABBEF9E7024880470248804702480047F8
S3150FE10610A905E10F5704E10F4106E10FAD1007B050
S3150FE1062001000000000008010010E10F008000004A
S3150FE1063080F0FA0200800000C0EA2101C0EA210140
S3110FE10640AFF30080FFF794FFFFF7BEFF5A
S3150FE1100080100020593AE10F0322E10F7923E10F16
S3150FE110100B22E10F8322E10FDF24E10F0000000035
S3150FE1102000000000000000005810E10FB726E10FA5
S3150FE110301B27E10F8C10E10F4F27E10FBB37E10FB4
S3150FE110404546523332000000010000000100000066
S3150FE11050000010000000100007B0CD5E0100000097
S3150FE1106000000801802A00000000000000002000B7
S3150FE11070F00001004D29E10F5129E10F9515E10F1F
S3150FE110809721E10FC921E10FCC10E10F13B779FADF
S3150FE11090C925DDB7ADF3CFE0F1B614B80101000014
S3150FE110A0000000007C2A000040000000000008015B
S3150FE110B0000000000000000000000000000000003A
S3150FE110C00000000000000000000000000001000029
S3150FE110D0A511E10FFB11E10F2912E10F4712E10F04
S3150FE110E08D12E10F5939E10F3F39E10F6F39E10FF9
S3150FE110F0A712E10FCF12E10F2913E10FBD16E10F91
S3150FE11100C716E10FE516E10F1B17E10F024870470E
S3150FE1111002487047024870474A43E00F6A43E00FBF
S3150FE111208642E00F18B5DFB04FF4BE726946002074
S3150FE1113000F0B9F80021684600F0C9F840F2012144
S3150FE111408842F7D040F20322904240F2054423D180
S3150FE111509DF8000000F0030002281DD09DF8000065
S3150FE1116081070FD50E480268019993688B4209D220
S3150FE111705B9800F03FF978B100F096F9099900F024
S3150FE1118089FA09E09DF80000C10705D503995B9837
S3150FE1119000F058F900B10024204660B010BD000000
S3150FE111A02810E10F10B504000CD04FF48030206009
S3150FE111B000219C486160027822724068E06000F08D
S3150FE111C079FA206110BD78B5044604F5B6760D4679
S3150FE111D0A1B0B1683068802301AA00F025F8009527
S3150FE111E0802301AA214604F1280000F03FFCF060BC
S3150FE111F0B0688030B06022B070BD0246002940F27F
S3150FE11200014000D1704710B5864B5C68A24203D30B
S3150FE1121000220A604A6010BD03EBC20082680A60D1
S3150FE11220C0684860002010BD38B500F021F800D342
S3150FE1123026E000F017F800D225E09B68C018BDE85C
S3150FE11240384000F040BA38B500F012F800D317E095
S3150FE1125000F008F800D216E09B68C018BDE83840E8
S3150FE1126000F040BA03EBC4031518DC68AC427047D3
S3150FE112700446084611461A466A4B5D68AC4270470A
S3150FE1128040F2014032BD40F2024032BD65494A6843
S3150FE11290904202D340F20140704701EBC000C168B2
S3150FE112A0806800F03ABA3EB504460D461146284627
S3150FE112B000F071FF50B969462046FFF79EFF28B946
S3150FE112C005F5B67004600199416000203EBD38B561
S3150FE112D084B004460D466846102100F093FF02954F
S3150FE112E004F5B875A86888B96868296888420DD287
S3150FE112F069462046FFF767FFA86800281CBF41F241
S3150FE11300070188420BD140F2012008E0A0780028BE
S3150FE113101DBFE078002840F2032040F2022005B01D
S3150FE1132030BD012018707047F0B585B004460D4603
S3150FE11330164600278DF800700DF104004AA1102220
S3150FE1134000F074FFCDF804D037601C21284600F079
S3150FE1135059FF04F5B8779DF8000080B994F86E004F
S3150FE1136011280CD0B86850B978683968884206D226
S3150FE1137001A92046FFF727FFEDE705B0F0BD20787D
S3150FE11380810744BF606830602178C80705D51C2204
S3150FE1139004F10801284600F049FF9DF800100029E5
S3150FE113A005BF20780028002040F20640E5E770B53A
S3150FE113B004460D46202304F5807204F1B80104F1C9
S3150FE113C0280000F017FB04F5B876B06850B97068DD
S3150FE113D03168884206D229462046FFF7F4FEF4E744
S3150FE113E0002070BDA07800281CBFE0780028F7D058
S3150FE113F0012070BD18B50C4AE3B013689C688C42A6
S3150FE1140002D200F018F808B1002008E05FF0020000
S3150FE1141000F00CF818A100F009FF00F010F864B025
S3150FE1142010BD00004810E10F2810E10F8DF81100F3
S3150FE114301022684670474FF4BE7204A933E7694636
S3150FE1144004A8B4E700B5E3B0FFF7F5FF08B1002054
S3150FE1145007E00120FFF7EAFF0BA100F0E7FEFFF738
S3150FE11460EEFF63B000BD0000000000002313E10FA3
S3150FE114702313E10F2313E10F00000000000000002A
S3150FE11480000000002715E10F000000000B15E10F2A
S3150FE1149000000000000000000020704700207047A8
S3150FE114A006480168086970470548064A00680168F9
S3150FE114B0914201D100697047002070472810E10F72
S3150FE114C02800E10FAD1007B001207047F8B50446CB
S3150FE114D0200B0D461646B4EB003004BF204600F054
S3150FE114E0D1FE04F580573F0B3F0304E0384600F089
S3150FE114F0C9FE07F5805730198742F7D33246294699
S3150FE115002046BDE8F84000F0F6BE38B55B4B1B68E8
S3150FE115101C69A04222BF5B691518AB4202D3BDE835
S3150FE115203840D3E731BDF8B504465548554B0D461E
S3150FE11530016816460A689A4212D1FFF7B5FF2718D6
S3150FE115404E4800684169F219914209D314B900690D
S3150FE1155000F098FE324629463846BDE8F840B5E731
S3150FE11560F1BD00007FB504464FEA0D004DA11022F3
S3150FE1157000F05CFE002046420DEB0605225CE97B9E
S3150FE11580914205D1401C1028F5D3012004B070BD5E
S3150FE115900020FBE758B504463B4B22686068616B58
S3150FE115A002F160429A422BD2344A13681A69904289
S3150FE115B026D3364B984223D2403291420E4601D37F
S3150FE115C0994205D300F060FF401E8041C00F52BD26
S3150FE115D000F05AFFB0B93046FFF7C4FF00281CBF31
S3150FE115E07069002812D002280CD1B069001D011BC9
S3150FE115F04FF0FF32204600F049FF2549884205D0DA
S3150FE11600002052BD2046BDE8524001E0012052BD07
S3150FE1161038B505469CB06C6B2046FFF7A3FF18B1B2
S3150FE11620606901280AD1A469144801680A699442DC
S3150FE1163028BFAC4202D31548844201D300201AE0F9
S3150FE1164001A800F03DFF621B294601A800F042FF09
S3150FE1165001A800F041FFFFF75BFD0546FFF756FDD9
S3150FE116600346009504F12002214601A800F038FF58
S3150FE11670401E8041C00F1DB030BD00002810E10FA4
S3150FE116802800E10FAD1007B00100080001002000AE
S3150FE11690E320BBDE80B540F2092000F06DFF0020AC
S3150FE116A002BD0000B814B6F1E0CFF3ADB7DD25C941
S3150FE116B0FA79B7132CA070470020704727480068C6
S3150FE116C000F00100704710B50B461118244CA142EA
S3150FE116D005D20146184600F099FD002010BD40F2F3
S3150FE116E0024010BD38B513181D4DAB4240F202440E
S3150FE116F00BD2002300E01B1D934208D21D5815F1B2
S3150FE11700010FF8D040F2034032BD204632BD00F062
S3150FE11710F2FD0028F9D0002032BD70B505460C4622
S3150FE11720200501D1290502D040F2044070BD6019B0
S3150FE117300B49884240F2024603D300E008B930462E
S3150FE1174070BD284600F09EFDB4F5805405F5805531
S3150FE11750F4D10028F3D0002070BD00001C0000403A
S3150FE11760010020000020704701020300280000005D
S3150FE117702800000000100000000020004010E10FDB
S3150FE11780020000002DE9F8431E467368002B4ED088
S3150FE117900C4614F0030118BF41F2020048D1154679
S3150FE117A00746FFF77DFE396E001D6A18824221D387
S3150FE117B000F1180399421DD28C46844538BF844601
S3150FE117C005EB010800F11802904588BF9046ACEB96
S3150FE117D00101ACEB000004EB0109A8EB0C0838445E
S3150FE117E042464946683000F011FDFF224146484620
S3150FE117F000F0F8FEFFF758FE396E001D884222BF52
S3150FE118006A18031D9A4209D3411A601807F180013C
S3150FE1181002680A600421FF2200F0E4FE21463368E4
S3150FE11820386E74682A46A047386E2D183D6600203B
S3150FE11830BDE8F28370B54B688C689C4206D200F125
S3150FE1184040021B1B14781B19412B01D3002070BDDD
S3150FE11850537814780D68E4188B68EE5C04F03F0456
S3150FE1186006558C68641C8C6013785B1C13708C684E
S3150FE118704B689C42ECD3012070BD90F840004A685A
S3150FE1188089681018401A70472DE9F0410C46174642
S3150FE118901D468046FFF7F1FFA84208F1400606D242
S3150FE118A021464046FFF7C6FF10B300204DE0002169
S3150FE118B00CE0707818F800207A54491C7378307868
S3150FE118C05B1C03F03F03421E73703270307808B130
S3150FE118D0A942EED3A0686268904238BFA9420CD202
S3150FE118E02368185C7854491CA268521CA260F1E780
S3150FE118F01220B07141F2020027E0A942F8D1069C0D
S3150FE11900B26C2946384600F0C1FDB06424B1F068E7
S3150FE119102A46394600F0DEFD079838B1F07878B1FE
S3150FE11920B0682B463A46394600F0B2FEF07838B148
S3150FE11930F069B1692818F061884224BF0020F07080
S3150FE1194070692D18756141F20300BDE8F081F8B5B4
S3150FE1195084B014460026054601960096082302AA8E
S3150FE11960FFF792FF41F20306B0423CD195F84300EF
S3150FE1197005F1480738B100F038F83868082302AAAC
S3150FE1198002A900F085FE9DF80A209DF80B009DF84F
S3150FE119900910120442EA00629DF8080042EA0122A8
S3150FE119A0024322609DF80E009DF80F10000440EAF5
S3150FE119B001609DF80D1040EA01209DF80C100843D7
S3150FE119C0606095F8430048B9DFF860178A421CBF9B
S3150FE119D0DFF85C07824201D000F007F86068B86073
S3150FE119E00021F960304605B0F0BD7868082202A9FA
S3150FE119F000F070BDF8B5064606F140070020B87154
S3150FE11A007870F87038710D4600214FF0FF3039705C
S3150FE11A10797103F02003B864396279621446BB70B9
S3150FE11A20FF22182106F1680000F0DCFDFF220421F8
S3150FE11A3006F1800000F0D6FDFF22042106F18400B5
S3150FE11A4000F0D0FDBD60FC60FFF728FD00B11DB1D0
S3150FE11A50FFF722FD18B114B941F20B00F2BD14B133
S3150FE11A60F86800F02DFD0020F2BD00002DE9FB4FD7
S3150FE11A7082460021002300249AB005A880E81A00C7
S3150FE11A80059209910AF148061C9A269D06920AF1DA
S3150FE11A90420710E000F074FB0899884233D10498AD
S3150FE11AA0B0600021F1600398DFF88816884240F0B4
S3150FE11AB0438102223A7107981C99884280F0D082BD
S3150FE11AC041F2030208920DF1280839791229F2D869
S3150FE11AD0DFE811F014001500CA023201070309030A
S3150FE11AE0E402540109034F0109034F012102C30225
S3150FE11AF00C0397029A02D401C302DCE7CAE700F0AE
S3150FE11B003FFB0899884240F0AC82B87820B1039840
S3150FE11B10DFF81C16884246E03A78D1074DD578783A
S3150FE11B2000284AD10398DFF80C1688421CBFDFF86C
S3150FE11B300816884225D0DFF8041688421FBFDFF862
S3150FE11B4000168842DFF8FC1588421AD0DFF8F8153F
S3150FE11B50884222D0DFF8D415884265D0DFF8EC153C
S3150FE11B60884213D0DFF8E81588420DD0DFF8C015AB
S3150FE11B70884215D0DFF8DC1588421CBFDFF8D8158F
S3150FE11B80884200F0D98010E00E2293E70F203871DA
S3150FE11B900020B168316170618DE71221397166E01C
S3150FE11BA0FFF77AFC00283DD138E01220387103A8FF
S3150FE11BB000F07DFD00285AD0A5E20398DFF87C15E9
S3150FE11BC088421AD0DFF87815884214D0DFF87415F9
S3150FE11BD0884215D0DFF85415884221D0DFF8501529
S3150FE11BE0884214D0DFF86C1588420ED0DFF86815FD
S3150FE11BF0884208D01AE004225CE7062038715AE7DA
S3150FE11C000721397157E70920F8E70B21F9E7FFF7C4
S3150FE11C1043FC002804BF7878002803D10C21F0E7B4
S3150FE11C207878002840F088801021EAE703A800F0D1
S3150FE11C303EFDA8B10398706411213971039800F044
S3150FE11C4038FD099038788106DCD5099800281CBF44
S3150FE11C5041680029D6D0504688470028D2D052E2B3
S3150FE11C6012217878397110B141F20400F9E141F2AC
S3150FE11C700800F6E198F8050098F8041041EA00210A
S3150FE11C800291C90704D5387840F00100387002E0B7
S3150FE11C90FFF704FC40B9FFF7FFFB002800F0E681F0
S3150FE11CA00298C10500F1E2811220387141F20A0072
S3150FE11CB0D7E10520F978387141F00101F97000207B
S3150FE11CC0F061F068082880F01A82012101910091F4
S3150FE11CD000F05BFA08998842EAD12078DFF87C3484
S3150FE11CE040F00200207098F8020098F803109DF872
S3150FE11CF02820000440EA016098F8011040EA01202B
S3150FE11D0010436060DFF85814B068083860620868FD
S3150FE11D1002689A42CDD198F8062098F8071098F8FC
S3150FE11D200430C068120442EA016298F8051042EAEB
S3150FE11D3001221A438242BCD012213971E3E101201B
S3150FE11D4000F016FA08998842B2D198F8021098F87D
S3150FE11D5003009DF82820090441EA006198F8010083
S3150FE11D6041EA002111430291B068052824BF029888
S3150FE11D70B061F0680428E2D30A2142E70020F0615E
S3150FE11D8008213EE72B68F06942460AA9E047F06968
S3150FE11D904044F061B068F168814280F0AD81A0EB1B
S3150FE11DA00108B8F1040F05A9504608D3FFF765FD01
S3150FE11DB0042808D205A95046FFF73CFD50E1FFF78D
S3150FE11DC05CFD4045F6D3B8F1410F28BF4FF040080F
S3150FE11DD000F0CAF9404502D200F0C6F98046B8F1E3
S3150FE11DE0040F24BF4FEA98004FEA800801200190C3
S3150FE11DF00090434600F0BFF90899884240F03181DF
S3150FE11E003879082804D1D5F808C0BCF1000FB9D14B
S3150FE11E10B8F1040FC8F1040B06D20AA8FF225946FE
S3150FE11E20404400F0DFFBD84438790A2806D12B4627
S3150FE11E3042460AA95046FFF7A5FCABE70528A9D10B
S3150FE11E4099F801008107A5D5E8680028A2D0F069C5
S3150FE11E5005280ED208EB000107290AD30AA9091DA5
S3150FE11E60081A0AF1840201681160FF22042100F0C9
S3150FE11E70B9FB2B68F069D5F80CC085E73978880688
S3150FE11E8040F13F81706C00F014FC0028099040F09E
S3150FE11E90388138E14FF0010900F066F9484589D3F9
S3150FE11EA0B068F168A0EB0109B9F1410F28BF4FF016
S3150FE11EB0400900F059F9814502D300F055F9814601
S3150FE11EC00120019000904B4600F055F908998842A0
S3150FE11ED02FD1387881060DD5002C1CBFD4F808C058
S3150FE11EE0BCF1000FD5D02B464A460AA95046E0472A
S3150FE11EF000281ED1F068B168884280F007813878F2
S3150FE11F008106C7D5002C1CBF21690029C2D05046D6
S3150FE11F1088478146C0E7002000F02AF908998842F0
S3150FE11F2007D1306C8F49884204D012223A7141F2BF
S3150FE11F30050096E0FFF7B0FA18B91B990120C870B2
S3150FE11F4003E01B99C87800283FD0F87810F0030F0B
S3150FE11F501CBFEC68002C05D02B6804220AF1840122
S3150FE11F600420A047B06900281CBF686800282CD060
S3150FE11F704FF0FF3102910AF180040422214602A8B3
S3150FE11F8000F09AFB40B1FFF78FFA28B121462B6893
S3150FE11F906C680422001DA04704220AF1680102A819
S3150FE11FA000F08AFB88B1FFF77BFA2B686C68142285
S3150FE11FB00AF16C010830A047FFF772FA2B686C68DB
S3150FE11FC004220AF16801001DA0471B9901208870C0
S3150FE11FD00D20387144E0002001210190009110237A
S3150FE11FE000F0C9F8089988423BD1FFF793F88021B1
S3150FE11FF000900191012330680BAA022100F025FB25
S3150FE1200076E00120787026E0B87820BB00210191B7
S3150FE120100090402300F0AFF80899884221D170680B
S3150FE1202000F05AFAFFF774F80446FFF76FF80094D9
S3150FE120300346706812AA0AA900F052FA38B11B9941
S3150FE120400020C8701220387141F2060009E01B9991
S3150FE120500120C870B8700121D3E541F2070000E015
S3150FE1206000201DB0BDE8F08FDDF86C90F068082810
S3150FE1207042D2002101200191009000F086F80899E3
S3150FE120808842EED198F803000006B0F1407F3FF4A5
S3150FE12090F1AD1220387141F20900E2E7DDF86C90FB
S3150FE120A0B368F068984227D201210191009100F0BF
S3150FE120B062F808998842D4D11C220AA909F10800CD
S3150FE120C000F0B4F899F8000040F0010089F800003B
S3150FE120D009F10800FFF7F8F90028E1D141F20C0008
S3150FE120E0BFE71B9CEDE5DDF86C9053E6DDF86C90F0
S3150FE120F0F1681029FFF46FAFCDF86C90ABE71B9445
S3150FE12100D9E4099CF6E641F20100AAE70994387889
S3150FE121108106A0D5002C1CBFE268002A9BD0294678
S3150FE121205046904700289CD195E70000F70A0AF739
S3150FE12130FC0404FCEB17A603EB17A65EF40A0AF4FC
S3150FE12140F50909F5F60808F6F70909F7F90707F9A1
S3150FE12150FA0606FAFD0303FDFE0101FEAD1007B017
S3150FE121602800E10FE320BBDE05A95046FFF785BB4B
S3150FE121700190009004230AAA05A95046FFF784BBF4
S3150FE1218003AA05A95046FFF7E2BB08230AAA05A948
S3150FE121905046FFF779BB10B5B1F5BE7F044602D2C3
S3150FE121A040F2052010BD4FF4BE7100F02BF8002070
S3150FE121B0607004F5807204F1B80104F12800BDE8FE
S3150FE121C010400023FFF716BC1CB5009104462146CB
S3150FE121D004F12800FFF74AFC00281CBF41F2070172
S3150FE121E08842C4F878010BD1A07838B1E07810B104
S3150FE121F040F2032016BD40F2022016BD40F2012047
S3150FE1220016BDFEE7002200F089BAFEE762B38B073F
S3150FE1221008D0521E11F8013B00F8013B00F0248073
S3150FE122208B07F6D1830740F0208000BF103A07D322
S3150FE1223030B4B1E83810103AA0E83810F9D230BC12
S3150FE12240530724BFB1E80810A0E8081044BF51F8BE
S3150FE12250043B40F8043BD20724BF31F8022B20F8A8
S3150FE12260022B44BF0B7803707047083A07D3B1E8E6
S3150FE122700810083A40F8043B40F804CBF7D253076D
S3150FE12280E4E7FEE710B53B4C41F67131A1632268F5
S3150FE1229052085200226000F00CFB226852080146F8
S3150FE122A0520022600020A063481E8041C00F10BD7E
S3150FE122B038B58308800705D54FF6FF7242EA01422A
S3150FE122C0009204E041F07F4141F47F01009141F634
S3150FE122D07130284CA063042225686D086D002560D6
S3150FE122E06946980000F028FB2268520852002260E6
S3150FE122F00021A16332BD2DE9F0410546884614461A
S3150FE1230005F0010104F00100014330D16CB3AA07D6
S3150FE1231007D538F8021B2846FFF7CAFF38BBAD1CB5
S3150FE12320A41E042C1AD3134E41F67130B063A708DD
S3150FE123303168490849003160BF003A4641462846AF
S3150FE1234000F0FAFA3168490849003160002279084C
S3150FE12350B26308EB41087D19E41B40B92CB1B8F81B
S3150FE1236000102846FFF7A4FF08B9012000E000207E
S3150FE12370BDE8F081080000404FF4017000F0FCB8B1
S3150FE1238080B53A49012008603948026842F00102F6
S3150FE123900260016B41F00801016336490A6842F4B4
S3150FE123A080520A60016B21F0080101634021026846
S3150FE123B05208520002603048C16002685103FCD4F2
S3150FE123C000F0C4FA00F0D3F8FEF7ACFE48B940F2DC
S3150FE123D0012000F0D1F84FF4017000F0CDF80020A4
S3150FE123E002BD264901E00099491E00910099012994
S3150FE123F0F9DA40F205429042EDD140F20320ECE7E3
S3150FE1240038B51F480168012401254A050CD500F0AE
S3150FE12410D5F840F20221401A04D0C01E02D0C01EE8
S3150FE12420012801D8002400250420016811F1010FCC
S3150FE1243006D1BDE832404FF4027000F091B831BDDC
S3150FE1244025B10020FFF7A6F80400F2D0002CF6D054
S3150FE124500C490020086000221046016881F30888C4
S3150FE1246081F3098840688746FEE700004400004093
S3150FE12470B0400E403440054004300E4000350C00AC
S3150FE1248004500E4008ED00E00020704730B50A4BCE
S3150FE124901C6844F480741C600125084B1D609A602A
S3150FE124A05D6002E010F8014B9C610A46511E002A5D
S3150FE124B0F8D1D86930BD00BFB0400E4000C0014031
S3150FE124C010B5044600F002FB2046BDE8104000219E
S3150FE124D000F02CBB00F02CBB014600F02ABBFEE757
S3150FE124E02DE9F84106000D4618BF002DA1B014469F
S3150FE124F0984606D0002C18BFB8F1000F01D0289FDF
S3150FE1250017B940F2016023E00121134800F078FB8F
S3150FE12510402111A8FFF776FE414611A800F073FEA0
S3150FE12520394619A800F06FFE01A84021FFF76AFEB0
S3150FE12530294601A800F067FE214609A800F063FECF
S3150FE1254001A8009011AB20223146044800F06AFE43
S3150FE1255022B0BDE8F081000000150A0000000F402F
S3150FE125604FF0005108804FF20F00488070470F4936
S3150FE125704CF23C30088070474FF0005108804FF223
S3150FE125800F0048800A48016821F4E06141F4806157
S3150FE125900160BFF34F8F074907480A6802F4E0620B
S3150FE125A002430A60BFF34F8F00BFFDE70200002031
S3150FE125B000500E400CED00E00400FA054FF000511B
S3150FE125C04FF20F024888904201D1088870470028E0
S3150FE125D004BF0888012802D140F2022070474FF468
S3150FE125E00070704762F30F2262F31F42401810F03A
S3150FE125F0030308D0C91A1FD3DB0748BF00F8012D23
S3150FE1260028BF20F8022D130030B4144615461039B1
S3150FE1261028BF20E93C00FAD8490728BF20E90C007A
S3150FE1262048BF40F8042D890028BF20F8022D48BF86
S3150FE1263000F8012D30BC7047C91818BF00F8012DFD
S3150FE12640CB0728BF00F8012D70472DE9F843089D08
S3150FE12650099F80460E4691461C4600F0DFFF3A463B
S3150FE126602946404600F0E0FF08F124000021016011
S3150FE1267006750C22494608F13900FFF7C7FD08F147
S3150FE126804500210C220A847001704270BDE8F18386
S3150FE126903EB5029201911C4600F12805009500F125
S3150FE126A0380300F12402214600F0E2FF37BD002096
S3150FE126B0704700207047FEE70300002013F0030F79
S3150FE126C009D0521E22BF13F8010B11F801CBB0EB63
S3150FE126D00C00F3D07047121F22BF53F8040B51F8C9
S3150FE126E004CB6045F7D0121D0AD200BA9CFA8CFCD6
S3150FE126F0B0EB0C0038BF6FF0000088BF01207047C8
S3150FE12700521E22BF13F8010B11F801CBB0EB0C00EF
S3150FE12710F6D0521C08BF10467047FEE700B500BF62
S3150FE12720130096469446103928BFA0E80C50FAD804
S3150FE127305FEA417C28BF0CC048BF40F8042BC907AC
S3150FE1274028BF20F8022B48BF00F8012B00BDFEE79A
S3150FE1275010B5DFF8F011DFF8F02101E021B1491EE4
S3150FE127601369DC07FAD411B96FF0020010BD50609E
S3150FE12770012010601169480702D54FF0FF3010BDF7
S3150FE12780002010BD2DE9F041044610460B4600220C
S3150FE12790002B43D06FF001056FF00208DFF8A411AB
S3150FE127A0DFF8A471A8B994469C4537D254F8040BC7
S3150FE127B0F8600CF1010C08203860084601E080B39F
S3150FE127C0401E3E69F607FAD458B338698007EBD550
S3150FE127D023E0EFF3108072B694460FE03E6906F000
S3150FE127E01906102E08BF3E603E693607F6D554F836
S3150FE127F0046BFE600CF1010C10263E609C45F3D391
S3150FE1280018B962B601E021B1491E3869C307FAD496
S3150FE1281001B942463869810700D52A461046BDE817
S3150FE12820F0814246FAE72DE9F84F454CA56BADB27B
S3150FE1283005B1012541F67136A6634FEA92083F4E7F
S3150FE1284037683668266846F0010626604FF00009BC
S3150FE1285006468A469B46002013E0C7F30B07C7F5EA
S3150FE128608057BF08A8EB0900B84238BF07465A465A
S3150FE1287039465046FFF786FF010010D1B9440AEBFE
S3150FE12880870AC1450BD206EB89073846FFF760FF8A
S3150FE128900100E2D0216849084900216003E022687E
S3150FE128A0520852002260EDB20DB10021A163BDE8DD
S3150FE128B0F28F70B5224B23490246986B80B200B175
S3150FE128C0012041F671349C631C4C256824681E680F
S3150FE128D046F001061E609A6001225A605C69620742
S3150FE128E004D500F021F84FF0FF3070BD02225A6097
S3150FE128F05A69D40710D5002918BF491EF8D10BE044
S3150FE129000029196804D100F010F86FF0020070BDCC
S3150FE1291000F00BF8002070BD5A699407F0D500F06E
S3150FE1292003F86FF0010070BD196849084900196095
S3150FE1293008B1002098637047002374E704300E4016
S3150FE1294008000040809698000C000040FEF7B4BEE8
S3150FE12950FEF708BF2DE9F84F022883461FD814006A
S3150FE1296055D00B9AD2F800C0BCF13F0F984618D854
S3150FE129705068002818BF5FEA080A13D1BBF1000FB0
S3150FE1298004D0BBF1020F07D003D308E00FF2B01A60
S3150FE1299008E00FF2CC1A05E00FF2E41A02E04A481A
S3150FE129A036E0C2460CF03F06A444A445C6F1400505
S3150FE129B0C2F800C002D25068401C506089460A9F97
S3150FE129C08EB1AC420FD32A46B819FFF71FFC01208F
S3150FE129D0009043463A465146584600F00EFFC2462E
S3150FE129E0A944641B00263F2C0BD9A5090095434644
S3150FE129F04A465146584600F000FF09EB8519A4EB0C
S3150FE12A00851424B122464946B819FFF7FFFB00208A
S3150FE12A10BDE8F28F2DE9F8430446200086B08846DB
S3150FE12A2016461F4603D0022C30D02DD330E01425A5
S3150FE12A30002100200DF1080C4242920057F8203098
S3150FE12A40D21D01EBC3010CF8021002A9114457F88C
S3150FE12A502020C91E52098A7057F82020520B4A705E
S3150FE12A6057F82020520D0A7057F82010490F401CD5
S3150FE12A700128E1D93A7802F03F02382A34BFC2F190
S3150FE12A803802C2F1780205E01C25D1E72025CFE710
S3150FE12A900D4816E0DDF8389041A1019700964346BF
S3150FE12AA02046FFF757FF019700964346082202A9F2
S3150FE12AB02046FFF74FFF2A4641464846FFF7A6FB5A
S3150FE12AC0002007B0BDE8F08380AFFFFF00281CBFF1
S3150FE12AD06C21FFF797BB704700220029CCBF01217C
S3150FE12AE000210262426280F86810002070473EB50D
S3150FE12AF0034603F1200493F86800002803F1280543
S3150FE12B0014BF0120022001940095FFF723FF3EBD7C
S3150FE12B101CB590F868200091002A14BF0124022405
S3150FE12B2000F008F82046FFF775FF16BDD4E7000061
S3150FE12B30DDE7EDE700F1200300F1280201467047DA
S3150FE12B4067452301EFCDAB8998BADCFE1032547697
S3150FE12B50C3D2E1F000000000000000000000000019
S3150FE12B60C1059ED8367CD5073070DD17F70E59397A
S3150FE12B70FFC00B316858151164F98FA7BEFA4FA440
S3150FE12B806A09E667BB67AE853C6EF372A54FF53A08
S3150FE12B90510E527F9B05688C1F83D9AB5BE0CD1934
S3150FE12BA080000000000000000000000000000000AF
S3150FE12BB0000000000000000000000000000000001F
S3150FE12BC0000000000000000000000000000000000F
S3150FE12BD000000000000000000000000000000000FF
S3150FE12BE0890001EB401101F184410A607047DFF87A
S3150FE12BF0A0104A68D30702D40A680242FCD1704793
S3150FE12C0070B502460C460020491E8941160A06F0A8
S3150FE12C100F06761E0E2EDFF87C50DFF87C3016D8C5
S3150FE12C20DFE806F0081615150A1A1D202432282C9E
S3150FE12C3015182F00DFF85450C2F3043608B1FFF729
S3150FE12C40D6FF224631462846BDE87040C8E770BD3B
S3150FE12C501035F1E71435EFE730350120ECE738357C
S3150FE12C601020E9E73C354FF48070E5E740354FF446
S3150FE12C708030E1E703F11005CC0FDDE703F1140531
S3150FE12C80FAE7DFF81850D7E71D46D5E700400E40C3
S3150FE12C9040410E40B0400E4050410E40F0410E40D3
S3150FE12CA010B50A684B688C68C968026003600460F6
S3150FE12CB0016010BD10B502680368046800680A6018
S3150FE12CC08C604B60C86010BD38B504460D46FFF702
S3150FE12CD0E7FF05F110012046BDE83440E0E738B5DE
S3150FE12CE004460D46FFF7E6FF05F110012046BDE864
S3150FE12CF03440DFE7082250F8041B21B9521EFAD1FE
S3150FE12D000020C0B270471000FBD00120F9E7F8B5FB
S3150FE12D1000F065F90746294604F58470FFF7D4FFFD
S3150FE12D20314604F58670FFF7CFFF384600F000FE17
S3150FE12D30DFF8DC062065012161656069000E00F0B0
S3150FE12D40010080F00100F2BD2DE9F84F88B004468D
S3150FE12D500D4692461E4600F0EEFD834604F5827758
S3150FE12D6005F1400100F035F904F58678514600F09A
S3150FE12D7029F904F588790AF120014846FFF7A4FFFE
S3150FE12D8000F022F900F038FAA065E16504F5847ADE
S3150FE12D9000F0D1FD8346294600F01BF905F120012C
S3150FE12DA05046FFF791FF05F140014846FFF78CFFCB
S3150FE12DB000F00AF9DFF85C06DFF85C16206561655D
S3150FE12DC00120A06504F5807900F0B5FD834606F193
S3150FE12DD040014846FFF783FF69465046FFF77FFFFD
S3150FE12DE000F0F2F800F0A7FD834600F0EAF800F0F4
S3150FE12DF0EBF8DFF82806DFF8281620656165012173
S3150FE12E00DFF8200600F0E7F8804600F0E0F800F082
S3150FE12E102BF9DFF81406DFF8141600F021F8054652
S3150FE12E2031465046FFF75BFF284600F081FD00F083
S3150FE12E3082FD054669463846FFF746FF284600F00C
S3150FE12E4077FDDFF8EC05DFF8EC1500F009F804463D
S3150FE12E5000F0B3F8204600F06BFD09B0BDE8F08F46
S3150FE12E60206561650120A06500F065BD2DE9F84F8C
S3150FE12E7098B000F0B4F8804604F5827700F0A7F831
S3150FE12E8000F0F2F8DFF8B005DFF8B01520656165FF
S3150FE12E9004F58078DFF8A805FFF7E5FF814608A975
S3150FE12EA04046FFF71CFF484600F042FD00F043FDA8
S3150FE12EB0814600F086F8484600F03AFDDFF88405D2
S3150FE12EC0DFF88415206561654FF48670A06504F51A
S3150FE12ED0867900F030FD824610A94846FFF7FFFEDE
S3150FE12EE069464046FFF7FBFE504600F021FD00F034
S3150FE12EF022FD824605F1400100F06BF8504600F0E5
S3150FE12F0017FDDFF8480520650121616504F5847A2F
S3150FE12F1000F011FD834600F0C1FA00F055F8DFF835
S3150FE12F203005DFF83015206561650121DFF82805E9
S3150FE12F3000F051F8834669465046FFF7C5FE10A9E2
S3150FE12F404846FFF7C1FE00F03FF8DFF81005DFF85E
S3150FE12F50101520656165DFF80C05FFF784FF8346E1
S3150FE12F60314604F58870FFF7BAFE00F02DF800F050
S3150FE12F70E2FC834600F02BF805F140015046FFF7DE
S3150FE12F80A3FE08A94846FFF79FFE00F01DF8DFF8FC
S3150FE12F90D804DFF8D8142065616500F0CCFC04464F
S3150FE12FA006F140014046FFF79AFE00F006F820468B
S3150FE12FB000F0BEFC19B0BDE8F08F06F120014846DE
S3150FE12FC08DE6294640467FE6584600F0B1BC05F14D
S3150FE12FD02001384678E6A065E16500F0ACBC044611
S3150FE12FE00D46164600F0A7BC2DE9F04105460E4603
S3150FE12FF01C46174620212046FFF704F901222260DD
S3150FE1300000F099FC8046394605F58070FFF75CFEC6
S3150FE13010314605F58270FFF757FE05F584762146B1
S3150FE130203046FFF751FE00F01FF8DFF8440428653C
S3150FE130300BE0DFF84014DFF8400429656865DFF837
S3150FE130403C14DFF83C04A965E8656869C101F0D570
S3150FE1305000F071FC054621463046FFF740FE284653
S3150FE13060BDE8F04100F064BC404600F061BC50F8A9
S3150FE13070043B934203D007E050F8042B22B9091F12
S3150FE130800129F9DA01207047002070472DE9F04157
S3150FE1309088B004460D461646984620216846FFF746
S3150FE130A0B1F80122009220214046FFF7ABF820212B
S3150FE130B008F12000FFF7A6F8202108F14000FFF7FD
S3150FE130C0A1F80521204600F055FC00202060206381
S3150FE130D06063FF2700F040F802D47F1E002FF9DC72
S3150FE130E0002F36D4424641462046FFF7BFFE00F099
S3150FE130F033F82CD5002220214046FFF7B8FF00B365
S3150FE131000022202108F12000FFF7B1FFC8B100220C
S3150FE13110202108F14000FFF7AAFF90B120222946AE
S3150FE131204046FFF783F8202205F1200108F1200040
S3150FE13130FFF77CF82022694608F14000FFF776F8A1
S3150FE1314005E043462A4641462046FFF7FDFD7F1E31
S3150FE13150C6E708B0BDE8F081381107EBD060401142
S3150FE1316056F82010A7EB4010C140CA0770472DE96A
S3150FE13170F0410F4690B004461546052100F0FAFBE3
S3150FE131800022226022636263684620220FF2203119
S3150FE13190FFF74CF808AB6A4607F140012046FFF707
S3150FE131A023FF00F0C8FB804608A904F58270FFF7FC
S3150FE131B08BFD04F5867639463046FFF785FD07F137
S3150FE131C0200104F58870FFF77FFDFFF74DFF00F053
S3150FE131D013F8FFF700FF074605F1200104F58070AC
S3150FE131E0FFF77DFD29463046FFF779FD384600F0BA
S3150FE131F09FFB10B0BDE8F0818F48A249206561655C
S3150FE132000121A148704738B50D4604462021FEF746
S3150FE13210F9FFFFE71F204242295C2244401ED17786
S3150FE13220F9D531BD2DE9F04FB9B007460C46164633
S3150FE132301D4621A86021FEF7E5FF09A86021FEF7EB
S3150FE13240E1FF3CB1009528001CBF429D002D01D046
S3150FE13250002E02DC40F20160D5E0002038603863D1
S3150FE1326078630C2178680FF23C2840F01000786003
S3150FE13270384600F07FFB786820F4406040F4006048
S3150FE1328078602022786820F4407040F4007078600E
S3150FE1329008F12C0111A8FEF7C9FF11AA29463846F4
S3150FE132A0FFF735FD78B92846FFF724FD58B111AA86
S3150FE132B005F120013846FFF72AFD20B905F1200077
S3150FE132C0FFF718FD10B940F202609CE0202EC8BF4F
S3150FE132D02026202119A8FEF795FF002014E0321AC7
S3150FE132E0521E09A99208A6F1010E01EB8201AEEB7E
S3150FE132F0000E235C0A6C4FEACE0E0EF0180E03FA9F
S3150FE133000EF31A430A64401CB042E8DB00F013FBEC
S3150FE13310064607F5847419A92046FFF7D5FC304612
S3150FE1332000F006FB5948386507F5807600F003FB98
S3150FE13330814619A93046FFF7D2FC484600F0F8FA64
S3150FE1334001AB11AA05F120013846FFF74DFE00F05A
S3150FE13350F2FA834601A907F58270FFF7B5FC07F587
S3150FE13360887919A94846FFF7AFFC07F5867A00F089
S3150FE1337095F8FFF729FE464846493865796500F025
S3150FE13380DAFA834619A94846FFF7A9FC01A930469F
S3150FE13390FFF7A5FCFFF718FE21AB19AA08F14C01BF
S3150FE133A03846FFF773FE009909AB01AA3846FFF7D6
S3150FE133B06DFE21AA21A93846FFF7D9FE09AB21AA4D
S3150FE133C009A93846FFF7C0FC09AA09A93846FFF74C
S3150FE133D0CEFE00F0B0FA06460C21384600F0CAFAE6
S3150FE133E009A92046FFF770FC00F058F8304600F0C7
S3150FE133F09FFA29482249386579657869C1014CBF39
S3150FE13400002040F2046039B0BDE8F08F0000000003
S3150FE134103035DA10D01482CB1481E11C8CE11C819A
S3150FE134201C84D91C8391D11CE014D8141482E11C9D
S3150FE1343084D31482D11CE0148AD11C81821CC00C66
S3150FE134400C0C0100C00C0C83D91C83D88AD11C83C8
S3150FE13450DA0C811482D11C81C80C0C818CE11CD051
S3150FE134601484E31482D11C01D81483D11CC00C013E
S3150FE1347039398401D02484FC1C82FED88B1C81A0AF
S3150FE1348039380100D91C83D11C81E11C30D00C01E4
S3150FE1349030E11C8430D91C013035DA142946504607
S3150FE134A0FFF712BC2000000000010000050C000030
S3150FE134B0FFFFFFFFFFFFFFFFFFFFFFFF0000000022
S3150FE134C0000000000000000001000000FFFFFFFF09
S3150FE134D0512563FCC2CAB9F3849E17A7ADFAE6BCC0
S3150FE134E0FFFFFFFFFFFFFFFF00000000FFFFFFFFF2
S3150FE134F096C298D84539A1F4A033EB2D817D037798
S3150FE13500F240A463E5E6BCF847422CE1F2D1176B32
S3150FE13510F551BF376840B6CBCE5E316B5733CE2B05
S3150FE13520169E0F7C4AEBE78E9B7F1AFEE242E34F34
S3150FE13530890001EB401101F184410A60704710B532
S3150FE135400A684B688C68C9680260036004600160B1
S3150FE1355010BDF4E710B502680368046800680A60F5
S3150FE135608C604B60C86010BD38B5102A04460D4615
S3150FE135700DD101220021FFF7DBFF04F588742946FF
S3150FE135802046FFF7DCFF05F11001204606E0002299
S3150FE135900021FFF7CDFF294604F12400BDE83440B1
S3150FE135A0CDE71FB50C4614F0030108D06946FFF7C6
S3150FE135B0D1FF102269462046FEF728FE1FBD2146A0
S3150FE135C0FFF7C8FF1FBD1FB5044611F0030008D072
S3150FE135D010226846FEF71AFE69462046FFF7B9FF45
S3150FE135E01FBD2046FFF7B5FF1FBD38B5044611F0E5
S3150FE135F0030088B015460CD0082D0CBF10222022EF
S3150FE136006846FEF703FE2A4669462046FFF7ACFFFA
S3150FE1361002E02046FFF7A8FF09B030BD00281CBF26
S3150FE136202421FEF7EFBD704770B505000C4618BFB4
S3150FE13630002C164602D16FF0210070BD2421FEF752
S3150FE13640E1FD802E18BFB6F5807F02D06FF0220024
S3150FE1365070BD2E60F2082146281DFEF7D7FD00202A
S3150FE1366070BD594605F180009BE7484600F060B909
S3150FE136702DE9F64F83B0002A14BF14680024002702
S3150FE13680009000281CBF0F9E002E09D0DDF8408068
S3150FE13690B8F1000F1CBF0193002B01D00E9810B9A2
S3150FE136A06FF0210075E0009800680291802818BF3D
S3150FE136B0B0F5807F04D06FF022006AE000F06CF87D
S3150FE136C00298874261D2002CF8D100F06EF90546D7
S3150FE136D0002068604FF4404129604FF0000A00F086
S3150FE136E02AF981460098016880290CBF0822102229
S3150FE136F0011D2846FFF779FF019905F18400FFF7D0
S3150FE1370062FFFFF7B2FF0298A0EB070913E000F0A3
S3150FE137104EF80AF1010A00F00EF98346F11905F1A7
S3150FE13720A000FFF750FF08EB0701FFF79BFF584695
S3150FE1373000F0FEF81037BAEB191F15D24820A86032
S3150FE137400521A960E3E76CB94820A8600521A960C6
S3150FE1375000F02DF800F0EFF881460E99FFF782FFA2
S3150FE13760FFF783FF00F018F80298C01BEBD100F0CA
S3150FE13770E2F88146019905F18400FFF712FFFFF7A1
S3150FE1378074FF284600F01AF99AE7049800B104602D
S3150FE13790002005B0BDE8F08F0E9AF15D105D414056
S3150FE137A008F80710641C04F00F047F1C70472869A2
S3150FE137B08107FCD40320A8607047FEE710B50A68BD
S3150FE137C04B688C68C968026003600460016010BDD4
S3150FE137D010B502680368046800680A608C604B6084
S3150FE137E0C86010BD38B504460D46FFF7F1FF05F188
S3150FE137F010012046BDE83440EAE72DE9F84F98B0CD
S3150FE1380006460C4690469A4600F0CFF805461EB19D
S3150FE13810022E52D051D352E0002028600021696078
S3150FE138200020E864696821F4406169602863686390
S3150FE1383054F8201009BA4DF82010401C0828F7D388
S3150FE1384000F079F8044605F5827669463046FFF7CA
S3150FE13850B5FF04A93046FFF7B1FF204600F068F83F
S3150FE138602F4828650027229C05F5D276A74242D23A
S3150FE1387018F0030008EB871906D04022494608A83D
S3150FE13880FEF7C4FC0DF1200900F055F883464946D1
S3150FE1389000F04CF809F1100100F048F809F12001A8
S3150FE138A000F044F809F1300100F040F8584600F015
S3150FE138B03FF81C4828657F1CD8E70420ADE71A4876
S3150FE138C016E000F038F8044651463046FFF78AFF16
S3150FE138D0204600F02DF8284600F070F800205AF83F
S3150FE138E0201009BA4AF82010401C0828F7D3002007
S3150FE138F019B0BDE8F08F1AF0030005F58076E0D038
S3150FE1390000F019F8044669463046FFF76BFF20468B
S3150FE1391000F00EF8202269465046FEF777FCDAE70B
S3150FE13920888AC801070D810180AFFFFF304645E761
S3150FE1393000B962B67047EFF3108072B67047002296
S3150FE1394002604FF0FF33012202E040F82230521CB1
S3150FE139508A42FAD3002070470068002818BF10F199
S3150FE13960010F02D040F2045070470020704740F239
S3150FE139700250704742685209042941EA42120AD9B4
S3150FE13980491F022905D9C91E032904D9091F02298D
S3150FE1399002D842F01002426070470000890001EB45
S3150FE139A0401101F184410A60704780B5FFE70122BA
S3150FE139B001210648FFF7F2FF054802BD0449884297
S3150FE139C003D1002201210148E8E77047B0400E40DC
S3150FE139D000000F400449054808600548026842F4B3
S3150FE139E0700202607047000008ED00E00010E10F81
S3150FE139F088ED00E04EF68851CEF20001086840F4FA
S3150FE13A0070000860BFF34F8FBFF36F8F4FF00070F9
S3150FE13A10E1EE100A7047000000F00DF8002801D022
S3150FE13A20AFF30080AFF300800020AFF30080FEF725
S3150FE13A30A7FC00F002F80120704700F001B8000082
S3150FE13A400746384600F002F8FBE70000202109039C
S3150FE13A5026311820ABBEF9E780B5FFF7BBFFFEF7BE
S3150FE13A60CFFCBDE8014000F000B8AFF30080FFF7EF
S3110FE13A70C1FFFFF7D1FF000000000000CE
S503030DEC
S70500000000FA
