S01E0000786E63702D636F6D6D736875622D756172742D6475616C2E733337D6
S31500004000905800209533030059970000812F030034
S31500004010A70A0A010041000004180CAC10666100F2
S31500004020000000000000000000000000000000008A
S3150000403000000000543903000000000000000000EA
S315000040400000000000000000FFFFFFFFFFFFFFFF72
S31500004050FFFFFFFF00E0030000000000000000007B
S31500004060FFFFFFFFFFFFFFFF100000000000000042
S31500004070000000000000000000000000000000003A
S315000040800000000000000000247D0020247D0020A8
S3150000409090580020C7550300AE330300304F002070
S311000040A078120020000004000000000060
S31500004100905800209533030059970000812F030033
S31500004110892F0300852F03008D2F03000000000068
S315000041200000000000000000000000005B4C0000E2
S31500004130912F03003B47000003830000D3B000002B
S31500004140FDFB000031B902003D470000A5B40200A6
S315000041506DB9020037B9020039B9020033B902005D
S31500004160F9BE010081C10100F14B010009B6000052
S31500004170992F0300992F03006F310300992F030035
S31500004180992F03008FC10100992F0300992F030077
S31500004190992F0300992F0300992F0300992F0300ED
S315000041A0992F0300992F0300992F03006FB902007E
S315000041B035B90200ABF900009FB90200992F030040
S315000041C0F9320300992F0300104210B58C498C4A2E
S315000041D001E021B1491E1369DC07FAD411B96FF069
S315000041E0020010BD5060012010601169480702D519
S315000041F04FF0FF3010BD002010BD2DE9F041044600
S3150000420010460B460022002B41D06FF001053010FE
S3150000421024087A497B4FA8B994469C4537D254F86E
S31500004220040BF8600CF1010C08203860084601E028
S3150000423080B3401E3E69F65E102458B33869800785
S31500004240EBD523E0EFF3108072B694460FE03E699B
S3150000425006F01906102E08BF3E603E693607F6D5F1
S3150000426042336BFE42400A10263E609C45F3D3184B
S31500004270B962B6A610013869C348100901B94246A9
S315000042803869810700D52A8E1065BDE8F08142465F
S31500004290FAE72DE9F24F5A4CA16B834600208DB206
S315000042A005B1012541F67131A1634FEA92082768ED
S315000042B047F0010727608146DDF800A01F4613E09E
S315000042C0C6F30A06C6F50066B608A8EB0900B042B2
S315000042D038BF06463A4631465046FFF78BFF010087
S315000042E00CD1B1440AEB860AC14507D20BEB89060D
S315000042F03018126718100FE2D00FE00099DBF800B3
S31500004300200B689A4209D05818125B18102E04D157
S3150000431000983A460121FFF76CFF216849084900D9
S315000043202160EDB20DB10021A163BDE8F28F30B579
S31500004330334B30490246986B80B200B101209C1481
S3150000434004349C631D68454424101D609A60012254
S315000043505A605C69620704D500F021F874100130D8
S31500004360BD021410125A69D40710D5002918BF4986
S315000043701EF8D10BE0002919686C2401F010F8AA88
S31500004380100330BD00F00B8C100530BD5A69940740
S31500004390F03C12031812011832198410161960081D
S315000043A0B100209863704700236EE71248816B893D
S315000043B0B201B101217E102F32826346F21A320316
S315000043C06843F001030360C2644FF48073436042A4
S315000043D069D307FCD40022C264C9B203685B085BD8
S315000043E000036001B182630020441101100780962A
S315000043F098000C000E4008041421014800F004B88F
S31500004400B033030042DE704738B504460D4600F06F
S3150000441059F900F0D0F900F0F1F92946204600F0EC
S3150000442018FA2B4622466D49012000F0F5FB294675
S315000044302046BDE83440E5E769482DE9F843694E72
S315000044400168B1654FF42068026A6749F2650B6836
S31500004450336649687166426AB266816AF166C26A03
S315000044603267016B7167806B96F83810B067480742
S315000044704CBF346CF46B00F033FC0022326584428E
S31500004480DFF868E1014624BFAEF12007A742A14646
S31500004490716506F19002564BDFF858C118D3A06932
S315000044A07064E469B464B56DC5F30805062D13D1CF
S315000044B0604511D398420FD200884DF64264A0425F
S315000044C00AD17068B4685060946040F2017803E0E5
S315000044D000247464B46481464748814238BF01466B
S315000044E0084670456AD20C68B4F1CD3F08BF091D75
S315000044F0F6D063E0062C09D1C4B2002C0CBF05200F
S31500004500401E06F17C04C5B244F82510F14520D2C0
S315000045105EF8041D6145F9D39942F7D2CC07F5D56B
S31500004520002406F17C0555F824708F42E2D0641C05
S31500004530062CF8D3DEE7F16F002306F17C0506EBC7
S315000045408304D4F8804045F823405B1C042BF6D93D
S3150000455011600146481EC9B20029ECD1B06DC0F306
S315000045600800032810D0042811D0052812D00628E8
S3150000457013D00C2817D0122818D1204802689107AA
S3150000458019D540F2025816E040F6012813E040F62D
S31500004590022810E040F603280DE0B8F5206F0AD196
S315000045A040F6042807E040F6052804E018B1322852
S315000045B038BF40F607284046BDE8F2831049081A7E
S315000045C0F0640021002006F17C04C5B2401CC7B28D
S315000045D044F82510062FF8D3002097E7C0340300CF
S315000045E004ED00E00000002000E300E09058002009
S315000045F0AE330300F84300009C0000201C20054059
S315000046009058002001F035B800F07CBE00F076BE70
S3150000461010B5044601F05CF82046BDE8104000F0F5
S31500004620DDBE02F0BEBE10B5044602F00BFFFF2849
S3150000463004D12046BDE8104004F0C3B810BD10B543
S31500004640044604F011FF2046BDE8104002F06CBE9F
S3150000465004F083BC04F0A3BC10B5044604F065FC6A
S315000046602046BDE8104003F07CB910B5044604F0BE
S315000046707DFC2046BDE8104003F07CB904F06ABD1D
S3150000468004F0CEBC04F0D0BC04F015BB10B5044653
S3150000469004F0B0FB2046BDE8104003F023BD000047
S315000046A010B5044604F01FFD2046BDE8104003F097
S315000046B08ABA10B5044604F0BBFC2046BDE810409B
S315000046C003F01CBB80B504F01DFABDE8014003F001
S315000046D021BB80B504F0EDFABDE8014003F0B4BC9F
S315000046E080B503F0CDFEBDE8014003F0B2BD10B5C4
S315000046F0044603F064FE2046BDE8104003F0B0BD5A
S3150000470038B5044604F07DF80546204603F099FDC9
S31500004710854288BF0546284632BD03F0FFBF04F038
S3150000472001B838B5044603F003FF0546204602F0FB
S31500004730C5FFFFE705B9002032BD704705F00CB88C
S31500004740F8B5274C2748226884B001210392012737
S3150000475005F0B0F801220121012005F0A5FA042197
S31500004760072005F0E9FB204A92E868006946032223
S3150000477081E868000D218DF808108DF809208DF864
S3150000478000708DF807706946184D284605F050FCF4
S31500004790174904200860022216496A620860AA6A5C
S315000047A042F00202AA6203982168884201D0FFF70C
S315000047B023FE05B0F0BD0D4805F02EBCA52803D19B
S315000047C000210A4805F00FBC70470848006800F051
S315000047D001007047084908680028FCD170470000AE
S315000047E0D05A002000050A00543503000020054079
S315000047F080E200E000E100E008200540602080F350
S315000048001188704770B505F030FDDFF8D4422046B8
S3150000481006F02BF9E0B9204606F0F0F8FF2804462A
S3150000482016D0DFF8C0020168085D851EE9B2204691
S3150000483006F05BF80646E9B2204605F042FF21463F
S31500004840304600F0FDF82046BDE8704005F0CFBDCB
S3150000485070BD03460A46A0A10420FFE70CB41CB5B0
S31500004860A14C2368009304AA00F036F8009821684A
S31500004870884201D0FFF7C0FD13BC5DF80CFB0A00AF
S31500004880034602D095A11120E8E7704780B586B0AF
S3150000489006F052FB102204920021944A00926623ED
S315000048A005910393029101910246002393A10120F1
S315000048B0FFF7D4FF8E4881790288437903910292EB
S315000048C001930179C3788278009142208EA1FFF787
S315000048D0C5FF07B000BD00002DE9F84F0F4682491D
S315000048E0904686B00A680592054606F0C2FB00248B
S315000048F0F8B905F03BFCE0B1012005F00EFDFF28FC
S31500004900824616D0002105F003FD294601A805F0D0
S3150000491033FC002F054633D100F08BF830B95046F2
S3150000492005F098FC10B1042006F08BFB504605F00C
S315000049305EFD05986C490A68904275D176E08DF85F
S31500004940041001251BE0674858F8046B006810F84E
S315000049500A90F2B2FF2A12D0F1B210F801B00BEBB6
S315000049600901C9B2504605F0ACFE0028DED1CDF8EB
S3150000497000B00023F2B24946504605F0E6FF7F1C20
S3150000498038780028C8D0A0F130010A2904D20A21BB
S3150000499001FB0404303CF2E700F04BF80028C5D1D7
S315000049A039780025422901A80ED044291AD0462973
S315000049B025D057290DD06229C5D066292AD06C2961
S315000049C025D0702926D0BAE758F8040B8DF80400D4
S315000049D0B7E758F8041B8DF8041002250904090EE0
S315000049E04170CCE758F8041B8DF804100B0A0A0C2A
S315000049F0090E437082708DF807100425BFE758F83A
S31500004A00041B504605F011FE0028B8D08EE758F872
S31500004A10044BB4E758F8041BE2B2504605F003FE17
S31500004A20002808BF0024F0E7FFF7E6FC07B0BDE862
S31500004A30F08F2A4601A9504605F0F5BD000000009A
S31500004A402DE9F043122885B080460D4609D03A2854
S31500004A501ED04FF6FE71884204BF284606F03BFB87
S31500004A6033E02048234F01684E5D2846FF282CD0AE
S31500004A70212EB4BF3446202405F044FC01462246CC
S31500004A80002006F001FE3868455D203EF6B2ECE7F0
S31500004A9007F0BBF88146FFF7F5FD0646FFF73FFE38
S31500004AA00746FFF73AFE0446FFF7EAFD12490B8870
S31500004AB017A1029302460D480390CDF81090019677
S31500004AC0009723463B20FFF7C9FE2946404605B01E
S31500004AD0BDE8F04306F0F0BA574600006C700000DF
S31500004AE0C15F0020DC5B0020D05A0020F874002053
S31500004AF0243C0300E45B00208C5F002042423870B7
S31500004B00424242425742420042424242574200001B
S31500004B105742425757387042000000002DE9F043D3
S31500004B20494D04468BB0914628680A90012622001A
S31500004B3088461F4606D0012C1FD0102C02D0202CF0
S31500004B401BD02BE00021204606F0DCFD0646012C9A
S31500004B5018BF202C08D0022C18BF212C04D0032CFF
S31500004B601CBF222C232C19D1012FCDF80480ADF8BF
S31500004B700C9008D14FF4805009E06846334928224A
S31500004B8007F020F9E3E7022F03D14FF44050ADF8C8
S31500004B900A006946204606F0B5FD06460A982968C9
S31500004BA0884208BFF0B201D0FFF726FC0BB0BDE883
S31500004BB0F08380B506F066FEC0B202BD80B506F091
S31500004BC0C9FEC0B202BD2DE9F84380460F46144621
S31500004BD01D461F4E02E03068C75D203CE0B220282B
S31500004BE0F9DAE8B2B0B1C4F120005FFA85F9C0B2D3
S31500004BF0814588BF8146384605F084FBE4B2011939
S31500004C004A464046FFF7DAFF3068C75DA5EB09055F
S31500004C100024E6E7BDE8F2830CB438B50A4C2568F3
S31500004C2000950A46014604AB0A4807F089F9009840
S31500004C302168884208BF002001D0FFF7DDFB32BCA7
S31500004C405DF80CFB00000000D05A0020443403003D
S31500004C50E45B00201FBA00007047FEE7890001EB05
S31500004C60401101F184410A607047000010B5044606
S31500004C70FFF7C4FD1F484AF6E8510160C162016BA7
S31500004C8001F00F01022913D11B4A01211160806B2B
S31500004C9000F00300012818BF022809D100221C21B8
S31500004CA01648FFF7DBFF002200211548FFF7D6FF65
S31500004CB0200A0028134808BF24024FF20F0104807F
S31500004CC04180BFF35F8FBFF34F8F0F490F480A68CC
S31500004CD002F4E06202430A60BFF34F8F00BFFDE7B4
S31500004CE00B48006870470A48006820387047094832
S31500004CF07047000008300E404040084060300E40CB
S31500004D0074300E40000000200CED00E00400FA05AF
S31500004D10085E0020A000002080B507F028FADFF822
S31500004D2058291178484302BD80B5DFF85019096A41
S31500004D3005280BD8DFE800F00306060808086FF020
S31500004D40004002BD086902BDC86802BDE52100F049
S31500004D50F9F8002002BD10B50146DFF82009026A05
S31500004D60106993685468D2688842B4BF0120002055
S31500004D708B42B4BF022300238C42B4BF0424002418
S31500004D808A42B4BF08210021181820180818401CB0
S31500004D90C0B210BDF8B5DFF8E458DFF8E4682C6A55
S31500004DA0002C1ABF30780028002706D061696A7A7D
S31500004DB088188130FFF7CFFF0746287AB84214D00B
S31500004DC001226A74002C1ABF94F86400401E02F097
S31500004DD0DBFA2A7A31783B46C0B207F0DFFA0021C7
S31500004DE069742F720628B8BF307002F0A0FDA0B11A
S31500004DF0287A002450B1286A4169687A0F183078F9
S31500004E00FFF792FFFF1DB842B8BF0124E97A20469A
S31500004E10884202D003F04BF9EC72F1BD2DE9F84F50
S31500004E20DFF85858AC7A064689460CB10020A872BD
S31500004E30286A10B96FF0004082E0FFF76DFFDFF8D7
S31500004E4044182B6ADFF83C28B0FBF1F801FB08F8A0
S31500004E509969A8EB0100B0FBF2F04FF00D0CB8FB1E
S31500004E60F2F2E646B2FBFEFE0CFB1E2E0D2877463E
S31500004E7008D3002058613422002103F11C0007F0FA
S31500004E80A6FB28E038B3DFF8FC77B1FBF7F1E24682
S31500004E90B1FBFAFA0CFB1A1C03F11C020CF1010C13
S31500004EA05FFA8CF10D2908BF4FF0000C5FFA8CF108
S31500004EB05F6952F821B0A7EB0B075F61002742F844
S31500004EC02170401EEAD16746F8B2704503D04FF410
S31500004ED0AA7100F037F8687A002E02DD801C861968
S31500004EE002E044BF361AB61E07F089FB95F80CA0FF
S31500004EF000212973FFB207F088FB687AC01D10FBFA
S31500004F000A66286A4169361B7118416100F11C0264
S31500004F1000F11C0352F82710761843F82760C0F8F2
S31500004F201880FFF737FFB9F1060F04BFDFF8500707
S31500004F3090F800904846FFF7F7FE2A6A5169401A32
S31500004F40BDE8F28F0FF27470FFF75EBA2DE9F041FB
S31500004F50804602F019FADFF82447074604F13405C3
S31500004F6004F13406002195F86400421EBA4215D0B9
S31500004F70002904BF00282946A869B269904238BFB3
S31500004F802E46683504F582708542ECD309B10D468C
S31500004F9004E06822304607F01AFB3546B8F1000FE8
S31500004FA005F1500602D1307D00285FD131463846E2
S31500004FB002F056FA002853D17F1C3775608808B96D
S31500004FC096216180DFF8B036B17B5878DFF8B826D5
S31500004FD04143B2FBF1F02860E08840B9307808B967
S31500004FE0012131702868327890FBF2F005E02968DB
S31500004FF042F2107391FBF3F35843E860A08840B97E
S31500005000707808B9012171702868717890FBF1F009
S3150000501001E000F037F8E9688142C8BF01466960DF
S31500005020208858B9B0780A2110FB01F081B201B985
S315000050300120296880B291FBF0F001E000F022F82F
S31500005040286142F210722968608891FBF2F14143AF
S31500005050E8688842C8BF0846A860F07B60720AE02C
S31500005060002060722062BDE8F04193E6206AA84203
S3150000507006D0F17B617225620021BDE8F041F5E2C0
S31500005080BDE8F0812A6842F2107392FBF3F35843AD
S3150000509070472DE9F04106460D460020FFF756FF02
S315000050A0DFF8D875DFF8D885386A2C46062C08BF95
S315000050B098F80040002818BF002C20D031787A7A62
S315000050C0B0F85C005618B61C08B1B0420ADB294697
S315000050D00020FFF7A3FEB04207DA1DB940F2FD112A
S315000050E0FFF730FF6FF0004020E0386A062D50F8D9
S315000050F0545F08BF98F800400DB1052C01DA002076
S3150000510014E080882D1A012002F01BFA04464FF4A1
S315000051107A72DFF87805DFF8781502FB0505B5FB2E
S31500005120F1F10C19FFF7F8FD641C201ABDE8F081B7
S31500005130DFF860251178002904BF002207F0B0BA15
S31500005140DFF85415012008707047DFF8500507F0A6
S31500005150CBBD10B50246DFF82415DFF84435012033
S31500005160C873186800F09CF8017E4069DFF8204596
S315000051704A43B4FBF0F0BDE810404243DFF8241583
S31500005180012007F0EBBE38B5DFF81C150446087899
S3150000519008B1002032BDDFF8E41460788A7B151868
S315000051A0A0788542A8BF054607F070FF012194F953
S315000051B00320237801FA05F5A918B0FBF1F201FBEB
S315000051C012002179401810FB03F080B232BD80B581
S315000051D0DFF8A8240021D17300F083F8BDE802406F
S315000051E08D20A5E72DE9F041DFF890540FF2CC466B
S315000051F0EA7B07461AB14FF41E7100F075F9286A6A
S3150000520018B940F2792100F06FF9286A046E1CB9CA
S3150000521040F27B2100F068F9686A02F09BFD804647
S3150000522050B170280BD0012000F05BF817B1404652
S31500005230FFF77EFF404631E002F034FC01E002F069
S3150000524003FFDFF85C04006800F02AF8E288017EBC
S315000052504069DFF83C744A43B7FBF0F000F0F3F91D
S3150000526028630021A97394F9050018B94FF4287131
S3150000527000F03AF994F90500010003D54942297472
S31500005280002003E028742046FFF77DFFA883202036
S3150000529007F08BFFA88BFFF75CFF0020BDE8F081CD
S315000052A018B9DFF8080481680868704770B5DFF838
S315000052B0CC530446686A02F05FFE060008D100205F
S315000052C000F00FF8686A00780021FFF7A7FD06E0F6
S315000052D0012000F006F814B13046FFF729FF3046EA
S315000052E070BDDFF898138A7B00F00F0040EA0210C9
S315000052F088747047DFF88403407B7047DFF87C03CF
S31500005300007A70472DE9FC4D04460020FFF71EFE8B
S31500005310DFF86803056A45B92CB142F210702080A7
S315000053206080A080E08000204AE0407C10B9002127
S31500005330FFF774FD002C42F210782FD02E6806EB92
S31500005340D6725210D317CDE900232869C117A8FBDE
S31500005350007B18FB01BBB8184BEB03013246F31771
S3150000536007F044FF2080AA68D317A8FB0201DDE9F5
S31500005370007218FB0311C01951413246F31707F0AA
S3150000538035FF6080DDE9007B686800F01BF8A080CF
S31500005390DDE9007BE86800F015F8E0802A686C69B2
S315000053A002EBD270E517A8FB046AC11718FB05AA21
S315000053B016EB60004AEB0101D31707F017FF80B226
S315000053C0BDE8F68DC117A8FB002318FB0133D019E1
S315000053D043EB0B013246F31707F008BFE0B50100B7
S315000053E024D06846082206F0DDFCBDF8020010B99C
S315000053F09621ADF8021000210022D3B23DF8130029
S3150000540030B142F21173984210DA88420EDB01463F
S31500005410521CD0B20428F0D3DDE90001974AC2E954
S3150000542000010120FFF792FD00200EBD02200EBDF7
S31500005430F8B5924D0FF28426697B0446686AFFF739
S3150000544028FE0746012F23DB6FF00040874210D06D
S31500005450FFF762FCA96A964A3818401A90420AD2A7
S315000054600320FFF73EFF14B18C20FFF761FE8C206E
S31500005470F2BD0220F5E7E87B18B14FF45C7100F04D
S3150000548033F8394605F1140007F038FC0020F2BD68
S31500005490687B062801BF7A4908786873002804D11A
S315000054A08449487808B104216973E87B18B140F251
S315000054B0823100F019F8687B042811DB296A00297B
S315000054C01CBF086E002809D091F85300C10707D504
S315000054D0012068732046BDE8F24083E60220687327
S315000054E02046BDE8F240E1E63046FEF78DBFF8B54E
S315000054F006460F461446FFF70FFC604D6D496E6277
S315000055003F18AF62487810B95D49087808B9062097
S3150000551000E00120687368480168CA0505D005F1F6
S31500005520140007F0E1FB0020F2BD2046BDE8F24082
S315000055307EE7000070B5514C5C4DE17B584E002073
S315000055400329207574D8DFE801F00206173BBDE891
S31500005550704001206CE7306808B9A8680068216AC5
S315000055604B4D0A6E017E128900F069F8E062022056
S31500005570E0732B2007F019FE02F094FA88B9A07B9D
S31500005580217C401CA073C0B2884205D20320E07380
S31500005590292007F00AFE21E0272007F006FE042056
S315000055A03CE007F0C1FCE16A07F0C0FCB0B10020A6
S315000055B0E073282007F0F9FDBDE87040012075E68C
S315000055C002F070FA80B907F0AFFC216B07F0AEFC71
S315000055D020B12A2007F0E9FD06201FE004F114009F
S315000055E0BDE8704007F080BB206A006EFFF7CBFD78
S315000055F00146A183306808B9A8680068226A156E5A
S315000056002A89234D5218017E00F019F8216B07F004
S315000056108DFC30B12A2007F0C8FD0520BDE870409A
S31500005620D5E52C2007F0C1FDA08BBDE8704090E5C4
S31500005630BDE8704040F2094120A0FEF7E5BE406992
S315000056404A43B5FBF0F042430021012007F086BC37
S315000056500A494A6A487A1378C3189B1C8B727047AA
S315000056600648017B491C0173704700210020FFF7A3
S31500005670D5BB0248006A7047E85F00205C760020D0
S31500005680E75F0020E093040000A493D620A1070062
S3150000569040420F005761002061750020707600209F
S315000056A04C7600204B5100005E750020203E030022
S315000056B001000080545E002004ED00E064757479FA
S315000056C02D6379636C652E6300000000002070472F
S315000056D00020704738B51546104A517804462220F6
S315000056E007F0CAFE204603F071F904466DB12000AA
S315000056F00BD00B49087818B10A480121017004E063
S3150000570000220021204606F0BAFF204632BD70472F
S315000057107047704704490870704700004C5E0020CF
S315000057205761002058610020077D00201CB500BF8E
S315000057300AA31C6801AA6B4614608DF805008DF853
S315000057400710012201A9042008F020F818B140F240
S31500005750993101F0BBF99DF8000016BD1200010059
S31500005760F8B584B006460F4615461C4668460FF245
S315000057704C01102206F026FB8DF8016029008DF8F9
S3150000578002508DF80370DFF8986B01D00C2D03D30F
S3150000579040F2A73100F094F82A46214601A806F007
S315000057A0CFFE2D1D6946E8B207F091FF18B140F211
S315000057B0AB3100F085F805B0F0BD00001100000027
S315000057C00000000000000000000000007CB500BFE3
S315000057D00AA4D4E90056CDE900568DF801008DF8EB
S315000057E003108DF804206946052007F070FF18B1F4
S315000057F040F2B73101F06AF973BD000011000100F3
S31500005800000000001CB500BF0DA10A680092034607
S315000058100C22DC78E4438DF8014069465879C04390
S315000058208DF80200D879C0438DF80300042007F0F4
S31500005830ADFF18B14FF4717101F048F913BD0000C6
S31500005840820000007CB5044601208DF80000092284
S31500005850DFF8945B002105F10C0006F0B8FE05F1B7
S315000058600C03092202F08FF9DFF8B46A18B140F28E
S31500005870CD3100F025F88CB10B22002105F118007E
S3150000588006F0A5FE10208DF8000005F118030B2286
S3150000589002F079F998B14FF475710EE00A220021F1
S315000058A0284606F094FEFE208DF800002B460A22BC
S315000058B002F069F918B140F2DB3100F001F873BD6E
S315000058C03046FEF7A1BDDFF8201B487E0A7E897EA2
S315000058D0000440EA026040EA01207047DFF8080B46
S315000058E0B0F80D1048BA80B2704710B5DFF8F84A24
S315000058F0E07C227A904203D040F20C4101F0E6F8B7
S31500005900E07C10BD7CB500BF09A20446D2E9003692
S31500005910CDE90036052C0D4603DB4FF4856101F019
S31500005920D5F869460D55641CE0B207F0D0FE76BD89
S31500005930130000000000000038B514460FF25402B0
S315000059401288ADF800201D46020018BF01220B0088
S3150000595018BF012343EA42038DF80130DFF8A82A75
S3150000596011B100219184916208B1002050846B46E8
S31500005970022200F010F818B140F24F4101F0A6F8EB
S3150000598014B19DF80000207015B19DF80100287033
S3150000599031BD000015006946022007F0F7BE10B5BC
S315000059A004466079E178002808BF002907D001B1D4
S315000059B0012100B1012000230022FFF7BDFF204690
S315000059C0BDE810401EE770B50446DFF8545912E0F2
S315000059D0112803D04FF48E6101F0D3FCA678361D52
S315000059E02146F0B207F073FE18B140F2734101F0A0
S315000059F0C8FCF6B2344420780028E9D170BD2DE900
S31500005A00F8471F461646DFF8008A98F8193098F8C6
S31500005A101A2004460D469C4298F81C0098F81B1064
S31500005A2008BF954285B003D18E4208BF87423AD05F
S31500005A300FF278034FF0000ED3E9009A02AB7840DC
S31500005A40CDE9009A7140F146CA4683E800466A40AD
S31500005A50384031402A408DF80F008DF80B108DF834
S31500005A600D208DF804408DF805608DF806508DF8F0
S31500005A70077002A8FFF7C6FE6946082007F027FE52
S31500005A8018B140F2B64101F021F8DFF8B00B88F802
S31500005A901940847588F81A50C57588F81B60067613
S31500005AA088F81C70477606B0BDE8F08711630400DD
S31500005AB00000000080B500BF08A109788DF800102D
S31500005AC00120694607F003FE18B140F2DD4100F0FF
S31500005AD0FDFFDFF834190020087301BD8C0030B5D6
S31500005AE00246DFF80409816A39B10B789A4224BF6D
S31500005AF04878904201D3084630BDDFF8483B9B7991
S31500005B00D8B280B1DFF83C0B84685B1EDDB254F876
S31500005B102500884218BF0028F2D00578AA4224BF83
S31500005B2044789442ECD330BD70B5044619B9FFF7FA
S31500005B30D6FF010011D0CB69002200E0521CC87EBE
S31500005B4082420ADA142555435819F7D05D5DAC42F6
S31500005B5024BF4678A642F1D370BD002070BD002157
S31500005B602220E3E52DE9F8438146B9F5004FDFF839
S31500005B70B08703D140F2435100F046FE01F04AF8E7
S31500005B80FFF7EDFF4FF6FF7189450746DFF8B84A84
S31500005B900ED1FFF798FEBE08A04206F00F060CD203
S31500005BA0062E08BF082608D0082E06D1062604E0D1
S31500005BB00FF2001009F00301465CFFF78FFE44F276
S31500005BC06541401A0ED0801E04D0401E08D0401EEB
S31500005BD008D00DE04FF6FC7000EA0909062620E021
S31500005BE0062E01D0082E03D1022060F301090126FA
S31500005BF0FFF769FEB500A04206D2062E08BF202593
S31500005C0002D0082E08BF182507F03C00E9B28842EA
S31500005C1007D007F0C3072F43FAB200212220FFF76F
S31500005C20D5FD0221FFF79CFF0746BC09012E18BFD0
S31500005C30022E04D0062E04D0082E08D003E000243D
S31500005C4005E0032403E040F2BB5100F0DDFD07F060
S31500005C503F0242EA8412974203D002212220FFF734
S31500005C60B5FDDFF8E019CB68002000E0401CCA79DA
S31500005C70904218DA0C2242431A441779B742F5D1FA
S31500005C80DFF8B00B0168914211D0DFF8B04902602D
S31500005C90002194F91C0001F031FD94F91D00012149
S31500005CA001F02CFD03E040F23E5100F0ADFD484608
S31500005CB0BDE8F28306080102F8B5DFF82C47DFF8E5
S31500005CC08439A06A18B9996809680D4601E0014649
S31500005CD0054606690A7E6969DFF85C7B5643B7FBB1
S31500005CE0F1F14E433A46B6FBF2F2120A8DF8002065
S31500005CF018B9996809680A4601E00146024603692F
S31500005D00097E50694B43B7FBF0F043433946B3FB7A
S31500005D10F1F18DF801106B46022205216220FFF792
S31500005D201FFD206BFF2600280CBFFF20408A00F0D5
S31500005D3030F8022100F0F6F9206B00280CBF3A205B
S31500005D40007800218DF800108DF801006B460222C4
S31500005D50062100F0E7F9206B00280CBF0820008917
S31500005D6000F017F8122100F0DDF9206B00280CBFB7
S31500005D703225457C607A00B9AD00FF2D03DD4FF476
S31500005D80C36100F0A3FEEAB202216120FFF71EFD07
S31500005D90F1BD010A8DF801008DF800109DF8000094
S31500005DA0102804DB0F218DF800108DF801606B467A
S31500005DB00222704738B57F28044604D140F222619A
S31500005DC000F084FE07E07E2805D1DFF81C06C06AD5
S31500005DD0B0B190F90440DFF86C08DFF8005C017997
S31500005DE008194004001480F308042878A04207D05C
S31500005DF000F010FFE2B205216020FFF7E7FC2C70EF
S31500005E0031BD2DE9F84305468946FFF768FE0026B1
S31500005E10040008BF8A2079D0DFF8CC75DFF81C882B
S31500005E20B86A844239D0B9F1000F18BFFFF742FEB5
S31500005E30787A10B1206AFFF7C6FD4FF6FF70ADF80D
S31500005E4000000223DFF8980B01887F22684607F0DE
S31500005E5028FDBDF80000010605D400F07F020021F0
S31500005E600020FFF7B3FCB86A78B1416962699142D4
S31500005E7002BF017E227E914207D1417E627E91421F
S31500005E8002BF807EA17E884200D00126BC62B8F89F
S31500005E902800FFF767FEA8F8280021462846FFF7E6
S31500005EA043FE050003D140F2796100F00FFEF86A67
S31500005EB0EC68854226D0FD62286908B1FFF783FDAC
S31500005EC098F91B007E2804BF95F90400FFF772FFBE
S31500005ED0386B844216D0002C18BF00280FD00178EA
S31500005EE02278914202BF01892289914207D1418AD3
S31500005EF0628A914202BF407C617C884201D03C6349
S31500005F0001E03C630EB1FFF7D7FE0020BDE8F28347
S31500005F1038B5DFF8F404DFF80844017B19B140F224
S31500005F20A26100F0FFF9DFF81457A87E0021FFF701
S31500005F3068FF18B140F2A56100F0F4F912A10A68F1
S31500005F40AB7E00928DF802306946032007F0BFFB56
S31500005F5018B140F2AC6100F0E5F907F093FB18B117
S31500005F6040F2AD6100F0DEF9DFF87C04806A01F0F2
S31500005F70D4FD4069DFF8C028B2FBF0F080006E3037
S31500005F8080B207F00EFD31BD870100007CB500F040
S31500005F90C2F919B140F2B66100F0C4F9DFF8446AFB
S31500005FA0B07E0021FFF72DFF18B140F2B96100F075
S31500005FB0B9F900BF0EA10A68B37EA87B00928DF8DE
S31500005FC0013008B10021A9736946032007F07FFB61
S31500005FD018B14FF4D96100F0A5F901206873287350
S31500005FE007F050FB18B140F2CE6100F09BF973BD8B
S31500005FF0810003002DE9F84FDFF8145C687884B05F
S3150000600028B1FFF777F9012818BF032801D100202E
S3150000601085E0DFF8D413096B002918BF02280AD1DE
S3150000602095F9026095F80480E8786D798DF800009E
S315000060304FF0000909E091F9056048788DF80000F5
S3150000604091F802800D7991F90390DFF8BC73B97865
S31500006050F0B2002E344648BF6442884202BF9DF823
S315000060600000F9788842E4B20DD13879804504BF42
S3150000607079798D4207D197F91320914502BFB87CF3
S31500006080797888424AD0052C03DD40F20A7100F087
S315000060901DFDB87C28B10A22002101A806F097FA56
S315000060A02BE09DF800B0002E4FF0000A23D5ADF886
S315000060B004A04FF0010A1EE001A9012000FA0BF02E
S315000060C001F81A5048440DF10502401E02F81A0064
S315000060D0C0B211F81A10884203D24FF4E36100F0FF
S315000060E0F5FC5FFA8BF040450AF10100B8BF0BF1F1
S315000060F0010B5FFA80FAA245DEDB620001ABD2B289
S31500006100082100F00FF89DF80000F870BE7087F8BF
S3150000611004807D7187F81390B87C7870204605B0AE
S31500006120BDE8F08F6020FFF71BBB70B5DFF80C45AC
S315000061300546E07BA8430D40217C05438D4212D0E5
S3150000614006F05DFAB049064691F8200038B900F02D
S3150000615061FD2A4600216120FFF738FB2574304691
S3150000616006F053FAE57370BD38B5DFF8D05404462F
S31500006170A87CA0430C40E97C04438C4208D000F084
S3150000618049FD224600216220FFF720FBEC74AC7427
S3150000619031BD80B57F21ADF80010C00744BF7D2119
S315000061A0ADF80010BDF8000040BAADF800006B462F
S315000061B0022202216220FFF7D3FA01BD38B5DFF8CB
S315000061C07C440546207DA8430D40617D05438D42F4
S315000061D012D000F01FFD2A4601216220FFF7F6FAD1
S315000061E0617D05F0010001F0010188421CBF2846CF
S315000061F0FFF7CFFF6575257531BD38B5054600F04B
S315000062008C000828804C08D005F0B1FF2063DFF829
S31500006210001A487808B1206B606394F90F000328D0
S3150000622003D10021E173402509E094F90F0001280C
S315000062301ADB00212806E1734CBF88258925DFF883
S31500006240FC13DFF84C2C4FF0FF30C862107810B109
S315000062500121617531BD02F074F801462846BDE89A
S315000062603840002206F01CBA31BD70B50400664DF8
S3150000627002D195F90F0018B9FFF71CFC012600E0C2
S3150000628000260023002231460120FFF755FB7EB190
S315000062902046FFF7B2FF687B10B1BDE8704075E697
S315000062A0DFF84007417B022902D1BDE870402FE6A6
S315000062B070BD000038B500F02EF819B140F2DE715D
S315000062C000F030F8DFF8CC2B1068002819D495F9C7
S315000062D01D00002809DD0321FFF714FB18B140F269
S315000062E0F57100F01FF800206877694609A000786C
S315000062F08DF80000012007F0EAF948B14FF4026179
S3150000630004E007F0BFF918B140F6290100F00AF8D9
S3150000631031BD00008D003C4DCC4C297B7047000000
S31500006320B88200002046FEF76FB80000F8B50C46AC
S31500006330354FC24E0021054679730420FFF795FFBD
S31500006340BA7F002D3DD0F57F22B900212020FFF72E
S31500006350EDF9B87707F053F92A4606204243B018FC
S3150000636000210079B94FFFF74CFD18B140F6430103
S3150000637000F03AFB002C14BF13220022002120203B
S31500006380FFF724FA19A10A6800928DF80250ACA111
S31500006390022007F064F918B140F64D0100F024FB25
S315000063A06946042007F093F918B140F64E0100F053
S315000063B01BFB07F067F9A8B140F64F0100F014FB8C
S315000063C0F1BD00212020FFF701FA0020B877717B8C
S315000063D021B1022908BFFFF79BFD01E0FFF7D6FDBB
S315000063E007F00FF9F1BD00002476002080000000C0
S315000063F00549087C487308730028904914BF00209B
S3150000640003204873704700004C7500202DE9F047C3
S315000064100446DFF83882A078DFF87C6A410625D585
S3150000642096F90F000128A4BFB6F9240001281DDB48
S31500006430A77AB16A87420EDA384607F010F918B122
S3150000644040F6AB0100F0E0F9B08CB16AC01B3944EC
S31500006450B084B1620AE0C0B207F001F918B140F6A3
S31500006460AF0100F0D1F90020B084B062A078C10776
S3150000647002D501F066FFF0624FF0FF35A0786F4F4E
S31500006480DFF80C9A810728D505F071FE306396F97E
S315000064900F00012803DA4FF40C6100F0B5F996F904
S315000064A00F00022802D10321F17303E0FFF7A0FFDA
S315000064B00020F073DFF85817487808B1316B716324
S315000064C099F80000002804BF96F90F00002804D1AF
S315000064D0FD620022F16A06F0E3F8A07810F00C0FD6
S315000064E02DD0C10801F0010AFA7B317E02F00102CB
S315000064F001F0010182F00102114304D0207940F03D
S315000065000400207102E000F0F300A07096F90F007D
S31500006510022814DBBAF1000F07D00020787301219E
S315000065204FF00A0A7173317301E0FFF761FF002033
S31500006530F073FD625246F16A8F2006F0B1F8A0783A
S3150000654001063BD5207A81070DD596F90F00022862
S3150000655009DBFFF74DFF0020F073FD620022F16AB0
S31500006560402006F09DF8207AC10717D596F90F004E
S31500006570012803DA40F6231100F046F9FFF738FF49
S315000065800020F073FD620420FEF7ABFE99F80000D0
S3150000659020B9002200218D2006F082F8207A10F022
S315000065A08C0F03D0FFF761FE012013E010B110F04D
S315000065B0700F03D040F64A1100F026F999F8000052
S315000065C000281CBFA07810F0BE0F02D0FD6201208B
S315000065D070750020BDE8F087F0B5184CDFF8B838C4
S315000065E0247D5B8CDFF83C5D260611D5012B20DD72
S315000065F02B786F7807EB0327C7F30A070780AD1CD4
S315000066001560E2070ED5DB0654BF042202220AE01B
S315000066107BB115F8013B03801560E20702D5022322
S315000066200B7001E000220A70B0F900000978884278
S3150000663001DA0120F0BD0020F0BD0000B85E0020A8
S3150000664000000000203E030000080006B88200009B
S315000066502DE9FF47DFF88C53DFF8388DE87BC2075A
S3150000666003D440F6DB1100F0CFF801AA69460DF11C
S315000066700200FFF7B1FF18B9BDF90200802808DB58
S3150000668040F6DF1100F0C0F80020FFF7EEFD012014
S31500006690B4E001984178027802EB0126B6B206F022
S315000066A02701232940F0A98016F4404F00F0A58069
S315000066B0E87B810740F1A18000270224F1054FBF46
S315000066C04FF0FF09019991F80290032406F4405116
S315000066D0B1F5005FACBF0121002106F4404A06F483
S315000066E0406016F4406218BF012236065200B60F0B
S315000066F042EA810206F00106164346F0080644F611
S315000067006C41F140CA0744BFA41CE4B2A0B1B0F585
S31500006710806F06D0B0F5006F05D0B0F5406F04D09D
S3150000672006E0641C02E0A41C00E00834E4B203E0C6
S3150000673040F6142100F068F84FF4B850F040C10755
S31500006740019844BFA41CE4B201195FEA0A002BD0E9
S31500006750BAF5804F18BFBAF5004F08D0BAF5404FCA
S315000067601ED1084607F0C0F9074608341CE0019818
S31500006770005DBAF5004F03BF497800EB0120A41C69
S31500006780641C80B207F056FCFF2807D0DFF8B01C67
S315000067900A6832F8100010F4E66F05D0012703E00E
S315000067A040F6342100F030F8BDF90200A04203DAC9
S315000067B040F6372100F028F8DFF8DC462775E97B3C
S315000067C0490901F001018F4217D000BF0DA10A68E7
S315000067D002A802AB026080F801908770012202A92C
S315000067E0032006F0D3FF18B140F6762100F00CF82E
S315000067F09DF8080008B100212175002004B0BDE80D
S31500006800F0870000850000004046FDF7FDBD38B565
S31500006810DFF884566A8C0446944206DADFF8040BE5
S31500006820121B92B2011905F08BFE688C041B6C8456
S3150000683031BD00005876002040420F002DE9FE4F82
S3150000684080460020ADF800000D4601AA0DF10201B8
S315000068506846FFF7C1FE0028DFF8387B40F09780D6
S31500006860BDF90000802880F29280DDF80490DFF800
S31500006870B44ADFF824661FFA80FBA9EB04049DF8EE
S3150000688002A0B6F922005C4404F10801A1EB0A015A
S3150000689009B2884202917ADB002903D540F68C11B1
S315000068A000F0A2F8728C02980BF0010509EB0B03BD
S315000068B0083285F00105121A50464042191892B264
S315000068C0581905F03DFE718C05EB0A0041187184DC
S315000068D02C190834708C21B2884203DA40F69D11D7
S315000068E000F082F820B29E2803D340F69E1100F0F5
S315000068F07BF8BDF80020BDF900100198394D02F073
S31500006900010282F00102511847187878010602D573
S31500006910287DC1075CD4DFF8880CBA7890F90400AA
S31500006920C0EB5200B87040B201F00CF8F8707879FC
S31500006930002804BFB879002808D1F87930B901F0E9
S3150000694000FD010C020A7971BA71F8711020787095
S31500006950A98C397098F8020010F00C0F09D0019834
S3150000696041780378DFF8B00C03EB012101400229DE
S315000069702ED0287D010618D5BDF90000802814DB2D
S31500006980019810F8021D41F0800101700FE01DB161
S31500006990BDF90000802806DB40F69C2100F024F8B3
S315000069A00020FFF762FC012016E00198401E0199C5
S315000069B0BDF80030327D091A591803F0010383F03F
S315000069C0010319440831C9B206F086F80020307573
S315000069D020B2FFF71CFF0020BDE8FE8FE65F002017
S315000069E0B8530300B85E00203846FDF70DBDF8B574
S315000069F0DFF8A4540446688CE67A01468A199A2A76
S31500006A0024BF0646C6F19906F0B270B1DFF8140944
S31500006A100144F0B206F01FFE18B140F64B3100F00B
S31500006A2055F8688C50FA86F068842079C10748BF0B
S31500006A3001F066FC2079810704D52046FFF708FEA1
S31500006A4000283FD12079410713D5EF7F002601E0CA
S31500006A500127761C39462046FFF7F0FE0028F7D0BE
S31500006A6027B1F6B2022E04DB012003E00020E8770E
S31500006A7028E00020E8772079010706D505F077FBA6
S31500006A80286306F057F8FEF7EBFD207901061BD5C3
S31500006A90607A08B906216172607A810702D505F02D
S31500006AA066FB2863607A010604D500202873FFF789
S31500006AB0DCFB07E0400707D5002300220021012068
S31500006AC0FEF73AFF0120F2BD0020F2BDDFF8C40850
S31500006AD0FDF79ABC30B585B0684600210022002338
S31500006AE080E80E00DFF8104C207E617E8DF80300F2
S31500006AF08DF80710E07D8DF805006846FEF782FEEA
S31500006B009DF80410E07D01408DF80410207E9DF86C
S31500006B10021001408DF80210607E9DF80610DFF825
S31500006B20744801409DF800008DF8061018B940F62B
S31500006B30D631FFF7F7FB9DF80000410706D59DF813
S31500006B40060018B940F6D831FFF7ECFB9DF80000B7
S31500006B50810706D59DF8040018B940F6DA31FFF72B
S31500006B60E1FB9DF80000C10706D59DF8020018B9A3
S31500006B7040F6DC31FFF7D6FB9DF80600002835D03D
S31500006B80000713D50FF2800203A9D2E90035C1E947
S31500006B900035052203ABFEF7FFFE18B140F6720181
S31500006BA0FFF7C0FB40F67401FFF7BCFB9DF806003B
S31500006BB0810603D540F67A01FFF7B4FB9DF806007F
S31500006BC0410603D540F68601FFF7ACFB9DF80600AB
S31500006BD0810703D540F68A01FFF7A4FB9DF806005E
S31500006BE0C10703D540F68E01FFF79CFB9DF8020016
S31500006BF010B16846FFF70AFC9DF8040010B168461C
S31500006C00FFF7F5FE05B030BD23FF000000000000D1
S31500006C10545E00202DE9FC479F4C607C002840F024
S31500006C203481DFF8700CDFF86C8706F0ACFC18B125
S31500006C304FF44361FFF7E8FDDFF8BC5A687B012893
S31500006C4003D040F63241FFF7DFFD287BDFF8486CC2
S31500006C5000F03F0002282CD10020FEF7F3FD287B30
S31500006C6001062AD5FEF741FE06281FD1308A40BA12
S31500006C7080B248F20361884213DA0FF2202738788F
S31500006C80D8B108223946684605F05AFC69460820FC
S31500006C9006F01DFD18B140F27F41FFF7B5FD08373C
S31500006CA0EDE7287B00F07F00287306E040F65B41A5
S31500006CB001E040F66141FFF7A7FD0FF234610720BE
S31500006CC0D1E90023CDE900232F7BDFF8D4188DF816
S31500006CD001708F683A68116909168DF803103A68D1
S31500006CE0116909148DF804103A68116909128DF8B2
S31500006CF005103A6811698DF80610694606F0E7FC3A
S31500006D0018B14FF48761FFF77FFD0120FEF79AFD6A
S31500006D10FEF7E4FD44F26541401A06D0801E0228C3
S31500006D2003D940F66841FFF76FFD297B707F01F0BC
S31500006D303F01884203D040F66941FFF765FDFEF743
S31500006D40D4FD062803DA40F66A41FFF75DFDD6F862
S31500006D501F0000BA18B940F66B41FFF755FDDFF882
S31500006D60DC9B0AE019F801AB494606F0B0FC18B105
S31500006D7040F26741FFF748FDD14499F8000000282A
S31500006D80F0D10021B162F0623163FF220FF2685345
S31500006D90AA76D3E90001CDE900014FF000090622E9
S31500006DA002FB09F06946281805F0CAFB05F11E0129
S31500006DB005F1200001F8099000F8099009F1010990
S31500006DC0B9F1010FEBDD0020E07553212974102085
S31500006DD068748021E97403206875002100206176BB
S31500006DE06083A083B1845021DFF8242C1170607079
S31500006DF06080A080E074707F002844D0254D28680C
S31500006E00002840D5707A50B91E210120FEF77AFD80
S31500006E10012628B140F6A141FFF7F6FC00E0032663
S31500006E202868DFF8FC1B4042884203DA40F6B1418D
S31500006E30FFF7EAFC3868016928684900491C91FB9C
S31500006E40F0F0404240B202280ED009D3042801D007
S31500006E5003D305E046F0800606E046F0400603E070
S31500006E6040F6C341FFF7D0FC32460A210020FEF768
S31500006E70ADFC06F007FC18B140F6CA41FFF7C4FCAA
S31500006E80002006F08EFD01206074BDE8F387000047
S31500006E9057610020383B03004C7500200422DF892F
S31500006EA00000CAAE056D0304175B9541E761C1DEBC
S31500006EB0FF838B32E7230654F151C542E2A0BB059E
S31500006EC029558281056A35D35AFA68E5E9D066C73D
S31500006ED020EFEE320505550A8D3CE7E3ED3E6801ED
S31500006EE08FBAB8640501E53C7555E1E8E9223868D2
S31500006EF0CE97B1D505559942C94D9ADAECE2736938
S31500006F00E5A2D6DC05080F8850AA4BF4E47C6D1F79
S31500006F10B8C45091059E232E774555F6E18E2A6D0D
S31500006F206EBD850F054DF6A14709134EEA9086A55D
S31500006F308DE7DCDB050D3FECAF5463EEE913A817D4
S31500006F40C16A6EDE05B3AD4D24836811ECBB37C450
S31500006F50AF9B16C00532A6FF52D91631E1274AED7E
S31500006F60B06127960599DD6A5DF4C44DE49C81E223
S31500006F705232C0DF052E1ED48F6F755CE10FD70F1E
S31500006F803AA9CBC305E8C600D534E705E945D51EC1
S31500006F90976198E7058E72A8D413E753EA7B8D0BA9
S31500006FA0265D0C6B053ED33C71889D58EAF0DC6784
S31500006FB096545EED050964C5AE061DDAEAB2E70E23
S31500006FC0878277ED05D811DEE8248B2EE990555A95
S31500006FD050BFAFA60561780316205203E25C3EF16E
S31500006FE0FE18755A05B6D3ED8ED4FA8FE277AB6CE0
S31500006FF0A250167605951AE3680ABCC7EAEA520259
S31500007000B92D8C0705EFB786E410702BEAC2798399
S31500007010E20292C3054ADC6E96755025EAD386973E
S31500007020AFBED59205C13C7F30F3BC4DE9ED4A4178
S3150000703032914ED80534592FD6A086DBE9696C34D7
S3150000704059B3821705D93803E0779371E45E1921A5
S315000070509306423E05836DB475275102EF5AA1553A
S315000070609FDFFDA2E78FAEC1C758F9CBEF146123AE
S315000070707E1AE3ECE7947BE153C3ABDEE78F27A1EF
S31500007080D26EDB3DEFC3292F477F0410E7677AB046
S31500007090B4DAD7CAEF725C71A1CE8B44E790B50A19
S315000070A0EF1514DFE7FC133460D4F6E9EFFFBD7C7F
S315000070B0DAF71CB7E7A307170065D183E76B3FA193
S315000070C0F2B62AD8E7386AED4911933AEFCCC3D322
S315000070D045EFDA13EF050F782EAB9AA8EF44EFEAE7
S315000070E01D1FDB5FE735D1967EB7542FEFDF83A5F3
S315000070F0028E0902EF62130C643559CEE7CF2C30AD
S315000071002900C625EF75DF0E7D8C13B5E7947194C3
S315000071108450983AE7CE9851F2108256E729A22574
S31500007120CD9AAF5DE7F78FA3B3239BCFEFD10EB414
S31500007130234DCE61E799871EE4E1E4AFEFF94BDE1C
S31500007140161F7B3DE76173DAEC3807C2EF8C1D92A0
S315000071504574E0C5E7D1DF878573BE89EF71BD371A
S31500007160C13ADE50E7A0DAF6E9017C20E7FBC2303F
S315000071709083A204EF762C6F64146555E758B781A7
S31500007180A1B5E25DE7D4E66E421E5C3AE78458EDAF
S315000071906A616057E74EFB4FDE43292BE701B92AA8
S315000071A01A2EC773E76452D805252839E721B67F1A
S315000071B0917B7634EF4E6B6038769A53E734871EB0
S315000071C022ADE7D7EF80C451B617F208EF7DD2E0C3
S315000071D01FFE9907EF1C6651AA4F8B2DEFBD4CB1D0
S315000071E08B038783E7FDE3D32B3AD340EF3985251D
S315000071F0BBA8C627E7D29F941B7560C8E7E442A6E2
S31500007200AFF6FF3EE79B64CE9DF9F3E8E76A7E970B
S31500007210AC7C7D4AE79889DB7FD13613E7C2E0E88C
S3150000722083A91C8BEFD03F969BC12DF7E78C57CADD
S31500007230371F54CDEFD562E7A578F46FEFCD3DCF7C
S3150000724093E77948EF121C4A4FAEE679E717775F66
S31500007250C63A90A9EFB87DC41980A1B5EFE024C065
S31500007260508474DAE7F00624590B4B52EFCC547174
S31500007270C8A30342EFADF3991D769094E7234B55CF
S31500007280F7F5A33CE7769F332A839BF3E71F622437
S31500007290743BD6BBEF34388C3912442CEF40996BD3
S315000072A0386222D5EF65F2AC001B2AD0EFC9F08C0C
S315000072B02206D65FEFDD04C3C200A85DEDF8D084D8
S315000072C0BB99126905F882D3C6B2AAE5E63BABC400
S315000072D039B2E291057E643661D3B81EE92EC2EE5C
S315000072E024A250FA05595B3F34978D000000000038
S315000072F00200000000000000FFFFFFFEFF0000008C
S3150000730010B5DFF89415896A11B9A5498A6811681C
S315000073100A7E4969DFF8304A5043B4FBF1F148432D
S3150000732010BD00008475002038B5040003D1FEF7B7
S315000073309CF906F064F9DFF8C003C56A002D1AD47B
S3150000734004F008FF451BADB240F2E930854212DB7E
S31500007350DFF8BC19DFF8445591F90F00002803DC6B
S3150000736040F6265100F00DF840F6275100F009F8D6
S315000073700420FEF742FF1CB9BDE8314006F041B9D2
S3150000738031BD2846FDF740B8DFF86C03C08CC0B2AB
S3150000739070470000B8820000DFF8B00990F90100DC
S315000073A07047400918BF40F0180070472DE9F04FAC
S315000073B04FEA501C0C4600F01F000026DFF8E08163
S315000073C02FE00EF1010EEF7E5FFA8EF0B84226D264
S315000073D0E8695FFA8EF9142717FB09F94844077A1A
S315000073E007F007076745ECD1477AB942E9DB90F821
S315000073F001B090F8009007EB0B0AAAEB090A8A4540
S31500007400DFDB14B1C91B494421700AB1017A11703E
S3150000741003B11860284600E00020BDE8F08F08465A
S31500007420761C98F80650F1B2A942F5D2D8F80810A1
S315000074305FFA86FE51F82E504FF0000E0146C2E765
S31500007440F05B002080B500F006F808B9FF2002BD09
S315000074509DF8000002BD002300226946A6E7000051
S31500007460F8B50C4600F01F011B290AD20021009135
S315000074706B460022FFF79AFF05001CBF0098002804
S3150000748001D18A20F2BD1CB940F6D351FFF71EFB8D
S315000074900098417921700098817961700098C179CE
S315000074A0A1706869DFF8A8180918B1FBF0F0A0739D
S315000074B06A7EA87E80180D30811000EB5170C010D6
S315000074C0E0730098C1682161009AD06828B900214C
S315000074D0E1706060218160812EE0116918A2304D53
S315000074E091420CBF01200020E070DFF8AC03806AF7
S315000074F018B9A96809680E4601E001460646009AD1
S31500007500DFF844C8D3680A7E5F8971695743BCFBBC
S31500007510F1F14F43676008B9A86800681A89014607
S31500007520007E496912FB00F0BCFBF1F110FB01F192
S315000075302181D88960819889A0810020F2BD000050
S315000075400000DFF8CC1708B1486B7047086B70472E
S3150000755038B50D46022D044603DB40F60961FFF7F8
S31500007560B5FA65492944012091F91E2000FA02F274
S31500007570002CDFF89C47A17DE37D14BF1046002058
S3150000758021EA02020243D0B29842A27506D0D2B2D4
S3150000759000216420FEF71AF9A07DE07531BD0000D8
S315000075A0203E030010B504460121FFF7D1FF204617
S315000075B0BDE810400021CBE71FB500BF13A191E83D
S315000075C01C006846DFF8881A80E81C00CA798B79A7
S315000075D0027143714A790B798271C371C8784A780E
S315000075E08DF808008DF80A20887809788DF809004A
S315000075F08DF80B10FFF70EFB69460C2006F067F8B6
S3150000760018B140F63161FFF761FA1FBD1161080339
S315000076100000000000000000AFCFFFFFF8B50D46E8
S31500007620022D074603DB40F65361FFF74FFA07F0DA
S315000076301F001B2807D200230DF1010269463846B8
S31500007640FFF7B4FE08B98A20F2BD2B4CFFF7E2FA29
S315000076506619062096F91E109DF800C010FB01F26F
S3150000766022441379634517D082F804C041439DF83C
S315000076700020491DC9B26420FEF7A8F896F91C003F
S31500007680294600F03BF89DF8010007F01F0704EBC0
S31500007690450147EA40178F84012D0DD1A07E9DF844
S315000076A00010884202BFDFF86826907B002803D0CE
S315000076B0A1760420FEF7D9FD0020F2BD10B5FF2803
S315000076C004460AD1DFF80C0A81680A68D069447A50
S315000076D0017A04F01F0444EA41140121E0B2FFF7E5
S315000076E09DFF010007D10448417F0177E0B2BDE864
S315000076F01040002192E710BDB85E00202DE9FE4F34
S315000077000D46012D8246654C03DD40F69461FEF779
S3150000771009FE0AF12B00412828BF8B2080F08D80BE
S31500007720DFF8B469701906F11E0180F81CA04FF04D
S31500007730060811F905B018FB0BF006EB000900214D
S3150000774099F80400FEF7F0F900281EBF96F82810F5
S3150000775001F0C00180290CD0DFF88029117841B9E9
S3150000776090F902108A4503DB90F90310514500DCBD
S315000077708A46DFF86C79386818B940F60B41FEF78F
S31500007780D1FD396848798B68401EC0B2002856D0B2
S3150000779013F910108A45BCBF401EC0B2F6DB4EE09E
S315000077A018FB04F0371817F8011C514563DA30440A
S315000077B0B91F062204F0F6FA301906F1200190F9F5
S315000077C01F0000F06DF8641E64B252E0824552DA82
S315000077D0601C0128DFBF18FB04F03718F97A8A45C8
S315000077E049DA3044B91D062204F0DCFA301906F1F4
S315000077F0200190F9210000F053F8641C64B2E7E719
S3150000780018FB04F0304401A9062204F0CBFA06F175
S31500007810200006F11E0105554C5518FB04F808F129
S315000078200100C1B201AB06226420FDF799FF9DF865
S315000078300000DFF8181548550020BDE8FE8F13F943
S3150000784010208DF8002003EB400090F801A0FFF710
S31500007850E1F999F805005045E9D001A84946062204
S3150000786004F0A0FA8DF809A05C4699F80500504589
S31500007870ACDA601E94D55C45C2D118FB0BFB0BF14C
S315000078800600C1B289F805A052466420FDF79EFFA6
S31500007890CDE70000D56A000024760020B8820000FB
S315000078A0085506F11E0218FB04F11454491C3B4608
S315000078B00622C9B26420FDF753BF10B56FF07F02F0
S315000078C090420446DFF810180AD1152491F91C20BD
S315000078D0A24213DA00212046FFF710FF70B108E03C
S315000078E01628F3DBA4F1640091F91D1042B28A4216
S315000078F001DA8B2010BD002140B201E001212046B3
S31500007900BDE81040FAE6012100E000210120FEF763
S315000079100DBD012100E000210020FEF707BDDFF8C4
S31500007920B807C17B11F0010018BF01207047DFF8CE
S31500007930A807C07B400800F001007047EC5E0020FD
S315000079400020704710F1640FB8BF6FF06300643019
S3150000795040B28004000CB0F5807FA8BFFF20C0B203
S315000079607047022800DA08B1012100E040214120D9
S31500007970FEF7DBBB002814BF022100210220FEF720
S31500007980D4BB0000FEB5DFF8FC4894F9005070B394
S31500007990002D2ED4DFF8786396F91D1068B2884260
S315000079A031D0002827DD1D21FDF7ACFF18B140F6C8
S315000079B0AF71FFF78BF800BF13A1DFF8CC78D1E9E0
S315000079C00023CDE9002339888DF803106B46090A98
S315000079D08DF8041005220021F020FDF7C1FE757711
S315000079E0707FDFF8A828207039889184F7BD002DB4
S315000079F0D0DD6D42CEE700220021F020FDF7E6FE45
S31500007A007577707F2070F7BD801388000000000036
S31500007A10E65F0020010018BF01210120FEF7CEBB62
S31500007A20001BB700E0B5DFF8B006417B49B102297B
S31500007A3004D1572005F0F2FD010024D16FF07F003C
S31500007A400EBDFDF752FF07280BDAFDF74EFF06289D
S31500007A50F4D1DFF83808B0F81B1048BA80B2002815
S31500007A60ECD00FF65C000088ADF8000001AB0522F3
S31500007A70FDF791FF18B140F6FE71FFF727F89DF864
S31500007A8008100029DAD0DFF84C06007901EBD17135
S31500007A90C0EB610001B211F17F0FB8BF6FF07E003D
S31500007AA040B20EBD38B5DFF8680290F90F10012913
S31500007AB02FDA90F8200060BBDFF81C164C7B022CF6
S31500007AC018BF002C14D0022000F083FADFF8BC1790
S31500007AD0886A00F022F8DFF8702201464969007EC4
S31500007AE0B2FBF1F110FB01F0C004000C05F059FFE8
S31500007AF0FFF798FF012C054602D100F00BF904E0D0
S31500007B00032C1CBF204600F064FA00F00CF8A842D3
S31500007B1001DA002032BD012032BD18B9DFF8B40504
S31500007B20816808687047DFF8B00590F91B007E2869
S31500007B3007D1DFF85807C06A08B97F20704790F967
S31500007B4004007047DFF89005807B7047DFF88805F2
S31500007B5090F91F10062211FB02F2104410F8023FA2
S31500007B6008E0DFF8740590F91F10062211FB02F2F7
S31500007B7010440378407800EB032080B27047DFF8AA
S31500007B805805407B70476946012005F0FFBD6048F7
S31500007B9090F90F10002902D50022C2738284DFF803
S31500007BA03805817B012908BF00F0B4B8704710B5CD
S31500007BB0DFF8E0460121A173FFF780FD01001CBF3D
S31500007BC00021A17310BD38B57F2804460FD14FF6AA
S31500007BD0FF70DFF8C446218800F066FBBDF8004060
S31500007BE0640A03D07F2CB8BF644200DB7E2404F015
S31500007BF006FD4749054691F8200010B960B2FEF728
S31500007C00D9F8DFF8D404C476284604F0FEFC31BD6A
S31500007C1080B5032801DB012002BDDFF8BC148873A0
S31500007C20497B88420ED0010018BF022803D005D236
S31500007C3000F070F806E000F0CCF903E041F285119F
S31500007C40FEF744FF002002BD70B50D46022D044626
S31500007C5003DB41F28E11FEF739FFFEF7DBFF00F082
S31500007C6041F815FB01F31844220A8678964202BFB2
S31500007C70C378E6B2B34207D082706943C470831CEE
S31500007C80BDE87040C91C34E070BD10B50446012142
S31500007C90FFF7DAFF2046BDE810400021D4E72DE9C2
S31500007CA0F0410D46012D044603DD41F2A811FEF711
S31500007CB00DFFFEF7AFFF00F015F815FB01F6220ADF
S31500007CC0875D8319974202BF5F785FFA84F847455C
S31500007CD006D05C7082556943BDE8F041491C08E056
S31500007CE0BDE8F081DFF8F0034119062591F91E1071
S31500007CF070470222C9B26420FDF732BD10B50446B2
S31500007D000121FFF7CCFF2046BDE810400021C6E761
S31500007D104C75002010B5DFF8C043607B012812D0F7
S31500007D2005F06DFCDFF86C1500204873FDF7C2FE08
S31500007D300020FEF762FAFEF7BDFA01206073BDE887
S31500007D40104003F0EBB810BD40420F00965F0020D4
S31500007D50FF117A002DE9FE4FDFF83845064694F903
S31500007D600F0008B18C2005E1DFF86C53EF7F3A462F
S31500007D7006204243A81801210079FEF742F80100C7
S31500007D80F1D14FF0FF30E0730021E162A87B401E85
S31500007D908041C00F207480202072FEF72BF960729C
S31500007DA0A772207C00280CBF0220032040EA0011A5
S31500007DB0E172DFF8E8048179287D400800F00100CF
S31500007DC0814204D04906090E0220FEF7F7F9687BC6
S31500007DD0012803D1032000F0FCF80AE00FF2E44189
S31500007DE091E88C00684680E88C00FDF7D8FD05F028
S31500007DF008FC96F80080287D0FF2BC475FEA086110
S31500007E004FF0000B28D54FEA0821727801F4FE41A5
S31500007E108918000689B20ED508F07F003070C1F3CC
S31500007E200A0808F10200C90406F10209A08410D468
S31500007E304FF0040A25E0C909C901B1F5805F18BFF2
S31500007E40012090D116F8018F08F1010006F1010911
S31500007E50A0844FF0020A14E008F10101000606F1C1
S31500007E600109A1844FF0020A0BD505F1300101206A
S31500007E7005F0F5FB18B141F25921FEF7B5FD4FF0BB
S31500007E80010BB4F92400002807D4297D0A064CBF4B
S31500007E90022101217F31814203DA41F26121FEF79D
S31500007EA0A3FDDFF8F813887958B1B4F924108A4590
S31500007EB003DB41F26421FEF797FDA08CA0EB0A00DC
S31500007EC0A0848649087888B9DFF8D013087868B1A5
S31500007ED0607A40F04000B8F1000F607206DD99F854
S31500007EE00000810644BF6FF00100E073B4F924007E
S31500007EF00BEB00017F2931461ADDCBF17F00C0B2C2
S31500007F0005F0ADFB18B141F27921FEF76DFDA18CAC
S31500007F10ABF17F00CBF1000B06EB0B03411803F12D
S31500007F207F07A184A7622A7E6B7E42F040020EE0A4
S31500007F30C0B205F094FB18B141F28321FEF754FD5F
S31500007F400020A084A0622A7E6B7E02F0BF02E97D3B
S31500007F50A87DFDF754FD287D010606D5B01C814598
S31500007F6003D1317841F080013170A07B08B1002146
S31500007F70A1730020BDE8FE8F38B5C64C94F90F10EA
S31500007F8021B9FFF7E7FE010006D032BD94F90F00D4
S31500007F90012801DB8C2032BD94F90F000FF2183551
S31500007FA04042E07304F0D6F84B49C86204F1080178
S31500007FB0042005F08CFB18B141F2D121FFF7E1F95D
S31500007FC005F060FB18B141F2D221FFF7DAF9002083
S31500007FD032BD3EB5404D0446687BA04232D00328F0
S31500007FE008BF6C731ED0FFF795FE02F0A1FFA848EC
S31500007FF06C730168002908D4A24890F90010002982
S31500008000CCBF01200020FFF7BDFC0FF2C42191E890
S315000080102C00684680E82C00FDF7C1FC05F0F4FA58
S3150000802005F0EFFA24B1022C05D0032C0AD005E0A6
S31500008030FDF7ACFF37BDFDF76BFF37BD41F20831E9
S31500008040FEF744FD37BD000000BF0020C1E7000079
S31500008050F874002010B58F4991F82030020018BF3F
S31500008060012203B101239A4281F820001ED01A4C46
S3150000807080B1FEF7CFFD0020FDF79CFE227C900725
S3150000808014D502F0FD0222740021BDE810406120E3
S31500008090FDF79CBB94F91B00FFF795FDE07BBDE85F
S315000080A01040400800F00100FFF764BC10BD38B571
S315000080B0044604F0A4FA0546764890F820104A08CB
S315000080C06441E0B2FFF7C6FF2846BDE8324004F03F
S315000080D09CBA0000203E0300B85E002057610020D5
S315000080E0587600202DE9FF410446012C0FF2C818EE
S315000080F003DD41F25331FEF787FB694D687B0128AA
S3150000810040F09D80FEF786FD0FF2D010FDF75BFC78
S31500008110687DFEF73EF80221684600F014F90FF27A
S31500008120D411009FD1E9002301A80099C0E90023DA
S315000081303F0E090C4770817001A90098000A8DF85E
S31500008140070000988DF80800052005F0C0FA18B160
S3150000815040F29741FEF758FBE97B4E4FFF20FDF7B3
S31500008160E4FF3E7E697C8E4208D0FEF753FD324620
S3150000817000216020FDF72AFB6E743E76FF20A97C65
S31500008180FDF7F2FF297DFF20FEF718F86B7E2A7EA9
S31500008190E97DA87DFDF733FC05F074FA18B141F2CC
S315000081A07D31FEF731FB05F02FFA288D00F058F8E7
S315000081B005F064FFFFF700FAFFF7B1FBFFF7D1FB0D
S315000081C0E87B400800F00100FFF7D4FBE88CC0B262
S315000081D0FFF774FA18B141F2B431FEF715FB95F9C1
S315000081E01D00FFF76AFBFFF7B1FCFFF74EFDFFF737
S315000081F0B8FCFFF783FDB87D400800F00100FFF7EB
S31500008200D1F9204890F900100129ACBF01200020C7
S31500008210FFF7B8FB95F91B00FFF7D5FC287D00F0AA
S315000082200100FFF7F7FB2046012806D1FDF742FCC7
S31500008230FEF740F802F072FE01E0FFF7CAFEBDE865
S31500008240FF810FF2B8014008085C70477047C0B262
S3150000825070471348C08CC0B2A9E41148008D70471E
S3150000826080B5B0F5004F07D14FF6FF700D4909886C
S3150000827000F01AF8BDF80000FDF774FC08490885FF
S31500008280002002BDE55F0020985F002024760020D4
S31500008290383B03004C750020B2530300545E0020A7
S315000082A0B85E0020AC530300ADF8000002237F2225
S315000082B0684605F0F6BA00007068792E6300000083
S315000082C084FF0000000000FF000000000000000026
S315000082D0000000FF00FF00F700000000110201008F
S315000082E00511020101061102010209110201030A28
S315000082F000000000F200000000000000847048004A
S315000083007047FEE738B5044605F0B6F80546DFF8CF
S315000083105C0A83780178994211D000F04CF8641E0B
S3150000832007D0641E08D0A41E06D0A41E032C03D9B1
S3150000833005E00022194600E0002205F0C1FE2846AD
S3150000834032BD05F0DBBF10B5DFF82C3A4C00014614
S31500008350986A224605F0BDFEA04201D0002010BD5D
S31500008360012010BD80B500F026F806F065F800B1D2
S315000083700120C0B202BDDFF8002A0146107B0028AA
S3150000838000D1704780B5906A06F085F828B1BDE83F
S31500008390044040F29B1100F09BBC01BD80B500F08B
S315000083A00AF805F08FFE00F00300032801D1012032
S315000083B002BD002002BDDFF8C009806A704780B5A3
S315000083C0B0F5004F08D14FF6FF70DFF8F0190988B5
S315000083D000F0B9FEBDF80000DFF8901948830020D0
S315000083E002BD2DE9F04F4FEA501C0C4600F01F006D
S315000083F00026DFF8FC892FE00EF1010EEF7E5FFA12
S315000084008EF0B84226D2E8695FFA8EF9142717FB78
S3150000841009F94844077A07F007076745ECD1477A18
S31500008420B942E9DB90F801B090F8009007EB0B0A2F
S31500008430AAEB090A8A45DFDB14B1C91B494421703E
S315000084400AB1017A117003B11860284600E00020D5
S31500008450BDE8F08F0846761C98F80650F1B2A9429E
S31500008460F5D2D8F808105FFA86FE51F82E504FF074
S31500008470000E0146C2E7400918BF40F018007047D9
S3150000848038B5DFF8F448A06A05F0D6FF0546E807D8
S3150000849044BFA06A05F0D5FFE8031ED5E16ADFF800
S315000084A0685A086A18B940F2662100F029FDE06AA8
S315000084B0016A486818B94FF41A7100F021FDE26AA2
S315000084C0136AA06A5A680021904730B12846BDE871
S315000084D0344040F26921FBF797BF31BD3EB568468F
S315000084E000210022002380E80E00DFF88048A07AF1
S315000084F025788DF80050002818BF022810D1DFF823
S31500008500785800F00EF858B1A86A0122002105F04B
S31500008510DBFD00F006F818B140F29E2100F028FCC1
S3150000852037BD2179A86A6A4605F0ABBE0000000097
S315000085302DE9F043FF2889B006460AD1DFF8B008D6
S3150000854081680A68D069467A017A06F01F0646EA0B
S315000085504116F5B205F01F001B2847D200210191F4
S3150000856001AB6A46F0B2FFF73CFF5FEA00081CBFAA
S31500008570019800283AD0DFF8F447DFF8FC77217934
S31500008580F0B2884231D00B3D102D39BFDFF8D40947
S315000085900568DFF8D4190D68002D1CBF287803285C
S315000085A024D0786C854214D002A82946062203F00E
S315000085B0F9FBB86A7D6402A905F0CCFFB0B9B86AC8
S315000085C004A905F0D7FFB4F91810B86A05F08DFFB5
S315000085D060B9386B0199C7F82C80884208D19DF89C
S315000085E0000078732671FFF779FF7FE08A2085E027
S315000085F0A57ADFF8149900F085FA386B38B1B86AB5
S3150000860005F0FDFF18B140F2D32100F006FF0198F6
S3150000861001993863C868786318B94FF4367100F069
S31500008620FCFED8F82000B96C814219D018B940F286
S31500008630DF2100F0F2FED8F82010086818B940F2E1
S31500008640E12100F0EAFED8F82010B86A0A689047DF
S3150000865018B140F2E22100F0E0FED8F82000B8643C
S315000086600DF1080026A11C2203F0ACFB786B418AB1
S315000086700901ADF80E10417C09011439ADF8161048
S3150000868002A9407C0001ADF81A00E079401E804145
S31500008690C00F8DF82100787C8DF82200B86A05F0AD
S315000086A07BFF18B14FF4427100F0B7FEB86A0122A1
S315000086B0012106F02FF818B140F22D3100F0ADFE81
S315000086C000F071FCA08B00F095FCE08B00F0B0FC94
S315000086D0207A00F04BFC9DF800007873267100F0BC
S315000086E039FD00F000FD284600F076FA97F90E10E5
S315000086F0B86AC905091406F00DFA002000F08ABE12
S3150000870000000000010000000101010164000000FA
S3150000871064000000000000000B000000DFF8DC072A
S3150000872000797047DFF8D407B0F91800002854BF65
S3150000873005216FF0040108180A2190FBF1F040B200
S3150000874070470A2110FB01F0FFE7F8B500F5D77175
S3150000875040F27722914201D38B20F2BDDFF8185602
S31500008760DFF898472A6B0A26002A1EBFA17E01F071
S31500008770C001802911D0E97B79B992F902100F4620
S3150000878017FB06F7B842A1BF92F903100A4612FB7F
S3150000879006F28242B8BF11FB06F0297B61B10146A1
S315000087A0A86A05F0A2FE18B140F2833100F0E0FAA3
S315000087B0A86A05F0B5FE01E010FB06F02083002054
S315000087C0F2BD38B504460B38102839BFDFF89407D8
S315000087D00068DFF89417086888B10023002200219A
S315000087E02046FFF7FEFD50B104F01F051B2D06D2F3
S315000087F02046FFF740FE10B928460B2800DAFF2076
S3150000880032BDDFF874194008085C70477047C0B283
S31500008810704711F1630F01DA0020704711F1240F40
S3150000882001DBFF20704764310902481101EB9061BA
S315000088308904080E704770B5DFF83C45DFF8A0598B
S315000088400020E064687830B1FCF740FF0246012A58
S3150000885018BF032A01D1002070BD606BDFF81C39F8
S31500008860DFF8086500281FBF216B09690029022A65
S3150000887017D1E364706900F5FA707061607D18B114
S3150000888000200021642203E0E87829794FF4A072E1
S315000088902070A28061708021A878A070E1800020FD
S315000088A031E0DFF808597269A94214D1DFF8C0191E
S315000088B0E16402F57A727261617D91B90179217084
S315000088C001258278037990F903109540EB18CB18AF
S315000088D05B1E63700DE0E36402F5FA727261617DFE
S315000088E019B100222280642105E041782170827846
S315000088F0627001780901A1804179A1700289120193
S31500008900E280C0880001A06000F024FCE070A0783E
S3150000891041B2002948BF4042C0B270BD70B504469E
S31500008920DFF85464257896F9160008B18C2070BDDE
S315000089303065FFF780FF30766901DFF83024DFF815
S31500008940A0385078107301F580715161987910B193
S31500008950AD1EEDB203E0306D40F002003065F17BF4
S3150000896081B9187870B1607881060BD5306D40F00A
S31500008970010030656FF00101B175506900F50870AE
S31500008980506102E04FF0FF30B07506F0D2F840B10A
S3150000899006F0CDF80128316D0CBF082010200843E1
S315000089A03065032000F018F96A1CB06A4FF4807332
S315000089B092B2214606F0CBF86D1CA84203DA40F2CB
S315000089C0035100F0D5F9002070BD00002DE9FC41EF
S315000089D0DFF8A46396F916100025091D04296FF027
S315000089E0030418D8DFE801F00A0A1B1B0300FFF78F
S315000089F095FF050013D000F083FE7BE096F9160084
S31500008A00A0420CBF0121002100F07BFEB57500F0ED
S31500008A107BFE8E206FE000F073FE8C206BE004F08E
S31500008A2029FDE0B1F06CDFF85417884217D1307E8B
S31500008A30A8B1DFF840180868002810D5DFF8380814
S31500008A40C168C1600122006800F00F008240521E1A
S31500008A50114204D100F094FB642004F0A2FF03F05D
S31500008A60CEFD804696F9160010F1010F1CBF96F94F
S31500008A70160010F1020F2DD196F91600DFF8EC72F0
S31500008A804042B07503F066FB38620022B06A80216E
S31500008A9006F0AAF8F46CB06A3979326D002C07F149
S31500008AA00C0306D105F0BEFB010005D100212520EF
S31500008AB00DE000933346A047C8B10020B0754FF0D3
S31500008AC0FF3139628C2500F01FFE00212620FFF7BA
S31500008AD019FC0CE096F91600A0420CBF01210021FA
S31500008AE000F00FFE0020B0758E2500F00DFE40460A
S31500008AF003F08BFD2846BDE8F681DFF80004408BC5
S31500008B0070470000F8B503F07AFD984D0446A87A40
S31500008B10012803D1204603F078FDF1BD964EDFF81B
S31500008B20E873B06A0122012105F0CEFAB06A80220C
S31500008B30802106F059F800BF26A00188B06AADF87A
S31500008B400010694605F0D1FF20B140F2E9513846E0
S31500008B50FBF75AFC02208DF800006946B06A05F062
S31500008B609DFF20B140F2EB513846FBF74DFCB06A51
S31500008B7005F02EFB00212C20FFF7C4FB00210A2064
S31500008B80FFF7C0FB0120A87296F91610091D0729E8
S31500008B9014D8DFE801F01818070B040F0F0F03F0C5
S31500008BA0C7FF10E06FF00300B0750CE06FF0020134
S31500008BB0B17508E0892000F015FB04E040F212616F
S31500008BC03846FBF721FC204603F01FFD02F0A4F90E
S31500008BD0F1BD000004010000F8B5644DA97A044611
S31500008BE0A1425CD02EA3644F1E88ADF80060032915
S31500008BF0DFF814634FD8DFE801F047023B2B02F0A1
S31500008C008EF9B86A694605F070FF18B140F22F6117
S31500008C1000F04CF802208DF800006946B86A05F0AD
S31500008C203DFF18B140F2316100F040F86879002844
S31500008C3014BF00220222B86A022105F0D5FF18B13E
S31500008C4040F2366100F032F80320032CA87226D0D9
S31500008C5000F027F80220A87200222979B86A05F0E8
S31500008C6010FB18B140F2436100F020F8022C16D038
S31500008C70200018BF032C12D10020A8720022B86A67
S31500008C80802105F0B1FFF1BD022C08D100F009F8F2
S31500008C900220A872F1BD40F2596100F007F8F1BD5B
S31500008CA00402B86A8022802105F09EBF3046FBF799
S31500008CB0ABBB002090E79148807A7047032805D81F
S31500008CC0DFE800F0030203031CE785E740F2776163
S31500008CD08D48FBF799BB10B5274CA06A05F0F8F94B
S31500008CE094F916000028854844BF0021A175417AF1
S31500008CF0012902D1BDE8104004E710BD7F48407A43
S31500008D00704780B5032801DB012002BD7B4948720C
S31500008D10897A884218BFFFF7D1FF002002BD2DE9EE
S31500008D207C4FDFF8706703EA010BD6E9088929EA68
S31500008D30010528EA000402EA000A45EA0B0544EAAE
S31500008D400A044D4508BF44450DD0CDE9002302462F
S31500008D50B06A0B4605F0D0FE18B140F29F6100F0F4
S31500008D6007F8C6E90845BDE8738F00007C5C002063
S31500008D706548FBF749BB000048610020DFF814177F
S31500008D80087B002800D1704710B5087D002200231B
S31500008D9010B1DFF868290AE0C87C00B140225748C4
S31500008DA00178807881421CBF42F248742243BDE8B4
S31500008DB01040DFF848090021B1E70000AC5303007A
S31500008DC038B5DFF850590446287B2C7578B1FFF783
S31500008DD0D5FF002C14BF00220822A86A082105F03E
S31500008DE003FF20B1BDE8344040F23D7170E731BD6C
S31500008DF0143C0300F8B50446022C0FF6441503DBB9
S31500008E0040F2497100F07CF8DFF80869307B0028F1
S31500008E106FD13A4FB87A012803D040F24F7100F073
S31500008E206FF8002107F1240005F037F9B06218B990
S31500008E3040F2527100F064F8012005F097F918B974
S31500008E4040F2557100F05CF8B06A052105F0EBFCC4
S31500008E5018B140F25A7100F053F84FF0FF30DFF8C6
S31500008E60B8280D230146FFF75AFFB06A4FF00111EB
S31500008E7005F0F3FA18B140F2747100F041F8B06AE7
S31500008E8009224FF0FF3105F0AFFE18B140F27A71BA
S31500008E9000F036F8B06ADFF8841805F076FE012097
S31500008EA030730223DFF8780801887F22684604F0D1
S31500008EB0F8FCBDF80000C10548BF0020B07304F0FF
S31500008EC0D9FAFFF77DFF788BFFF779FA05F0D6F828
S31500008ED03879FFF72DFB18B140F28E7100F010F8CB
S31500008EE0FFF74CFFB7F91800FFF72FFCB87900F031
S31500008EF0EEF82046FFF7E2FEF1BD00007C5C0020A4
S31500008F002846FBF781BA00004097000080B5FFF7BE
S31500008F1052FA012105F0C1F910F5007F02D16FF078
S31500008F207F0002BD8005001602BD10B5DFF864257E
S31500008F300446107B50B1611E8941906AC90F05F045
S31500008F40D9FB18B140F2C571FFF712FF2000DFF818
S31500008F50C01718BF0120C87110BDDFF8B407C0796B
S31500008F6070470000485C00204C5C002038B5044681
S31500008F7003F045FB0546DFF89807DFF8182504726D
S31500008F80D07D38B9107B28B1611E8941906AC90F1E
S31500008F9005F085FE2846BDE8324003F036BBDFF813
S31500008FA07007007A7047DFF8EC34187B002800D190
S31500008FB0704780B5986ADFF86C17002205F07DFBD4
S31500008FC020B1BDE8044040F2F17181E601BDDFF851
S31500008FD044270146107B5174002800D1704780B5A4
S31500008FE0906A05F079FB20B1BDE8044040F2FC71BF
S31500008FF06EE601BD0146DFF81807DFF818378183F2
S31500009000187B002800D1704780B5986A002205F0C9
S3150000901045FB20B1BDE8044040F60D0158E601BD10
S31500009020DFF8EC06808B7047DFF8E406C08B7047EC
S315000090300146DFF8DC06DFF8DC36C183187B002842
S3150000904000D1704780B5986A002205F018FB20B160
S31500009050BDE8044040F623013AE601BD10B500F034
S315000090602EF8DFF8AC060179A06A012205F0FBF8BC
S3150000907020B1BDE8104040F6450129E610BD80B597
S31500009080DFF89016886A05F0F7F818B140F64A013D
S31500009090FFF76EFEBDE80140FFF720BA10B500F0FD
S315000090A00EF8DFF86C060179A06A002205F0DBF8FD
S315000090B020B1BDE8104040F6550109E610BDDFF8C5
S315000090C05446A06A0122012104F0FEBFD7E710B57D
S315000090D0DFF8C0230446906A214605F0F3FDDFF869
S315000090E030168C7110BD7CB57F2804460CD14FF626
S315000090F0FF70DFF83456298800F025F8BDF8000027
S315000091007E24C10558BF044603F079FADFF884636C
S315000091100546F07D68B9204641B27E2903D1306B01
S3150000912038B190F9040041B27E29BCBF40B2FFF7C6
S3150000913022F9707B00B10120DFF8F0150C542846A7
S3150000914003F063FA73BDADF8000002237F22684680
S3150000915004F0A7BBDFF83C13487B00B10120DFF821
S31500009160CC2510567E2805D1086B08B97F2070479C
S3150000917090F9040070470000045E002037E200000A
S3150000918000212320FFF7BEB8DFF8080390F9161078
S3150000919003290AD10022DFF8783582754FF0FF31B6
S315000091A01962816B402003F06ABA70475497000039
S315000091B038B50446DFF85C5502F0D9FFE863FFF7DF
S315000091C0EDF801462046FFF79DF8062C02D0FCF785
S315000091D09FFA01E00020A874BDE8314003F0A8BC66
S315000091E04C5E002038B50446DFF82415DFF8A4529B
S315000091F04FF0FF30086202F0BAFFE86395F91600F7
S31500009200012823DBDFF82815487808B1E86B2864C5
S3150000921095F9160002280CBF012100210020A8752F
S315000092208D2C16BF872C26202720FFF76BF8E87BAE
S3150000923028B1A86A04F04CFF0120287431BD2046ED
S31500009240BDE838400022002103F019BA31BD80B5CF
S31500009250FFF7A4F801460120FFF754F8DFF8B4142D
S31500009260C87C18B1BDE8014000F075BA01BD000028
S3150000927053E20000044008404C5008402DE9F043FA
S31500009280844D0FF2BC49A86A89B005AA022105F0EF
S3150000929078FC5FEA000803D140F68E3100F0BDF895
S315000092A09DF81400DFF86844BDF8167007281CBF47
S315000092B06079002818D1062F16DB07F108008B28E5
S315000092C012D2002000903B46DFF86864A86A324656
S315000092D0414605F062FCB84203D040F6A83100F0E2
S315000092E09CF83078010606D5FFF758F801460420A9
S315000092F0FFF708F88EE0A86A6A46414605F049FC81
S3150000930018B140F6BE3100F088F8707800F007001A
S31500009310022831D1FFF742F801460920FEF7F2FF95
S3150000932094F8078095F91600032821D19DF80D00C1
S31500009330F0B10021A9754FF0FF302062B17801F03D
S31500009340300120290FDA062F0DD17078000900F0C0
S31500009350010421462920FEF7D5FFA96B22468F205E
S3150000936003F08DF956E0A96B0022402003F087F93F
S31500009370B8F1000F4ED105E09DF80D0010B10020A8
S31500009380FFF702FF7178E07998B18A0611D5207A45
S3150000939078B1A86A05F08CFC20B1FEF7FFFF014604
S315000093A0062003E0FEF7FAFF01460520FEF7AAFFB6
S315000093B00BE001F00701022905D0FEF7EFFF014699
S315000093C00920FEF79FFF0020A8743178491CB94296
S315000093D003D04FF4416100F020F8F01921790170B3
S315000093E000224270FF229DF80E10817008379DF80A
S315000093F00F10C17002710099090C41710099090A98
S3150000940081710099C171F9B2AA7C304603F050FB14
S315000094100020A87409B0BDE8F0834846FAF7F4BF07
S315000094200FF22430FAF7F0BF0001704710B5DFF8ED
S31500009430E002046A002C15D402F08CFE041B40F2F4
S31500009440E930A4B284420DD3DFF8C81291F91600B0
S31500009450032803D1BDE81040002095E6BDE8104082
S315000094608920BFE610BD000010B558B9FCF751F9C8
S3150000947003F0C5F8044600210020FEF743FFFFF77E
S31500009480D5FF02E0BDE81040D0E72046BDE8104019
S3150000949003F0BBB8486100202DE9FE4F1446834611
S315000094A06106994648BF002002D4200602D5012055
S315000094B0FFF7CDFE6003964D964E2AD50021B17476
S315000094C0287A30B3584605F0F3FB10BB6946584678
S315000094D005F037F9E8B99DF8080002280DD1BDF866
S315000094E0000004F0A7FDFF280DD093490A6832F862
S315000094F0100010F4E66F06D10BE0032809D1684688
S3150000950004F0F2FA28B1B06A05F019F908B9012099
S31500009510B074600405D5FEF741FF01460320FEF74F
S31500009520F1FE96F916000FF2182801287ADBE00200
S315000095304FF0FF3A38D596F91610012972DB96F9E5
S31500009540160003286EDAB06A06F13802002105F02B
