S00E00006E63702D7370692E7333372C
S31500004000F0600020D1F80200F5A6000035F40200A9
S31500004010A70A0A010041000004180FAC10666100EF
S31500004020000000000000000000000000000000008A
S315000040300000000044FE0200000000000000000036
S315000040400000000000000000FFFFFFFFFFFFFFFF72
S31500004050FFFFFFFF007003000000000000000000EB
S31500004060FFFFFFFFFFFFFFFF100000000000000042
S31500004070000000000000000000000000000000003A
S315000040800000000000000000407C0020407C002072
S31500004090F0600020DE150300EAF8020090570020C9
S311000040A0302E002000000400000000008C
S31500004100F0600020D1F80200F5A6000035F40200A8
S315000041103DF4020039F4020041F402000000000000
S315000041200000000000000000000000004346000000
S3150000413045F402005B4500001F5A00003F5D000089
S3150000414099D70000B18F0200196E0000258B02007E
S31500004150ED8F0200B78F0200B98F0200B38F020005
S31500004160F5310100613401007BAA0000697E000080
S315000041704DF402004DF4020023F602004DF4020055
S315000041804DF402006F3401004DF402004DF40200BC
S315000041904DF402004DF402004DF402004DF402000D
S315000041A04DF402004DF402004DF40200EF8F0200C0
S315000041B0B58F020027B000001F9002004DF40200E8
S315000041C035F802004DF40200104210B58C498C4AB5
S315000041D001E021B1491E1369DC07FAD411B96FF069
S315000041E0020010BD5060012010601169480702D519
S315000041F04FF0FF3010BD002010BD2DE9F041044600
S3150000420010460B460022002B41D06FF001053010FE
S3150000421024087A497B4FA8B994469C4537D254F86E
S31500004220040BF8600CF1010C08203860084601E028
S3150000423080B3401E3E69F65E102458B33869800785
S31500004240EBD523E0EFF3108072B694460FE03E699B
S3150000425006F01906102E08BF3E603E693607F6D5F1
S3150000426042336BFE42400A10263E609C45F3D3184B
S31500004270B962B6A610013869C348100901B94246A9
S315000042803869810700D52A8E1065BDE8F08142465F
S31500004290FAE72DE9F24F5A4CA16B834600208DB206
S315000042A005B1012541F67131A1634FEA92082768ED
S315000042B047F0010727608146DDF800A01F4613E09E
S315000042C0C6F30A06C6F50066B608A8EB0900B042B2
S315000042D038BF06463A4631465046FFF78BFF010087
S315000042E00CD1B1440AEB860AC14507D20BEB89060D
S315000042F03018126718100FE2D00FE00099DBF800B3
S31500004300200B689A4209D05818125B18102E04D157
S3150000431000983A460121FFF76CFF216849084900D9
S315000043202160EDB20DB10021A163BDE8F28F30B579
S31500004330334B30490246986B80B200B101209C1481
S3150000434004349C631D68454424101D609A60012254
S315000043505A605C69620704D500F021F874100130D8
S31500004360BD021410125A69D40710D5002918BF4986
S315000043701EF8D10BE0002919686C2401F010F8AA88
S31500004380100330BD00F00B8C100530BD5A69940740
S31500004390F03C12031812011832198410161960081D
S315000043A0B100209863704700236EE71248816B893D
S315000043B0B201B101217E102F32826346F21A320316
S315000043C06843F001030360C2644FF48073436042A4
S315000043D069D307FCD40022C264C9B203685B085BD8
S315000043E000036001B182630020441101100780962A
S315000043F098000C000E4008042DE9F84F8046DFF8BF
S315000044007C902122FF21484600F08FF8DFF870B03B
S315000044104FF49272FF21584600F087F819481A4F58
S315000044201A4C00904FF0210A0026A25D1849BD5D86
S31500004430885D521C02EBD272521000B11932154837
S3150000444030F816100098D21C6A4300F08AF8012D45
S315000044501CBF2BF816A0AA44761C212EE5DB2123CF
S315000044604FF4805240F27A510B4800F07AF84946F0
S315000044704046BDE8F44F00F0D4BB00BF9C69002065
S31500004480A46A0020ECF8020054FB020030FB020094
S315000044900CFB0200C8FA020008F9020070B581425E
S315000044A024D210441144401E491E10E011F801396F
S315000044B000F80139121F11F8014900F8014911F8F5
S315000044C0015900F8015911F8016900F8016993B220
S315000044D0042BEBDA93B2002B1EBF11F8013900F85A
S315000044E00139521EF6D170BD00F00DF893B2042BBF
S315000044F0FADA93B2002B1EBF11F8013B00F8013B1C
S31500004500521EF6D170BD11F8013B00F8013B121F97
S3150000451011F8014B00F8014B11F8015B00F8015B43
S3150000452011F8016B00F8016B7047130003D00A46BF
S31500004530194601F041BA704710B5034600E0521E15
S3150000454090B218B100F003F8F9D0001B10BD13F8B3
S31500004550010B11F8014BA042704770472F490870B4
S3150000456070470EB430B52D490446087820B301F0E3
S31500004570D0FA08B301F0E2FB012001F0ECFBFF28C2
S31500004580054619D001F0DCFB022101F0C8FA01460C
S31500004590284601F0DBFB03AB22462946204801F002
S315000045A0C6FF30B1284601F028FB10B1042000F008
S315000045B00BF8284601F039FC30BC5DF810FB0C22E4
S315000045C000211848FFF7B1BF164931F81020521CD8
S315000045D021F8102070470CB480B502AA02F004F945
S315000045E001BC5DF80CFB0D4A1178A1B9010018BF9A
S315000045F0012810D0042818BF05280CD0312818BF70
S31500004600332808D037281EBF3B284FF6FF71884253
S3150000461001D0012070470020704700000B7C00206D
S315000046204960000060730020302818BF322806D089
S3150000463034281CBF3628382801D0002070470120B6
S315000046407047FEE730B5DFF8485ADFF8484A2B884E
S315000046502468C01A04EB4004002004E034F810304B
S3150000466021F81030401C9042F8DB002030BDDFF806
S31500004670203ADFF8201A1A880968801A01EB4001EF
S31500004680022002F0D1B9F8B504460F461646DFF807
S31500004690045AF0B208B34FF6FF70ADF800000020E0
S315000046A017F8011BC3B2401C0DF80310761EC1B2E9
S315000046B0022902DAF1B20029F2D1DFF8D4E928683A
S315000046C0BEF800301FFA84FCACEB030300F01CFFBD
S315000046D0641C0100DDD000F0EBBB0120F2BDF8B593
S315000046E004460D461646F0B288B1012200F010F8D5
S315000046F0641C0020C2B2401C1DF80230761EC7B2F0
S31500004700022F05F8013BEEDAF1B20029F2D1F1BD34
S315000047106946A0B296E70146DFF87C09DFF87C29F6
S31500004720405C525CDFF8C03B595C09B102F59972F6
S3150000473040EAC21080B2704710B5DFF85C39DFF886
S31500004740AC2B1C5C012C1CBF32F81000081802EBC5
S31500004750400010BD70B590B005460C464FF6FF768A
S3150000476004E0A8B2FFF783FF203D2035A9B28C42B2
S315000047700DD3202201F00AF8002082B23DF8123053
S31500004780B342EED1401C81B22029F6DBEDE710B032
S3150000479070BD10B5044661882088FFF7DBFF012154
S315000047A0DFF84C2BDFF84C3BA171208811784118BB
S315000047B0188801EB4001891DA18010BD10B5DFF8F6
S315000047C0384B00F087F800F040F900F03BF9DFF8CD
S315000047D0840C04F10801446004F110028160C26097
S315000047E010BD2DE9F0430446DFF8040B0778B946FF
S315000047F0B9F1060F85B003DD4FF4377100F010FBF9
S315000048000021A1717A1C208892B201A9FFF71AFF34
S31500004810BDF804104FF6FF76B14218BF002910D03C
S315000048200DF10408711A38F81900884209D10125DA
S315000048304D454BDA38F8150040B1BDF804108842F2
S3150000484014D000F047F805B0BDE8F083DFF8081C87
S315000048500A88208812FB052141186A43711810182E
S3150000486089B280B2FFF776FF0221A1716D1CDFE7E6
S315000048702088381800F08EFFBDF80200000B48456E
S31500004880DFD120883818401D00F085FFBDF80210E2
S31500004890BDF80200711A000A01F0FF018842D0D16A
S315000048A00320A071012220883F187F1C6946B8B2F8
S315000048B0FFF7C8FEBDF80000FF2802D10421A17150
S315000048C0C1E7B042BFD00028BBD1BCE7A07902281F
S315000048D0CED1B8E720465CE7F8B5DFF81C4ADFF82A
S315000048E0745B002004F1080104F11002A071A073AA
S315000048F0A075A960EA606C602046FFF772FF04F1BC
S315000049000800FFF76EFF04F11000FFF76AFFA179B8
S31500004910A07BDFF88067042908D100220428ADF8BF
S31500004920002046D1FFF74AFF0120F2BDA17D0428F1
S315000049302BD100200429ADF80000F3D0FFF7CAFF01
S3150000494000F080F83068DFF8A869238900F080F865
S31500004950060040D10320A073A07903284AD1A07B8A
S31500004960032802D1A07D012863D0A07901284AD16D
S31500004970A07B032854D1A07D012818BF0328D1D1DC
S3150000498004F1080004F1100157E004292BD100209E
S31500004990ADF80000FFF79EFF00F057F83068DFF82B
S315000049A05069238A00F054F8060014D10320A0753C
S315000049B019E0A07D0428B5D000F047F800F042F8D1
S315000049C03068DFF82C69238800F042F8060002D12F
S315000049D00320A0710AE0304602F0A8F81EB14FF499
S315000049E0747100F01DFAA0790328B5D1A07B0128C7
S315000049F0B5D1B7E70228B8D1A07B032804BFA07DB4
S31500004A0001288FD1BCE7032804BFA07B012889D1E8
S31500004A10A07D03280BD104F11000214608340CE0D8
S31500004A20022812BF0128A07D0328F0D1F3E702284F
S31500004A30EDD1204604F1080110346860EC60A960ED
S31500004A400020F2BD04F11000A3E604F10800A0E680
S31500004A503778DFF83C66FF1833887F1CFF1A01227F
S31500004A60694600EB470002F00AB82DE9FE4F0646FC
S31500004A70DFF87C08DFF8888ADFF8889A0F46017825
S31500004A80ADF80810012234880C19641DFFF740FEAA
S31500004A90DFF86018BDF80000B1F800A0641C000A39
S31500004AA0ADF8000050451CBF0121397000251AE001
S31500004AB0401CC1B2514514D25FFA80FB39F81B1075
S31500004AC0BDF806209142F3D1C0B2FFF724FEBDF82F
S31500004AD004304FF6807210401340984208BF08F821
S31500004AE00B506D1CADB2BDF80000854206DA0222FD
S31500004AF001A9FFF70EFEA41C0020DAE70020D1462C
S31500004B0001E0401C80B2484517DA18F800108142CF
S31500004B10F7D00120387010E021F815A00DE001282B
S31500004B20DFF8C817F8D0BBF17F0F31F8150008BFC2
S31500004B304FF0000B584421F810A0A1B27088C01E97
S31500004B4088424FF6FF7A28DB00F066F8BDF80200CF
S31500004B50FF25504521D0601C00F0D4FDBDF80200B1
S31500004B60BDF80610AAEB0002914213D104F1030A24
S31500004B70040A00F07F0BBDF8000084420ADA002028
S31500004B8000E0401C484518DA18F80010A142F8D198
S31500004B90C5B212E0012038700DE0B4807088A1B271
S31500004BA0884208D300F038F8BDF80200641C50456E
S31500004BB0F4D001213970BDE8F78F3088BDF8083090
S31500004BC0181800EB4400801D012201A980B2FFF7EE
S31500004BD039FDBDF80400C0F3C710401C00EBD070CF
S31500004BE00AEB60047088A1B28842D3D3FF2DA4D00B
S31500004BF0DFF8A404405DBBF17F0F14BF59460021C6
S31500004C00814286DABDF80210DFF8DC26535D09061C
S31500004C10C90F994283D07CE701220DF10201A0B2AF
S31500004C2010E5F8B58DF80000DFF8AC1BDFF860047E
S31500004C30DFF8C0460288DFF8C00602800B88438092
S31500004C40DFF8AC361D782188DFF8903BDFF8904B13
S31500004C50AA1802EB4102921D8280002282711A88F4
S31500004C600281AA1802EB41022388DFF8784B4381C0
S31500004C70921D828100228273DFF86C3B1A880282C1
S31500004C80AA1802EB4101891D2388DFF8C8478182F3
S31500004C9043820021817501F09DFF002853D12070C9
S31500004CA0FFF71AFE9DF80010084318BF01208DF883
S31500004CB000000122606800882818801CA11C80B2B0
S31500004CC0FFF7C0FC9DF8000000283FD16068DFF8C0
S31500004CD01C766946FFF7C9FEDFF8880B0688A068D0
S31500004CE08179032924D16946FFF7BFFE6168DFF8A1
S31500004CF0A823002012E0DFF8FC351B88984202DA70
S31500004D00135C012B09D137F81030B1F800C06345A8
S31500004D1024BFB1F802E09E450AD2401CB042EADB4D
S31500004D2002208871A1686068E2686160A260E06044
S31500004D3000204FF6FF7200E0401CB04206DA37F85A
S31500004D4010109142F8D101208DF80000607828B14A
S31500004D50012100208DF80010607018E09DF8000019
S31500004D6090B960680388ED18ED1C01220DF102016F
S31500004D70A8B2FFF767FCBDF80200C0F303100128D4
S31500004D8008BF8DF8000002D09DF80000B8B14D2094
S31500004D9001F0CCFE6088401C6080E068FFF7F9FCFB
S31500004DA09DF8000000F051F838B100F085F820B108
S31500004DB09DF8000000F0A2FA08B90120F2BD00201B
S31500004DC0F2BDF8B50D46DFF82C1517467F2F0A8879
S31500004DD008BF00271E4695423EBFAF4B595D8F4226
S31500004DE0044604D2AD4A535D9E4200D11CB940F23E
S31500004DF0646100F015F839462846FFF79DFCDFF898
S31500004E00641B0388485D28B11946284600F0C9FC92
S31500004E102060F1BD324621461846BDE8F8405EE402
S31500004E200FF67C3001F0FABE38B504460846114646
S31500004E30FFF782FC964D0388DFF82C1B28880A684A
S31500004E401B1A02EB4302226031BDF8B5DFF80416E7
S31500004E50904CDFF8B056002814BFC8688868DFF8A1
S31500004E60901400880A788618B61DB6B2002701E0AD
S31500004E70B61C7F1CDFF87C0401888F4216DAF8B274
S31500004E80FFF749FCADF80000B3B235F81700DFF8BC
S31500004E90DCCABCF800E0ADF80200A3EB0E03206804
S31500004EA0022200F032FB0100E2D001E00120F2BD57
S31500004EB001F03CFE0020F2BD2DE9F84FDFF8340486
S31500004EC0DFF890250188D068DFF82424714C137828
S31500004ED084B00025ADF808100188BDF80800CE188A
S31500004EE006EB4006B61DB6B200E06D1CBDF8080024
S31500004EF0854280F2C2804FF0000A78E0BDF80210C9
S31500004F005FFA8AF00143ADF802104FF6FF72BDF862
S31500004F1002005F490F88BDF80010121AADF8042090
S31500004F204FF6FF732068F21B761C994200EB420095
S31500004F30B6B21DD100F0BBF801002BD12068F71BDB
S31500004F40012201A900EB470001F099FD010021D1E2
S31500004F50B61CB6B25148DFF8181AA8F80060425DD0
S31500004F6051F825103046FFF78EFB002838D18DE02A
S31500004F704A49495D491C01EBD1714FEAC15900F01C
S31500004F8096F8010006D12068F31B012201A900F062
S31500004F90BDFA010077D1B61CB6B2D349A8F80060B5
S31500004FA0485D002843D0DFF8AC2410780021039137
S31500004FB028B103AA6946A8B201F010FE05E0BDF8C3
S31500004FC00010E8B200F0EDFB0390F71B20684FEAF3
S31500004FD0196203A900EB470001F051FD010052D10F
S31500004FE0DFF89009415D7618B6B20AF1010A2A483F
S31500004FF0475D5FFA8AF1B942BFF477AFE8B2FFF7CF
S315000050009BFB8046B849B8F80000ADF80000485D43
S31500005010C00140EA0520012FADF802007FF46EAF13
S31500005020BDF8020040F07F00ADF802006DE74FF0DA
S3150000503000085FFA88FBBBEB196FD1DADFF81414AE
S3150000504008780028BDF8000004D100F029F8FFF721
S31500005050F9FA03E000F024F801F0BEFD2068B3443D
S31500005060ABEB070301220DF1060100F04FFA010038
S3150000507008BF08F10108DCD005E0DFF8D803C168F5
S315000050808E80012002E001F051FD00202FE3000098
S31500005090FA0003003063002054FB020030FB0200DC
S315000050A0411CADF8001001220DF1060170470122E6
S315000050B00DF1020101F0E3BC2DE9F34F85B00021AB
S315000050C08DF803104FF00C09DFF8AC58BDF8181036
S315000050D0DFF8A868DFF89C385B5C298835684C08DF
S315000050E091FBF9F9A1444D45039302D3DB180393D1
S315000050F009E0182691FBF6F1641AA54203D303EBE7
S31500005100530189B203910025D24CADF806008DF803
S31500005110042000E06D1C774801888D4280F2CF8024
S31500005120002687E0012202A91FFA88F0FFF78AFA13
S31500005130A3680498DFF834E8B3F804C0BEF800307A
S315000051400068DC44ACEB0303012202A900F0DEF99F
S31500005150010008F1010858D10AF1010A5FFA8AFB39
S31500005160BBEB176FDEDB38E01A468DF80220BDF880
S3150000517006309A18ADF8062001235B4A8DF80330F5
S31500005180505DC30143EA0523BAF1010FADF80030C3
S3150000519040F08B80BDF8002042F07F02ADF8002081
S315000051A08A88D21C8A800028DFF8BC17049100F098
S315000051B083804146E8B200F0F4FAA368DFF8ACE772
S315000051C002903A0E04989F88BEF800300068FB1AD9
S315000051D002A900F09BF9010017D1BDF80000A368F1
S315000051E0DFF884774FF6FF71091AADF8081001222F
S315000051F0DFF878179B88B1F8008038689B1EA3EB10
S31500005200080302A900F082F9010066D1A3689B8811
S315000052103868DB1EA3EB080300F076F901005CD1C9
S31500005220A0688188A9F8001082889DF8021051189C
S315000052308180761CF1B2DFF8480710F805A05145C9
S31500005240BFF468AFE8B2FFF777FA8146DFF83407B4
S31500005250475DBDF81800B9F800807F1C07EBD777CB
S31500005260FF05854202BF9DF80410F0B28842E0D0E7
S3150000527060680188884524BF40884045D9D3BDF879
S3150000528006100398814226DADFF8E826A168535D06
S31500005290B1F804C048889C440CF103029042BFF662
S315000052A063AF01206070452017E0BDF80030F2B210
S315000052B01343ADF8003073E74FF0000A4EE79DF850
S315000052C0030040B96068022181716068A168E268E4
S315000052D06160A260E060012002E001F027FC00208E
S315000052E007B0BDE8F08F00000CFB0200A46A0020A6
S315000052F02D14030000140300686600202DE9FE4FFC
S315000053005FEA0009534DDFF8607614BFE868A868C5
S3150000531001220188DFF8700600880291C0F1FF01C2
S3150000532001F0FF0141EA0021ADF80210DFF85C064A
S31500005330029990F800A0DFF834060688386801EB79
S315000053400A04631D9B1B0DF1020100F0DFF801004A
S3150000535059D140F6227040EA0A30ADF80200E31C4B
S3150000536038689B1B01220DF1020100F0CFF8010005
S3150000537049D13868A31C9B1B0122A91C00EB4300E2
S3150000538001F07DFB01003ED1601CA0EB06085FEA40
S3150000539009004FF6FE7B07D0FF21ADF8021000F0A2
S315000053A05DF801002FD109E068680088012269468E
S315000053B0FFF748F9BDF80000012802D1ADF800B0AA
S315000053C002E0411EADF800104FF6FF72BDF8000076
S315000053D0121AADF80420A41B3868012201A900EBBB
S315000053E0440001F04CFB01000DD1029C5046A0F197
S315000053F0010A80B288B1386814FA8AF39B1B00F060
S3150000540083F80100F2D001F091FB0020BDE8FE8F89
S31500005410A968032088710120F8E7B9F1000FF7D0D9
S31500005420E968032088716868FFF7B3F9A868FFF791
S31500005430B0F9EA686868A968AA60A8606960E86067
S315000054406A600020ADF80200E96000F007F801008C
S31500005450D9D1E0E76C730020F6000300012238681A
S315000054600DF1020100EB480001F009BBFEB5044650
S31500005470DFF80005455CA088134662882E18F61CE6
S31500005480B24205DADFF8082501215170452033E0E4
S31500005490C01CDFF8F024A08080B2525C1946FFF7EA
S315000054A0F2F860B3DFF8C404DFF8BC740688A3889A
S315000054B03868DB1E9B1B012202A900F027F80100B9
S315000054C01AD1BDF808004FF6FF71091AADF80010A1
S315000054D00122A38838689B1E9E1B694600EB460086
S315000054E001F0CDFA010007D10898A1880180A088B3
S315000054F04019A0800120FEBD01F018FB0020FEBD72
S315000055009C690020C8FA02000122694600EB4300AC
S3150000551001F0B5BA2DE9F84F84B0054689469046A4
S315000055201C4601F0ABFCDFF8602413888DF80450AC
S315000055300127ADF80830B8F17F0F9DF80410BDF8CB
S315000055400800039508BF4FF000088DF8054081421A
S315000055503FBFDFF82C14039A8B5C984507D2DFF81F
S3150000556024148B5C9C4202D1B9F1000F03D140F6A2
S31500005570D901FFF755FC9DF804004146FFF7DCF81A
S3150000558001250646DFF80C048179B6F800A0022949
S315000055901FBF817B0229807D022802D1432001F0B2
S315000055A0C5FA039ADFF8BC13885C002833D09DF84F
S315000055B00400514600F0F5F8D9F80010814257D0A2
S315000055C0AAF1030000F09EF8DFF8C453DDF80CC022
S315000055D06C68DFF8A033628813F80C10A088D21E1E
S315000055E0521A824207DB30B1A86801888A45A4BFF7
S315000055F04088504572DBE8688179AC68022938D169
S31500005600442001F093FAE8688179012931D04520D8
S3150000561001F08CFA53E09DF805404FF0000B21E0B5
S315000056200BEBDB700AEB600000F05DF909EB0B0099
S3150000563019F80B10407801EB0020611E8B4507D14D
S31500005640BDF8001001F0FF0100F0FF00ADF80010FA
S3150000565080B2BDF8001088420BF1020018BF002589
S315000056605FFA80FBA345DBDB002D8DF80540A7D054
S315000056703DE0A8688179012915D10020FFF7E5FBF7
S31500005680002834D00020FFF739FE00282FD0BF486D
S31500005690BDF8085003789DF8041003EB4500C01DC3
S315000056A0424680B205E003290FD19DF80410424618
S315000056B00020FFF701FD10B100F01CF8B8B938461C
S315000056C0471EC0B2002810D111E002290CBF40F6D7
S315000056D0C81140F6CA11FFF7A3FB08E000F00AF86C
S315000056E028B93846471EC0B200287FF444AF05B03B
S315000056F0BDE8F08F0096BDF806309DF804104A46C6
S315000057002046B3E601220DF1060180B2FEF79ABFEC
S31500005710F8B505469E489D4F43681C883B78E018BF
S3150000572000F038F8BDF802000026C0F30310012887
S3150000573011D1192400F029F8BDF800006D1C30B114
S315000057404FF47F41401A17D0FF3813D016E0B61C2D
S31500005750641EEFD10EE0192400F017F8BDF8000022
S315000057606D1C20B14FF6FF71884203D00BE0761C0A
S31500005770641EF1D170B2F2BD761CFBE7BDF80000E5
S31500005780C0B200B9761CF643F4E701226946A8B216
S31500005790FEF758BFC01C01220DF1020180B2FEF7D0
S315000057A051BF38B50C460021764B009169461D5C09
S315000057B02A4620466D1CFEF792FF05EBD57504EBD5
S315000057C06504A0B2FFF7A4FF0028009948BFC043B4
S315000057D041FA80F032BD0000FE000300F81303001A
S315000057E0FA130300FE130300FC130300F8B5664A20
S315000057F0138804466848254630F815609C4202D254
S315000058005849485D18B940F68321FFF709FB5D4901
S315000058104D5D681C00EBD07006EB6007B8B2FFF771
S3150000582077FF0346192B0FD20020DFF840C1DFF8BF
S3150000583038E1ADF8000013FA87F7BCF80030DEF85F
S315000058400000FFF70BF960B131462046FFF7A9FFCC
S3150000585000902B46401C00907F2269462046FFF7A9
S3150000586059FEF1BD021403007CB50546474806788B
S31500005870344621464C1EC9B22888022925DB50FA37
S3150000588084F000F030F8BDF800000028F1D043485D
S3150000589029880288E6B27243521890B2FEF7E7FEF4
S315000058A00020ADF8000001222D882F4800687519E8
S315000058B02E4E3388ED1A694600EB450001F0DFF8FD
S315000058C001000ED001F032F90BE0FEF7D0FE012008
S315000058D0A8712D4A29881088891901EB4001891D74
S315000058E0A980E0B276BD0122694680B2FEF7AABE63
S315000058F028488179022908D0817B022908BF08300F
S3150000590003D0817D022901D11030ADE70020704718
S315000059107CB504461D48067800250CE0208850FA20
S3150000592086F0FFF7E0FFBDF8000000281EBF4FF627
S31500005930FF7188426D1C3046461EC0B20028EDD16C
S31500005940E8B276BD13488179022908D0817B022905
S3150000595008BF083003D0817D022901D11030D7E776
S31500005960002070470CFB020030630020FA000300A1
S31500005970B8FD02003CF90200F200030038F902000B
S3150000598054FB020030FB0200001403002D14030038
S315000059906C73002068660020A46A0020F6000300ED
S315000059A073696D2D656570726F6D322D696E7465E4
S315000059B0726E616C2E63000062F30F2262F31F4267
S315000059C0401810F0030308D0C91A1FD3DB0748BFDD
S315000059D000F8012D28BF20F8022D130030B414461C
S315000059E01546103928BF20E93C00FAD8490728BFD8
S315000059F020E90C0048BF40F8042D890028BF20F894
S31500005A00022D48BF00F8012D30BC7047C91818BFD9
S31500005A1000F8012DCB0728BF00F8012D7047FEE7DF
S31500005A2080B50121864801F0F5FA8648012101601A
S31500005A30002001F056FE012304220221052001F078
S31500005A4094FE0120FEF78AFD00F00EF8FEF7B7FD82
S31500005A5001F083FF012340227B497C4801F048FF87
S31500005A607B490860C00F02BD70B5012201210420E8
S31500005A7001F0CAFC7748784C0168784D784E41F0C1
S31500005A80010101600021C26842F08072C2600222F8
S31500005A907448206029603160734874490A6001F0D7
S31500005AA0E9FA7349734A744B0818B0FBF2F0401ECA
S31500005AB01860002129644FF480727048704920658F
S31500005AC03160704802602B6843F480732B6070BDB0
S31500005AD080B563480168CA070ED56B490B6823F485
S31500005AE040630B60016849084900016002681102C1
S31500005AF0FCD4642001F03DFF00220021042001F0C7
S31500005B0083FC5A495F4B00200860186051490860C1
S31500005B1001BD5048006800B10120C0B27047D122D3
S31500005B2002704170090A817058490A78C2700420CF
S31500005B30521C0A7070472DE9F14FDFF854A1DFF8C7
S31500005B4054910446DAF8000082B0065D01F064FF65
S31500005B50761DF6B2002700904FF6FF7842E0B91E98
S31500005B609DF80800C9B200F001FB0546414601F068
S31500005B70BBFF804627E0B54239DA01F04DFF0099B8
S31500005B80401A80B240F2F512904230DAF8B210B9FB
S31500005B905B25012718E0012804D1DAF80000055D2D
S31500005BA0022711E0F01E854207F1010B08BF4546AA
S31500005BB009D0B11E8D4208BF4FEA182503D0701ECA
S31500005BC08542CCD15D255F4625480168CA0709D5BF
S31500005BD022480168CA0505D5D9F800000028FBD07F
S31500005BE089F800501B4908680028FDB2C3D1B542A8
S31500005BF00CBF00200120BDE8FE8F10B524490A68BD
S31500005C00145C042C01DA012010BDBDE8104092E7B7
S31500005C1010B50F4B186890B04022694601F051FE4E
S31500005C2058B1C1B2684600F083F9044621461220F5
S31500005C3000F082FE204600F0F8F810B010BD00001B
S31500005C4000250A0010881442E471002058FF020063
S31500005C50D8640020F0ED00E0B00F00E0000E00E098
S31500005C60800E00E055CEACC506000E00F00004E044
S31500005C70FCAC0600F8590D00100004E0FF030040DC
S31500005C800D000100040304E0001000E0067C002083
S31500005C903C640020200000E02DE9F04104469046D7
S31500005CA0012522008AB00F461E4606D0012C1DD0C3
S31500005CB0102C02D0202C19D01EE0002102F038F959
S31500005CC00546012C18BF202C08D0022C18BF212C09
S31500005CD004D0032C1CBF222C232C1AD1012E019791
S31500005CE0ADF80C800AD14FF480500BE0684611499C
S31500005CF0282202F0B3FAE4E701200BE0022E03D1DA
S31500005D004FF44050ADF80A006946204602F010F9FB
S31500005D100546E8B20AB0BDE8F0810CB480B50A4683
S31500005D20014602AB044800F002FC02BC00205DF80C
S31500005D300CFB000060F90200DD8000007047FEE702
S31500005D40DFF840170A6802EB40107047DFF8382783
S31500005D501368195470472DE9F0415FEA000831D005
S31500005D6002F0BFFADFF82427DFF824171678DFF8E9
S31500005D702457FF23FE2E19D10027DFF81C67DFF812
S31500005D801CC7177034782C7007E07C1C0EF807408F
S31500005D90DCF800E00EF80730E7B23478D1F800E01E
S31500005DA0A742F2DB0EEB040606F8013C2E784645C8
S31500005DB00AD202F09CFA0520FEF706FC00211B2001
S31500005DC002F018FBFF2020E0A6EB08062E701578DF
S31500005DD0DFF8CC661778D6F800E001240EF8074005
S31500005DE0A8F10108D1F800C01CF8074014705FFA4A
S31500005DF088F4002CEED1DFF890260CF8073000214D
S31500005E001368595502F073FA2846BDE8F08110B5BB
S31500005E10044602F066FADFF8881609680A5D521C25
S31500005E200A55BDE8104002F062BAF8B5044600F023
S31500005E3031F8054602F055FADFF85036DFF85476A9
S31500005E40DFF84CC6DFF858E601E02C46FF25FF2CAC
S31500005E501CD022460FE0DCF80010895C0026A65410
S31500005E603C78641C3C70FF29DCF800601C78B45454
S31500005E701A70EAD00A46DEF800108C5C661E8E5454
S31500005E80DEF80040A15C11F07F0FE4D0BDE8F240DF
S31500005E9002F02DBA10B5DFF808160A68145C210660
S31500005EA005D5DFF8E02513684001185C10BDFF201A
S31500005EB010BDB0B504460D46FFF7ECFFFF2818BF2E
S31500005EC0FFF7B3FF2846FF28DFF8D47504D13868FA
S31500005ED0015D01F07F0105E0FFF799FF3868015D7C
S31500005EE041F0800101556401DFF8980501680D5500
S31500005EF0B0BD0EB430B504460120FFF72CFFDFF825
S31500005F0084150A68FF2802EB40110ED0DFF87825C9
S31500005F1013681C5403AA002304E052F8045B01F83A
S31500005F20015B5B1CDDB2A542F7D330BC5DF810FB0C
S31500005F307CB504460D4605F11F000004400DC0B2B5
S31500005F40FFF709FFFF2806460DD0DFF83C0501687C
S31500005F508D553CB1012000902B460022314620464B
S31500005F6000F002F8304676BDF3B5054681B0DFF89D
S31500005F701805016817469DF808201E468B5CF41923
S31500005F80A34203DA4FF4B77100F0E0F830000CD00A
S31500005F90089C394602A800F0DDF802469DF8081074
S31500005FA000943346284600F001F8F7BD2DE9F04786
S31500005FB0089DDFF8DC64DFF8CCA4804689461446E9
S31500005FC01F460DE02900224612BF414601464046C3
S31500005FD0FEF764FA30683F1BA04410F809900024CD
S31500005FE0F8B270B1DAF80000214600EB49135818F0
S31500005FF051FA87F12029B2BFFCB2C4F12004E4B201
S31500006000E0E7BDE8F0872DE9FC410746DFF87804B4
S3150000601088460168CC5D15461E462919CBB2A342B7
S3150000602006DB28000DD0C9B2384600F05BF808B18F
S31500006030182007E000962B46224639464046FFF7D1
S3150000604093FF0020BDE8F6810123DCE70A4600E065
S31500006050521C1378002BFBD1521A0123D2B2D2E77D
S315000060602DE9F041804601F11F0402F11F00E4040E
S31500006070C004240E000E04B9012400B90120844294
S315000060802AD0DFF80C5419DA001BC0B2FFF763FE02
S315000060900746FF2808BF00201FD0641E00F01FF827
S315000060A02E68305CFF2804D000F019F8305CFFF74A
S315000060B0BCFE00F014F829680F540DE08A420BD29A
S315000060C0411EC9B200F00CF804462868005DFFF7CF
S315000060D0ACFE2968FF2008550120BDE8F081E1B239
S315000060E0404610E070B5DFF8A063336805460C46FD
S315000060F0595D2246FFF7B4FF18B1306844550020B9
S3150000610070BD182070BD04E0DFF884231368185CA6
S31500006110491ECAB2002AF7D1704731B50C46DFF8DE
S3150000612068130A68155CAC4203D340F2052100F0FF
S315000061300DF82146684600F00DF8DFF848139DF883
S3150000614000300A6802EB4311084432BD0FF25430A6
S3150000615000F064BD38B504460D46C9042078090E22
S31500006160FFF7D1FF207005F01F0032BD80B5FFF7A5
S31500006170D4FF007802BD10B51446FFF7CEFF0470B9
S3150000618010BDF8B5DFF8005304462868065DFF2CFD
S3150000619003D140F22521FFF7D9FF06F11F01C904FB
S315000061A0080EFFF7D8FDFF28074609D02868C65510
S315000061B00096002322460021384600F0C2F83846F1
S315000061C0F2BDF8B505460E4617460120FFF7C3FD9A
S315000061D0FF28044610D0DFF8AC023246066806EB0C
S315000061E044163B462021701900F01FF82D18DFF8E1
S315000061F0980201680D552046F2BD1CB504AC00940A
S3150000620000F001F816BD10B514461A46029B20444C
S31500006210091BBDE81040C9B207E00CB480B502AA5C
S31500006220FFF7CFFF02BC5DF80CFB2DE9F047814676
S315000062304F460024884615469A460CE0F6B23419B5
S31500006240444542DA32463846FEF728F9BF19641E3D
S31500006250641C6D1CE4B2444537DA2878A8B33128AB
S3150000626018BF32280ED15AF8041B07F8011B322832
S31500006270EED1641CE4B2A045A4BF091207F8011BC5
S31500006280E6DA22E034280ED1211D5AF8040B88459F
S315000062901BDB3870020A010C000E7A70B970F870B8
S315000062A03F1DE41CD4E7A0F133035AF8041B072B67
S315000062B038BFA0F13006C1D3A0F14103072B34BF8C
S315000062C0A0F137065AF8046BB8E7A7EB0901C8B284
S315000062D0BDE8F0876D49FE200870704770B500F084
S315000062E02BF800F003F8301880B270BD060229467C
S315000062F020463BE7E0B58DF804200123120A8DF80D
S31500006300052000930A460146022301A8FFF72CFE4A
S3150000631007BDF8B500F010F8FFF7E8FF8619E91C8D
S31500006320C9B2FFF7E5FF0702AD1CE9B2FFF7E0FFD0
S31500006330C01906EB0040F2BD0D46691C0446C9B201
S3150000634014E7FDB5089C20000D461E461BD1F7BD7F
S315000063504C4B9DF804001B6803EB4010C2F1200271
S31500006360D2B2BA42B8BF174681199DF8000003EBB6
S3150000637040133A465819FEF791F8E41B7D19BE19E9
S31500006380A0B200B9F7BDA9B26846FFF7E3FE05461D
S31500006390B1B201A8FFF7DEFE0646B542A7B2B4BF0A
S315000063A032462A46D4E770B504460D4601F099FFF9
S315000063B03A4A23781268FF2B08BF555503D0134479
S315000063C01E7856551D702570BDE8704001F08FBFD0
S315000063D038B5044601F085FF2178FF22FF2908BF62
S315000063E0FF2507D02D4B1B685D5C8D420EBF2270CA
S315000063F05A5D5A5401F07BFF284632BDF8B5044673
S315000064000D4601F06EFF21780026FF2913D0234B9D
S315000064101B680A46012603E08F420CD03A46761CDA
S315000064209F5CAF42F8D1DF5D9F54A94203D18A42F7
S3150000643008BFFF22227001F05AFFF0B2F2BD0078C9
S31500006440FF2801D1012070470020704710B504468F
S3150000645002E0FFF7EAFC2046FFF7BAFFFF28F8D173
S3150000646010BD30B50D4B00781C68255C954203D0F5
S315000064702846255C9542FBD121541868425430BD0C
S3150000648000000000386400203C640020C267002041
S3150000649044640020A5670020A4670020486400200B
S315000064A0406400207061636B65742D627566666575
S315000064B0722E630070B513461044DCB264B101F06D
S315000064C00F060909451E0A2EACBF37243024A4192D
S315000064D028462C705B1EF0E7104470BDF0B5002313
S315000064E041B1002806D52D2313700123B0F1004FCA
S315000064F018BF4042002100248A4D002601E0C01B3F
S31500006500761C55F82470B842F9D2F7B20FB90F00CD
S3150000651004D0D9B2303656545B1C0121641C092CB8
S31500006520EBDBD9B2303050545B1CD8B2F0BD2DE94C
S31500006530F84F824696B04FF0000914A888461746D1
S315000065401D4604ACCB46019012E04FF0010B074606
S3150000655000E004460198844209D39DF80020A41A5D
S3150000656000F0D4F8002851D159FA84F904AC7F1C04
S3150000657004A88DF800009DF800003978201A00293B
S315000065800FD0252905D05FEA0B0208BF04F8011BCE
S31500006590E0D05FEA0B0114BF4FF0000B7F1C397887
S315000065A00A0000F0A680B1F1250216D00B3A092A9E
S315000065B040F28080283A75D00A3A12D0521E3CD05A
S315000065C0521E57D0083A55D0121F39D0D21E37D096
S315000065D0921E4FD0D21E65D0BCE7252004F8010BD1
S315000065E0B8E729686A6803912046083502920024B4
S315000065F0029A9442ADD20399095D0222FFF75AFF2F
S315000066000199884206D300F085F800287AD159FA14
S3150000661086F904A80299491E8C423CBF202200F844
S31500006620012B0199884206D300F074F8002869D13D
S3150000663059FA86F904A8641CDAE755F8040BCDE785
S3150000664055F8046B044600F061F800285AD159FA4F
S3150000665084F9314604AC064600E0761CF0B2085CCC
S315000066600028FAD1F2B24046D04700284AD159FA5A
S3150000667086F96FE76C290AD17A7855F8040B752AE2
S315000066800EBF00210121642A07D17F1C05E0752970
S3150000669055F8040B0CBF002101212246FFF71EFF0F
S315000066A0241857E755F8041B0222C9B22046FFF703
S315000066B001FF4EE77878782818BF58284FF0010B6D
S315000066C0EFD17F1C781E32294FF0000B04D155F80C
S315000066D0040B81B20422E9E734297FF436AF55F87A
S315000066E0046B0422310C2046FFF7E4FE0422B1B20B
S315000066F0DDE70546EAB200F00AF818B9A9445FFAE0
S3150000670089F000E0002017B0BDE8F08FE2B204A9DE
S31500006710404650479DF80020861AF2B204A940462A
S315000067205047000034FF020070B5FFF771FAAA4C1B
S315000067302046FFF784FED8B92046FFF749FEFF281A
S31500006740044615D0A5480168085D851EE9B22046B5
S31500006750FFF7C4FD0646E9B22046FFF7C3FC214613
S31500006760304600F0E9F82046BDE87040FFF75DBB13
S3150000677070BD03460A4696A10420FFE70CB480B517
S3150000678002AA00F031F801BC5DF80CFB0A000346D2
S3150000679002D090A11120F1E77047000080B586B0C5
S315000067A002F08EF81022049200218D4A0092662390
S315000067B00591039302910191024600238CA10120C9
S315000067C0FFF7DCFF874881790288437903910292BB
S315000067D001930179C37882780091422087A1FFF75F
S315000067E0CDFF07B000BD00002DE9F04F85B005468E
S315000067F00F469046FDF7F7FE0024F0B9FFF789F93A
S31500006800D8B10120FFF7A7FAFF28824615D000214C
S31500006810FFF79CFA294601A8FFF781F9054687BBD1
S3150000682000F083F830B95046FFF7E7F910B10420BD
S31500006830FDF7CAFE5046FFF7F8FA05B0BDE8F08F3F
S315000068408DF8041001251BE0644858F8046B0068B5
S3150000685010F80A90F2B2FF2A12D0F1B210F801B085
S315000068600BEB0901C9B25046FFF73CFC0028E1D109
S31500006870CDF800B00023F2B249465046FFF761FD5D
S315000068807F1C38780028CBD0A0F130010A2904D229
S315000068900A2101FB0404303CF2E700F046F8002828
S315000068A0C8D139780025422901A80ED044291AD02A
S315000068B0462925D057290DD06229C5D066292AD068
S315000068C06C2925D0702926D0BAE758F8040B8DF824
S315000068D00400B7E758F8041B8DF8041002250904D4
S315000068E0090E4170CCE758F8041B8DF804100B0A0A
S315000068F00A0C090E437082708DF807100425BFE755
S3150000690058F8041B5046FFF7A1FB0028B8D091E7C2
S3150000691058F8044BB4E758F8041BE2B25046FFF7A8
S3150000692093FB002808BF0024F0E72A4601A9504639
S31500006930FFF78ABB000000002DE9F043122885B05E
S3150000694080460D4609D03A281ED04FF6FE71884281
S3150000695004BF284600F0E1F833E02048224F0168E2
S315000069604E5D2846FF282CD0212EB4BF3446202465
S31500006970FFF7E6F901462246002001F0B5FA38682D
S31500006980455D203EF6B2ECE702F044F8814602F09F
S315000069908CFF064602F010FB074602F009FB044690
S315000069A002F07FFF11490B8816A1029302460C489C
S315000069B00390CDF810900196009723463B20FFF7F1
S315000069C0DDFE2946404605B0BDE8F043FDF72CBE86
S315000069D0574600006C700000C36700203C6400202E
S315000069E00C780020240103004464002090670020F6
S315000069F0424238704242424257424200424242427A
S31500006A005742000057424257573870420000000074
S31500006A10DFF800F0E1620020DFF800F05D620020A0
S31500006A20DFF800F0DD62002038B504460D4603F0BD
S31500006A30CFFA012C02D1FFF7EBFF02E02846FFF761
S31500006A40EBFF18B103F0CDFA012032BD03F0C9FA0D
S31500006A50002032BD80B58308800705D54FF6FF724A
S31500006A6042EA0142009204E041F07F4141F47F0195
S31500006A700091042269469800FFF7D2FF02BDF8B5DF
S31500006A8006460D4605F0010106F0010001431446D5
S31500006A9001D00120F2BD9CB132462B46611C4FF657
S31500006AA0FF7C01E0921C9B1C491E0BD01788674592
S31500006AB01CBF18880028F5D04B20F2BD03F091FAD0
S31500006AC00020F2BD03F084FA012C01D0B00707D5EF
S31500006AD035F8021B3046FFF7BDFFC0B9B61C641E71
S31500006AE0022C0CD367087F007A0029463046FFF750
S31500006AF097FF60B906EB470605EB4705E41B002C3C
S31500006B00DCD029883046FFF7A5FF0028D6D003F051
S31500006B1068FAD1E7704700207047704701987047C0
S31500006B20704770477047702003F082BA70B504460C
S31500006B3043381F4D08D0401E012809D9801E012860
S31500006B400ED9C01F32D02AE0BDE87040FEF7D0BE95
S31500006B50FEF7F8FE20B1FEF7CBFE0028FBD170BD94
S31500006B60144E307810BB01213170FDF745FC442CE2
S31500006B7012D00CD3462C05D00ED3472C07D140F6A5
S31500006B80010001E040F6020003F05AFD04E04FF474
S31500006B908771284600F042F80020307070BD284604
S31500006BA0BDE870404FF4907100F038B870BD000039
S31500006BB0E0FF02000A7C002070470020704700209A
S31500006BC070470120704701207047002070477047CA
S31500006BD002F0A0B80020704701207047704730B41B
S31500006BE0002513E050F8042BD30744BFA9F1010395
S31500006BF09A18091F042942F8045BFAD213468C0737
S31500006C0044BF15809B1CC90748BF1D7050F8041B64
S31500006C100029E7D130BC704742DE704738B50446DC
S31500006C200D4602F0BDFB00F029F903F05FFD294691
S31500006C302046FFF79EFD2B4622466D490120FFF7B1
S31500006C406CF829462046BDE83440E5E769482DE959
S31500006C50F843694E0168B1654FF42068026A6749D6
S31500006C60F2650B68336649687166426AB266816A84
S31500006C70F166C26A3267016B7167806B96F83810ED
S31500006C80B06748074CBF346CF46B03F013FD002269
S31500006C9032658442DFF868E1014624BFAEF1200781
S31500006CA0A742A146716506F19002564BDFF858C11E
S31500006CB018D3A0697064E469B464B56DC5F30805BA
S31500006CC0062D13D1604511D398420FD200884DF698
S31500006CD04264A0420AD17068B4685060946040F281
S31500006CE0017803E000247464B46481464748814215
S31500006CF038BF0146084670456AD20C68B4F1CD3FEC
S31500006D0008BF091DF6D063E0062C09D1C4B2002CD9
S31500006D100CBF0520401E06F17C04C5B244F82510C0
S31500006D20F14520D25EF8041D6145F9D39942F7D2A8
S31500006D30CC07F5D5002406F17C0555F824708F4262
S31500006D40E2D0641C062CF8D3DEE7F16F002306F1CF
S31500006D507C0506EB8304D4F8804045F823405B1C91
S31500006D60042BF6D911600146481EC9B20029ECD1A0
S31500006D70B06DC0F30800032810D0042811D00528F0
S31500006D8012D0062813D00C2817D0122818D1204864
S31500006D900268910719D540F2025816E040F601281C
S31500006DA013E040F6022810E040F603280DE0B8F59F
S31500006DB0206F0AD140F6042807E040F6052804E0D3
S31500006DC018B1322838BF40F607284046BDE8F2839E
S31500006DD01049081AF0640021002006F17C04C5B2AF
S31500006DE0401CC7B244F82510062FF8D3002097E7B9
S31500006DF0CCF9020004ED00E00000002000E300E012
S31500006E00F0600020EAF80200F84300009C00002031
S31500006E101C200540F060002003F06CBC7FB501210A
S31500006E20204800F0F7F801220121012000F0ECFAD9
S31500006E300421072003F060FC1B4A92E838006946EB
S31500006E40032281E838000D218DF8081001268DF8FF
S31500006E5009208DF800608DF807606946134C2046BE
S31500006E6003F0C6FC1249042008600222114962623E
S31500006E700860A26A42F00202A2627FBD0B4803F0DC
S31500006E80ABBCA52803D10021084803F08CBC704791
S31500006E900648006800F001007047074908680028A6
S31500006EA0FCD1704700050A0060FA02000020054088
S31500006EB080E200E000E100E008200540890001EBE7
S31500006EC0401101F184410A607047890001EB4011CD
S31500006ED001F18441086870470122DFF8181510B5E2
S31500006EE0884232BF0022DFF81015884201D21446CC
S31500006EF000E002241021DFF80405FFF7DFFFDFF8CA
S31500006F005006016821F0807141EA0461016010BDFC
S31500006F10DFF8EC14DFF8EC340A6802F040729842AD
S31500006F2038BF002204D3DFF82C36984238BF01223E
S31500006F30086820F0407040EA02600860704738B583
S31500006F4000F013F841F67130286003F0A4FC00212C
S31500006F5005E038B500F009F841F671322A60FFF70E
S31500006F60D7FF0CB10020286031BDDFF880562C68B1
S31500006F7004B101247047C01C0F2801D200077047D6
S31500006F804FF070407047000038B50446002500F009
S31500006F9003F9DFF8C425DFF87415944208D0DFF84A
S31500006FA0BC25944206D0DFF86825944204D006E05A
S31500006FB0086802E0486800E0886800F00700401EA4
S31500006FC003281BD8DFE800F002050C0803F0A9FC33
S31500006FD004E003F0ACFC01E003F0A6FC05460DE07E
S31500006FE003F04CFCDFF874160968090E01F0010184
S31500006FF00122491C02FA01F1B0FBF1F5284632BD27
S31500007000DFF854164A68D30702D40A680242FCD154
S315000070107047000070B50C460246110A01F00F01D8
S315000070200020491E0929DFF83C5613D8DFE801F095
S3150000703005131212071518121B1FDFF8C053C2F3EF
S31500007040043608B1FFF7DCFF224631462846BDE884
S31500007050704033E770BD1035F1E730350120EEE7BB
S3150000706038351020EBE740354FF48030E7E7DFF89E
S31500007070F855E4E770B50346DFF8B805DFF8D8241D
S315000070800668DFF8D814DFF88804DFF8C444012561
S3150000709013F4781362D0B3F5003F28D0B3F5802FF0
S315000070A021D0B3F5202F59D0B3F5402F25D0B3F515
S315000070B0602F4BD0B3F5801F6BD0B3F5A01F27D040
S315000070C0B3F5B01F2CD0B3F5D01F32D0B3F5F01FF7
S315000070D01CD0B3F5001F2AD0B3F5101F33D0B3F57B
S315000070E0481F3ED054E003F0D8FBE16802E003F00D
S315000070F0D4FBA168C1F3082104E003F0CEFB61696B
S31500007100C1F30421491CB0FBF1F642E010461AE037
S31500007110FFF73AFF0646206B00F00F00C64038E046
S315000071201046FFF731FF216A01F00F0107E008461C
S3150000713009E00846FFF728FFA16A01F003018D4028
S31500007140B0FBF5F625E0FFF71FFF1FE0DFF81C0593
S3150000715000F022F807281CD0092819D103F09DFB5E
S3150000716014E0DFF80C0500F017F804280CD0072807
S315000071700FD008280CD103F090FB06462068C0F318
S315000071800420401C464304E003F0A3FB064600E04F
S315000071900026304670BD0000014601F00F010120B7
S315000071A0491E0729DFF8D02449D8DFE801F0040F8B
S315000071B01348202E4836506A00F0070002283AD0BD
S315000071C002D3042804D01CD30520704711690FE0B0
S315000071D002207047516901F00701491E03292FD883
S315000071E0DFE801F00F020311F2E70620704791690C
S315000071F001F00701012904D00229E9D0042902D0AF
S315000072007047032070470A207047116811F001018A
S315000072100FD0012914D109207047DFF860140A68DD
S3150000722002F03002102A04D0202A04D0302A04D0DA
S3150000723070470720704704207047082070470020D9
S315000072407047000070B500F00F0003250326401EAE
S315000072500728DFF824440FD8DFE800F0042E327741
S31500007260305A77650229DFF88C0106D003291AD037
S3150000727004291AD005291DD070BD04250026012237
S315000072800121304600F0C0F8FFF759FE6560DFF8CF
S31500007290E403FFF7EFFEFFF71FFE03F0EFFABDE88A
S315000072A07040002155E60126E9E702250226FFF790
S315000072B013FEE4E70125FAE7103402E0183400E093
S315000072C01434012929D0022906D003290BD0062916
S315000072D010D00A291AD070BD01220121002000F029
S315000072E093F802201AE001220121012000F08CF817
S315000072F0012013E003F0C2FAFFF7EEFD01220021A0
S31500007300DFF86003FFF7DAFD032007E0042005E05D
S31500007310072902D0092903D070BD0020206070BD66
S315000073200121216070BD012906D0042915D0072945
S315000073300CD0082915D070BD0020DFF840130A686C
S3150000734022F0300242EA00120A6070BD01220121D9
S31500007350042000F059F80120EFE700F004F80220BD
S31500007360EBE70320E9E70122012102204CE070B59A
S31500007370044600F03DF801220021022000F044F806
S31500007380217CDFF8005300200229296808BF01206C
S31500007390490840EA41002860082122782846FFF77C
S315000073A08DFD6968E07AC90840EAC1016960607AC2
S315000073B0A18840EAC120A860EE68207AFFF7DBFDCD
S315000073C0E288A17A06F07F6646EAC226227A0E4352
S315000073D046EAC2160643EE60A17B607B227B09016A
S315000073E041EA0031E07B014341EA0241296170BD77
S315000073F01120D1E60148E8010190D00300400E407B
S3150000740004000E4041787D012DE9F84F042883469B
S3150000741092466AD8DFE800F04C473D034200012758
S315000074200220012500260029DFF83482954C5ED023
S31500007430BBF1020F02BF2068C0F3011000284FF015
S3150000744000090AD12068C1074FF0010905D5206857
S3150000745020F0300040F010002060E763314600F075
S315000074605AF80028FAD0BAF1000F3ED000F052F8D0
S315000074700028FBD0BBF1020F37D1B9F1000F34D091
S315000074802068C1071BD501222021022000F0D4F874
S3150000749019E00427082003250226C4E71027202028
S315000074A005250426BFE74027802007250626BAE7DC
S315000074B04FF480774FF4007009250826B3E70021C2
S315000074C0022000F095F8022000F028F80646012276
S315000074D000210220FFF798FF3146022000F040F815
S315000074E0E76300F017F80028FBD0BDE8F18FE063F2
S315000074F0D8F80000F040C107FAD4BAF1000FF4D072
S31500007500D8F80000E840C107FAD4EEE780400E4004
S315000075100500240029464046FFF7D7BC401E032835
S31500007520574912D8DFE800F0020C06080869C0F3D4
S3150000753008007047086800E0886800F07F00704720
S3150000754051480068C0F30A007047002070470000E9
S3150000755000410E40015A620202001E000300200094
S31500007560F8B5401E0D46032805F07F06444C3A4FF9
S315000075703BD8DFE800F00228101CC5F308051A21E5
S315000075803846FFF7A2FC0028F9D12069400A45EAEF
S3150000759040252561F1BD18213846FFF796FC0028E5
S315000075A0F9D12068C00946EAC0162660F1BD192146
S315000075B03846FFF78AFC0028F9D1A068C00946EAD8
S315000075C0C016A660F1BD26480168626922F0300245
S315000075D042F010026261C5F3C310FFF7CCFC226AC9
S315000075E02A490A40154305432562F1BD40000E4075
S315000075F0244A1068C0F30110002818BF002911D0D2
S31500007600202902D030290DD00FE04FF40000D16EB2
S3150000761001408142FBD1400209D5D06F800A00F0BB
S31500007620010070474FF44000F1E71948EFE70120E9
S3150000763070470000B064002002280BD1080004D077
S3150000764014484FF4806343640160002A1CBF022083
S31500007650FFF7CEBF0120704740410E4000410E406B
S3150000766090400E40B0400E4050410E4006000E00C5
S31500007670B800320000050A0070400E405C410E4022
S3150000768010400E4024400E409C400E4000F8FF0F74
S31500007690FF03E10764400E40890001EB401101F150
S315000076A084410A60704700F1806300F1C060196090
S315000076B00260704710B500F00DF804F1806404E034
S315000076C010B500F007F804F1C064012303FA01F1D4
S315000076D0216010BD3022404B5043184400F10C0489
S315000076E070473E490A68920840EA8200086070477F
S315000076F02DE9F04101F00305164603240F21082E5B
S3150000770098460CD2B70000FA07F2B9403448FFF7A2
S31500007710CAFF05FA07F204FA07F132480DE0A6F1AE
S315000077200802970000FA07F2B9402F48FFF7BBFF9F
S3150000773005FA07F204FA07F12C482D4FFFF7B3FFBD
S31500007740079C069D2B4842463146FFF7A5FF2A4671
S3150000775031463846FFF7A0FF224631460120B040A9
S315000077603861BDE8F041244896E7F8B50546174666
S3150000777038000E461C4607D0002C284602D0FFF7DC
S315000077809FFF01E0FFF796FF2A4630201249424349
S3150000779088180F22082E05D2B300416800F015F8AC
S315000077A0416006E0A6F108039B00816800F00DF831
S315000077B081604FB9002C3146284602D0BDE8F4401E
S315000077C07EE7BDE8F44075E7F1BD9A4021EA020282
S315000077D007FA03F11143704700A0004044A400409B
S315000077E000A4004008A4004004A400400CA40040EB
S315000077F014A4004010A4004028A4004010B5DFF8EF
S315000078005C41DFF85C11E1610320206160611022B8
S31500007810DFF85001A06122620021A162E1622066C8
S315000078200022DFF84401626210216066A1662267C9
S31500007830E2662EA16267E31D0868DFF83011186062
S315000078400722204600F00AFD2023A37110BD2DE972
S31500007850F843DFF80851044628788846914608B967
S31500007860FFF7CCFF18204443281900F160060024D6
S315000078703769F568BD4212D2B4687068E41B4C459E
S3150000788088BF4C46C1192246404600F0D7FCB16875
S31500007890E7198F42A044A9EB040908BF0027ED1B96
S315000078A04D4588BF4D463DB17068C1192A464046D0
S315000078B000F0C4FC2C19EF1904B137612046BDE86D
S315000078C0F283F8B504460D46164600F00AFD074653
S315000078D0324629462046FFF7BAFFFFE704463846F8
S315000078E000F005FD2046F2BD000000005254540091
S315000078F02DE9F84300F02AF808B9FFF77FFF00F0FA
S31500007900F0FC726901460027182306F1640C03FB9C
S3150000791007FE5CF80E0010B17F1C9742F7DB97421A
S315000079200BDA7B43F018002204664566C0F86880CF
S315000079300267C266C0F8749001E04FF0FF37FFE7B8
S31500007940084600F0D4FC3846BDE8F283034E0446F0
S3150000795030780D469046994670474FE700680020FC
S315000079602472002068FF02003472002074FF0200B7
S31500007970704703F059B810B5044605211120FFF7EA
S3150000798061FC002200210220FFF73EFD1E4801682F
S315000079906FF3D321016002681C4901EAC4210A433E
S315000079A00260012101220220FFF72EFDBDE81040F2
S315000079B004211120FFF746BC134800680003C00DE0
S315000079C0704713490A68130305D44968C1F30801CF
S315000079D0018001207047002070477CB50D4E0C4693
S315000079E04FF6FF753188ADF8005002237F226846B6
S315000079F003F0A2F8BDF80000A84202D020800120C2
S31500007A0076BD002076BD000030400E4000F80F0025
S31500007A10B481E00F1814030080B500F00AF880B2B4
S31500007A2002BD80B500F005F8FA21B0FBF1F080B296
S31500007A3002BD80B503F0CEFABDE8044003F0E1BA1A
S31500007A4080B502F098FF174800214160001D03F041
S31500007A50FFF820B15FF04C011FA0FFF7DFF8002010
S31500007A6002BD10490120087070477CB50446002508
S31500007A70226802B91AE000F00CF801201AE07CB581
S31500007A800C460025226802B910E000F002F8022038
S31500007A9010E0044E044B357000210091706803F02D
S31500007AA065B900007C730020637A000003F0D8FB00
S31500007AB0002076BD03F084FC307828B97068214632
S31500007AC003F037FA852501E025603570284676BD36
S31500007AD0014600220020D2E773797374656D2D7418
S31500007AE0696D65722E6300000A0A42EA012250405F
S31500007AF0C0F30311484080EA003041010206C9B2D2
S31500007B00D20E41EA0221484080B27047010008D4F3
S31500007B10012200F01F01DFF8B4358A40400943F81E
S31500007B202020704701000CD4012200F01F01DFF86D
S31500007B30A0358A40400943F82020BFF34F8FBFF39A
S31500007B406F8F7047010008D4012200F01F01DFF893
S31500007B5084358A40400943F82020704710B5DFF885
S31500007B60784530B1012807D0102802D0202803D04C
S31500007B7004E00020204410BD1C20FBE74FF4BD713B
S31500007B80DFF8A005FFF74AF8204610BD70B5044699
S31500007B900E46154600F0A5FBE288B2420CD22188BB
S31500007BA08B1A991991FBF5FC05FB1C152580A388FA
S31500007BB0F3189A1AA280E68000F0E9BA70B5054675
S31500007BC00E46FFF7CBFF012D18BF202D044640D1EE
S31500007BD0A069016890F83200E8B904228A6400F0CE
S31500007BE072F9A0690068C16C002E07D041F004014B
S31500007BF0C1640B20FFF78AFF052106E021F004018E
S31500007C00C1640B20FFF78EFF0021A0690068BDE864
S31500007C10704003F022BC0420486300F054F9A069C8
S31500007C200068816B002E07D041F0040181630B20B0
S31500007C30FFF76CFF052106E021F0040181630B20AC
S31500007C40FFF770FF0021A0690068BDE8704003F0EF
S31500007C50B6BC70BDF8B50446DFF8CC0481421D46BB
S31500007C603BD00026F2B21C20DFF86C1442438F187A
S31500007C70BB69A3422DD13A893868A9B2FFF786FFBE
S31500007C8038680021C180204604F064FC022820DC0C
S31500007C90798AFA8951433A68908889B288B11388FB
S31500007CA0B7F80EC052888C446245B8BF99420CDBC7
S31500007CB01046834205D2FA898A189042A8BF994293
S31500007CC003DB384600F00AF8DDE70121204604F020
S31500007CD079FC761CF0B20228C4DBF1BD70B504460F
S31500007CE0DFF84834E089668A2568024670432E1814
S31500007CF0A06906F1080104F029FDA06904F02AFC38
S31500007D00012803DDA069002104F05CFC608AA18AD9
S31500007D10401C90FBF1F201FB1200608270BDFEB5C3
S31500007D200446207B68BB60680FF25D064188084404
S31500007D3000F10807A0696B4601AA02A904F012FC2B
S31500007D4061688A880098019D121A551B4A8808881E
S31500007D5090420ED26189A0698A1A3346394604F0E8
S31500007D6039FD70B96268618950886D1A451902F14A
S31500007D700807A0693346EAB2394604F02BFD00B97C
S31500007D806073F7BD000000002DE9F04105469846F6
S31500007D900027F9B21C22DFF8400351434418A369B7
S31500007DA0AB4216D160688188414534BF8688464615
S31500007DB000F097FA61684A8812FA86F1628900F043
S31500007DC04EF86268518061688A88961B8E8000F042
S31500007DD08EFA7F1CF8B20228DBDBBDE8F08110B515
S31500007DE01129044609D1A069002104F0F8FB0021FD
S31500007DF021732046BDE8104091E7132906D1A069FA
S31500007E00012104F0ECFB0120207310BD206800F175
S31500007E100802008811542068018800F01EF80180CD
S31500007E208188491C8180A06904F0F6FB21682289BB
S31500007E308988511A89B220B9E2898A42A8BF0121EC
S31500007E4005DA012808D1208A814205DB0021A069D4
S31500007E50BDE8104004F0B6BB10BD2289491C91FB59
S31500007E60F2F302FB1311704710B52020FFF776FEE0
S31500007E700446DFF8BC02A16991F83120012A09D134
S31500007E8001690A060AD503F087FB01462046BDE8CC
S31500007E901040A4E7C16C21F00401C16410BD10B507
S31500007EA0DFF88C4228B92046BDE81040002103F0D7
S31500007EB0D4BA00F008F80B20FFF728FEE06C40F07B
S31500007EC00400E06410BD0B203CE680B530B9BDE887
S31500007ED004400521DFF8580203F0BFBAFFF7F3FFAD
S31500007EE0BDE802400B201DE6F8B50C461546FFF727
S31500007EF035FE0646306881883289E8B2121A914208
S31500007F0001DB0120F2BD00270EE000F0EAF931683E
S31500007F1014F8012B01F1080309885A547F1C3168B3
S31500007F200A88338900F0C6F8AF42EED30020F2BDCE
S31500007F30F8B5012804460D4603D9103801D010388B
S31500007F4052D1204600F02AF910B9204600F085F8F3
S31500007F502046FFF703FE06462046FFF7FFFD2100F9
S31500007F600FD0012C03D0102C0BD0202C3CD1DFF8E5
S31500007F70C411DFF8C421016080234260038143817C
S31500007F8009E0DFF8B821DFF8B8110260416040234C
S31500007F90802103814181200018BF102C03D1BDE848
S31500007FA0F140FDF73DBD012C18BF202C53D1012C0B
S31500007FB016BF202CDFF88C010020012C18BF202CC6
S31500007FC0B06111D1DFF88011DFF88001E961A861A5
S31500007FD0A98CF181EB8C33828B4207D21C2130466F
S31500007FE004F04CFC0220F2BD0120F2BDB26992F809
S31500007FF0310001280CD0308990FBF1F701FB170006
S31500008000002802BF93FBF1F001FB10310029E5D1F6
S315000080102946104604F0E4F8F0B9B069017F007E05
S3150000802001230222FFF7A1FB287C012808D10121A8
S315000080302046FFF7C3FDB069002104F0C3FA0AE049
S31500008040002070823189F08991FBF0F0B08200F057
S31500008050A2F800F0A0F80020F2BD58B501280446A9
S3150000806003D9103801D0103813D1204600F096F805
S31500008070F0B9204600F06CF82046FFF76FFD012CA2
S3150000808018BF202C06460FD1B06904F06CF910B168
S3150000809052BD012052BDB06990F83110012903D1BB
S315000080A000212046FFF78AFD1C21304604F0E6FB3E
S315000080B0002052BD521C92FBF3FC03FB1C220A80DB
S315000080C08A88521C8A8000F012B9000000E100E0A4
S315000080D080E100E080E200E0A86D0020F8B5012410
S315000080E0012807460E46154603D9103801D0103828
S315000080F015D1380018BF102F04D129463046FEF797
S3150000810045FB00243846FFF729FD012F18BF202F15
S3150000811005D180692A46314604F080FA0446204695
S31500008120F2BD000088F90200097000F0557C0000DD
S3150000813000000140986C0020206D0020C86B0020D4
S31500008140106C0020E06D0020B46300203463002032
S3150000815070B50546FFF702FD0646012D346818BFC7
S31500008160202D0DD1B06990F83110012908D00221D7
S3150000817004F03EF90020708200F00DF800F00BF8D4
S3150000818000F0AFF80021A18021806180E180BDE888
S31500008190704000F0ACB83046FFF7A0BD80B50128AE
S315000081A004D9B0F1100101D0103906D1FFF7D6FC81
S315000081B000281CBF0068002801D1012002BD002054
S315000081C002BDF0B40246106895681318506803EBB8
S315000081D05004C0071DD54D441BE013F8017B05F87C
S315000081E0017B491EF9D1A0B1B60813F8011B06F0B0
S315000081F00306032E08BF13F8016B01EB0621494263
S31500008200801C294405D011F8016B05F8016B401E4E
S31500008210F9D1A3420ED013F8016B16F0030104BF87
S3150000822013F8011BC91C30090F28DAD113F8010B0A
S315000082300F30D6E7F0BC02F10C00704762B38B0733
S3150000824008D0521E11F8013B00F8013B00F02480D3
S315000082508B07F6D1830740F0208000BF103A07D382
S3150000826030B4B1E83810103AA0E83810F9D230BC72
S31500008270530724BFB1E80810A0E8081044BF51F81E
S31500008280043B40F8043BD20724BF31F8022B20F808
S31500008290022B44BF0B7803707047121F17D35B0085
S315000082A009D151F8043B20F8023B1B0C121F20F8A1
S315000082B0023BF6D20BE051F8043B00F8013B1B0AE7
S315000082C020F8023B1B0C121F00F8013BF3D238BF0B
S315000082D0121D521E24BF11F8013B00F8013BF8D8CD
S315000082E07047EFF31180602181F31188704780F3A6
S315000082F01188704710B5364C08220021201DFCF766
S3150000830014F904F0D5FA207004F0D2FA607004F083
S31500008310CFFAA0702F480178E17010BD10B500F0BB
S3150000832047FE2D4C2178884203D0084600F04AFDCE
S3150000833048B900F041FE94F90610884205D0084677
S3150000834000F049FE08B1012010BD608801F093FAE3
S31500008350A08801F0AEFA2148017801290CBF01205E
S31500008360002001F075FA002010BD10B51C4C00204D
S31500008370207004F0DCFE20B92046BDE8104004F071
S3150000838033BFBDE81040C9E780B5002000F014F8FF
S3150000839028B1002000F005F808B1002002BDFF203A
S315000083A002BD1048007802281CBF1128432801D1BD
S315000083B001207047002070470848007801281CBF3C
S315000083C00228032801D101207047002070470000D1
S315000083D038780020B867002092670020237C0020B0
S315000083E030780020247C00200020704770207047E1
S315000083F00020704782B08DF80010DDE90023114699
S315000084001A4602B005F002B833B585B005468DF8B8
S31500008410042000F099FA0446284600F0A5FA7CB13B
S315000084200028BDF818000FD100F08DFB8DF8000074
S31500008430FF2804BF00218DF80010CDF808D016E003
S31500008440A8B106A8029012E000F07DFB8DF80000AE
S31500008450FF2804BF00218DF800109DF80000BDF82C
S3150000846018108DF80C0003AAADF80E100292DDE983
S3150000847001010A460146284604F0C8FF07B030BD90
S315000084804901020003D4DFF87C0481547047DFF809
S31500008490783402F00F021A4402F8041C704700F008
S315000084A0070010B5C0F10703042B28BF0323C41C23
S315000084B0072C34BF0020001F012404FA03F35B1EBF
S315000084C01940814004FA00F0401E1040084310BDD8
S315000084D0890001EB401101F184410A6070470020D8
S315000084E0704770473EB572B602F000F9DFF81C041B
S315000084F0DFF81C444169216000F0C8F901466FF0BD
S315000085000B00FFF7BDFF00F0C1F901466FF00A004E
S31500008510FFF7B6FF00F0BAF901466FF00900FFF762
S31500008520AFFF00F0ABF901466FF00800FFF7A8FFB8
S3150000853000F0A4F901466FF00700FFF7A1FF00F075
S315000085409DF901466FF00600FFF79AFF00F096F9D5
S3150000855001466FF00500FFF793FF0022022100F0AD
S315000085608FF901466FF00400FFF78AFF00F092F9D9
S3150000857001466FF00300FFF783FF00F07FF9014625
S315000085806FF00200FFF77CFF0022072100F078F968
S3150000859001466FF00100FFF773FF00F07BF901461B
S315000085A04FF0FF30FFF76CFF00F074F90146002032
S315000085B0FFF766FF0022032100F062F90146012061
S315000085C0FFF75EFF00F05EF901460220FFF758FF55
S315000085D000F060F901460320FFF752FF00F05AF958
S315000085E001460420FFF74CFF00F054F90146052030
S315000085F0FFF746FF00F04EF901460620FFF740FF61
S3150000860000F048F901460720FFF73AFF00F042F96B
S3150000861001460820FFF734FF00F03CF90146092027
S31500008620FFF72EFF00F036F901460A20FFF728FF74
S3150000863000F030F901460B20FFF722FF00F02AF97F
S3150000864001460C20FFF71CFF00F024F901460D201F
S31500008650FFF716FF00F01EF901460E20FFF710FF88
S3150000866000F018F901460F20FFF70AFF00F012F993
S3150000867001461020FFF704FF00F00CF90146112017
S31500008680FFF7FEFE00F006F901461220FFF7F8FE9E
S3150000869000F000F901461320FFF7F2FE00F0FAF8A9
S315000086A001461420FFF7ECFE00F0F4F80146152011
S315000086B0FFF7E6FE00F0EEF801461620FFF7E0FEB3
S315000086C000F0E8F801461720FFF7DAFE00F0E2F8BE
S315000086D001461820FFF7D4FE00F0DCF80146192009
S315000086E0FFF7CEFE00F0D6F801461A20FFF7C8FEC7
S315000086F000F0D0F801461B20FFF7C2FE00F0CAF8D2
S3150000870001461C20FFF7BCFE00F0C4F801461D2000
S31500008710FFF7B6FE00F0BEF801461E20FFF7B0FEDA
S3150000872000F0B8F801461F20FFF7AAFE00F0B2F8E5
S3150000873001462020FFF7A4FE00F0A4F80146212000
S31500008740FFF79EFE00F09AF801462220FFF798FEFA
S3150000875000F094F801462320FFF792FE00F08EF811
S3150000876001462420FFF78CFE00F088F801462520FC
S31500008770FFF786FE00F082F801462620FFF780FE0E
S3150000878000F07CF801462720FFF77AFE61684FF675
S31500008790FF00014041F0BF6141F4013161604FF4D7
S315000087A0E021E06840F40070E060E06840F010000E
S315000087B0E060E16104F0D7FE04F008FFEFF3088003
S315000087C0001F54494FF0CD3201E040F80429884299
S315000087D0FBD2514A514892B20021FBF7A6FE62B67F
S315000087E04F49504A012008606846146804F040FF6B
S315000087F0240E8F2C10DA4C484C4C016841F00402D0
S3150000880002604FF05013002230255543521C63512D
S31500008810062AF9D3016000E006DC45480168C9096B
S31500008820C90141F0200101609DF80100012804D131
S315000088304048016841F00401016000220D213E48D4
S31500008840FFF746FE3D4901200860012404F02AFF97
S3150000885002F03AFA05F05EF839496846D1E9002394
S31500008860CDE900238DF8034005F0E1F902F0FCFCA8
S31500008870FFF7E6F8334805F08DFC37BDFF22FF21F0
S3150000888004200CE600220121042008E60022002133
S31500008890042004E600220421042000E605F088BC3A
S315000088A005F087BC05F09ABC80B500210B2005F0C9
S315000088B08DFCBDE8014005F092BC032002F07AB9B8
S315000088C010B504F0C3FE044604F0C4FEC0B208B9F5
S315000088D0012C07D1072C11D8DFE804F00410060894
S315000088E0080A0C0E002010BD092010BD022010BD84
S315000088F0032010BD0B2010BD062010BD44F08000E3
S3150000890010BD000000E400E018ED00E000400000AB
S3150000891008ED00E090570020902D0000A0000020F8
S3150000892044000E40FC81E00FB0400E4000A0004025
S315000089302C400E4064310E4054300E4010300E4034
S315000089406CFA02003800030020B500218FA2CBB2DA
S31500008950D35C834205D0491CCDB2082DF7D3002045
S3150000896020BD012020BD000020B5002189A2CBB288
S31500008970D35C834205D0491CCDB2082DF7D3002025
S3150000898020BD012020BD7448008870477348704799
S3150000899073480078704772490870704738B5714956
S315000089A0714C087002287149714D13D1287804283A
S315000089B009D0084604F018FC287803281EBF0428AE
S315000089C0204604F011FC6B480168CA0054BF90248D
S315000089D0BC240FE000200870207005F01BFC2878EE
S315000089E0032818BF042802D105F0F5FC01E006F0C3
S315000089F04FF89124204606F0A3F850B923461322D7
S31500008A0054A10320FBF7E7FD2046BDE8324006F0FF
S31500008A1031BF31BD5348007800F00F007047514810
S31500008A20017801F00F01022901D1012070470020D1
S31500008A30704780B505F0DAFBB8B105F0EFFBA0B1E1
S31500008A404D48FDF7FCFC80B14C48FDF7F8FC60B1E1
S31500008A5006F066FF48B106F083F830B9BDE8044079
S31500008A604FF0FF31464804F024BC002002BD10B58B
S31500008A7004463C48007800F00F01022918BF03287D
S31500008A8001D0932010BD07F0B0F820813D4A3E4842
S31500008A900178A1721078E072204608F0AFFA002043
S31500008AA0207304F1140104F1100008F069FBE08161
S31500008AB0002010BD38B52B4800780C4600F00F0199
S31500008AC0022918BF032801D0932032BD2E482D4D10
S31500008AD001782170287800F018F96070287800F085
S31500008AE01F00A070002032BD10B5002300E05B1C03
S31500008AF0DCB28C4205D210F8014B9442F7D000202C
S31500008B0010BD012010BD082108F09CBC1548007856
S31500008B1001281CBF3128332801D1012070470020CD
S31500008B20704710B5044600F056FA010004BF164916
S31500008B300C7010BD144890F9000070471148007879
S31500008B407047012070470F480178480918BF012077
S31500008B507047000042420000906700203C780020E9
S31500008B603B780020247C0020787900205075002076
S31500008B70237C002044780020F6670020DE67002072
S31500008B8048FC00009267002098670020000102035D
S31500008B9004051D200203040508090A0B38B504461E
S31500008BA005F014FB0546DFF8600A837801789942E0
S31500008BB011D000F04AF8641E07D0641E08D0A41E27
S31500008BC006D0A41E032C03D905E00022194600E0B6
S31500008BD0002208F057FC284632BD10B5DFF8683A87
S31500008BE04C000146986A224608F055FCA04201D086
S31500008BF0002010BD012010BD80B500F026F808F059
S31500008C0005FD00B10120C0B202BDDFF83C2A0146D5
S31500008C10107B002800D1704780B5906A08F025FDCA
S31500008C2028B1BDE8044040F29B1100F0B0BB01BD85
S31500008C3080B500F00AF808F027FC00F003000328CE
S31500008C4001D1012002BD002002BDDFF8FC09806AC7
S31500008C50704780B5B0F5004F08D14FF6FF70DFF8CA
S31500008C60201A098800F0B0FEBDF80000DFF8981958
S31500008C704883002002BD2DE9F04F4FEA501C0C46F8
S31500008C8000F01F000026DFF8FC892FE00EF1010E30
S31500008C90EF7E5FFA8EF0B84226D2E8695FFA8EF967
S31500008CA0142717FB09F94844077A07F007076745B1
S31500008CB0ECD1477AB942E9DB90F801B090F8009020
S31500008CC007EB0B0AAAEB090A8A45DFDB14B1C91BBD
S31500008CD0494421700AB1017A117003B1186028461F
S31500008CE000E00020BDE8F08F0846761C98F8065094
S31500008CF0F1B2A942F5D2D8F808105FFA86FE51F80B
S31500008D002E504FF0000E0146C2E7400918BF40F052
S31500008D101800704738B5DFF83049A06A08F076FCCD
S31500008D200546E80744BFA06A08F075FCE8031ED5AF
S31500008D30E16ADFF8AC5A086A18B940F2662100F019
S31500008D401EFDE06A016A486818B94FF41A7100F00E
S31500008D5016FDE26A136AA06A5A680021904730B18C
S31500008D602846BDE8344040F26921FDF757BF31BDC2
S31500008D703EB5684600210022002380E80E00DFF899
S31500008D808848A07A25788DF80050002818BF022858
S31500008D9010D1DFF8B45800F00EF858B1A86A0122D5
S31500008DA0002108F073FB00F006F818B140F29E218E
S31500008DB000F026FC37BD2179A86A6A4608F0C9BBCF
S31500008DC0000000002DE9F043FF2889B006460AD1CD
S31500008DD0DFF8B00881680A68D069467A017A06F039
S31500008DE01F0646EA4116F5B205F01F001B2847D2BA
S31500008DF00021019101AB6A46F0B2FFF73CFF5FEA42
S31500008E0000081CBF019800283AD0DFF8FC47DFF8BD
S31500008E1038782179F0B2884231D00B3D102D39BF18
S31500008E20DFF8240A0568DFF8241A0D68002D1CBF38
S31500008E302878032824D0786C854214D002A82946C5
S31500008E400622FFF7FBF9B86A7D6402A908F06CFCFC
S31500008E50B0B9B86A04A908F077FCB4F91810B86A72
S31500008E6008F02DFC60B9386B0199C7F82C80884250
S31500008E7008D19DF8000078732671FFF779FF7FE02F
S31500008E808A2085E0A57ADFF8589900F089FA386BD0
S31500008E9038B1B86A08F09DFC18B140F2D32100F051
S31500008EA0FDFE019801993863C868786318B94FF4D4
S31500008EB0367100F0F3FED8F82000B96C814219D063
S31500008EC018B940F2DF2100F0E9FED8F82010086852
S31500008ED018B940F2E12100F0E1FED8F82010B86A96
S31500008EE00A68904718B140F2E22100F0D7FED8F8A0
S31500008EF02000B8640DF1080026A11C22FFF7AEF988
S31500008F00786B418A0901ADF80E10417C09011439CC
S31500008F10ADF8161002A9407C0001ADF81A00E07900
S31500008F20401E8041C00F8DF82100787C8DF822000C
S31500008F30B86A08F01BFC18B14FF4427100F0AEFE9F
S31500008F40B86A0122012108F0CFFC18B140F22D3198
S31500008F5000F0A4FE00F063FCA08B00F08CFCE08B1C
S31500008F6000F0A7FC207A00F03DFC9DF80000787325
S31500008F70267100F030FD00F0F7FC284600F07AFA82
S31500008F8097F90E10B86AC905091408F0ADFE00205D
S31500008F9000F081BE00000000010000000101010197
S31500008FA06400000064000000000000000B000000E8
S31500008FB0DFF8D00700797047DFF8C807B0F9180066
S31500008FC0002854BF05216FF0040108180A2190FB00
S31500008FD0F1F040B270470A2110FB01F0FFE7F8B547
S31500008FE000F5D77140F27722914201D38B20F2BD72
S31500008FF0DFF85456DFF88C472A6B0A26002A1EBF74
S31500009000A17E01F0C001802911D0E97B79B992F9DE
S3150000901002100F4617FB06F7B842A1BF92F90310DC
S315000090200A4612FB06F28242B8BF11FB06F0297B04
S3150000903061B10146A86A08F042FB18B140F28331DB
S3150000904000F0DEFAA86A08F055FB01E010FB06F016
S3150000905020830020F2BD38B504460B38102839BFEE
S31500009060DFF8E4070068DFF8E417086888B1002332
S31500009070002200212046FFF7FEFD50B104F01F0537
S315000090801B2D06D22046FFF740FE10B928460B28B6
S3150000909000DAFF2032BDDFF8C0194008085C7047CF
S315000090A07047C0B2704711F1630F01DA00207047B4
S315000090B011F1240F01DBFF207047643109024811CA
S315000090C001EB90618904080E704770B5DFF87845AA
S315000090D0DFF8F8590020E064687830B108F00CFE3B
S315000090E00246012A18BF032A01D1002070BD606B19
S315000090F0DFF83039DFF8106500281FBF216B0969DA
S315000091000029022A17D1E364706900F5FA707061CC
S31500009110607D18B100200021642203E0E8782979F7
S315000091204FF4A0722070A28061708021A878A07090
S31500009130E180002031E0DFF824597269A94214D198
S31500009140DFF8AC19E16402F57A727261617D91B95A
S315000091500179217001258278037990F903109540F1
S31500009160EB18CB185B1E63700DE0E36402F5FA7230
S315000091707261617D19B100222280642105E0417887
S3150000918021708278627001780901A1804179A1700D
S3150000919002891201E280C0880001A06000F01BFC79
S315000091A0E070A07841B2002948BF4042C0B270BD0D
S315000091B070B50446DFF89064257896F9160008B174
S315000091C08C2070BD3065FFF780FF30766901DFF8CF
S315000091D03824DFF8F8385078107301F58071516142
S315000091E0987910B1AD1EEDB203E0306D40F002008B
S315000091F03065F17B81B9187870B1607881060BD53E
S31500009200306D40F0010030656FF00101B1755069B5
S3150000921000F50870506102E04FF0FF30B07508F0BD
S31500009220A1FD40B108F09CFD0128316D0CBF08205E
S31500009230102008433065032000F01CF96A1CB06A50
S315000092404FF4807392B2214608F099FD6D1CA84236
S3150000925003DA40F2035100F0D3F9002070BD00009C
S315000092602DE9FC41DFF8E06396F916100025091D8B
S3150000927004296FF0030418D8DFE801F00A0A1B1B63
S315000092800300FFF795FF050013D000F078FE7BE0A2
S3150000929096F91600A0420CBF0121002100F070FED5
S315000092A0B57500F069FE8E206FE000F068FE8C2038
S315000092B06BE004F089FFE0B1F06CDFF868178842D4
S315000092C017D1307EA8B1DFF82C180868002810D511
S315000092D0DFF82408C168C1600122006800F00F00B1
S315000092E08240521E114204D100F086FB6420FEF734
S315000092F040FBFEF7F6FF804696F9160010F1010FC7
S315000093001CBF96F9160010F1020F2DD196F9160022
S31500009310DFF8F4724042B075FEF77EFB3862002239
S31500009320B06A802108F078FDF46CB06A3979326D44
S31500009330002C07F10C0306D108F0DCF8010005D17A
S31500009340002125200DE000933346A047C8B1002038
S31500009350B0754FF0FF3139628C2500F00DFE00210B
S315000093602620FFF71BFC0CE096F91600A0420CBF66
S315000093700121002100F004FE0020B0758E2500F0CA
S31500009380FBFD4046FEF7B3FF2846BDE8F681DFF851
S315000093905004FDF743BCDFF8EC03408B7047000038
S315000093A0F8B5FEF79EFF984D0446A87A012803D12A
S315000093B02046FEF79CFFF1BDA34EDFF82474B06A89
S315000093C00122012108F062F8B06A8022802108F0AB
S315000093D023FD00BF26A00188B06AADF800106946DB
S315000093E008F06DFC20B140F2E9513846FDF716FC55
S315000093F002208DF800006946B06A08F039FC20B1F9
S3150000940040F2EB513846FDF709FCB06A08F068F8FF
S3150000941000212C20FFF7C2FB00210A20FFF7BEFB2C
S315000094200120A87296F91610091D072914D8DFE83D
S3150000943001F01818070B040F0F0F08F0C6FE10E016
S315000094406FF00300B0750CE06FF00201B17508E033
S31500009450892000F005FB04E040F212613846FDF772
S31500009460DDFB2046FEF743FFFFF71CFAF1BD0000C7
S3150000947004010000F8B5644DA97A0446A1425CD007
S315000094802EA3714F1E88ADF800600329DFF85063E4
S315000094904FD8DFE801F047023B2BFFF705FAB86A21
S315000094A0694608F00CFC18B140F22F6100F04CF848
S315000094B002208DF800006946B86A08F0D9FB18B199
S315000094C040F2316100F040F86879002814BF0022AC
S315000094D00222B86A022108F09FFC18B140F23661F8
S315000094E000F032F80320032CA87226D000F027F8EB
S315000094F00220A87200222979B86A08F02AF818B161
S3150000950040F2436100F020F8022C16D0200018BF6C
S31500009510032C12D10020A8720022B86A802108F01C
S315000095207BFCF1BD022C08D100F009F80220A872DC
S31500009530F1BD40F2596100F007F8F1BD0402B86AC6
S315000095408022802108F068BC3046FDF767BB00200A
S3150000955090E78C48807A7047032805D8DFE800F04A
