:104000000008002063AF0200A71001005F2101003B
:10401000672301007F2E0100DF3A0100000000004D
:10402000000000000000000000000000B743010095
:1040300043600100470E0100437601006F850100D7
:1040400011AB0000F1600200DB870100615C02003F
:104050002D610200F7600200F9600200F3600200C7
:104060000FA60000BDA900006B8A010095BE0000EC
:1040700031BF0000BF8B0100EB9D010073A3010065
:1040800057A70100D9A9000057AB01007FBD01006F
:1040900087BE010087BF01003BD101005FD1010055
:1040A000C3E10100F3E101001BE301002F61020005
:1040B000F560020083E301006561020043E4010052
:1040C000A5A902002F03020013B779FAC925DDB7AD
:1040D000ADF3CFE0F1B614B801010000000000001C
:1040E00000000000200000000100000000000000AF
:1040F00000000000000000000000000000000000C0
:10410000000000000000000000280128032800181B
:10411000002A012A0118052A2A2B292B022900002E
:104120000A030A00102800200A0201003D6E002048
:10413000020110006C390020200004007C390020AE
:1041400000000108FFFF00005EAF0200020001084E
:10415000FFFF000056AF020007000008FFFF00014C
:10416000384100000A000708FFFF000302000000BA
:1041700002000108FFFF00004EAF02000800010826
:10418000FFFF00013041000002000108FFFF0000B6
:1041900046AF020009000308FFFF000128410000AC
:1041A00000000108FFFF000042AF0200020001080A
:1041B000FFFF00003AAF020004000308FFFF000108
:1041C0002041000002000108FFFF000032AF0200A2
:1041D00005000108FFFF00002EAF020003000600EB
:1041E00008000B00404100000D0000000B00000023
:1041F00008410000000000000677020004000000F3
:10420000DC41000007770200000000007278020025
:1042100000000000FFFFFFFF0100000000000000A1
:104220000400000001000000080000000100000080
:10423000100000000100000000010000010000006B
:10424000000800001D000000000200001D0000002A
:10425000000400001D000000000001001D0000001F
:10426000050000000000000000C201000005000081
:1042700000100000000000000000000000001030EE
:10428000000000000000000000000000000010031B
:104290000000000000000000000000000700000314
:1042A000000108070F000A00C8002000A00000005D
:1042B00001000000050000000000000000020700EF
:1042C00000000000A00055010A200706020A0407AA
:1042D00000000000000000000000000008020000D4
:1042E00080390020982164000000000000000000D8
:1042F000E441000000000000000000000101000097
:1043000000000000000000000000000000000000AD
:10431000000000000101000002000000006A180017
:1043200003000400000006010D000000CFE90000BA
:1043300000000000D5E9000000010000DDE90000F8
:1043400000020000FBE90000000300000000000084
:104350000000000083FA00000D010000A5FA000033
:104360000D020000D3FA00000D03000037FB00002F
:104370000D040000000000000000000051F40000E7
:10438000090000006FF400000901000087F400003C
:1043900009020000C7F4000009030000E3F4000074
:1043A0000904000015F60000090500003BF60000B6
:1043B000090600000FF500000907000051F5000094
:1043C0000908000099F5000009090000AFF5000098
:1043D000090A0000E3F50000090B0000FDF50000EC
:1043E000090C0000FFF70000090D000051F6000065
:1043F000090E000067F60000090F0000ABF4000092
:10440000091000007FF500000911000031F50000DF
:10441000091200002FF8000009130000000000003E
:10442000000000008BF600000A000000BBF6000050
:104430000A0100006DF700000A02000089F7000081
:104440000A030000AFF700000A040000C7F70000ED
:104450000A0500000BF700000A06000015F800002E
:104460000A08000037F700000A09000063F800009E
:104470000A0A0000000000000000000001FA00002D
:104480000C00000041FA00000C0B000019FA0000BB
:104490000C0C00000000000000000000FBF2000017
:1044A0000800000079F30000080100008BF3000011
:1044B00008020000BFF3000008030000F5F300004D
:1044C0000804000029F300000805000000000000B7
:1044D0000000000077EE000003000000D7EC0000B1
:1044E00003010000F5EE0000030200000DEF0000E4
:1044F0000303000021EF0000030400009FEF000011
:104500000305000079EF00000306000079ED0000CC
:10451000030700004BEE000003080000F3EF00006B
:104520000309000005ED0000030A000057EF00003A
:10453000030B0000A5ED0000030C000005F00000D7
:10454000030D00001FF00000030E000051F00000FA
:10455000030F000063F000000310000075F000007E
:104560000311000089F0000003120000C9F00000F0
:104570000313000025F100000314000041F10000C6
:104580000315000053F10000031600006DF1000058
:10459000031700007FF100000318000091F10000F4
:1045A000031900009FEE0000031A0000F5F0000060
:1045B000031B0000A5F10000031C0000F3F1000044
:1045C000031D00001FF20000031F0000C1ED0000EA
:1045D0000320000051F2000003210000C5EF00009D
:1045E0000322000000000000000000007301010031
:1045F0000F000000D70101000F0100008902010037
:104600000F020000610101000F040000950101008C
:104610000F060000A50101000F070000F1010100D5
:104620000F080000190201000F0900002B02010011
:104630000F0A00004D0101000F0B0000AD02010048
:104640000F0E0000BF0201000F0F00000702010063
:104650000F100000530201000F1100003F02010083
:104660000F120000D30201000F130000B50101007A
:104670000F1400000000000000000000D3EB000059
:1046800001000000DBEB0000010100009FEA0000D8
:10469000010300000BEB000001040000BFEB000071
:1046A000010A000065EB0000010B0000A9EB00000F
:1046B000010C00003FEB0000010D000011EC0000B8
:1046C000010E000037EC0000010F00006FAB01008D
:1046D000011200001DEB000001130000B5AB01004A
:1046E000011400000000000000000000BDFC0000FC
:1046F0000E000000F7FD00000E01000055FE000056
:104700000E020000D9FE00000E070000E1FF0000CD
:104710000E0C00000000000000000000000000007F
:104720000100020015005400A9005301A7024F0523
:104730009F0A0000010000000000000000000000CF
:104740000200000300000000000109000001100049
:104750000000000000000000F4010000FA0000006A
:1047600096000000640000004B00000032000000D2
:104770001E00000014000000000000003C00940037
:104780003C0096000000000000000500030002004D
:104790000100000001020300A1160100F116010052
:1047A000FD160100000101020102020300010204E2
:1047B0000F0E0C080C080D181000000013151080C7
:1047C0001A80128080000000000000000028000015
:1047D00000000000020000000000000000280000AF
:1047E00000000000100000000000000000000000B9
:1047F0000028000000000000000000005000400001
:104800000800500024000400900150024000900174
:10481000AE0110006C888391AAF5A53860370BDBD8
:104820005A6083BE3F49F6D4A3C55F3874C9B3E369
:10483000D2103F504AFF607BEB40B7995899B8A619
:10484000CD3C1ABDE69D350E480103CCDBFDF4AC32
:104850001191F4EFB9A5F9E9A7832C5E2CBE97F26C
:10486000D203B0208BD28915D08E1C742430ED8FEA
:10487000C24563765C15525ABF9A32636DEB2A6566
:10488000499C80DCBF01FB9D4EF3BC36D874F539E2
:104890004138684C000001000100000100010202E3
:1048A00003000200000000000202010002000000FC
:1048B00000000100010005010005020203000200E2
:1048C0000000000002050100050000000B070116B2
:1048D0000C00000108080000050108FFFF02FFFFAF
:1048E0000808020204FF0100C800FCFEFC00D80A10
:1048F000066CFBFF8800370518E2FEFF5300040337
:10490000F5E3FFFF3200B9019D4300002900570184
:10491000F85700001600D100585700000E007C0028
:10492000D049000008004B00283900008C00FCFE34
:10493000FFFF000000000000FC00D2104C06FAFF50
:1049400075009B05F132FFFF3E0062020B3500004F
:1049500025004B01885F00001700E0005E5D00004D
:104960000E008C006A4F000009005100F73C000067
:1049700083FFBFFFE2FFF1FFF9FFFEFF0000000031
:10498000C800FCFEF800C50A571EFBFF7B0095041B
:104990007C02FFFF4A00B60246DFFFFF2D00AD019B
:1049A000412F00001C000701854700001200A700EE
:1049B000974600000B0067001A3C00000700430008
:1049C000EC3000009600FCFEF8006D23441FEEFF63
:1049D000C700F20E8E37FAFF5C00A40324A7FFFF86
:1049E0003200D601AD3400001F003001004D000040
:1049F0001200C000CA4A00000B006E00F73C000025
:104A0000060038008A2B0000000800FCE84800007F
:104A10000100010770490000000800F8804900000B
:104A200054CA26A5E40C0000000800FC2C49000034
:104A30000100010770490000000800F8C4490000A7
:104A4000634B7DC708070000324B0000A60E000034
:104A50009A10000000000F4001000000387022088A
:104A60003470F80730701E0B2C70080E28700C087C
:104A7000247024082070D2081C70D2081870F6091F
:104A800014701A0A10701A080C70860A0870EE0A60
:104A900004701208641000C6B80F00218CB870783A
:104AA00001B007686114C4244413036B31500F3004
:104AB000315008140F3003630F330111C0480698BA
:104AC0009401111007680168214807600410011261
:104AD000FF32215007605148076000880698B80BE4
:104AE0000C2403DD087214BA281400A000BA03DFF6
:104AF000227100DF06722814311953B080BB006B9D
:104B000030380A7109DD0671029844028CB8507879
:104B100000A04413281441150698AA010060B8307B
:104B200020D8067190BC637C00C4E0100840441299
:104B30000762013221400824287CF8255412F03203
:104B400040DE0472404804DB08720DDD0C72044B39
:104B5000EF30144806986A03811140D91E72B112D1
:104B60003032CF4A013AB1DA127208D8067104D84D
:104B70000A719C24D424237C307098244412FF3280
:104B8000C322047580B8D82481D8207140D904721A
:104B9000237C084B06986A0304BA06B904A901D815
:104BA0000C7264242824307C287000BAE02444115C
:104BB000402418140761181491113831114200C1B2
:104BC00000600840141110310169114228140814C2
:104BD0003088024806988802009308DB047101F8C7
:104BE00000A000C07C0F0021041003600F3000A063
:104BF0001088B111076980D90A7100C1800008408E
:104C00000811009100A000C460000840441000A0FA
:104C100000C020300E40041104101050F47200A0A7
:104C200001F8541000DC1271011406984E0318B8F4
:104C3000707800B8417800F800C58C0F0021541539
:104C40005114FF3507644113FF3407633112FF33FA
:104C50000762FF323110212B0158012A0698B40156
:104C600001585128047501584128187551B00CD8C5
:104C70000671215806703110115901290675FF0F70
:104C8000B87018B8727800F8EBBA00C0880F00212D
:104C90000411113A10D9067118B97479281000A0BE
:104CA00009BA0698AA01042491152138267188BBF7
:104CB0000435127208D804716C7B04D804716A7BC5
:104CC0002F7C107008D804716F7B04D804716D7B41
:104CD000217C04DA0A720698740604BAC670069833
:104CE0007A0300B8B111076940D9067202983403FB
:104CF00000BC08D94071202400C140600840111256
:104D000000DC0C71C022241210DA10710C70DC224D
:104D10002412076204DA04710421141200C1800015
:104D20000840320C28110762281107622811076217
:104D30002811500C00C1800F0021141200DC1A71E0
:104D400020D8067101B80C70F0DA0C720CDB087117
:104D500002B80698420348240421141100C38000BD
:104D60000840FFB8012011410871014118130824BF
:104D7000014200C1383008401411014100C00060F8
:104D8000084004101030016801411813281348131B
:104D90008CB8507800B800C1800F0021141203684D
:104DA0002150F0300152281100A04024066400C0B8
:104DB000FFFF0100013C1DB002200158402806758C
:104DC0001EAC01EC00A000C268000840B8B9006940
:104DD0000D49181200A000C028400E4004133151A4
:104DE00007610C3107691153381000A00698380488
:104DF00000C0FC0F002104112EA9F8200411069810
:104E00007A03217A237A511400C0B00F00210410D4
:104E1000012C0A7500B826A806984E0328B010B9D0
:104E2000115911380EB9114028A880B800C144307A
:104E3000084008116FB8076826A8217A050C2110D0
:104E40002020267800C063EF000026A8050C20EC87
:104E5000247A20EC217A184826A828B00AB90151F2
:104E60000F31115028A8050C207A20EC0F0C98B8AF
:104E7000467841780698B40100C28C0F00212410B6
:104E80000151FF311150081200A00698380400B8F3
:104E900026A800A000C074300E4004114CBA407A1D
:104EA0001810EC2004115C7A1810A4BB707B4E7BA8
:104EB0004F7B00C20430084000A00698380400C0B0
:104EC000F80F002104112EA9217A227A0698AA034C
:104ED0000111FF300769FF3151B30DBC415C413B0B
:104EE000115900290475084B51ABA4BB00C04030D8
:104EF0000E400411033101492872B11207620762A2
:104F00003020041121510F3118726E7B6F7BF0201D
:104F100004114CBA7C7A181014200411607A18100D
:104F200008B86E780EB84EB110D90C723EA8140CA9
:104F30000FB83EA8107044A8140C01B800C1B030DE
:104F40000E40081100C077801F003DB201423DAA0B
:104F500000C1E40F0021141054A8140C00C077E025
:104F60001F0001423DAA51B801687D7808B87E78DB
:104F70000698BE0B0698CC060698B80B51140698F6
:104F80004E03F4B845780A0C00A051B801685D786A
:104F900000B844A83EA800C1B0300E40081110B8B7
:104FA00007683DB101393DA908B86F7800A064BC1D
:104FB000066C415C512C06984E0306983408B110DB
:104FC000076824D8347102BA07620698940B8CBC27
:104FD0007F7C08B86578911004D8167188B86E780F
:104FE00000C06400084021780698B00901400872AA
:104FF000427C0698CA0B00F808B86C7820B859783B
:105000005B7800C1E80F0021141054A84EB010D8EE
:1050100050724DB161B80158113840B102D91272C5
:10502000604811B901611112104A04BB41540C705F
:10503000204802B903BA02BB02BC4DA840A9F8B887
:105040007078190C3EB141413EA9F4B97379737877
:10505000717800C1E00F002100C4004108402670B3
:1050600000C20000010044AA230C00C200000B0093
:1050700044AA00C1E00F002181BA016200C41841B6
:10508000084004BB00C0C83F000014111138214083
:105090000814050C1140081404240F0C2FAB050C48
:1050A000B11008D810711CB879787B7820B879785D
:1050B0007B78607CF424411306986A0351140698A7
:1050C0004E03727B53B80168050C687840EC00F819
:1050D000015053A800C068600840041107610761CF
:1050E00080D9047240EC00C4F84008404EB010D89B
:1050F0000471182441130C23527C407B11512FA9B9
:10510000050CFC23341200C0FF3FC0E0013A281315
:105110000A0C4CB87078181406322813050C11517B
:10512000181408B86D7800A0B11001D8047200A05E
:1051300000C0287008400411108800C10018004009
:105140001810442004111088A820041110884CBAAB
:10515000757A18103DB11088F4B8427844207278FE
:10516000D8207378E82073784FB200C4FFFF8080A6
:10517000413A4FAA01BC01644113076300C06C703F
:10518000084003B918100110011001B918100110DE
:1051900001100110011098200411076101B801608D
:1051A000003A0471044904D9047241520760003A7C
:1051B0000471084908D9047231520460003B0E7230
:1051C00000630064314241424FAAB2704FAA44B812
:1051D00001685378F8B853784020527800913DA97F
:1051E000009100C014700840181000915820181049
:1051F0000091BC20181000A0115910D90671076049
:10520000076008D90471076004D90471036002D9EA
:105210000471016001D90471006000A010880411BC
:10522000023006710761076100C0FFFF00001138FE
:10523000009100A000C218500840241211592129E1
:10524000127300210E7100C2305008402412012157
:10525000212900A000C5940F00215088FC25541579
:1052600006985E04009500F806982E050E700698C4
:10527000740606982E050698600A06982E0400F813
:1052800010B902BA06988A0B00C5940F002100F8E5
:105290009112033288B900C394FFCEFA341300C4CC
:1052A000A810084003DE4C727179A11020D80A7151
:1052B00006985E040298DE0880DB2A7105B8076351
:1052C000076302DB087118B80814A0B80763076306
:1052D0000814A11010300248081400B808149110E6
:1052E000076008148CB86278A11040D80671517913
:1052F00000BA00C0180008400533054B1A72082494
:1053000003DE06718024F024441400C3FF1F000054
:10531000413BFF233810076A7F2009200698C60802
:1053200004200878097804112141181000A000BD5C
:105330000698860110B903DC047100B902BA069818
:105340008A0B04D906710040687201B107690F31F8
:10535000811008D8147106DD0A710698860103DCF5
:1053600008720698CA0B26700698B009FFD8127208
:1053700006DD227188B84778457800B844786070B7
:10538000911010D8087100BB0698A60B20B802A88F
:1053900006DD1C7206982E0506982E0488B87678CD
:1053A00000C018600840357801F840B802A800F83D
:1053B00000C094FFCEFA0413076301DB2271911041
:1053C0008CB910D80E710760FFD808724479029822
:1053D000DE0802DBFA72A11328DBF47203BD069823
:1053E000A40906982E0500C5980F0021069886018D
:1053F00003DC0472042554150698900302985205A4
:105400009110015503355150011900A0811380DB23
:10541000067201B800A000C30C50084034100630DA
:10542000307264233412EC2334100760076040307C
:105430002072811080D8DC713410014A0762036049
:10544000803021508C480A717F23C92334100130E9
:1054500000A006982E0500BD0698A40988B84778D4
:10546000457800B8447800C5A00F0021541506986F
:1054700090030298520500C4B40F002144141DB3D8
:10548000315B302C207506984E0300C06000084048
:105490000410016801D80E7100C064000840237830
:1054A00008B865780698B009FFD8067208B8607821
:1054B00000C2000002020698940B00F800B900C276
:1054C0009C10084018121C220AB9181288BA9111AF
:1054D00004310472487A507A517A8CB942795F79F2
:1054E00000A00698860107DC1072911000200A7552
:1054F0000698600A02982C0806982E0401B99110AB
:1055000004D8047100B900C20000020006988A0B9A
:105510000040207100C094FFCEFA0411076101D948
:10552000127104D9E0728110076001D8D8728CB86A
:1055300064780698600A00C5A40F002154150698E7
:105540005E0400C5A80F002100F8811108D90C7174
:105550000698CA0B20B802A800F80698600A00BD99
:105560000698A40988B84778457800B8447800C5FB
:10557000AC0F002154150298520506986A0301F8F1
:10558000911010D8287100C5905008405411069809
:10559000D80700C5A8FFCEFA54155129EA7518B8E6
:1055A00076788CB8447801B802A800F8B110076882
:1055B00010D8307100C04810084000C300000840F7
:1055C00031146024282444113411076101D9FA717F
:1055D000441228100762281007622810076228105A
:1055E000E8700298C4010698AA0111380472076A8B
:1055F00000BB00C1ACFFCEFA141120390672417B0A
:1056000000A00698BE0B00C294FFCEFA241220DA46
:105610000472617B88BA527A00A088BA727A8112C9
:1056200004DAFC7200A088B86B7800C064000840FF
:105630002F7800A00763076390B9637900B902DB94
:10564000187102EC00C909B801D9427208D93E713B
:1056500010D93A71E031076102EC00CD114502EC3E
:1056600000CC01DB067102980E0F03B8411107311F
:1056700004D91A72911210DA087102DD10721E70CC
:1056800020B806989C073038147208B806983A0378
:1056900000C0240008402978207800F802EC00CAF5
:1056A00005B823DA187104DBE47120DAE07110DA4E
:1056B000DC7290B8617800B801DA067202EC00C8BA
:1056C000911110D9167100C19CFFCEFA141111501E
:1056D0000A7180DB06720AB8B4700768911117313D
:1056E00011402111C0311140011990B8411120D948
:1056F00004726578C0DA1A71273123DD0A72607886
:10570000411108D90A7221DD087208DB0471627840
:1057100003B8411107310872A1152035BC7102DDB3
:105720002E72A11120D9B27102D92472CCDAAA72D8
:10573000411140D9A47206B802DB0C71026D5111FF
:10574000FFD996720765054D907202980E0F2111D0
:105750004049C0D94071A0314115403501655141E2
:105760000361076308DA1E7204DA2A721049A11570
:105770000235067110DB0E7201340A7108DB1671F6
:1057800090B86778CC3200C00D0F0C0D06989E07BC
:1057900001D8087207B80298300C204A00C00517DB
:1057A000085006989E071130014220880DDA527188
:1057B00000C1DE1B250180BC04DA107208DA0A720F
:1057C00000C120841000E024A024FFBB07634143F4
:1057D000016401DA06711E49024B00C0F4FFCEFAE3
:1057E00007633810BC2002DA127100B9FF21A1133F
:1057F00080DB087100C100FCFF01181002989A0EAE
:1058000090BC437C00C494FFCEFA441380DB5271F9
:10581000EFBA06982E0200920362DDDA8E72A111B1
:1058200005D93E7100C238100840241204242814FF
:105830000763076310DB267201D9227102EC00C8EE
:1058400004D9167104BA183008710060FD20012ACD
:1058500002EC00C8FF22FA7604DC067218B87378EE
:1058600002980E0F00B8011A91101730011900C2EA
:10587000020200000698940B04D9067101B802A830
:1058800000C094FFCEFA041380DB06710298D80B97
:1058900001DB5E7100C2F8FFCEFA24111114FF344F
:1058A00002EC00C8FF24FA7607610698AC07036192
:1058B00011380F3003611114011141100698AC0723
:1058C00001D8087203B80298300C042202DB16716A
:1058D0002410112811280698C00700C2180008409B
:1058E000FF200812411007600698AC0701D87C71B0
:1058F00020BC10DB767100BB00C1F4FFCEFA14159A
:10590000C021112C5112076A0F320E7140885114B8
:105910000698180F4143009451120765036A0F322D
:105920000E71411151140698180F036C414307651D
:10593000513B00C1B0FFCEFA1411111231100F30DB
:10594000127100BA046101D80471114200600FD8CD
:10595000F472311002601E30047201B8003A08720D
:1059600004B80298300C0298A40D06982C0200B8D6
:10597000477800F830885088FF34087102ECFF2423
:10598000F87002EC00CD141001BB5150FFD8047127
:1059900031440760006B10DBF2710421FF22E472D6
:1059A0000F4C0095009300A0D3030000193F01069F
:1059B000041001000001010600102700000C000087
:1059C000000000000000000004000000333333003A
:1059D00000000000AC590000484A00000000000030
:1059E00080D5C2000048E80140420F0001010000DC
:1059F000AA2A000204000200018101000001000047
:105A0000180002000000000001000000280004004F
:105A10000000000000000000000000000000000086
:105A200040000100A0070000480001000000000045
:105A3000540002000000000000000000A00004006C
:105A4000FF4C0000FF4C0000FF4D0000FF4D000028
:105A5000002001000807000010200100AAAAAA00E7
:105A6000182001000060DA0030300200AA2A10007D
:105A7000010000004030010000000000A0400100D3
:105A80007A27000F3441020080080000E6870000FA
:105A90004041020048008800C0E653111460150020
:105AA00010000000000000841FC001000020000062
:105AB000000000000000000300000000C804FF0018
:105AC000A20800000A00000191000400294176713B
:105AD000000000008C00D40A00000000D1032A005E
:105AE0000000000000000000040A132232414A4F67
:105AF000000000001470011000F80700147001305D
:105B0000F800000018700200000300006000D0815F
:105B10002870010000008001487002003C3D000038
:105B2000BC19000070700300058100001301000023
:105B300000235500FFFFFFFFF00F0401C8590000CC
:105B40000000000000C003000BC00300380002008A
:105B50000000000000000000083001003FAC000021
:105B6000F440010020100000FFFFFFFFF00F0401D0
:105B7000C85900000000000000C0030009C0030075
:105B800038000200000000000000000008300100A2
:105B900037AC0000F440010020100000FFFFFFFFC1
:105BA000F00F0401C85900000008000000C0030005
:105BB00008C00300380002000000000000000000E0
:105BC0000830010037AC0000F44001002010000054
:105BD000FFFFFFFFF00F0401C859000000000000A4
:105BE00000C003000BC003003800020000000000EA
:105BF00000000000083001003FAC0000F44001004C
:105C000020000000FFFFFFFFD45B0000809C2B8F73
:105C100080841E0000001C001C0064003C31002039
:105C2000385B0000809C2B8F80841E0000000000E9
:105C3000270064003C3100206C5B0000809C2B8FAF
:105C400080841E000000000006002C013C31002072
:105C5000A05B0000809C2B8F80841E00000007004A
:105C600008002C013C3100206C5B0000809C2B8FD5
:105C700080841E000000090009002C013C31002036
:105C8000A05B0000809C2B8F80841E0000000A0017
:105C90000A002C013C3100206C5B0000809C2B8FA3
:105CA00080841E0000000B0019002C013C310020F4
:105CB000A05B0000809C2B8F80841E0000001A00D7
:105CC0001C00FF7F3C3100206C5B0000809C2B8F10
:105CD00080841E0000001D002700FF7F3C31002053
:105CE000F459000000000000085C000009000000FA
:105CF000D840D3E8FFFFFFFFFFFFFFFFFFFFFFFFDD
:105D00000000000000000000000000000100000092
:105D1000FFFFFFFF4B60D2273E3CCE3BF6B053CC9B
:105D2000B0061D65BC86987655BDEBB3E7933AAADD
:105D3000D835C65A96C298D84539A1F4A033EB2D70
:105D4000817D0377F240A463E5E6BCF847422CE18D
:105D5000F2D1176BF551BF376840B6CBCE5E316BD1
:105D60005733CE2B169E0F7C4AEBE78E9B7F1AFE95
:105D7000E242E34F512563FCC2CAB9F3849E17A7E0
:105D8000ADFAE6BCFFFFFFFFFFFFFFFF00000000D2
:105D9000FFFFFFFF4145532D3132382D454342006F
:105DA0004145532D3139322D454342004145532D54
:105DB0003235362D454342004145532D3132382D81
:105DC000435452004145532D3139322D4354520032
:105DD0004145532D3235362D435452004145532D04
:105DE0003132382D43434D004145532D3139322D49
:105DF00043434D004145532D3235362D43434D002D
:105E0000020000000BB002000FB0020029B0020037
:105E100025B002002DB0020047B0020002010000D0
:105E200080000000945D0000000000000000000001
:105E300010000000005E000003010000C000000030
:105E4000A05D000000000000000000001000000045
:105E5000005E00000401000000010000AC5D0000D5
:105E6000000000000000000010000000005E0000C4
:105E70000B05000080000000B85D0000100000006D
:105E80000000000010000000005E00000C05000093
:105E9000C0000000C45D0000100000000000000011
:105EA00010000000005E00000D0500000001000071
:105EB000D05D000010000000000000001000000095
:105EC000005E000002000000000000000000000072
:105ED00059B0020059B00200EBAF020001B002005D
:105EE0002B08000080000000DC5D00000C000000BA
:105EF0000100000010000000C45E00002C0800003B
:105F0000C0000000E85D00000C000000010000007F
:105F100010000000C45E00002D0800000001000019
:105F2000F45D00000C000000010000001000000003
:105F3000C45E0000020000001C5E000003000000C0
:105F4000385E000004000000545E00000B000000FA
:105F5000705E00000C0000008C5E00000D00000070
:105F6000A85E00002B000000E05E00002C00000096
:105F7000FC5E00002D000000185F00000000000023
:105F8000000000008B0013EB401313F184431A60F0
:105F900070470200880010EB421010F18440006846
:105FA0007047202801D2012100E00021C9B201215F
:105FB00011FA00F0704770B504000125DFF81C04E9
:105FC000844203D200200500002606E0DFF810041A
:105FD000844201D2012600E002262A001021DFF8C7
:105FE0000404FFF7CFFFDFF82005016831F080716E
:105FF00051EA0661016070BDDFF810050068704766
:1060000080B500F03AFEDFF800150968C1F30421FD
:10601000491C484302BD10B5DFF8F40400F0E4F970
:1060200004002000C0B2072804D0092805D100F0E0
:1060300024FE03E0FFF7E0FF00E0002010BD38B5CC
:106040000400002C0FD1DFF8CC0400F0CDF90500DE
:106050002800C0B2012808D004280BD0072806D099
:1060600008280AD00CE000200BE0002009E0FFF730
:10607000C3FF06E000F01FFE03E0FFF7C1FF00E0F2
:10608000002032BD10B4DFF890341A6812F040726C
:10609000DFF88844A04202D20024220005E0DFF8A5
:1060A0008044A04201D20124220012061C6834F070
:1060B000407414431C6010BC704738B5DFF864545A
:1060C0002868002801D0012400E0002441F6713046
:1060D000286000F0D0FD0021FFF7D4FF2000C0B2FF
:1060E000002801D00020286031BDF8B504000D0063
:1060F000DFF830743868002801D0012600E000265F
:1061000041F67130386029002000FFF7BBFF3000F6
:10611000C0B2002801D000203860F1BD01000F227C
:10612000C81C904201D2C81C00E010000007704754
:10613000DFF8E4050068C0F301107047DFF8D815F8
:106140000A6832F0300252EA00120A607047F8B56D
:10615000040000252000DFF8D013884207D0DFF8C4
:10616000CC13884203D0DFF8B415884200D1FFE792
:10617000200000F039F906002000DFF8AC13884257
:1061800008D0DFF8A81388420BD0DFF890158842BA
:106190000ED014E0DFF88805006810F00700060054
:1061A0000DE0DFF88005006810F00700060006E04B
:1061B000DFF87405006810F007000600FFE7002E06
:1061C0001DD0022E07D003D3042E07D009D318E028
:1061D00000F09EFD16E000F0A1FD13E000F09BFD35
:1061E00010E000F03BFD0700DFF81C030068C0F37F
:1061F0000060401CFFF7D5FEB7FBF0F002E0002086
:1062000000E00020F2BDDFF828130968C90704D4B4
:10621000DFF8181509680142FAD1704770477047D6
:106220002DE9F04105000E0000242800000A10F0BE
:106230000F0001280CD0022810D005280BD006280A
:106240000FD0072812D0092815D00A2819D01BE032
:10625000DFF8907119E0DFF85C7516E0DFF858752B
:1062600013E0DFF85875012004000EE0DFF85075E8
:106270001020040009E0DFF84C755FF48030040062
:1062800003E0DFF85C7600E00CE0C5F30438002C96
:1062900002D02000FFF7B7FF3200D2B241463800EB
:1062A000FFF770FEBDE8F08138B5040014F47810F3
:1062B000002827D0B0F5003F35D0B0F5802F24D08E
:1062C000B0F5202F2CD0B0F5402F37D0B0F5602F8F
:1062D00077D0B0F5801F77D0B0F5A01F3ED0B0F5D5
:1062E000B01F46D0B0F5D01F57D0B0F5F01F30D05A
:1062F000B0F5001F4CD0B0F5101F5DD0B0F5481FB1
:1063000065D068E000F0B9FC66E000F0B6FCDFF8AC
:10631000D4150968C1F30821491CB0FBF1F05BE01A
:1063200000F0ABFC58E000F0A8FCDFF8BC150968F1
:10633000C1F30821491CB0FBF1F04DE000F09DFCD9
:10634000DFF8A8150968C1F30421491CB0FBF1F07E
:1063500042E0DFF8D401FFF7FAFE3DE0DFF8BC03CE
:10636000FFF7F5FEDFF88815096811F00F01C84046
:1063700032E0DFF8B401FFF7EAFE0500DFF874054C
:10638000006810F00F00FFF70CFEB5FBF0F023E003
:10639000DFF89801FFF7DBFE1EE0DFF89001FFF762
:1063A000D6FE0500DFF85005006810F00300FFF787
:1063B000F8FDB5FBF0F00FE0DFF86003FFF7C7FE74
:1063C0000AE0FFF728FE07E0FFF716FE04E00020D2
:1063D000FFF735FE00E0002032BD00000148E80173
:1063E0000190D00300400E400100012311F00F0284
:1063F000100001280AD002281CD003282ED005281E
:1064000044D0062855D0082862D079E0DFF8EC07A0
:10641000006810F00700022808D009D3042801D032
:1064200002D305E0022004E0032002E0042000E0A3
:10643000052066E0DFF8E802006810F00700012898
:1064400004D0022804D0042804D005E0032004E08E
:10645000022002E00A2000E0012052E0DFF8C4023E
:10646000006810F00700012806D00DD3032809D0DA
:1064700004D3042804D007E0032006E0022004E04F
:106480000A2002E0062000E001203AE0A648006869
:1064900010F00700012804D0022804D0042804D0FA
:1064A00005E0032004E0022002E00A2000E00120D1
:1064B00027E0DFF84C07006810F00100002803D047
:1064C000012803D1092002E0072000E0012018E0A4
:1064D000DFF83007006810F03000002806D01028E0
:1064E00006D0202806D0302806D007E0012006E09C
:1064F000072004E0042002E0082000E0012000E082
:106500000020C0B27047000000410E40FC27002070
:1065100006000E00B800320004000E4041787D01F4
:10652000015A620240000E4002001E0003002000DB
:1065300044410E402DE9F84F070088465FF00309FB
:106540005FF0030A002417F00F0B584601280CD007
:10655000022853D0032867D0052859D0062800F018
:106560009A80082800F0AA80D3E04046C0B20228F2
:1065700008D003280BD004280ED0052815D00A28EF
:106580001CD01CE0042081460020824618E0032035
:1065900081460120824613E0022081460220824685
:1065A000DFF86406FFF707FD0AE0012081460320BB
:1065B0008246DFF85406FFF7FEFC01E0A9E0A8E000
:1065C000012201215046C0B200F098F9FFF775FD95
:1065D000FFF724FEDFF83406C0F80090DFF89404DB
:1065E000FFF762FEFFF7E7FC00F038FB0500002133
:1065F0002800FFF77AFDFFF712FE8AE04848040002
:106600004046C0B2062801D0012000E00020C0B200
:10661000002C01D1444CFFE74046C0B2062801D00F
:10662000012000E00020C0B2002C01D13D4CFFE76A
:106630004046C0B2012808D0022809D003280FD054
:10664000062815D00A2820D022E00020060020E0ED
:1066500001220121002000F051F90220060018E07B
:1066600001220121012000F049F90120060010E07B
:1066700000F0F4FAFFF79FFC01220021DFF834015B
:10668000FFF780FC0320060003E00420060000E082
:106690003FE026603DE04046C0B2072802D009280E
:1066A00005D009E00020DFF85815086005E001205A
:1066B000DFF84C15086000E02BE02AE04046C0B24D
:1066C000012806D004280FD0072805D0082813D0A9
:1066D00015E00020060013E001220121042000F053
:1066E0000DF9012006000BE001220121022000F03B
:1066F00005F90220060003E00320060000E008E0A0
:10670000DFF80005016831F0300151EA061101603F
:10671000FFE7BDE8F18F000024400E400500240093
:1067200080400E4084400E4088400E4040410E4064
:106730002DE9F8430D0016000024DFF8DC743968F9
:1067400054F0405831EA08082900C9B2002902D0A3
:106750005FF0805100E000213000C0B2002802D07C
:106760005FF0005000E000202143014351EA080897
:1067700000F0A1FA8146002C03D13000C0B20028FD
:1067800006D000214846FFF7B0FC4846FFF713FC4F
:106790002800C0B2002803D13000C0B2002804D0C5
:1067A00001220121022000F0A9F8C7F80080BDE80D
:1067B000F1830000B0400E40C0400E40E0400E406B
:1067C000E8400E40F0400E40F8B504001120FFF7FD
:1067D0000BFE042801D0012000E00020C0B20122FD
:1067E0000021022000F08AF86078002807D1A07804
:1067F000002804D1E078002801D1012000E0002029
:10680000C0B20025207C012801D0012000E000203A
:10681000C0B2207C022801D101200500DFF8F80376
:106820000168490849002943016022780821FFF7DF
:10683000A9FBDFF8E8130A68D208D200E07A024325
:106840000A60A088617A51EAC021DFF8D4030160B0
:10685000DFF8D0633768207AFFF760FC17F07F67B6
:10686000E18857EAC127A17A0F43217A57EAC11775
:1068700007433760607BA17B090151EA0031E07B6F
:106880000143207B51EA0041DFF89C030160F1BD28
:1068900070B504001120FFF7A7FD022801D00120E8
:1068A00000E00020C0B2DFF884532E68DFF88003D8
:1068B000064020780643607856EAC026A07856EA5B
:1068C0000066E07856EA00262868864205D0012254
:1068D0000021002000F012F82E6070BD00000000C2
:1068E00050410E400C410E4008410E4014410E40F4
:1068F00030410E4020410E4028410E402DE9F74F17
:1069000004002000C0B200281DD0022809D014D3F2
:1069100004280CD01ED201275FF0020801250026B2
:1069200019E004275FF008080325022613E010276A
:106930005FF02008052504260DE040275FF0800861
:106940000725062607E04FF480774FF400780925E5
:10695000082600E06AE09DF80400002856D05FF0A9
:10696000000B2000C0B202280DD1FFF7E1FB002888
:1069700009D101208346DFF8A0020068C00702D5D4
:106980000120FFF7DBFBDFF8AC92C9F80070DFF8FD
:10699000A8A231005046FFF7FCFA0028F7D09DF876
:1069A0000800002842D029005046FFF7F2FA0028DC
:1069B000F9D02000C0B2022838D15846C0B2002811
:1069C00034D0DFF854020068C00705D50122202129
:1069D000022000F0F0F803E00021022000F0B7F8F8
:1069E000022000F025F80090012200210220FFF78C
:1069F00085FF0099022000F03FF8C9F800702900D7
:106A00005046FFF7C6FA002810D1F8E78948C0F8C9
:106A1000008089490868F040C007FAD49DF8080052
:106A2000002803D00868E840C007FBD4BDE8F78F12
:106A300001000800C0B2012806D019D3032808D0ED
:106A400011D304280AD013E07C480068C005C00DAB
:106A50000FE07048006810F07F000AE07848006896
:106A600010F07F0005E0774800684005400D00E029
:106A70000020704700050A0070B504000E002000D9
:106A8000C0B2012806D061D3032819D042D304280C
:106A90002BD05BE0B6F5007F01D2012000E00020A2
:106AA000C0B2F605F60D1A215948FFF772FA002810
:106AB000F9D162480168490A49023143016045E061
:106AC000802E01D2012000E00020C0B216F07F0627
:106AD00018214F48FFF75DFA0028F9D14D480168A9
:106AE000C909C9013143016030E0802E01D2012083
:106AF00000E00020C0B216F07F0619214448FFF7DD
:106B000048FA0028F9D14E480168C909C901314342
:106B100001601BE048480068800810F0010090F018
:106B20000100C0B23C48016831F0300151F0100161
:106B30000160C6F3C310FFF7F1FA050039490A688E
:106B40004148024032432A430A60FFE770BD38B52E
:106B500004000D002000C0B2022801D1012000E095
:106B60000020C0B2FFF7E4FA002802D15FF4400130
:106B700012E02800C0B2002807D0202802D0302818
:106B800006D008E05FF4000106E05FF4400103E096
:106B90005FF4400100E02D49274800680840884222
:106BA000FAD1480205D52A480068800A10F0010091
:106BB00000E0012032BD70B504000E001500200079
:106BC000C0B2022817D13000C0B2002807D04FF45D
:106BD0008060204908603000C0B21F49086028006A
:106BE000C0B2002806D03100C9B22000C0B2FFF701
:106BF000AEFF01E0FFE7012070BD000094400E40B1
:106C000070400E405C410E400148E80174400E4067
:106C100040410E4010400E4024400E4028400E409F
:106C20002C400E4030400E4034400E4038400E4064
:106C300080E4FFF860400E4090400E4020400E403F
:106C400018400E409C400E4000F8FF0FFF03E10784
:106C5000A0400E40A8400E4064400E4080B500F0B9
:106C60000CF836490968C1F308214A1CB0FBF2F060
:106C7000334A106002BD334870473348006810F053
:106C8000070002280AD00CD3042801D003D308E05F
:106C90002E48006807E04FF4004004E02C480068EC
:106CA00001E02C4800682C490968C1F30421491C03
:106CB000B0FBF1F0704726480068704710B504003B
:106CC000234804602048006810F00700022801D122
:106CD000FFF7C4FF10BD2148214908602148016821
:106CE00051F4700101602048016851F400510160C5
:106CF0001E4801688908890001601D48016849082B
:106D0000490001601B48016831F080510160704703
:106D10004FF4004070474FF47A7070470B4800689A
:106D2000704710B50400094804600748006810F077
:106D30000700042801D1FFF791FF10BD08410E4064
:106D40000828002000F0490294400E40042800204A
:106D5000002800200C28002000410E4000400000C8
:106D600008ED00E088ED00E054300E4040300E4069
:106D700074300E4060300E40010049B2002904D446
:106D8000454940B2085C400907E0444940B210F070
:106D90000F00084410F8040C400970470100080077
:106DA00040B2002805D4080040B2222801DA0120B0
:106DB00000E00020C0B23A480A0052B2520950F82E
:106DC000220011F01F01C84010F0010090F00100F6
:106DD000C0B27047020052B212F1100F05DB020080
:106DE00052B2222A01DA012200E00022D2B22D4A58
:106DF000126803005BB202EB830211647047F0B4C7
:106E00000400049E059DB2F1005F04D3264882422F
:106E100001D2012000E00020C0B212F07F00002863
:106E200001D1012000E00020C0B201209F007F1EA0
:106E3000B7FA87F7D7F12007B840401E024201D1C8
:106E4000012000E00020C0B200279F4220D228008D
:106E5000C0B2002809D08F4204D254F8270042F86B
:106E6000270013E042F8276010E08F4208D252F862
:106E7000270000280AD154F8270042F8270005E02F
:106E800052F82700002801D142F827607F1CDCE778
:106E900004480260F0BC704700E400E018ED00E038
:106EA00000E100E008ED00E0007C002072B67047D1
:106EB000F8B50600300040B210F10C0F05DB3000D1
:106EC00040B2222801DA012000E00020C0B2EFF336
:106ED0001080C00701D5012025E0300040B2FFF747
:106EE0005DFF002801D001201DE0300040B2FFF717
:106EF00043FF0700EFF31184002C04D0B7EB541FBD
:106F000001D301200FE008480568ED05ED0D002DC7
:106F100008D02800103840B2FFF72EFF874201D377
:106F2000012000E00020F2BD04ED00E030B4026872
:106F30000368046805680A604B608C60CD6030BCF3
:106F4000704710B44268520952010B00DBB2002BAB
:106F5000042B09D95B1F022B0BD9DB1E032B03D992
:106F60001B1F022B05D90BE00B00DBB21343436060
:106F700006E00B00DBB2134353F010034360FFE75E
:106F800010BC704770B505000C001600002C01D035
:106F9000012000E00020C0B2210015F12000FFF721
:106FA000C5FF3000C0B2102805D114F1100115F151
:106FB0002000FFF7BBFF70BD80B5FFF74FFE01BD9E
:106FC0008B0013EB401313F184431A6070470200E7
:106FD000880010EB421010F18440006870474AF6B8
:106FE000E850DFF8D419086070470020DFF8701A05
:106FF000086070474AF6E850DFF8641A0860704786
:107000000020DFF8B8190860704745F60E00DFF879
:10701000AC1908607047DFF84C0A0068C0B27047CE
:107020002DE9F04105002800C0B200280CD1DFF89E
:10703000A8070068DFF8A41708601120FFF7D4F94B
:10704000DFF8701A087043E0DFF87009006810F08C
:1070500001000400FFF7D9FF0020DFF880673178D6
:1070600011F0010108433178C90601D5102100E073
:10707000002107000F433078400601D5402000E092
:10708000002007433078400701D5042000E00020AD
:1070900007433068C00502D54FF4807000E000203F
:1070A0000743DFF81C89C8F80070DFF8080A017888
:1070B000052903D001781120FFF73CFA3078C0078A
:1070C00002D40220C8F80000002C01D0FFF798FF7E
:1070D000BDE8F08138B504002000C0B200280FD010
:1070E000DFF8D4190868DFF8DC281060086830F48D
:1070F0007F4050F4EE4005000D6000F04BF907E0D2
:10710000DFF8C0080068DFF8B019086000F042F945
:1071100031BDDFF854090178012902D00178022934
:107120000DD1DFF84819096811F00301012904D1D4
:10713000DFF888190968C903FAD50321017070477F
:1071400010B504002000C0B2002802D00020FFF7D4
:1071500067FFDFF86C09016851F00401016001204C
:10716000FFF7B8FFFFF7D5FF00F03EFD30BF00F09E
:107170003CFD0020FFF7AEFF2000C0B2002803D086
:107180000120FFF74DFF01E0FFF716FF10BD38B5F6
:1071900005002800C0B2002802D00020FFF740FF01
:1071A000DFF81808046814F00104FFF72EFF4FF40D
:1071B0002070DFF80C180860002C01D0FFF720FFCA
:1071C000DFF8FC08016851F0040101600120FFF7BD
:1071D00081FFFFF79EFF00F007FD30BF00F005FDC7
:1071E0000020FFF777FF2800C0B2002803D001205D
:1071F000FFF716FF01E0FFF7DFFE31BD80B500208D
:10720000FFF70EFF01BD80B50120FFF709FF01BDAB
:10721000F8B5DFF8B048256835F4403555F4003549
:10722000266856F44036FFF7DAFE2068C0070BD414
:10723000DFF83808076817F00307012F01D0022F85
:1072400002D1002000F0E1F92068C00711D572B624
:107250004AF6E850DFF870180860DFF87008016837
:1072600051F080010160DFF86808016851F4807115
:1072700001600120FFF72EFFFFF74BFF00200428DD
:1072800003DA25602660401CF9E72560F1BD2DE991
:10729000F84FDFF84018DFF84028DFF84038DFF813
:1072A0004048DFF84058DFF84068DFF840080068E1
:1072B00010F1010F28D0486800900F6800983860DE
:1072C00050680090D2F800E00098CEF800005868AE
:1072D0000090D3F800800098C8F800006068009023
:1072E000D4F800900098C9F8000068680090D5F8BC
:1072F00000C00098CCF80000D6F804A0D6F800B082
:10730000CBF800A0012000E00020BDE8F28FF8B526
:10731000DFF8E007016851F080710160DFF8D8778D
:1073200000213800FFF753FE0400002C03D0042096
:1073300000F09EFB02E0002000F09AFBDFF8B0674F
:10734000306830F0C0403060386850F00600386077
:10735000684600F04BFC9DF80100012819D19DF80A
:107360000000032815DADFF800271078002810D174
:10737000DFF88807016851F0010101603168DFF82A
:1073800080070140DFF8800701430D0035600120D0
:107390001070F1BDF0B401231C05DFF81C773868CC
:1073A000C0F30325DFF85C07068800882830400812
:1073B00010FA86F6283615F1010C052000FB0CFCAE
:1073C000B6FBFCF6761E072E00D30726360636F0EF
:1073D000E060002801D1012000E00020C0B234F4B8
:1073E000E000002801D1012000E00020C0B2386890
:1073F00030F0EE60304320433860DFF81007B0F91A
:107400000070002F26D400880200100080B22830BF
:10741000400810FA82F028306F1C15F1010C5FEA69
:107420005C0C1CEB470CB0FBFCF0072801D2010000
:1074300000E00721090131F07000002801D101208E
:1074400000E00020C0B2DFF8C806076837F0700718
:107450000F430760F0BC7047DFF8A8261080DFF804
:10746000AC26118070470100C9B2002902D0012961
:1074700006D00BE0DFF89C16DFF81827116005E056
:10748000DFF89416DFF80C271160FFE7704770B53E
:1074900004000D001600FFF7BEFD01000800C0B299
:1074A00004280CDADFF8F00602682000C0B20028D9
:1074B00002D0C2F307221CE002F0FF0219E0DFF85D
:1074C000DC0602682800C0B2002805D0022809D0D6
:1074D00005D3032809D00AE002F0FF0209E0C2F355
:1074E000072206E0C2F3074203E0120E01E000208B
:1074F00012E03000C0B200280DD1120332F4704007
:10750000002801D0002007E0DFF8E805036833F425
:10751000704313430360012070BDF0B400250026C2
:107520001400E4B2002C01D0012400E000241F006C
:10753000FFB254EA07242700002F38D07F1E0CD05A
:10754000FF3F3ED07F1E12D0FF3F45D07F1E19D097
:10755000FF3F4BD07F1E1FD053E0DFF844763F68DB
:10756000C7F3072C664607F0FF073D0049E0DFF848
:1075700030763F68BC465FEA1C6C6646C7F3074737
:107580003D003EE0DFF81C763F68C7F3072C6646F7
:1075900007F0FF073D0034E0DFF808763F68BC469F
:1075A0005FEA1C6C6646C7F307473D0029E0DFF839
:1075B0003C753F68C7F3072C664607F0FF073D00A0
:1075C0001FE0DFF828753F68BC465FEA1C6C664622
:1075D000C7F307473D0014E0DFF8CC753F68C7F3F9
:1075E000072C664607F0FF073D000AE0DFF8B87594
:1075F0003F68BC465FEA1C6C6646C7F307473D0020
:10760000FFE705600E60F0BC70472DE9F041050012
:10761000DFF84C040068012801D1012600E00026B3
:10762000FFF7E8FCDFF884753868C007FAD4DFF8A4
:107630003C84D8F8004014F00304002C05D001224B
:107640000D21DFF86C05FFF7BBFC20002900C0B25C
:10765000C9B288420AD12800C0B2002805D1002250
:107660000D21DFF84C05FFF7ABFC2AE0002C07D119
:107670002800C0B2012803D10220DFF8EC13087003
:107680003868C007FCD4D8F80010890889002800A1
:10769000C0B20143C8F800103868C007FCD4280005
:1076A000C0B2002801D1002200E001220D21DFF844
:1076B0000005FFF785FC3000C0B2002801D0FFF7BD
:1076C00094FCBDE8F08138B50400DFF8F004022135
:1076D0000160006810F00F00022801D000207AE05D
:1076E000FFF7D5FD2089C92801D2012000E0002044
:1076F000C0B22089A188884201D3012000E0002087
:10770000C0B2B4F90C00C92801DA012000E0002061
:10771000C0B26078012806D1A088C92801D2012012
:1077200000E00020C0B2E08842F21171884201D22C
:10773000012000E00020C0B2E0884B2801D20025E3
:1077400010E0E088B0F5FA7F02D25FF0805509E0E2
:10775000E08840F6C411884202D25FF0005501E093
:107760005FF04055DFF890130A68B4F90C00002868
:1077700001D4012300E00023DFF8440402402A433F
:107780001A430A60FFF7C3FDB4F90C102089FFF714
:1077900063FEA088DFF820140880A08800F014F9A8
:1077A000A07BFFF760FE01220121608800F018F83D
:1077B000002801D100200EE0A07A002801D001228B
:1077C00000E000220521DFF8FC03FFF7F9FB6078F9
:1077D000FFF71BFF012032BD90400E40DC36002039
:1077E0002DE9F04F87B004000D00160000210022A3
:1077F00001A800230027C0E9003703A800230027C1
:10780000C0E9003705A800230027C0E900370020A1
:10781000ADF80000B4F5E16F05D340F6B93084420D
:1078200001D2012700E000273800C0B2002801D1B2
:107830000020BDE040F20970844202D35FF00108ED
:1078400001E05FF000084046C0B2002806D04FF4C7
:10785000E16940F6B83ABAEB090B05E04FF49669D6
:107860004FF4E16ABAEB090B4046C0B200280CD0D5
:1078700003A8DFF85413096841604168090E0691B6
:107880004168C1F3074141600CE003A8DFF83813F9
:10789000096841604168C1F307210691017901F04F
:1078A000FF01416084480068000F10F003008DF86C
:1078B00000009DF800304246D2B205A903A8FFF7A8
:1078C0002CFE05AA03AB01A9B4EB090CD2F804E025
:1078D0005868BEEB000E0EFB0CFCBCFBFBF04860D6
:1078E000D1F804C0586810EB0C0CC1F804C0B4EB1C
:1078F000090CDDF814E00398BEEB000E0EFB0CFC47
:10790000BCFBFBF00190DDF804E0039810EB0E0ED9
:10791000CDF804E050684A6890420BD348685A6832
:10792000904207D30598019A904203D30198039A95
:10793000904201D200203BE03000C0B2002814D0B9
:10794000DFF8882213684046C0B2002802D05FF0FA
:10795000020C01E05FF0000CDFF87402034048689D
:1079600053EA00235CEA030313602800C0B2002836
:107970001DD000229DF800104046C0B2FFF787FDE1
:10798000002801D1002013E00198E72801D20198D6
:1079900000E0E7200190DFF83C020168490A490253
:1079A0004246D2B2019B52EA4302114301600120D8
:1079B00007B0BDE8F08F000008300E4080410E4057
:1079C00060400E40E036002070B504000020DFF873
:1079D000E4110D6815F00705DFF81C110A68D207DD
:1079E00010D5022D0ED3142C02D2042210002AE04E
:1079F000142C04D3282C02D20822100023E01022D9
:107A0000100020E00A68D20710D4022D0ED20A2CF2
:107A100002D20422100016E00A2C04D3142C02D245
:107A2000082210000FE0102210000CE00A68D207B4
:107A300009D5022D07D2282C02D20822100002E01C
:107A400010221000FFE7401E060356EA00260868D1
:107A500030F47F4030430860FFF79CFC70BD0000AD
:107A600034300E400082E00F386E002040300E406F
:107A700038B5050000211048FFF7A9FA0400002CD2
:107A800003D12800C0B2022801DB002C01D0012064
:107A900000E00020C0B2DFF81C110A68D208D20052
:107AA0002800C0B202430A60DFF80C010088FFF72B
:107AB0008BFF31BD396E00204C300E407C300E40C3
:107AC00010ED00E018300E4090310E4098310E401D
:107AD00088300E403880E00F4080E00F4880E00F93
:107AE0005080E00F5880E00F6080E00F1C83E00FB3
:107AF00060300E406C300E404C300E4044300E4032
:107B0000000F0EF0246E0020B4C0400B286E002041
:107B100050300E4077402057372110B7F0B4022282
:107B200000230100C9B2002901D100210A002A4C1A
:107B30002168012904D101210B004AF6E851216096
:107B40000100C9B2022905D124490D6835F0740538
:107B50000D6004E021490D6855F074050D60204961
:107B60000D6855F008050D601E4D2E6836F4406610
:107B7000970217F440673E432E600D6835F0080504
:107B80000D601900C9B2002901D000212160F0BCAC
:107B90007047000058300E402C83E00F3083E00F18
:107BA0002483E00F2883E00F2083E00F78300E401D
:107BB00054300E4070300E40266E002038300E409B
:107BC000FEFFFFCF3C300E401883E00F5C300E40CC
:107BD000FD80FFFF64300E4090310E4064310E4056
:107BE0009C310E403C400E40704770470C4909687C
:107BF0008A0012F03C020B4B1968C1F381110A4351
:107C00008270196811F03F01417007490B6813F049
:107C1000F00306490968C1F303110B430370704771
:107C2000E4FF0FE0E0FF0FE0E8FF0FE0ECFF0FE004
:107C30008B0013EB401313F184431A60704710F16B
:107C4000C0621160704710F180621160704770B5BA
:107C500004000D00160029002000FFF7F4FF31009A
:107C60002000FFF7ECFF70BDDFF8341408607047A8
:107C700038B505000C002800C0B2002801D13F2013
:107C80003FE02800C0B2012802D14FF4784038E02C
:107C90002800C0B2022802D14FF47C6031E02800F5
:107CA000C0B2032802D14FF47E402AE02800C0B2BF
:107CB000042801D1002024E02800C0B2052801D109
:107CC000FF201EE02800C0B2062801D1002018E0E5
:107CD0002800C0B2072801D1002012E02800C0B25D
:107CE000082801D100200CE02800C0B2092801D1E9
:107CF000002006E02800C0B20A2801D1002000E0E0
:107D00000020204110F001000121A140DFF8942360
:107D10002B00DBB23020434302EB03000C30FFF7B3
:107D200092FF31BD38B505000C002800C0B2002814
:107D300001D13F203FE02800C0B2012802D14FF41A
:107D4000784038E02800C0B2022802D14FF47C60AD
:107D500031E02800C0B2032802D14FF47E402AE06F
:107D60002800C0B2042801D1002024E02800C0B2BD
:107D7000052801D1FF201EE02800C0B2062801D14D
:107D8000002018E02800C0B2072801D1002012E02E
:107D90002800C0B2082801D100200CE02800C0B2A1
:107DA000092801D1002006E02800C0B20A2801D12C
:107DB000002000E00020204110F001000121A1403E
:107DC000DFF8E0222B00DBB23020434302EB03005C
:107DD0000C30FFF734FF31BD2DE9F04706000F00EE
:107DE00090469946089C099D5FF0000A3000C0B299
:107DF000002801D13F203FE03000C0B2012802D16D
:107E00004FF4784038E03000C0B2022802D14FF47D
:107E10007C6031E03000C0B2032802D14FF47E40D4
:107E20002AE03000C0B2042801D1002024E0300054
:107E3000C0B2052801D1FF201EE03000C0B20628E4
:107E400001D1002018E03000C0B2072801D1002085
:107E500012E03000C0B2082801D100200CE0300050
:107E6000C0B2092801D1002006E03000C0B20A28C3
:107E700001D1002000E00020384110F001005FEA4D
:107E800098008000B9088900884201D1012000E0F3
:107E90000020C0B2B8F1080F0ED23200D2B2404674
:107EA000C0B2800082400F214046C0B280008140B5
:107EB0007D48FFF7CCFE10E0B8F1080082463200A2
:107EC000D2B25046C0B2800082400F215046C0B2AC
:107ED000800081407548FFF7BAFEB8F1080F0ED256
:107EE00017F003024046C0B28000824003214046A2
:107EF000C0B2800081406E48FFF7A9FE0DE017F088
:107F000003025046C0B28000824003215046C0B2F6
:107F1000800081406748FFF79AFE4A46D2B2414648
:107F20006548FFF785FE2200D2B241466348FFF75D
:107F30007FFE012010FA08F0FFF796FE2A00D2B269
:107F400041465F48FFF774FEBDE8F087F8B50500CD
:107F50000E0017001C002800C0B2002801D13F20ED
:107F60003FE02800C0B2012802D14FF4784038E049
:107F70002800C0B2022802D14FF47C6031E0280012
:107F8000C0B2032802D14FF47E402AE02800C0B2DC
:107F9000042801D1002024E02800C0B2052801D126
:107FA000FF201EE02800C0B2062801D1002018E002
:107FB0002800C0B2072801D1002012E02800C0B27A
:107FC000082801D100200CE02800C0B2092801D106
:107FD000002006E02800C0B20A2801D1002000E0FD
:107FE0000020304110F001003800C0B200280CD051
:107FF000002C05D031002800C0B2FFF793FE04E04A
:1080000031002800C0B2FFF733FE082E1AD230200C
:10801000244A2900C9B2414311442B00DBB200FBC2
:1080200003F0104442680F233000C0B28000834048
:108030009A433B00DBB23000C0B2800083401A4359
:108040004A601BE03020174A2900C9B2414311445D
:108050002B00DBB200FB03F0104482680F233000DA
:108060000838C0B2800083409A433B00DBB2300046
:108070000838C0B2800083401A438A603800C0B21A
:1080800000280CD1002C05D031002800C0B2FFF729
:1080900049FE04E031002800C0B2FFF7E9FDF1BD60
:1080A00024A4004000A0004000A4004004A400401C
:1080B00008A400400CA4004010A4004014A40040F8
:1080C00028A40040010049B200290AD4012210F07E
:1080D0001F018A40DFF8E81203005BB25B0941F838
:1080E00023207047010049B200290AD4012210F070
:1080F0001F018A40DFF8CC1203005BB25B0941F834
:108100002320704710B4020052B2002A05D44A015D
:10811000AD4B040064B21A5508E04A01AB4B0400B1
:1081200064B214F00F04234403F8042C10BC70470D
:108130008B0013EB401313F184431A60704710F166
:1081400080621160704738B504000D00082C01DA18
:10815000012000E00020C0B22800C0B2002801D1F8
:10816000012200E00022D2B221009C48FFF7E0FF8C
:1081700031BD38B50400002C01D0012000E0002002
:10818000C0B220787FF0E06111EA006F01D10120D8
:1081900000E00020C0B201200120E078082801DAC8
:1081A000012000E00020C0B201218B48FEF738F822
:1081B00025782D066078A17851EA00210D43884882
:1081C000056000208349086000208649086000207F
:1081D000824908605FF000407D4908605FF0FF3031
:1081E000814908600820FFF77DFFE1780820FFF74C
:1081F00089FF0820FFF766FF31BD2DE9F843050030
:108200000C0016000127AF40082D01DA012000E024
:108210000020C0B2002C01D0012000E00020C0B23C
:1082200020687249084201D1012000E00020C0B25C
:108230000120012001200120A07A7FF4403111EAC1
:10824000004F01D1012000E00020C0B2E07A7FF4AD
:10825000801111EA005F01D1012000E00020C0B2CE
:10826000207B7FF4001111EA405F01D1012000E082
:108270000020C0B2012030205D49226800FB05F3D8
:10828000CA50627B00FB05F30B449A60A27AE37A42
:108290001B0553EA0243227B53EA425300FB05F2DB
:1082A0000A445360B208920000FB05F00844826162
:1082B0004D48076000F0A4F88046454801683943FE
:1082C0000160207A002803D04448016839430160E6
:1082D000607A002803D0434801683943016040496F
:1082E000D1F800902079002806D02079C043000200
:1082F00070F47F4010EA09096079002802D06079A3
:1083000059EA0029A079002802D0A07939EA0009A9
:10831000E079002802D0E07950EA0909C1F800901C
:1083200039003448FFF70BFF33480760404600F040
:108330006BF8BDE8F18370B504000125A540082C59
:1083400001DA012000E00020C0B200F059F8060078
:108350001F480168A943016029001E48FFF7EFFE8E
:10836000300000F051F870BD2DE9F84306000127F8
:10837000B740082E01DA012000E00020C0B200F072
:108380003FF880461D4804681A480568184830219F
:1083900001FB06F10844D0F80C90404600F034F898
:1083A0003C403D40C9F30A11002D03D1002903D1FF
:1083B000002C01D0002001E0491C0800BDE8F28338
:1083C00000E100E080E200E000E400E018ED00E001
:1083D0006C200E4020200E4000450A0034200E4044
:1083E00000200E402C200E4068200E40F0FFC0FF01
:1083F00080200E4028200E403C200E4060200E4081
:10840000EFF3108072B67047002800D162B6704753
:10841000026CD20702D4426C0A42FCD1704738B5D4
:1084200004000D00A068C006FCD540212000FFF725
:10843000EFFF2800C0B2A06231BD010141F67130EA
:108440000849086008480168490849000160704708
:108450000548016849084900016000200149086099
:108460007047000040000E4008000E4001201D49EA
:108470000860704730B41C48036800200024092CB1
:108480002AD21A4901EBC4056D682A00184D2D68DF
:108490006D0710D451F83450B5F5007F08D0B5F50C
:1084A000806F05D0B5F5006F02D0B5F5803F02D1E1
:1084B00052F48072FFE70F4D2D68ED0501D532F0C3
:1084C0001C0251F834502B4204D0134202D151F80F
:1084D00034100843641CD2E7C10301D530F01C00FE
:1084E00030BC704708500E4004500E401842000047
:1084F000E841E00F88300E4010B4032801D2012279
:1085000000E00022D2B24A79202A01D2012200E002
:108510000022D2B20A784B7852EA83028B7852EA70
:108520008312CB7852EA03120B7952EAC3224B79B9
:1085300052EA03328B7952EA4342204B04011A512A
:1085400010BC704770B40178002901D0012200E00E
:1085500000224178002901D0012300E00023817826
:10856000002901D0012400E00024C178002901D0B5
:10857000012500E000258179002901D0012600E0D5
:108580000026017A002901D0012100E0002152EAF1
:10859000830252EA041252EA4512037952EA032294
:1085A000437952EA033252EAC632C37952EA0342AD
:1085B00052EA414202490A6070BC704740200440C0
:1085C000002004400A00D2B252F080028265704757
:1085D000F8B505000C0016001F00002C04D1DFF8D0
:1085E000D401FDF761FE04003800C0B2002806D0B7
:1085F00020280ED0402816D060281FD028E0200068
:108600000009B04201D3012000E00020C0B21021D7
:108610001FE02000C008B04201D3012000E000208C
:10862000C0B2082115E00620B4FBF0F0B04201D33F
:10863000012000E00020C0B206210AE020008008EE
:10864000B04201D3012000E00020C0B2042100E0CC
:108650001FE006FB01F0400810EB441006FB01F29E
:10866000B0FBF2F02038C200DFF84C01824201D2A8
:10867000012000E00020C0B2DFF84001024028687D
:1086800030F0600028602B683800C0B203432B60D4
:108690006A61F1BD4A4A904202D04A4A904201D1F1
:1086A000012200E00022D2B20A00D2B2D24312F07C
:1086B00005025300C3600B00DBB2C360704738B5DE
:1086C00004000D003E48844202D03E48844201D15D
:1086D000012000E00020C0B2200000F038F8A87CA3
:1086E000002803D0206850F080402060E87C0028FB
:1086F00003D0297D2000FFF765FF697BB5F91000E5
:108700000143B5F90E00014361602B7BAA686968DB
:108710002000FFF75DFF687D002803D0206850F43B
:1087200080302060A87D000710F0E040E97D090559
:1087300011F4E00108432066606F30F0300060679C
:10874000616F287E014361672878E06031BD1C4974
:10875000884202D01B4A904201D1012200E000224F
:10876000D2B240F6AA62C2600022026041F2050263
:10877000426000228260002242610022C264124AEA
:108780008264002202660022426700228267002281
:10879000C267884202D00B49884201D1002101659D
:1087A000002181650749884201D10021C1657047D8
:1087B0000000000040410500F9FF7F00F8FF7F0046
:1087C0000000014000040140F9FF01000269520667
:1087D000FCD50A00D2B2426370470201816470473F
:1087E0000200880010EB421010F1844000687047CE
:1087F00010F1C0621160704710F180621160704723
:1088000038B505000C002800C0B2002801D13F2077
:108810003FE02800C0B2012802D14FF4784038E090
:108820002800C0B2022802D14FF47C6031E0280059
:10883000C0B2032802D14FF47E402AE02800C0B223
:10884000042801D1002024E02800C0B2052801D16D
:10885000FF201EE02800C0B2062801D1002018E049
:108860002800C0B2072801D1002012E02800C0B2C1
:10887000082801D100200CE02800C0B2092801D14D
:10888000002006E02800C0B20A2801D1002000E044
:108890000020204110F001002100DFF8C8272B0044
:1088A000DBB23020434302EB03001C30FFF798FF9C
:1088B00032BD38B505000C002800C0B2002801D137
:1088C0003F203FE02800C0B2012802D14FF4784099
:1088D00038E02800C0B2022802D14FF47C6031E0B9
:1088E0002800C0B2032802D14FF47E402AE02800BD
:1088F000C0B2042801D1002024E02800C0B205281D
:1089000001D1FF201EE02800C0B2062801D10020BE
:1089100018E02800C0B2072801D1002012E028008A
:10892000C0B2082801D100200CE02800C0B20928FC
:1089300001D1002006E02800C0B20A2801D10020A1
:1089400000E00020204110F001000121A140DFF8EB
:1089500014272B00DBB23020434302EB03000C3022
:10896000FFF74AFF31BD38B505000C002800C0B242
:10897000002801D13F203FE02800C0B2012802D1E9
:108980004FF4784038E02800C0B2022802D14FF4FA
:108990007C6031E02800C0B2032802D14FF47E4051
:1089A0002AE02800C0B2042801D1002024E02800D9
:1089B000C0B2052801D1FF201EE02800C0B2062861
:1089C00001D1002018E02800C0B2072801D1002002
:1089D00012E02800C0B2082801D100200CE02800D5
:1089E000C0B2092801D1002006E02800C0B20A2840
:1089F00001D1002000E00020204110F00100012101
:108A0000A140DFF860262B00DBB23020434302EBAD
:108A100003000C30FFF7ECFE31BD2DE9FC410500F1
:108A20000E0017009846089C2000C0B201904046F6
:108A3000C0B200903B00DBB2320031002800C0B26F
:108A4000FFF7CAF9BDE8F38101000022042A0BD226
:108A5000DFF8140650F822305B7F8B4202D150F8C9
:108A6000220002E0521CF1E70020704710B504001C
:108A700094F83100022805D1617F607EFFF7C0FEC7
:108A8000C0B200E0002010BD7CB506003000C0B2CE
:108A9000FFF7DAFF0400002C2DD094F831000228F3
:108AA00029D12000FFF7E2FF2075607D022822D146
:108AB00094F82E0000281ED100208DF80000694691
:108AC000606801F05FFD0500207D002803D094F868
:108AD0002F00002806D0002084F82F00606801F0E5
:108AE00014FD08E0002D06D19DF80000002802D0FA
:108AF000606801F0EBFC73BD1CB5040094F8310014
:108B000002281CD1607D002804D1A17FA07EFFF740
:108B1000D0FE38E0607D012804D1A17FA07EFFF760
:108B200022FF30E0207D002804D1A17FA07EFFF746
:108B3000C0FE28E0A17FA07EFFF715FF23E094F898
:108B4000310001281FD1207D00280ED111208DF881
:108B50000000200001F024FB01226946200001F002
:108B6000B3FA200001F071FB0DE013208DF8000036
:108B7000200001F015FB01226946200001F0A4FA53
:108B8000200001F062FB002016BD2DE9F84F040023
:108B90000D001600FFF734FC0700A088E18888422A
:108BA00007D3002030603800FFF72EFCDFF8BC044C
:108BB00026E020885FF01408A9465FF0140A80B20E
:108BC0000AFB00F0204410F1080B42464946584683
:108BD00001F04AFE20880AFB00FA04EB0A00083084
:108BE00030602088401CE18890FBF1F201FB12000C
:108BF0002080A088401CA0803800FFF705FC0020E2
:108C0000BDE8F28F70B504000D00FFF7F9FB060018
:108C1000A088002807D1002028603000FFF7F4FB6F
:108C2000DFF84C0415E061881420414304EB010097
:108C3000083028606088401CE18890FBF1F201FB5D
:108C400012006080A088401EA0803000FFF7DCFB8F
:108C5000002070BD70B504000D00FFF7D1FB0600C9
:108C6000A088002807D1002028603000FFF7CCFB47
:108C7000DFF8FC030AE061881420414304EB0100A3
:108C8000083028603000FFF7BFFB002070BD90F86F
:108C9000321000290DD104210268D16001680969F0
:108CA0008907FBD50168496F51F0020102685167DD
:108CB00014E090F83210012910D10168496C89073D
:108CC000FBD4042102685160016889688907FBD5DB
:108CD0000168496D51F0020102685165704790F8D2
:108CE0003210002909D10168496F31F00201026890
:108CF000516708210268D16010E090F83210012914
:108D00000CD10168496C8907FBD40168496D31F0C9
:108D1000020102685165082102685160704790F8AD
:108D2000321000290DD101210268D1600168096962
:108D3000C907FBD50168496F51F00101026851670D
:108D400014E090F83210012910D10168496C8907AC
:108D5000FBD401210268516001688968C907FBD50D
:108D60000168496D51F0010102685165704790F842
:108D70003210002909D10168496F49084900026889
:108D8000516702210268D16010E090F83210012989
:108D90000CD10168496C8907FBD40168496D490809
:108DA000490002685165022102685160704778B538
:108DB00085B004000D000021012084F82C0094F8F7
:108DC0003200002803D1206810F11C060BE094F853
:108DD0003200012803D1206810F11C0603E00020B6
:108DE00084F82C000FE004940FF27D000390002023
:108DF0000290686801900120009033002A68216980
:108E0000A06801F03BFB06B070BD78B585B00400EA
:108E10000D000021012084F82D0094F83200002874
:108E200003D1206810F134060BE094F832000128D9
:108E300003D1206810F1280603E0002084F82D00FB
:108E40000FE004940FF2691003900020029068680C
:108E50000190012000902B683200E168606801F009
:108E6000E5FA06B070BD00002DE9F84304000D00DE
:108E7000160037006946786AFFF7ECFE80467C48AA
:108E8000804501D1012090E00098002801D0012008
:108E900000E00020C0B297F8320000280ED13868F8
:108EA000006C80050AD5734800990861002000997C
:108EB00088604FF40070396888643CE097F83200AD
:108EC00000280ED13868006CC0050AD56A480099A0
:108ED00008610020009988604FF4807039688864C8
:108EE00029E097F8320001280DD13868C06A0006E1
:108EF00009D56048009908610020009988608020A9
:108F00003968486317E097F8320001280DD13868B6
:108F1000C06A400609D558480099086100200099A8
:108F2000886040203968486305E0002000990861A6
:108F3000002000998860FFF763FA81460098C068B6
:108F400000280ED000984368009880681B1A00988B
:108F50000268009801693800DDF800C0DCF80CC038
:108F6000E0476946786AFFF74DFE786A80880028F6
:108F700008D06946786AFFF76DFE00993800FFF760
:108F800016FF0EE0012038753800FFF7B5FD002010
:108F900087F82C0097F83100032802D03800FFF73B
:108FA000E6FE4846FFF730FA0120BDE8F2830000F4
:108FB0002DE9F84304000D00160037006946B86A31
:108FC000FFF748FE80462A48804501D1012036E05F
:108FD0000098002801D0012000E00020C0B200204D
:108FE00000990861002000998860FFF709FA81461E
:108FF0000098C06800280AD000984368009802686A
:1090000000213800DDF800C0DCF80CC0E0476946FC
:10901000B86AFFF7F7FDB86A8088002808D069466B
:10902000B86AFFF717FE00993800FFF7EEFE02E07E
:10903000002087F82D004846FFF7E6F90120BDE83B
:10904000F2830300002B01D10C480AE0002905D06F
:10905000002A03D040F60100824201D3084800E014
:109060000020704700A00040E43600200A7000F0A5
:109070000B7000F00D7000F00C7000F0027000F04A
:10908000037000F002001068DFF83035984240F0BD
:109090008982087A002801D100209BE0087A012803
:1090A00001D1002096E0087A022801D1002091E049
:1090B000087A032801D100208CE0087A042801D125
:1090C000002087E0087A052801D1002082E0087A94
:1090D000062801D101207DE0087A072801D101206E
:1090E00078E0087A082801D1012073E0087A09287D
:1090F00001D101206EE0087A0A2801D1012069E03F
:10910000087A0B2801D1022064E0087A0C2801D1EA
:1091100002205FE0087A0D2801D102205AE0087A87
:109120000E2801D1022055E0087A0F2801D1022033
:1091300050E0087A102801D102204BE0087A11286B
:1091400001D1032046E0087A122801D1032041E032
:10915000087A132801D103203CE0087A142801D1B1
:10916000032037E0087A152801D1032032E0087A7D
:10917000162801D103202DE0087A172801D10320F9
:1091800028E0087A182801D1052023E0087A192858
:1091900001D105201EE0087A1A2801D1052019E026
:1091A000087A1B2801D1052014E0087A1C2801D177
:1091B00005200FE0087A1D2801D105200AE0087A71
:1091C0001E2801D1052005E0087A1F2801D10520BD
:1091D00000E0FF20D075487A002801D100209BE0F4
:1091E000487A012801D1002096E0487A022801D16E
:1091F000002091E0487A032801D100208CE0487AD1
:10920000042801D1002087E0487A052801D10120F7
:1092100082E0487A062801D101207DE0487A0728BB
:1092200001D1012078E0487A082801D1012073E0BB
:10923000487A092801D101206EE0487A0A2801D134
:10924000022069E0487A0B2801D1022064E0487AC4
:109250000C2801D102205FE0487A0D2801D10220BC
:109260005AE0487A0E2801D1022055E0487A0F28AA
:1092700001D1022050E0487A102801D103204BE0B0
:10928000487A112801D1032046E0487A122801D1FA
:10929000032041E0487A132801D103203CE0487ABA
:1092A000142801D1032037E0487A152801D1032082
:1092B00032E0487A162801D103202DE0487A172899
:1092C00001D1052028E0487A182801D1052023E0A3
:1092D000487A192801D105201EE0487A1A2801D1C0
:1092E000052019E0487A1B2801D1052014E0487AAE
:1092F0001C2801D105200FE0487A1D2801D1052046
:109300000AE0487A1E2801D1052005E0487A1F2886
:1093100001D1002000E0FF201076087A002801D15A
:1093200000209BE0087A012801D1012096E0087A0C
:10933000022801D1022091E0087A032801D10320FC
:109340008CE0087A042801D1042087E0087A0528F7
:1093500001D1052082E0087A062801D10B207DE0AA
:10936000087A072801D10C2078E0087A082801D172
:109370000D2073E0087A092801D10E206EE0087AEA
:109380000A2801D10F2069E0087A0B2801D10620B4
:1093900064E0087A0C2801D107205FE0087A0D28E4
:1093A00001D108205AE0087A0E2801D1092055E0A1
:1093B000087A0F2801D10A2050E0087A102801D13C
:1093C0000B204BE0087A112801D1092046E0087AE9
:1093D000122801D10A2041E0087A132801D10B207C
:1093E0003CE0087A142801D10C2037E0087A1528CF
:1093F00001D10D2032E0087A162801D10E202DE08F
:10940000087A172801D10F2028E0087A182801D1FE
:10941000002023E0087A192801D101201EE0087AF3
:109420001A2801D1022019E0087A1B2801D1032053
:1094300014E0087A1C2801D104200FE0087A1D28C6
:1094400001D105200AE0087A1E2801D1062005E096
:10945000087A1F2801D1072000E0FF20D076487A43
:10946000002801D101209BE0487A012801D1022087
:1094700096E0487A022801D1032091E0487A032837
:1094800001D104208CE0487A042801D1052087E02E
:10949000487A052801D10B2082E0487A062801D1BC
:1094A0000C207DE0487A072801D10D2078E0487A29
:1094B000082801D10E2073E0487A092801D10F2035
:1094C0006EE0487A0A2801D1062069E0487A0B2824
:1094D00001D1072064E0487A0C2801D108205FE020
:1094E000487A0D2801D109205AE0487A0E2801D186
:1094F0000A2055E0487A0F2801D10B2050E0487A25
:10950000102801D109204BE0487A112801D10A2006
:1095100046E0487A122801D10B2041E0487A13280E
:1095200001D10C203CE0487A142801D10D2037E00D
:10953000487A152801D10E2032E0487A162801D148
:109540000F202DE0487A172801D1002028E0487A22
:10955000182801D1012023E0487A192801D10220DE
:109560001EE0487A1A2801D1032019E0487A1B2806
:1095700001D1042014E0487A1C2801D105200FE015
:10958000487A1D2801D106200AE0487A1E2801D118
:10959000072005E0487A1F2801D1002000E0FF20C5
:1095A000107794E21068DFF83C35984240F08C82E6
:1095B000087A002804D100209EE000BF000001408E
:1095C000087A012801D1002096E0087A022801D10A
:1095D000002091E0087A032801D100208CE0087A6D
:1095E000042801D1002087E0087A052801D1002055
:1095F00082E0087A062801D101207DE0087A072858
:1096000001D1012078E0087A082801D1012073E017
:10961000087A092801D101206EE0087A0A2801D1D0
:10962000012069E0087A0B2801D1022064E0087A61
:109630000C2801D102205FE0087A0D2801D1022018
:109640005AE0087A0E2801D1022055E0087A0F2846
:1096500001D1022050E0087A102801D102204BE00D
:10966000087A112801D1032046E0087A122801D196
:10967000032041E0087A132801D103203CE0087A56
:10968000142801D1032037E0087A152801D10320DE
:1096900032E0087A162801D103202DE0087A172835
:1096A00001D1032028E0087A182801D1052023E001
:1096B000087A192801D105201EE0087A1A2801D15C
:1096C000052019E0087A1B2801D1052014E0087A4A
:1096D0001C2801D105200FE0087A1D2801D10520A2
:1096E0000AE0087A1E2801D1052005E0087A1F2823
:1096F00001D1052000E0FF20D075487A002801D173
:1097000000209BE0487A012801D1002096E0487AA9
:10971000022801D1002091E0487A032801D10020DD
:109720008CE0487A042801D1002087E0487A052897
:1097300001D1012082E0487A062801D101207DE094
:10974000487A072801D1012078E0487A082801D119
:10975000012073E0487A092801D101206EE0487A9F
:109760000A2801D1022069E0487A0B2801D10220A1
:1097700064E0487A0C2801D102205FE0487A0D2885
:1097800001D102205AE0487A0E2801D1022055E08A
:10979000487A0F2801D1022050E0487A102801D1E0
:1097A00003204BE0487A112801D1032046E0487A93
:1097B000122801D1032041E0487A132801D1032067
:1097C0003CE0487A142801D1032037E0487A152874
:1097D00001D1032032E0487A162801D103202DE080
:1097E000487A172801D1052028E0487A182801D1A5
:1097F000052023E0487A192801D105201EE0487A87
:109800001A2801D1052019E0487A1B2801D105202A
:1098100014E0487A1C2801D105200FE0487A1D2861
:1098200001D105200AE0487A1E2801D1052005E073
:10983000487A1F2801D1002000E0FF201076087A26
:10984000002801D100209BE0087A012801D10120E5
:1098500096E0087A022801D1022091E0087A0328D4
:1098600001D103208CE0087A042801D1042087E08C
:10987000087A052801D1052082E0087A062801D15E
:109880000B207DE0087A072801D10C2078E0087AC7
:10989000082801D10D2073E0087A092801D10E2093
:1098A0006EE0087A0A2801D10F2069E0087A0B28B7
:1098B00001D1062064E0087A0C2801D107205FE07E
:1098C000087A0D2801D108205AE0087A0E2801D123
:1098D000092055E0087A0F2801D10A2050E0087AC3
:1098E000102801D10B204BE0087A112801D1092062
:1098F00046E0087A122801D10A2041E0087A1328AC
:1099000001D10B203CE0087A142801D10C2037E06B
:10991000087A152801D10D2032E0087A162801D1E5
:109920000E202DE0087A172801D10F2028E0087AB0
:10993000182801D1002023E0087A192801D101203C
:109940001EE0087A1A2801D1022019E0087A1B28A3
:1099500001D1032014E0087A1C2801D104200FE073
:10996000087A1D2801D105200AE0087A1E2801D1B5
:10997000062005E0087A1F2801D1072000E0FF201B
:10998000D076487A002801D101209BE0487A01284E
:1099900001D1022096E0487A022801D1032091E00B
:1099A000487A032801D104208CE0487A042801D1A8
:1099B000052087E0487A052801D10B2082E0487A0B
:1099C000062801D10C207DE0487A072801D10D201E
:1099D00078E0487A082801D10E2073E0487A0928F7
:1099E00001D10F206EE0487A0A2801D1062069E0F3
:1099F000487A0B2801D1072064E0487A0C2801D16D
:109A000008205FE0487A0D2801D109205AE0487A01
:109A10000E2801D10A2055E0487A0F2801D10B20E9
:109A200050E0487A102801D109204BE0487A1128EB
:109A300001D10A2046E0487A122801D10B2041E0EA
:109A4000487A132801D10C203CE0487A142801D12F
:109A50000D2037E0487A152801D10E2032E0487AEF
:109A6000162801D10F202DE0487A172801D10020B7
:109A700028E0487A182801D1012023E0487A1928E3
:109A800001D102201EE0487A1A2801D1032019E0F2
:109A9000487A1B2801D1042014E0487A1C2801D1FF
:109AA00005200FE0487A1D2801D106200AE0487AF7
:109AB0001E2801D1072005E0487A1F2801D1002087
:109AC00000E0FF20107702E0DFF8C40308E0487CE4
:109AD0005076887C5077C87C9076087D90770020FF
