:10400000007C0020317300002D7300002D73000030
:104010002D7300002D7300002D7300002D73000020
:104020002D7300002D7300002D7300002D73000010
:104030002D7300002D7300002D7300002D73000000
:104040002D7300004DB800002D730000D9B20000A0
:10405000B9B8000059B8000071B8000051B80000AC
:104060002D7300002D7300002D7300002D730000D0
:104070002D7300002D7300002D7300002D730000C0
:104080002D7300002D7300002D7300002D730000B0
:104090002D7300002D7300002D7300002D730000A0
:1040A0002D7300002D7300002D730000BDB80000BB
:1040B00055B800002D730000FDB800002D730000FE
:1040C000C18900002D73000010B5054C237833B969
:1040D000044B13B10448AFF300800123237010BDDB
:1040E000C00000200000000070DA000008B5034B9B
:1040F0001BB103490348AFF3008008BD0000000076
:10410000C400002070DA0000154B002B08BF134BD1
:104110009D46A3F5803A00218B460F461348144A6A
:10412000121A08F0D4F90F4B002B00D098470E4B11
:10413000002B00D098470020002104000D000D48FE
:10414000002802D00C48AFF3008008F091F920005D
:10415000290002F00DFA08F077F900BF000008000E
:10416000007C00200000000000000000C0000020D3
:10417000381C0020000000000000000037B5044695
:10418000684680E8060003C8251D85E805002373FE
:10419000069B2361BDF81C30A38200232360084BDB
:1041A0001A6812B91C6004E00A4611680029FBD1A4
:1041B00014609888013080B2988003B030BD00BF91
:1041C000D806002007B503790193054A03680093D8
:1041D00006CA02230830FFF7D1FF03B05DF804FBE5
:1041E0002CC700000A4B40F2011210B51A604FF0C4
:1041F000FF329A6001225A6008441A46814202D175
:10420000D869C04310BD11F8014B9461F6E700BFB7
:1042100000C0014070B540F62804E0B02368A3F563
:104220000062B2F5605F05460E4615D21B6BA3F522
:104230000062B2F5605F0FD25B6A4FF4C0726946EC
:104240000020984730B923681B6B3246DB6A294649
:104250006846984760B070BD4FF40170FAE70000FF
:1042600040F628020B461268A2F50061B1F5605FC6
:1042700010B40DD2126BA2F50061B1F5605F07D2E8
:104280001469064A0146A44600205DF8044B6047C5
:104290004FF481705DF8044B704700BF2807002081
:1042A00070B540F62805E0B02B68A3F50062B2F5C2
:1042B000605F04D34FF40174204660B070BD1B6B87
:1042C000002BF7D05B6A4FF4C07269460020984714
:1042D00004460028F0D140F201262B68A3F50062C5
:1042E000B2F5605FE6D21B6BA3F50062B2F5605FCA
:1042F000E0D29B6A002168469847B042EDD040F278
:104300000323984218BF0446D6E700000A490B4B26
:1043100088425A680BD90A4988420AD902F040718A
:104320005A6822F0407242EA01625A6070470021E6
:10433000F6E70121F4E700BF40787D0100000E4060
:10434000005A62020C4B984210D90C4B984210D97B
:10435000022201230A490B600A49D1F8003123F0F7
:10436000807343EA0263C1F80031704700221346AC
:10437000F0E70122FBE700BF0048E8010090D0030E
:104380004000C84300400E40304B1A6FD96CC9073B
:1043900002F0070242D5012A40D9132851D9143816
:1043A00013288CBF102308232849013BCA6C18032B
:1043B00022F47F4240EA03231343CB64244BCA6CAC
:1043C0001B88C2F303222833013202EB820003EB85
:1043D0005303B3FBF0F3C86C013B072B20F0EE60F6
:1043E00028BF072340F4801040EA0363CB64194BD5
:1043F000B3F90030002B10DB2833500800EB4202E9
:1044000003EB5303B3FBF2F30A6D072B28BF07231B
:1044100022F0700242EA03130B657047DB6CD90788
:1044200006D4012A04D809280BD90A380928B8E784
:10443000064BDB6C13F00103B6D0012A03D8272802
:10444000AFE70423B0E70023AEE700BF00300E4023
:10445000F6060020F8060020094B30B5196C5C6C9C
:104460000022234642EA0104220C82701A0A210A21
:10447000C2701A0C1B0E047041700271437130BD82
:10448000B081E00F214BD3F8F82102401CD170B469
:10449000D3F8FC51D3F8006203F5FC74641BA4103C
:1044A000022C12D0032C29D0012C1AD0184A5268A1
:1044B0002A6005F10C026860C3F8FC21A96033682A
:1044C0000C33336070BC70477047114A1C1D526832
:1044D0002A60686004221960C3F8FC41326070BC35
:1044E00070470B4C1A4664682C6042F8080B082091
:1044F0005960C3F8FC21306070BC7047044C64689C
:10450000A960C5E90040C3F8FC31E7E7B415002015
:10451000001000E0837DDB0701D5808A7047D0E979
:1045200001239B1A44BF828A9B1898B270470000EF
:10453000044B5A6D22B95865A3F8581001207047F2
:104540000020704778060020D0B50C4CE38C0A2080
:10455000584307F0DDFC0646A08C0F4607F0D8FC58
:104560000022074B07F03EFD02460B463046394617
:1045700007F062FE07F048FF2083D0BD78060020D8
:104580000000F43F084A10B5146840F2E243584373
:1045900003FB0141536800F5807001EB50011844A2
:1045A0001160506010BD00BF7806002070B5002279
:1045B0008AB01346D91003F00704415C2141CC07AF
:1045C00041BF0AA98918013201F8283C0133252B83
:1045D000F0D10E4D0023D91003F00704415C2141B6
:1045E000C90707D5E91881F82A300133252BF2D104
:1045F0000AB070BD0AAE93FBF2F102FB11313144F7
:10460000EC1811F8286C84F82A60EEE77806002090
:10461000024B986C80B28002704700BFB081E00FFF
:104620007FB50E4B02466D4603F1100618685968B7
:104630002C4603C40833B3422546F7D1531E04A9C0
:104640000F3211F8014D13F8010F844204D1934247
:10465000F7D1012004B070BD0020FBE748C5000081
:1046600070B51A4D286810BB194B1A4CE41A1A4B36
:104670001C4424F4FF6424F00704FFF7C9FF8442BC
:1046800014D2666BA6B1FFF7C3FF864210D2FFF7C4
:10469000BFFF06F1400383420AD83046FFF7C0FF50
:1046A00030B1F36933F0080302D02C60286870BD84
:1046B00004F1C8063046FFF7B3FF20B1D4F8E43068
:1046C00033F00803F1D104F50064D6E73C01002083
:1046D00010000020BC000020BBE20000BFF34F8FA1
:1046E0000549064BCA6802F4E0621343CB60BFF38E
:1046F0004F8F00BFFDE700BF00ED00E00400FA05AA
:1047000040F628031B68A3F50062B2F5605F07D28C
:104710001B6BA3F50062B2F5605F01D2DB6B18473B
:1047200040F20110704740F6280310B41B68A3F54F
:104730000064B4F5605F09D21B6BA3F50064B4F5A7
:10474000605F03D29B6B5DF8044B184740F2011089
:104750005DF8044B704740F628031B68A3F5006220
:10476000B2F5605F01D25B6A184700207047000015
:1047700028231A68B2F5006F0BD240F628031B6895
:10478000A3F50061B1F5605F03D21168084A914258
:1047900003D000230370836070471968054A914273
:1047A000F7D1012202709A6842609B69F3E700BF6B
:1047B000AD1007B007B0CD5E10B50C4630B9044857
:1047C000FFF7D6FF034B23600423A380002010BD16
:1047D000980100209C01002010B508B3114B1A6805
:1047E000918881421CD39988814281BF012112683E
:1047F00099809A6099889A6800242AB904B19A60CD
:104800004FF6FF71998009E0884204D001311268A7
:1048100089B20124F1E70CB198809A60104610BD6E
:104820000022FBE7E006002037B50D461446FFF7EF
:10483000D3FFD8B10369828A63B14FF6FE718A4211
:1048400008D100200090ADF804006946984738B1BF
:1048500003B030BD2B602280286848B92080F7E77C
:10486000009B2B60BDF804302380F5E70120EFE7C3
:104870000020EDE737B50D461446FFF7ADFF70B1E8
:10488000036973B1818A4FF6FE72914209D1009596
:10489000ADF8044069460120984703B030BD0120BF
:1048A000FBE70E20F9E7000037B50379124A03331E
:1048B0000446019300F14403009306CA0223143016
:1048C000FFF75CFC228A0192E268237A009204F1ED
:1048D0002C0094E80600FFF751FC237AA4F8450069
:1048E000054684F844302279216804F1470007F036
:1048F000E3FD284603B030BD24C7000070B50E4C60
:104900000E4B04F1100206460D4692E803001834DF
:1049100083E803001846FFF755FC094B94E80300B1
:1049200002221A7283E80300DE601D821846BDE889
:104930007040FFF7B9BF00BF48C500004C1500200C
:10494000C00400202DE9F041054616468846FFF7D1
:10495000E1FDAB8A181A80B2864228BF0646374668
:104960005FB93EB1D5E901329A4202BFAB7D43F057
:104970000103AB753046BDE8F081AB8A2C68A868AE
:104980001C44241AA3B2BB428CBF3C46A4B22246AC
:10499000414607F091FDAB682968AA8A23440A447E
:1049A000A0449342A7EB0404AB60A7B228BFA96060
:1049B000D6E770B5044615461E4611B3FFF7AAFDAB
:1049C000A38A181A80B2012829D9E37D63B1E3686C
:1049D000628A1A70120A07D02068A18A0133014442
:1049E0008B4228BF0346F4E700236382A368E36099
:1049F000022204F112012046FFF7A4FFE37D0133F8
:104A0000E375324629462046FFF79CFF638A03443C
:104A10006382E37D13B9238A0344238270BD00209F
:104A2000FCE72DE9F041164605468846FFF772FD82
:104A3000864228BF0646B6B237464FB92EB1AB7D87
:104A4000DA0744BF23F00103AB753046BDE8F081BF
:104A5000AB8A2C6869681C44641AA3B2BB428CBF41
:104A60003C46A4B22246404607F026FD6B68296802
:104A7000AA8A23440A44A0449342A7EB04046B602F
:104A8000A7B228BF6960D8E770B51E46038A0446FE
:104A90001546EBB9C27DDAB10123013A0B70C2753C
:104AA00000F110010222FFF7BCFFE37D9BB1228AD7
:104AB000B24228BF324629462046FFF7B2FF238A7A
:104AC0001B1A2382E37D13B9638A1B1A638270BDAC
:104AD00000230B70EBE7638A2382E8E770B50E468C
:104AE000B0B9FFF7BDFD0446FFF7BAFD60B1094D4F
:104AF00004F1C80304F58474186859682A4603C28F
:104B00000833A3421546F7D1034B33600423B38027
:104B1000002070BD40010020600100202DE9F0431D
:104B200085B088466946044681E80C000C9EBDF8B5
:104B30003470FFF751FE4FF6FE7905460DB144453E
:104B400005D94FF6FF74204605B0BDE8F0832B7AF7
:104B50009DF804209A421ED10099686807F0BFFCB6
:104B6000C8B9002EEFD02B69AA8AA3B14A4509D152
:104B70000290ADF80C0002A9984760B9029BBDF8FD
:104B80000C2043B1974206D13A461946304607F009
:104B9000A6FC0028D7D001342D68A4B2CEE70000CF
:104BA000F0B5354C85B011464FF486701F46164659
:104BB000FFF768FC236925462BB94FF48370FFF794
:104BC00061FC05B0F0BD002F08BF082E21D16A4658
:104BD0000221206802F09CFE636860615B7A2376A4
:104BE0009DF80030DA1F53425341627E63F30002A6
:104BF000029BE361BDF802306276638304F1180121
:104C000023690220984701220021206802F088FED3
:104C1000D7E7002F08BFB6F5801F03D10021012080
:104C20009847CEE706F4C0520023134309D04FF44F
:104C300080714FF48170FFF725FC23690021032068
:104C4000EEE706F440720023134308D001214FF42D
:104C50008170FFF717FC2B690021FF20E0E706F0C9
:104C6000A0620023134319BF012140F20110314615
:104C70004FF48370EDE700BFB81300207FB5022327
:104C80008DF80C30064B5A8B596918680332029222
:104C900001AA02F041FE019807B05DF804FB00BFD5
:104CA000B813002008B500214FF48570FFF7EAFB28
:104CB000044B00221A61186801220321BDE8084054
:104CC00002F0D0BBB813002013B50D4B0D4C1B8860
:104CD000ADF804300128ADF8003004BF02238DF890
:104CE000043001A908BF0423206808BF8DF80030F4
:104CF00002F070FD6946206802F08CFD02B010BD24
:104D000068C50000B813002037B5124C437A6060C4
:104D100000220092D0E90021206802F083FE238C5B
:104D2000DB050CD563680C4D1A7A2978914206D0C0
:104D3000012A06D0022A08D063681B7A2B7003B0C0
:104D400030BD206802F033FEF6E7206802F042FE34
:104D5000F2E700BFB8130020D50600207FB51A4C3B
:104D60001948637A0133DBB2272B88BF252363728E
:104D7000FFF7CAFF257B627C144C154920684FF46D
:104D80000073023202F0A4FD6368124A5B7A05F0F8
:104D900001052846D65CFFF797FF42F21073002208
:104DA0000293009201238DF80C30314602AB20684B
:104DB00002F05CFB28B1FFF775FFFFF7CFFF04B0EF
:104DC00070BD054B2361FAE7DC000020B81300201A
:104DD000EC000020F8C600006555000038B50D460F
:104DE00011462C68A41A2246014407F087FB2C6068
:104DF00038BD00002DE9F047DFF86C814F4CD8F842
:104E000000304F4EC51A4F483560241A4E480444AE
:104E100024F4FF6424F00704A542C1466FD3134471
:104E20005F19FFF7F5FBA0F58050874267D8D8F8E7
:104E300000008418B4F5806F03D9444B82221A70A5
:104E40005BE0DFF82081424F404407F035FBD7F8A4
:104E500000A0C9F80040BAF1000F1CD1D72C4CD9E2
:104E60003C4A08F1C80308F1D80853F8041B42F87B
:104E7000041B4345F9D13748FFF7D2FB10B9334B38
:104E80008422DCE71022FF21334807F020FB334A5D
:104E900005F1C803136004F0030831482C44A4EB67
:104EA00008040440BAF1000F0AD12840C0F500619F
:104EB0002144FFF725FC3C6048B1244B8522BEE726
:104EC000A24504D2A4EB0A010AF50060F1E7D9F883
:104ED000002024493068A2EB0802FFF724FCD9F82F
:104EE000002033682049A2EB0802044613441D4801
:104EF0003360FFF773FF002CDFD1BDE8F0871B4B59
:104F00005B68B3F1827F114B12D218780A440026F5
:104F10008A4203D1002EF0D01870EEE711F8017B21
:104F2000FF2FF5D00126A54234BF87208320EFE76D
:104F3000A54234BF8722832281E700BFBC00002046
:104F4000300B002010000020BBE200002D0B0020E1
:104F5000B41300209C0F002078100020AC0F00201C
:104F600000F8FFFFB00F0020B0130020A4010020C4
:104F7000EFF3108072B67047EFF3108072B670478F
:104F800000B962B67047000010B5034CA01DFFF7D2
:104F90000DFB0023236010BD7C0F002010B5094CD1
:104FA000B4F80710A079FFF7EDFAA368064AB4F841
:104FB0000D10D184C3F30F239384FFF7C5FA0023A8
:104FC000236010BD7C0F002078060020034B044AAC
:104FD0009979117500221A60704700BF7C0F00207C
:104FE00078060020FFF7CCBF2DE9F0410D4F0646B3
:104FF0000D4614460CB9BDE8F081EFF3108872B687
:1050000023462A4631463846FFF7D3FC034640463E
:10501000FFF7B6FF002BEDD0E41AA4B21D44002622
:10502000E8E700BF600E002013B5002301F108047B
:10503000ADF80430ADF8060021461A46083151F8A3
:10504000100C70B90BB1ADF8042004220DEB020175
:1050500001200834FFF7C8FF54F8101C39B902B01A
:1050600010BD51F80C3C1A4492B20123E6E734F823
:105070000C2C0020EDE700007FB500230130CDE9C6
:105080000101CDE904336946044B009304200392E7
:10509000FFF7CAFF07B05DF804FB00BF86010020E0
:1050A00040F6280210B51368A3F50063B3F5605FFE
:1050B0000ED2EFF3108072B6084900240B780C7002
:1050C000FFF75EFF3BB11368BDE810401B6A18474D
:1050D0004FF4817010BD1846FCE700BF790F002027
:1050E00001282DE9F34740F02B818B88012B40F0FC
:1050F00029810B681B7813BB944A954C1360954A21
:105100001360954A1360954A1360954A1360954A57
:105110001370954A1360954A13602278022A01D1D0
:10512000FFF7BEFF01232370914B00241C70914BAD
:105130001C70914B1C70204602B0BDE8F087032B19
:1051400040F0EB808C4B824E1C78002C49D1337898
:10515000002B00F0D680834B1B78082B75D17B4A3F
:105160001368904683B940F628052B68A3F50063C1
:10517000B3F5605F50D34FF4017041F208039842D9
:1051800000F0C18080242CE013F003071ABFC7F1A0
:105190000407FFB2274603EB070ABAF5806F00F257
:1051A000B68076483A461844FF2107F090F96E4BD6
:1051B000684AC8F800A015681A6815445544DFF815
:1051C000A0A125F4FF65DAF8000025F00705854267
:1051D00099460BD9291A00F50060FFF791FA18B12A
:1051E000852400233370A6E7CAF80050D8F80010D1
:1051F000D9F80000FFF734F8D9F80030D8F80020CB
:10520000524913440546DF1B5C48C9F80070FFF79C
:10521000E5FD002DA7D0E3E7FFF742F80028ACD169
:105220002B680190A3F50062B2F5605F09D21B6B99
:10523000A3F50062B2F5605F03D29B69012101A86A
:1052400098474C4B01221A70CBE7002B5DD0484B9E
:105250001B78002B96D0454F3B6843B93F4B4849DC
:1052600018681022FFF75FFA0028BAD0B8E713F0E9
:1052700003021CBFC2F10402D2B29D18B5F5806FC3
:1052800045D84048FF21184407F021F93E4A3F4BDA
:1052900031483F493D609B1A3E4A134402680B4027
:1052A0009342804635D81544FFF7B2F9A0F58050F7
:1052B000854230D83D68DFF8A8902A44D9F800002C
:1052C00002EA0105854208D9291A00F50060FFF7B6
:1052D00017FA002884D1C9F800503A682949D8F84B
:1052E0000000FFF720FAD8F800303A681F49054659
:1052F00013442448C8F80030FFF770FD002DADD0EE
:105300006EE781246DE786246BE7842469E78224B5
:1053100067E7872465E7832463E7042B14D11E4CD9
:1053200013230221637020462170FFF701F91B4A05
:105330001B4B128905329A801A4A1A6062789A7158
:105340000024F8E60D24F6E60624F4E6280B0020F7
:105350002E0B0020AC150020300B0020AC0F0020DD
:10536000B413002080010020340B0020B013002073
:105370002C0B00208D0100202D0B00202807002081
:105380009C0F0020B00F002010000020BC00002067
:1053900000F8FFFFBBE20000900F0020780600201D
:1053A0007C0F0020615A000040F6280210B51368F7
:1053B000A3F50063B3F5605F0ED2EFF3108072B611
:1053C000084B012419781C70FFF7DAFD39B913680E
:1053D000BDE81040DB6918474FF4817010BD002014
:1053E000FCE700BF790F0020134A144C08B5937EE8
:1053F00043F040039376124B00221A70114B1B7836
:105400004FF000556BB1FFF7CFFF0F4B2B6001231F
:10541000A360236823F4E06343F480632360FFF711
:105420005DF92B600123A360236823F4E06343F458
:1054300080632360FFF752F97806002000500E4089
:10544000D40600208D01002002020FF010B5134C8D
:10545000A37E5B0621D4FFF725FC2168A38C40F2D4
:10546000E24202FB0312226094F84F10A27A252038
:105470000A4492FBF0F100FB1122A2722289013250
:10548000228162680A2101FB03236360238B5A1E79
:10549000228313B90820FFF7A7FF10BD780600206C
:1054A0002DE9FF41294C40F601002189FEF7EAFF72
:1054B000A37E13F0400242D143F0010303F0FD0349
:1054C00062F38203224AA376136823B1218992886A
:1054D000914200D19847A37A1E4E1F48234493F867
:1054E0002A306375FFF710FCD4E9005473681B4A37
:1054F0005B7A64082F1B12F803800120FFF7E4FB9E
:1055000064350097002725446A46012441463B46FE
:10551000306802958DF804708DF80C708DF80D4090
:105520008DF80E4001F0A6FF224605463946306848
:1055300002F0F6F935B1FFF789FFFFF7B1FF04B0CC
:10554000BDE8F081064B3361F9E700BF7806002023
:105550007C0F0020B813002084060020F8C600004D
:10556000C956000002282DE9F0411FD002D80128B9
:1055700007D0FEE7032800F09C80FF2800F0998008
:10558000F7E74D4C237B980707D5FFF78BFBFFF719
:10559000E5FB237B6FF341032373237B990701D43E
:1055A000DA0764D4BDE8F041FFF7D8BB4B784C680C
:1055B000DB077ED5227802F00F07032F59D0052F85
:1055C00077D13E498B7B03F00103B3EBD21F04F18B
:1055D00008004CD10622083106F081FF80460028E1
:1055E00045D1FFF75FFBFFF749FB354D41460646C6
:1055F0005C22284606F06BFFAB7E2F8343F020032E
:10560000AB76627E237E43EA0223AB84627F237FF4
:1056100043EA0223EB8494F82330C3F3040385F8B0
:105620004F3094F82330C3F3421385F8503004F11F
:105630001E001B232B85FEF7B9FFD4F80E30E27C49
:10564000EB60A37C2E6043EA0223227D607D43EA67
:1056500002432B61012795F84F30AB722F75E18A19
:105660003944FEF78FFFFFF71BFF164B1F70BDE895
:10567000F081124DAB7B03F00103B3EBD21F04F1B9
:105680000800F4D1062205F1080106F028FF0028E1
:10569000EDD1094C286894F839204FF40073023298
:1056A00004F1380102F014F9237B43F00203237361
:1056B000DDE7FFF7F7FA75E7DC000020B8130020FC
:1056C00078060020D406002002282DE9F7430F4673
:1056D0000BD003D8012800F0B281FEE7032800F0C8
:1056E000B681FF2800F0B381F7E748784E68BB4DDC
:1056F00010F0010461D14FF0FF3140F60300FEF7D6
:10570000C1FE2646AB7EB64C13F0200F12D0696D59
:105710006FF34513AB76002900F09F80237895F84E
:105720005820627043F003032370A01C06F0C4FEEF
:1057300000236B65AB48DFF8D082FEF7EBFEAA7E54
:105740002378003018BF012060F34102C2F300113A
:10575000AA7661F38203C2F3C00262F3C30360F36B
:1057600004132370218840F60200FEF78BFE627856
:105770009B49D8F8000002324FF40073D2B202F015
:10578000A7F8AB7E7C68D90709D56FF30003AB7629
:1057900000236B60FFF772FA2860FEF7D5FE4EB16A
:1057A000237803F00303022B00F031816DD8012B25
:1057B00000F02C8103B0BDE8F083318840F603008F
:1057C000FEF760FE3378A97E96F80080C3F30013DD
:1057D00063F38201A976C8F3C003C1F300118B42C1
:1057E00006D108F00303022B05D019D8012B31D0C4
:1057F0000026344615E0A146767896B17A48848A28
:10580000FEF788FE201A80B2B9F1000F04D00228FA
:1058100086BF023880B2002086428CBF002401245B
:105820002646AB7EC8F38008C3F3C002904507D07C
:1058300082F0010262F3C303DBB243F02003AB76D4
:10584000002C3FF45FAFAB7E81F0010161F30413E4
:10585000AB7657E74FF00009CEE795F8283061485E
:10586000A21C0DF10701FFF70FF9C0B258B19DF866
:105870000730002B0CBF012202222378607062F3F4
:105880000103237056E70122F7E7A378022B65D0C6
:1058900011D8002B4DD0012B38D0544A127822B1A8
:1058A000162B7FD0182B00F08C80514807220270F5
:1058B0004370022127E00C2B18D0142B56D0082B54
:1058C000EBD1B8F8201054F8035FC8B205EA000223
:1058D000474801F47F41044642EA0105092104F8E2
:1058E000011B0023C0F8015063600CE040484FF0FA
:1058F000FF32037001234370827003710222002380
:10590000C27043710621FEF713FE53E7617A237AD2
:10591000384A43EA012393801346374943F8061B6C
:1059200054F8031FC2F80610A2889A80A2799A71CF
:1059300040E7627B237B2F4943EA02238B800B469F
:105940002E4A43F8062B54F8032FC1F8062062684C
:105950005A6022891A81A27A9A722BE72A89254BEA
:1059600005329A80264A1A60E278E0E7B4F80530FA
:10597000B4F803201E48DB08934228BF13462B854A
:10598000152300216FF004046FF027020370072332
:10599000817081714470C27003714471C27103726D
:1059A0000921B0E72279E3781148134003F003039B
:1059B000022B18BF0123172202704370837003214A
:1059C000A1E76279A1790B4B42EA01229A800D4A44
:1059D0001A60D4F80320C3F80620EBE6780600200E
:1059E000B8170020600E0020480D0020780F00201E
:1059F000900F00207C0F0020894F00009D4F000079
:105A0000615A0000CD4F0000B81300200026124854
:105A1000818AFEF77FFD081AA51C80B2647826B142
:105A2000022886BF023880B20020A3B283423FF62C
:105A3000C1AE2A4631460848FEF7BBFFBAE6074B1F
:105A40009B7E9A073FF5B6AE5B073FF5B3AEFFF717
:105A5000FDFCFFF725FDADE6480D0020780600208F
:105A600008B5024B9879FFF7BFFC00BF7C0F002000
:105A70002DE9F04F01288BB040F03D818A88002A43
:105A800000F03B819F4D95F800B0BBF1000F00F096
:105A900036819D4B1C7898465CB99C4806788246B6
:105AA0003EB99B4E30681718B7F5806F05D9822430
:105AB0001C7020460BB0BDE8F08FDFF870920968CB
:105AC000484406F0F9FCBBF1020F37603AD0032FCF
:105AD000EFD9904F3846FEF74BFE3B78D9F80020BF
:105AE000012B8D4B5FD19A425FD1BB68DB0365D53B
:105AF00002232B70FFF758FC40F628031B68A3F520
:105B00000062B2F5605F09D21B6BA3F50062B2F5CB
:105B1000605F03D29B6803A90020984703987F4BDE
:105B20007F4A186020F4FF6323F007034FF40061FD
:105B30001360FEF7E5FD88BBFEF792FD40BB2B78B6
:105B4000022BB6D17749784F08783A68336810F05D
:105B5000F70F894640F0A58070490D681D4403F099
:105B6000030B15446E4B0193A5EB0B0525F4FF6564
:105B7000186825F00705854223D9291A00F5006029
:105B8000FEF7BEFD019BD8B1852488F8004090E760
:105B90004FF40061FEF7B4FD0028D0D0852388F8CB
:105BA00000301C4685E79A4208D0842388F80030EC
:105BB00098F80030002B3FF47CAFF0E78623F5E740
:105BC0001D6031683868A1EB0B01FEF749FB3268B4
:105BD0003B684F49A2EB0B020546134453483B6018
:105BE000FFF7FCF8002DCFD199F80030002B7FF49F
:105BF00060AF3B687F2B7FF75CAF02A903A8FEF77D
:105C000009FB10B9039B89F8003099F8003013F0B4
:105C1000F70F3FF44EAF40F628053B682A68A2F51F
:105C20000061B1F5605FAFD2126BA2F50061B1F512
:105C3000605FA9D20021D2F80C903C4A0846C847C0
:105C40000028A1D13B683360354B394F1860394B80
:105C50007B602B68A3F50062B2F5605F94D29B6A0B
:105C600035484FF40071984700288DD12A68336871
:105C7000A2F50061B1F5605F3AD2D56A2E482B4A91
:105C80003946A8470546326821492848FFF7A6F853
:105C900040F203239D421DD040F201239D4225D1B5
:105CA00007E71A443A6040F628021268A2F500613C
:105CB000B1F5605F12D2D56A1D491C4A1E48A8473B
:105CC0000546326812491948FFF788F840F2032365
:105CD0009D4206D101238AF80030EAE640F202250F
:105CE000EFE740F201239D423FF47EAF80244CE772
:105CF00040F20225C7E70024DBE60D24D9E6812423
:105D0000D7E600BF2E0B00202D0B00202C0B00200F
:105D1000280B0020A4010020EB17A603AC150020DF
:105D2000B413002080010020340B0020280700203D
:105D3000380B0020F54D0000480B0020F8B5042872
:105D400079D8DFE800F00B0312A0A50080264025DB
:105D500006230724002900F0828070E04FF40076CB
:105D60004FF4807508230924F4E7002974D04B4CC4
:105D7000636A13F0300F5FD1636ADD0705D5636A8C
:105D800023F0300343F0100363620425022303244D
:105D9000424E3566424E33449B001F68002FFCD0B4
:105DA000002A48D03444A4002368002BFCD00228E9
:105DB00041D100293FD0394B5A6A12F0010F1A46DF
:105DC0003FD04FF48062C3F8A82020225A665A6A56
:105DD00012F0300F0CBF4FF440024FF40002D3F822
:105DE000901032EA0101FAD1520201D5D3F8A03065
:105DF0002A4E012200210220D6F89C70FFF79EFF58
:105E0000D6F89030726A274B22F0300242F010022E
:105E10007262C7F30A07316BFA0903320F2A03EAE9
:105E2000010328BF0F223B4343EA02733363356605
:105E30002368002BFCD0F8BD042502230324002195
:105E4000A6E7536AD2F8903003F44003B3F5400F4D
:105E5000F8D1D2F8A030CBE70826022303240F495B
:105E600001200E6600FA03F3D1F890001842FBD12E
:105E7000002AE0D00123094A03FA04F4D2F8903052
:105E80002342FBD1D7E70125022600232C4661E7F8
:105E900020261025042305245CE700BF00400E40A7
:105EA0008004F21000F8FF0F00F00F0001380728FF
:105EB00048D8DFE800F0040F1947232D4735244B5D
:105EC000D3F8943003F00703023B022B3CD8214A5D
:105ED000D05C70471E4BD3F8803003F00703013BC2
:105EE000032B33D81C4AF3E7194BD3F8843003F063
:105EF0000703013B032B29D8184AE9E7144BD3F8D1
:105F0000883003F00703013B032B1FD8144ADFE757
:105F10000F4B1B6F13F0010F14BF092007207047B0
:105F20000B4BD3F85C3103F03003202B06D0302B21
:105F300006D0102B0CBF07200120704704207047AB
:105F400008207047002070470520704701207047E7
:105F500000400E4076C5000079C500007DC50000F8
:105F600079C500000048704700F04902054A064B19
:105F70001B68136F23F007031843044B106718883E
:105F8000FEF702BA00300E408009C643F406002036
:105F90000B4A536911699B0003F03C03C1F3811163
:105FA0000B438370136903F03F0343709369D26915
:105FB00003F0F003C2F3031213430370704700BFF2
:105FC000D0FF0FE0FEE700000E4B0F4A9A60D3F8B7
:105FD000882042F47002C3F888200C4B5A6D42F4BA
:105FE00000525A651A6C22F003021A64084A1368B8
:105FF00023F00103136052F8143C23F0805342F85D
:10600000143C704700ED00E00040000000300E40FE
:1060100074300E400B4BD3F8942002F00702022A92
:1060200004D001D3042A0AD9074800E00748D3F86E
:106030000031C3F304230133B0FBF3F070474FF496
:106040000040F4E700400E40C0EA210100F04902A0
:1060500008B5FFF7DFFF044BD3F80831C3F308237B
:106060000133B0FBF3F008BD00400E4008B5014617
:10607000FFF71AFF184B994211D0184B994212D0D2
:10608000174B994204D1174BD3F8800000F007005A
:10609000013803281ED8DFE800F00A0A100D114B62
:1060A000D3F88400F2E70F4BD3F88800EEE74FF403
:1060B000004008BD4FF47A70FBE7FFF7C9FF094BBA
:1060C000D3F80031C3F300635A1C01239340B0FBA3
:1060D000F3F0EEE70020ECE70300200005002400C9
:1060E00002001E0000400E4000F47810B0F5801F42
:1060F00008B574D016D8B0F5802F35D005D868B162
:10610000B0F5003F3BD0002008BDB0F5402F3CD09B
:10611000B0F5602F5CD0B0F5202FF4D1BDE8084079
:10612000FFF778BFB0F5F01F37D012D8B0F5B01F29
:1061300038D0B0F5D01F40D0B0F5A01FE3D1334820
:10614000FFF794FF324BD3F8303103F00F03D84000
:10615000DAE7B0F5101F39D0B0F5481F41D0B0F5DF
:10616000001FD0D12B4819E0FFF754FF284BD3F87C
:106170000C31C3F308230133B0FBF3F0C4E7FFF79E
:1061800049FF234BD3F80831F3E7FFF743FF204BD8
:10619000D3F81431C3F30423EDE71F48BDE80840EA
:1061A000FFF764BF1C48FFF761FF194BD3F82021AC
:1061B00002F00F0201239340DEE71648FFF756FF77
:1061C000134BD3F8282102F00302F3E70F48E5E769
:1061D0001248FFF769FE072801D009289DE71048FB
:1061E00092E71048FFF760FE0728F8D0082803D090
:1061F000042888D10C4887E7FFF70CFF044BD3F83D
:106200000031C3F3042303FB00007DE705002400F5
:1062100000400E400300200002001E0006000E0099
:10622000C0EA2101B800320000F0490200F00F007E
:10623000013870B507283BD8DFE800F00F4A4C3A28
:10624000046A3A75514C0139092931D8DFE801F067
:106250005E474E303055303030440239032927D85C
:10626000DFE801F03302272D012003240122484DED
:106270001146FFF763FD2E6C464841F671332B64DF
:10628000FEF744F80EB100232B64434B43485C6790
:106290003F4CFFF729FFFEF755F8FFF7D9FE256CB5
:1062A00041F671332364FEF731F80DB10023236406
:1062B00070BD3B48FEF746F802200446D6E7384852
:1062C000FEF740F801240320D0E700200424CDE7A6
:1062D000344CB8E7344CB6E704232360E8E70122E6
:1062E00011460020FFF72AFD0223F6E7012211469E
:1062F0001046FFF723FD0123EFE7FFF7A9FEFEF7A6
:1063000021F82A4B01221A600323E6E70023E4E781
:10631000072904D00929CBD11F4B012201E01E4BD4
:1063200000221A67C4E701390729C1D801A353F82D
:1063300021F000BF87630000B1620000B16200007D
:1063400079630000B1620000B16200006B6300007D
:106350005563000003221049D1F85C3123F030036B
:1063600043EA0213C1F85C31A2E70122114604207E
:10637000FFF7E4FC0122EEE7012211460220FFF7BD
:10638000DDFC0222E7E70022E5E700BF88400E407F
:1063900000000E4000F0490200400E4000050A00D7
:1063A0000148E80180400E4084400E400016C8437A
:1063B00038B5C0F30323013B04460D46092B1AD818
:1063C000DFE803F032221A19052528192B2F184B64
:1063D0000022C4F3043442B11648D0F84411C9076E
:1063E00003D4D0F840110A42FBD103F1047304EB4B
:1063F000C3039B001D6038BD0F48FFF775FEFDF716
:10640000A1FF00220D4BE4E700220D4BE1E7012242
:106410000C4BDEE710220C4BDBE74FF480320B4BCA
:10642000D7E700220A4BD4E70022024BD1E700BF96
:10643000B0400E4000400E4000050A00B8400E403B
:10644000C0400E40E0400E40E8400E40F0400E409C
:1064500050410E402DE9F84F404E414D96F800A0B6
:10646000814688461746BAF1000F39D1FEF7D0F8B9
:106470003C4CA0F580502060FEF7CAF8A0F5006003
:10648000606001213848FFF793FF2168082004313C
:10649000FDF7A8FE23681B68834208BF2368616874
:1064A00008BFD3F804B001F104014FF008000CBF9D
:1064B0004FF0010AD346FDF795FE63681B688342DF
:1064C00005D163685B685B4506D8002305E0BAF137
:1064D000000FFAD1FF2300E001232B70012333705A
:1064E00095F900305A1C28D01E4ADFF880A052F8D7
:1064F00023600C3635464FF6FF7BC5F30A0308339D
:10650000B3F5006F19D2AB885B4516D0A879291D69
:106510000430FDF767FE2B68EC888342E4B202D1B9
:10652000AB884B450CD0033404F4FE740834254486
:1065300086EA050313EA0A0FDFD0002038700AE06C
:106540003B78A342F9D3224605F10801404605F005
:10655000B3FF3C700120BDE8F88F00BFB0150020EC
:1065600010000020EC06002000550A0000F8FFFF94
:106570002DE98048924B5B68ADB013F4806F24AF77
:1065800032D14FF0005300221A603846FEF7F0F87F
:10659000FEF766F8054678BB8A4B8B4D01225A649C
:1065A000EC6C3846240EFFF7F3FC8E2C60D887493C
:1065B000D1F8B00040F00403C1F8B030844B4FF084
:1065C00050121A601A631A66C3F89020C3F8C020EC
:1065D000C3F8F020C1F8B0007C4AD36A23F07F03EF
:1065E00043F02003D36245E04FF000531A68022ABB
:1065F000C7D100221A60CFE79DF89030012B31D12E
:10660000446BFEF7D1FE269B5A0714D5FEF728F8F7
:10661000FEF7A1F80446FEF743FD002CBCD0FEF7C0
:106620001FF80446FEF71CF86A4B986023689D46E5
:1066300063689847B0E784B1FDF7EAFF84420CD263
:10664000FDF7E6FF04F14003834206D8636923B1F6
:106650002046FDF7E5FF0028D8D105F1C800FDF779
:10666000DFFFD7E7C830FDF7DBFF002894D0D6E77F
:106670008F2CB1D99DF89130574E012B01BF574A4D
:10668000136843F00403136000233360544B022269
:106690009A639B6B03F00F03934240F04A81D5F855
:1066A0006C3101331DD04F4B1A68043B1B681A60D4
:1066B0004D4B1A68043B1B681A604C4B1A68043B2C
:1066C0001B681A604A4B1A68043B1B681A60494BE6
:1066D0001A68043B1B681A60474B1A68043B1B6826
:1066E0001A603F4CE36C23F0405323F0010343F066
:1066F0000103E364E36E43F08073E3663F4B186885
:1067000000B10420FFF732FC236E23F0C043236660
:10671000E36C43F006033846E364FFF739FC9DF869
:106720009100012812D19DF89030022B0ED83449E7
:106730000B785BB9334A136843F001031360236E8F
:10674000314A1A40314B134323660870304BC8223C
:106750001A80304BA0221A802F4B0F201880FDF793
:1067600013FE1F4B2D4A9A65D5F86811DC6CC4F3F3
:106770000174230240F201129342C1F3072CC9B203
:1067800000F0AF80B3F5817F0AD2012B48D0C0F072
:10679000B180B3F5807F00F0B0800022134644E062
:1067A00040F20122934200F0A280B3F5407F00F056
:1067B000A780B3F5007FF0D1D5F8703132E000BF8B
:1067C00000500E4000000E40B081E00F00400E402F
:1067D00000A0004000ED00E0B40AC64364310E4062
:1067E00000300E403C80E00F4480E00F4C80E00F12
:1067F0005480E00F5C80E00F6480E00F8009C643A6
:106800002F0B002044300E40000F0EF0B4C0400BA0
:10681000F6060020F8060020F406002077402057F6
:10682000D5F87431C3F30722DBB24FF4167EACEB1C
:1068300001000EFB00F0B0FBFEF008448445A2EB23
:1068400003010EFB01F1B1FBFEF1194471D391423A
:106850006FD8354AD36D23F4FE4323F0020343EA95
:106860000020D0652B6DDBB2032B4CD8D5F87C31E2
:10687000DBB21B0313F4702F5BD12B4AD06E20F4D4
:1068800070400343D366506EE72920F4FF700B4637
:1068900020F0010028BFE72340EA4300234B506665
:1068A000012119604AF6E853506B5363936FDB077D
:1068B000FCD4136C13F003033AD0012333601A4B5A
:1068C00019469A6FD407FCD41A6C22F003021A649A
:1068D0008B6F13F00103FBD10128336008BF4B63BA
:1068E00027E0D5F874311A0EC3F307439DE7D5F8B6
:1068F000783197E7D5F86C3194E7D5F86C31F2E749
:10690000D5F87031EFE7022CD5F8803106D0032C92
:1069100007D0012CACD1C3F30723AAE7C3F3074385
:10692000A7E71B0EA5E700BF00300E409407C64343
:106930003360C74CDFF898831120FFF7B5FA0122C6
:1069400000210220FFF7FAF9636A23F00103636272
:10695000C04B4FF00009C3F80090A36A23F007036F
:1069600043F00603A362BC4BE362226BBB4B02F015
:106970007F6213432363BA4B636311200421FFF743
:1069800055FC666AD8F840A0B64841F67133C8F89D
:10699000403046F04056FDF7B9FCBAF1000F01D087
:1069A000C8F84090AF48FDF7CDFC01221146022007
:1069B000FFF7C4F96662D4F8C830AB4E43F0010368
:1069C000C4F8C8302CAAAB6AB3650424002302F8CB
:1069D000984D08A935200893FFF73CFD06238DF854
:1069E0001730089B8DF8164013F4803F9F4D0AAC7A
:1069F00000F05182B36D8DF82830B36D8DF82930D9
:106A0000B36D8DF82A30B36D8DF82B30B36D8DF8E2
:106A10002C30B36D63F03F038DF82D309DF82E3090
:106A200043F001038DF82E306C60914B914A9A60CF
:106A30004FF000084FF48071C3E900225961A3F8B8
:106A400010808D4A8D4B8E4E9A60C3E900225961A9
:106A5000202241463846A3F8108005F038FDFC227C
:106A600008238DF89320874A8DF8913025928DF870
:106A7000A13040F20172F823ADF89A208DF8A330CE
:106A8000814A824B27924FF00109384629938DF8AD
:106A9000989000F063FC7E487E4B036041467E4B3D
:106AA000436000F0C9FC68A3D3E900233060CDE95E
:106AB00000234FF0FF334FF0FF3200F0AFFE022211
:106AC0004FF0FF313068754C00F0B2FE744B2493E8
:106AD000394603F500333068CDF89880259300F0EF
:106AE0000FFD2146306884F8008000F0CDFE28B10B
:106AF0002146306884F8009000F0C6FE3068DFF868
:106B0000D4A100F041FF2178B5F90020306800F0F1
:106B100035FC0146306800F0A7FE6C68002C40F0A0
:106B2000D4815046FDF798FCB37B64F30003B37344
:106B30005C4B5D4CDFF8A0815C4D4FF02009A6F85E
:106B40002090562283F80193002183F8039304F1E7
:106B50000A0083F8059383F8069383F8049383F877
:106B6000079383F81C9305F0B2FC5148514BC4E9DC
:106B70000003252363720123237200232CAAC8F883
:106B800000301B232B801E2302F89B3D14A93620C6
:106B9000FFF760FC2CAA394602F89C9D3920FFF7CC
:106BA00059FC80BB444B9DF8152018681B79249034
:106BB0003B71002A00F092811B2A28BF1B22531D23
:106BC0008DF8143014A9531C0DF195008DF89330F5
:106BD00005F072FC1CA8FDF73FFC384A9DF8143004
:106BE0001288FA522CA99A1C51FA82F2002102F85A
:106BF000201C1C98BDF8741042F81F0C093322F8B1
:106C00001B1C8DF814302CAA202302F89D3D1CA9D2
:106C10003A20FFF71FFC48B9294B1A889B788DF85A
:106C200072300323ADF870208DF81330254B2648C1
:106C300000224FF00209C3E90022244B036080F8D0
:106C400004904BE0AFF30080081B1005000000002B
:106C500000400E40A004C8432000050007AD0AD044
:106C600047A0020000F049020050084090010020B7
:106C7000600E0020780E0020600D0020480D0020DE
:106C8000B813002090C5000082C50000D4C50000E4
:106C9000E8130020A14B0000DC13002014000020AA
:106CA0003C00940000E100E0DC00002082010020B4
:106CB000D6BE898E5555550060C6000070C60000CE
:106CC00073C60000D80600206C15002077C60000AF
:106CD00000000E40C0130020B4030020FDF772FA3C
:106CE000BE48BF4B036080F8049010230372FDF789
:106CF000DBFDBC48BC4B0360BC4B80F80490C36018
:106D000080F80890A0F81090CDE900394B4690E843
:106D100006001430FDF732FA9DF81510002900F036
:106D2000EE8014A8FDF7EAFDB148B24B03604FF0C6
:106D3000100980F80490FDF745FAAF48AF4AB04B10
:106D400003604FF6FE7B0823C260A0F810B080F805
:106D5000049003720393FDF7A7FDAA48AA4A0260B4
:106D60000C220272A94AC260A0F810B080F8049008
:106D7000FDF79AFDA648A74A039B02604FF0020B5D
:106D8000A54A80F80490C260038280F808B0FDF73D
:106D90008BFDA248A24B0360A24BC36080F8049015
:106DA0000123038280F808B0FDF77EFD9E489F4BCB
:106DB00003609F4BC3604FF6FE73038280F804901C
:106DC00080F808B0FDF770FD9A489B4B03609B4B21
:106DD000C3604FF6FE73038280F8049080F808B019
:106DE000FDF762FD964B974A1A604FF6FF729A8044
:106DF0009DF81420202A05D8931D637439469248C3
:106E000005F05AFB9DF81320202A06D8931D84F81C
:106E100039301CA98D4805F04FFBFDF743FF237B5C
:106E2000B27B43F001032373237C02F0010203F0E1
:106E3000F00362F386132374637C0BB90623637437
:106E4000834BBAF80410B068C4F81200998094F823
:106E50003830042161F3030362F3861384F8383079
:106E600094F8393013B9062384F83930794BB06877
:106E7000BAF80420C4F83A009A80FDF76FFF764C08
:106E8000764B1B78002B7BD1754A136923F00403E2
:106E9000136130BFF4E70DF1170221462C20FFF7F4
:106EA000D9FA00283FF4C1AD0DF1160207A93C2024
:106EB000FFF7D0FA9DF82E3020B19DF81C2062F328
:106EC0000003AFE560F30003ACE52068B060A28882
:106ED000A3798AF80630AAF8042029E60E238DF853
:106EE00014300A238DF893305E4B1A68CDF8952044
:106EF0005A681B7ACDF899208DF89D306AE60921F1
:106F000058480FE7EFF3108672B600231A460DF1CA
:106F100019015548FDF7B8FD3046FEF731F89DF8E8
:106F2000193013B10023C8F80030D8F80020EFF36F
:106F3000108672B6C2F501739BB222440DF119019D
:106F40004948FDF7A1FD03463046FEF719F8D8F889
:106F5000000018440328C8F8000011D9B4F80090C4
:106F600009F1040398420BD307D8608804284FF036
:106F700000070BD0062800F0C6810023C8F80030B7
:106F80003948FDF7C7FA0028BCD17DE722796F8028
:106F900009F1FF33082A9BB200F02C8168D8042A3B
:106FA000324E00F08680062A00F09A80022A65D1CF
:106FB000022B40F0A481B4F805700022B7F5007FE1
:106FC00028BF4FF400770323114602203370A6F840
:106FD0000170FEF751F82F80CFE700BF18050020A1
:106FE0007AC60000FC0600207DC600006AC50000CD
:106FF0008C15002080C6000070050020E1500000C4
:1070000091C60000C8050020A2C60000715A000009
:1070100010040020B3C6000018C60000200600209F
:10702000C4C60000F7C6000068040020D5C60000F2
:10703000B9470000B8030020E6C60000DD4A0000A2
:10704000E0060020D8060020F40000201C010020EB
:10705000EE00002016010020B0010020D406002020
:1070600000ED00E066C60000480D0020860100200B
:10707000102A00F0F48003D80A2A70D0062294E087
:10708000122A00F09B80522AF8D1B4F80500FDF7CF
:10709000A3FB00283FF471AF037B5B077FF56DAF67
:1070A000A9F1030292B29D49B4F80500FDF7E2FB95
:1070B00063E7042B79D1B4F80570B8B2FDF78CFB07
:1070C00058B1027A41687780022A14BF0223012353
:1070D00005203070737003205FE06F800A2264E047
:1070E000DFF840B2B4F80500B4F80710CDF840B0AE
:1070F0004FF00203A9F107028DF8443092B20BF170
:1071000002030093019210AB0CCBFDF707FD4FF685
:10711000FF7A5045814604D16368C3F30F236B8027
:10712000DCE7CDE900774FF002038DF83430CDF87D
:1071300030B001300CAB0CCB514680B2FDF7EEFC09
:1071400050451CBF00F1FF3080B207233370A6F812
:107150000190A6F803000022114604201DE0022B36
:1071600040F0CD80B4F80500FDF736FB00283DD097
:10717000037B990714D52B882CAA013B22F88C3D60
:1071800010A9B4F80500FDF74FFB024648B9644B5F
:10719000BDF824200B2119701099FDF76DFFECE666
:1071A00002226368C3F30F236B805D4B20796988EB
:1071B000587001261E7059801A71CCE7B4F805008A
:1071C000FDF70AFB90B1037B1A0711D5A9F1030261
:1071D00092B25249B4F80500FDF74CFB0246002874
:1071E000DFD14F4B132119700146D6E70122D8E7B2
:1071F0000322D6E7A9F1050B1FFA8BFBBBF1020FA7
:1072000002D0BBF1100F7CD1464BB4F80500B4F8A6
:10721000071010930023CDE900338DF844B010AB74
:107220000CCBFDF77BFC4FF6FF73984206463FF40C
:1072300073AF2B882CAA043B22F8963D09A9FDF7D1
:10724000F3FA024608B16E80AFE7354BBDF81A205D
:107250005E8009211970911C597009993BE7A9F1C9
:10726000050B1FFA8BFBBBF1020F02D0BBF1100F15
:1072700047D10027B4F80500B4F80710DFF8A4A040
:10728000CDF840A0CDE900775FFA8BFB8DF844B0D4
:1072900010AB0CCBFDF742FC4FF6FF794845064694
:1072A0003FF43AAFCDE90077CDF838A08DF83CB087
:1072B00001300EAB0CCB494680B2FDF72FFC2B887A
:1072C0002CAA4845A3F10603074622F8963D18BFAD
:1072D00000F1FF3709A9304618BFBFB2FDF7A4FA85
:1072E00002460028AFD10E4BBDF81A205E80112156
:1072F0001970111D59709F80099905204DE70422CE
:1073000053E7024651E7084B109310A90223CDE939
:1073100012771193FDF788FE2FE600BFB70100201A
:1073200086010020B901002011000020FEE70000C6
:1073300008B5FEF749FE064B0649074A8B4201D3C2
:10734000FCF7E2FE52F8040F43F8040BF6E700BF27
:1073500010000020BC00002078DA000038B5044698
:1073600000F0A2FA0FCC044D0FC594E80F0085E899
:107370000F00002038BD00BFB818002047F6FF738B
:107380009A4270B552D0022952D82A4B13F83100D4
:1073900001281D464FEAC1010CD10B44D8780138B1
:1073A00000B220B1596831F910109142F7DC013078
:1073B000C0B270BD0B4458680028FAD0B0F9004044
:1073C000944204DBB0F902409442B8BF1446294409
:1073D00028224978A4F1C80393FBF2F35B424A1ECA
:1073E0001BB29342A8BF13464FF47A7600EBC30555
:1073F0000133EA88AD681BB214FB025222EAE27242
:107400008B4202F5FA72B2FBF6F204DA00EBC30526
:10741000AD889542EAD200EBC30333F8040C9042E6
:1074200028BF1046002808BF0120C1E7FF20C0E7A1
:107430000020BEE7B818002038B5084B04460D46BA
:10744000186000F03BF82946204600F027F8044B6E
:10745000021C18BF01221A7038BD00BFD8180020C6
:10746000DC1800200846114600F03CB800B10C3092
:1074700002F062BB00B10C3000F0DEB97047431E71
:10748000012B03D9031F5842584170470120704710
:1074900008B501F0CFFD0128FBD108BD38B5044681
:1074A0000D46002100F0DEF92946204602F006FADA
:1074B00000280CBF2046002038BD000010B504464F
:1074C00001F076FD3CB1054A236C002B08BF134642
:1074D000034A136010BD636BFFDE00BF7D740000C4
:1074E0001C00002010B50C4601F084FD1CB1BDE865
:1074F0001040FFF7CDBF10BD00B10C3001F0D0BE81
:1075000000B10C3002F03CBA836A2DE9F74F044613
:10751000884613B1C3888B4246D0D4F82490B9F181
:10752000000F45D0D9F80830002B41D0D9F80C30E5
:10753000002B3DD00026B24637464FF0180B47F6D9
:10754000FF73D9F80C20524502D80FBB01202CE064
:10755000D9F808500BFB0A55EA89424513D82A8A04
:10756000424510D3B5F912209A420FD094F8641016
:107570000193A4F10C00FFF701FF019B0646E2789E
:10758000B2422F4604D90AF1010ADAE7FF26F6E7EC
:1075900004F170033A464146204601F020FFA4F86A
:1075A0000680A76284F86D60002003B0BDE8F08F0C
:1075B0000320FAE72DE9F74F4A4D4B4F04468A4620
:1075C00090469B4602F0D2FB2E8802F0EDFB009520
:1075D00078B100233B6002F0DFFBA36A3A68934274
:1075E0000CD15BB1564509D10025284603B0BDE852
:1075F000F08FB8F1000FF0D03860EEE701F01AFD1F
:10760000012804D0012001F0F5FCFFF741FF3748C5
:1076100001900368D4E90912002B5BD08B4245D15D
:107620003868002842D0904240D1B6EB0A064FF0AD
:10763000000918BF01264D46E07894F86D1081428C
:1076400028BF01465A46204601F088FEBDB9019B7D
:10765000626A1A60A26A3A60B8F1000F03D116B9E3
:10766000B9F1000FC0D0009BB8F1000F14BF414624
:1076700049462046C3F800A001F0E2FE0546B8F1F5
:10768000000F02D1B9F1000FAFD0B5FA85F0332168
:10769000400900F061F95946204602F089F8144B80
:1076A000A16A1B68A4F10C0098479EE71D688DB184
:1076B000086885420ED13968126811B10968914293
:1076C0000BD05968204602F067F84FF001090546D3
:1076D0000026B1E712680968F4E700264FF00109B7
:1076E0003546A9E7E0180020E8180020E41800203B
:1076F0001C000020F8B505460E46FDF739FC314662
:1077000007462846FFF700FF044630B90346024605
:1077100031462846FFF74EFF04463846FDF730FC59
:107720002046F8BDF8B50F1C18BF01270D460646C8
:107730001F21384600F010F90024284600F09CF97B
:1077400038461F217562B46200F006F9E8682346E6
:107750004FF6FF711827DAB282420BD30C460B4A60
:10776000002313600A4A214630461360FFF7C2FF28
:107770002046F8BDAC6807FB0242D4898C4202D295
:10778000002CECD021460133E5E700BFE4180020CF
:10779000E8180020C088704738B50A7805461046BA
:1077A0000C46FFF76CFE88B149780846FFF767FE84
:1077B00060B10A43520709D401F03CFC430707D4E7
:1077C00021462846BDE8384001F084BD012038BD7F
:1077D0000220FCE700B10C30FFF7DEBF38B50546EC
:1077E00008780C46FFF74BFE80B14A781046FFF749
:1077F00046FE58B1042A09D001F01CFC830707D4C7
:1078000021462846BDE8384001F074BD012038BD4E
:107810000220FCE700B10C30FFF7E0BF30B4DDE937
:10782000024500B10C30CDE9024530BC01F070BB1F
:1078300000B10C3001F0BABC70B504460D461646D6
:1078400001F0F8FB01280BD129462046FFF752FF33
:1078500038B9324629462046BDE8704001F01ABCCE
:10786000022070BD02F0A8BA38B5044600200D46CB
:1078700000F000F934B104F10C002946BDE83840AD
:1078800001F08BBD2046F8E738B5044648880D4620
:1078900000F0F0F834B104F10C002946BDE838409E
:1078A00001F038BD2046F8E700F0E5B838B50546E8
:1078B0000C46FDF75DFB69692B690C4023432B6186
:1078C000FDF75EFB00200CB9002138BD0821FCE764
:1078D00000B10C3001F0B9BE00B10C3001F0CFBEE8
:1078E00007B502AA4FF4007322F8023D0749FFF7DB
:1078F000F3FFBDF80630B3F5007F05D1022808BFBD
:10790000002003B05DF804FB0120FAE7EC1800202A
:107910000846114601F006BE00B10C3001F080BEF1
:1079200038B5154658B100F10C0411B1204601F0EC
:10793000BDFE35B12046BDE8384001F001BF044628
:10794000F3E738BD024B1960024B1860FEE700BF39
:10795000200000202400002008B528B9034B19603E
:10796000034B1868FFF7EEFF08BD00BF20000020A2
:10797000D818002010B5044602F052FA2046032120
:10798000BDE8104001F020BB00B10C30FFF7F2BFA2
:1079900010B54378044643B101F04CFB012804D1F3
:1079A0002046BDE8104002F039BA022010BD00B1F7
:1079B0000C30FFF7EDBF10B54378044643B101F03A
:1079C00039FB012804D12046BDE8104002F0FFB980
:1079D000022010BD00B10C30FFF7EDBF70B51E46A0
:1079E000437804461546DBB191FAA1F1080A01F08B
:1079F0008FFCEB0703D5204602F01BFA70B1AA20DA
:107A0000294602F019FA9DF81030204683F0010350
:107A10003246442102F020FA002070BD5520EFE7E5
:107A20000220FAE710B49DF8044001940C305DF890
:107A3000044BFFF7D3BF0000431C08D0044AD2F820
:107A40003C311B0C1B0480B20343C2F83C3170472D
:107A50000040084010B504460846FFF7EDFFA36A52
:107A600033B15B6923B14A1C08BF6FF00101196093
:107A7000002010BD70477047044B5868431C14BF6A
:107A8000C0F3807001203121FFF766BFB081E00FA5
:107A900038B50D46044600F0A3FEAC4042F210712A
:107AA00064094C436423B0FBF3F0B4FBF0F038BD41
:107AB000034B1A6802609B8883800020704700BFD8
:107AC0002E0000200B4B5B88B3F5E16F95BFC823F8
:107AD0005A237822502298428CBF172310230B7010
:107AE000054B1B7823B1904294BF002001207047C2
:107AF000184670472E0000202C00002013B51B4BA9
:107B00001B78032B04461ED00DF10701FFF7DAFFA7
:107B10009DF807301E2C4FEA032343F440434FF0F7
:107B2000010212D912490A6090B9124A012111606A
:107B3000C8B1114A4DF60171116002F10072136073
:107B40000E4B08221A6002B010BD0D490A6040B108
:107B50000C4A4DF60171116002F100721E2C136087
:107B6000E3D8094AE2E7094BEBE700BF2E0000200B
:107B700008410846204108461C41084494400846F4
:107B80000841084404410844204108449440084402
:107B90000A4B0B4AD3F88831DB4303F4FE1343F45A
:107BA0000053B3FA83F3C3F1FF2303F57F03F233EA
:107BB000C3EB4313013B1370704700BF00400E40FE
:107BC00036000020044B00281B780CBF0420002046
:107BD0001844C0B2704700BF3600002030B51F23E4
:107BE0004FF0FF34B0FBF3F35D1CC3EB4313AC4029
:107BF000C01AE443C0B2E4B201301460086030BD82
:107C00002DE9F34116463F4A3F4C12683F4F14405E
:107C10003A78012A0546884618D144EA006488F873
:107C200000007B88B3F5E16F8CBF5A23C82324F48E
:107C30007F549D4224F008049ABF200A00F47F502C
:107C400043F6C870204302B0BDE8F081304A127894
:107C5000904228BF1546002B14BF042300232B4459
:107C60000B70002D30D12B4B33606A46284601A99A
:107C7000FFF7B4FF009A284B01981B7898F800C0D2
:107C800044EA823444F47F5444F0080444EA006433
:107C900003B322493878224BB2FA82F2C2F11F02B2
:107CA000022818BF0B46511C18D09B5CD8B2316813
:107CB00021F07F433360BCF1000F11D143F03063FA
:107CC00043F004033360ACE74FF03063013D3360B1
:107CD000EDB2CAE7FF204FF0FF32E8E7FF20E6E70A
:107CE000013203D0421ED2B2FD2A06D921F07F43D1
:107CF00023F0040343F07F43E4E743F0040343EA43
:107D00000063DFE7E00F00213F00C0E02E0000200D
:107D1000360000200400000BEE1A0020B883E00FAC
:107D2000B083E00F73B50446C820FFF7E7FE234B8E
:107D3000234E1B78032B01D0FF2C03D1FF20307082
:107D400002B070BD012B1ED1072C204628BF072092
:107D500001284FF0000301AA0DF1030138BF0120F3
:107D6000FFF74EFF174B04221A60174B019AC3F816
:107D70005821164B18609DF803003070FFF7BEFEC7
:107D80009DF80300DCE783B9042C10D81D46184683
:107D9000201A01AA0DF10301C0B2FFF731FF4FF421
:107DA000800345B10A4A1360DFE70023EEE70123B1
:107DB0001D460420ECE7074AF5E700BF2E0000202F
:107DC0002D0000205841084400400840E00F0021E9
:107DD000084108460841084408B500F0D1FE0D4AA4
:107DE00068B1D2F8003123F47F115B0803F4FE136D
:107DF0000B43C2F800314FF00073D36108BDD2F8D5
:107E0000183123F47F115B0803F4FE130B43C2F80F
:107E10001831F0E7004008407047000008B500F056
:107E2000AFFE4FF4001330B1044A1360044B4FF01F
:107E300000621A6008BD034AF7E700BF004108442A
:107E40002040084418410844014B1868704700BF9F
:107E5000F01A002070B505460E46C0B201F00F01C1
:107E6000FFF716FEC6F303110446C5F30720FFF71C
:107E70000FFEC6F303210444C5F30740FFF708FED5
:107E8000204470BD434B1B682DE9F047D0F8F450F7
:107E9000DFF82081404F414E03F4E073A3F5C07238
:107EA000002D08BF01258146504250413C4A1168CF
:107EB000A9423C4910D10C7884420DD199F864C094
:107EC00098F80040A44507D199F804C03C78A4452F
:107ED00002D1B088BDE8F087B3F5C07F15600870A7
:107EE00053D099F86430022B46D12F4B1B78002BCE
:107EF00014BFC82496240F212046FFF7C9FDB5FA08
:107F000085F3B0FA80F29B1A002BC4BFC3F10F0AAD
:107F1000D840264BD8BF4FF00F0A85424FEA0440A5
:107F2000D86603F1806303F1680340F6FF7238BF3F
:107F30000AF1FF3A1A6003F100734FEA0A2119604F
:107F4000FFF788FFB08000F04BFC04FA0AF44FF40E
:107F5000FA735C4341F66A03B0FBF3F0144BB4FBD5
:107F6000F0F40A2044431C6099F8643088F800302B
:107F700099F804303B70ACE7012B08D00A4B1B7812
:107F8000002B14BFF024B424B5E70024B3E7322457
:107F9000B1E700BF18600840340000202E00002028
:107FA00028000020EC1A0020EE1A00200060084093
:107FB000F01A002035000020FF2807D0030103F449
:107FC000F87300F007001843064B9860FF2907D0AC
:107FD0000B0103F4F87301F007011943014B5960D9
:107FE000704700BFE00F002108B50D4B186800B1C5
:107FF0000C3000F0B5FD092810D80A4B01281B5C95
:1080000005D1094B1B78012B14BF0423442303F033
:108010000F011809BDE80840FFF7CEBFFA23F6E7C5
:10802000D818002034C700002E00002070B5054687
:1080300000F0CEFB3B4B3C4C3C4E0022C3E90022FF
:108040009A602A783A4B022AD3F888312ED113F459
:10805000001F3AD12B682360AB88A380C820FFF7AC
:108060004DFD304B1A68FF233370324B134022789A
:10807000022A30D1304A4FF4EE41116002F1007211
:108080004FF48A41116043F08043012143F0200303
:1080900042F8041C234A1360284B03221A60FFF79E
:1080A000A3FF274B01221A70002013E0012A02D1FE
:1080B00013F4400FCDE742B9224A526AD24302F08C
:1080C000010203F480031343C3E703232370FF2358
:1080D0003370012070BD012A1B4E1C4D1C4C1D48E5
:1080E0001D494FF007020ED1326003262E60226038
:1080F00006220260194A0A60194A43F003034FF44A
:1081000040411160C6E7326004262E6022600522DD
:10811000026043F08043C0220A6043F01403114A16
:108120008121EEE7E00F00212E0000202D0000202D
:1081300000400E402800C0A0244108445841084493
:10814000ED1A0020B081E00F0041084400410846CC
:108150000C4108440C41084608410844C100400055
:1081600004410844084108462DE9F04B2B4F2C4BA5
:108170003B6000F035FB4FF4FA634FF47A76DFF89A
:10818000B880B0FBF6F56B434FEA032B4FEA136C54
:108190001BEB08004FF000094FF00003214A4CEBA5
:1081A000090103F0E3FBA0F580730446BB6218B934
:1081B0002B21FFF7D1FB012406FB04F20027560810
:1081C000B8194FEA05283B4648F1000103F0CEFB01
:1081D000154B1960154B270606461860240A25B969
:1081E00028462B21FFF7B8FB01254FF47A73A7FB34
:1081F000037803FB04886C0838194FF000032A4603
:1082000048F1000103F0B2FB094B1960094B1860FB
:10821000024B013E1E63BDE8F08B00BF00500840DA
:108220000011010040420F00001B0020FC1A00203A
:10823000F81A0020F41A002020A10700044B4FF088
:108240008052C3F880211A60024B01225A607047A5
:1082500000E100E000500840054B020113440122F8
:108260001A604FF4807303FA00F0024B58667047AF
:108270007450084400500840024B0001185800F0A8
:10828000010070477450084001F078710001024B02
:1082900041F00301195070477450084008B522207E
:1082A00000F0DEF9024B4FF480225A6008BD00BF97
:1082B00000500840064B10B51968064B1C684FF07B
:1082C00000420023E0FB042301FB003010BD00BF8F
:1082D000F81A0020F41A0020014B9869FFF7EABF52
:1082E00000500840FFF7E6BF094B1B6830B54FF060
:1082F00000440025E0FB0345064B1B6803FB0050D0
:10830000054B1B6B984284BFDB43C01830BD00BFD8
:10831000FC1A0020001B0020005008402DE9F84303
:10832000144606460D46FCF723FE07463046FFF787
:1083300093FF022C04D13846FCF722FE012012E004
:10834000DFF8F090D9F818804046FFF7B3FF012C12
:1083500004BF01352D18401BB0F1804F05D23846BF
:10836000FCF70EFE0020BDE8F8833249D9F87020F2
:10837000DFF8D0C0C96E06F1090322F0E00201EA7D
:108380000C0C1802D2041B0621F0E00143F48033E8
:1083900040F00100D20CC90482420CBF042200222A
:1083A000C90C9C4508BF42F00202884208BF42F057
:1083B000010212F0010918BF1F4B284618BF1D60AB
:1083C000FFF792FF1B4B03EB06111125C1F880004C
:1083D000F11D03EB0111A0EB08004D609969DD6D03
:1083E000A1EB08084045A6D84FF48071B1400D427A
:1083F000A1D11CB93046FFF72FFFB0E71966B9F1DC
:10840000000F08D00D4B0E4841F61F7140F20114C9
:10841000196004601960910706D5084B084809499E
:10842000094C196004601960530742BF074B0122D1
:108430009A6080E700500840C81B00206C50084438
:108440006C50084600001F1F00000101004008405A
:1084500038B504461546FFF7FFFE04F10903054A47
:108460001B0243F00103136720462A46BDE838404B
:10847000FFF754BF0050084038B504461546FFF7D3
:10848000EBFE04F10903054A1B0243F00113D36616
:1084900020462A46BDE83840FFF740BF005008405C
:1084A00038B504461546FFF7D7FE0948C36E23F0DA
:1084B000F85323F4F81304F1090243F4803343EA38
:1084C0000263C3662A462046BDE83840FFF726BF50
:1084D0000050084038B50446FFF7FEFE0546FFF79A
:1084E000FBFE401BA042FAD338BD000038B504465D
:1084F000FCF742FD14F4C00F054647D0264A9168A8
:108500008909C1F30903890524494968906948BF6D
:108510006FEA8353C2B248BF6FEA9353000648BF65
:1085200062F0FF021E4812F1460FC06D2EDB13F5FC
:10853000007F2BD0B3EB820F28DC01F07063B3F126
:10854000806F02D011F0506F20D1C0021ED4FFF70F
:10855000A5FE134BDA6DD10218D4104A01219160A7
:10856000104ADA664FF4E0025A66A20207D55A6D45
:1085700012F0706F1EBF5A6D02F17F425A6524F4EB
:10858000C0042C2044F4801400F06AF82846FCF75C
:1085900029FD204638BD00BF00700840004008405B
:1085A00000500840000001014FF0804310B1024A22
:1085B00013607047014AFBE7944008469440084422
:1085C00038B5214B08221A60054601211F48FDF7E6
:1085D000EFFE1F4B1D701F4B00225A677DB31E4CD0
:1085E000636813B300F0FCF8626800EB5203B3FB5E
:1085F000F2F3013B1B0243F0F8032278022A16D063
:10860000032A18D0012A1DD143F00203072213497F
:108610004FF6FF70086001F1007128460B600D4BAA
:108620005A67FFF7C1FF002038BDF823E5E743F0A4
:1086300001030522EBE743F005030122E7E72A46A1
:10864000F823E4E70022E2E7C8400E4600250A00CE
:10865000041B002000000840081B00207C00084488
:10866000044BD3F89430002BBCBF034BC3F88000FD
:10867000704700BF00400840000008404FF0006312
:1086800010B1024A13607047014AFBE79440084664
:108690009440084408B58A0001464FF0045003F0A6
:1086A0000BFFBDE8084000F0CBBB0000C0F3006248
:1086B000034B33F8123080B240EA0340704700BFEA
:1086C0003EC7000007B501A8FDF762FC1A4B1B4A24
:1086D000C3F8442148F2E672C3F838214FF4086227
:1086E000C3F83421164AC3F8A0209DF80530012BA9
:1086F000144B05D19DF80420012A9CBF28221A653D
:108700004AF63F429A60104B4FF0C0729A62A3F54E
:1087100040530022C3F8FC200C4AC3F89C2003F10C
:108720008063A3F6DC737F221A6003F100732322B7
:108730001A6003B05DF804FB00400840C0E65351E6
:108740007A27000F0030084000700840806D6303F6
:1087500008B50D4B40F2FD12C3F8C820FFF7B2FF79
:108760000A4B03221A600A4B4FF4C012C3F894203C
:1087700003F1C063943301221A6000F059FB054BEA
:108780004FF460721A6008BD00400E4098600846C1
:10879000004008400C400846094B01221A60094B72
:1087A0005A6812F0706FFBD14FF00452DA67012261
:1087B000C3F88020044A1A66044B1B68184700BFA0
:1087C0000C40084600400840B80F00213800002047
:1087D000024B40F2FD12C3F8C820704700400E4023
:1087E00008B5FDF717FC044BD3F81031C3F3082389
:1087F0000133B0FBF3F008BD00400E40F8B504466D
:1088000018B1012521684B1C00D1F8BD0846C1F301
:108810000746FFF74BFF012E03460CD9B600A119FE
:108820002246031B9F1852F8040F38608A42F9D180
:1088300004363444E6E7090F606808340729E1D8B4
:10884000DFE801F00A0408110C0F1417C04303F10C
:10885000806301E01A6850401860D3E7FFF73AFEE2
:10886000D0E705FA00F003F1C063F5E705FA00F080
:10887000EDE71A6830EA0202FBD1C3E7044B5868FF
:10888000C0F30360023801288CBF0020012070472C
:108890000040084008B5FFF7A3FF064A126B0346E5
:1088A00090B228B1C2F30742DB085343B3FBF0F0A8
:1088B00008BD00BF0060084010B50446FFF7EAFF9E
:1088C000C4F30113012B02D0022B02D010BD4008CB
:1088D000FCE7C4F3C4240134B0FBF4F0F6E700F085
:1088E0003003202B10B512D1C0F302441CB1C0F3E9
:1088F000C423B3FBF4F410F4C01F18BF6400640871
:10890000032C28BF0424FFF7D7FF604310BDC0F33A
:108910008213012B01D0042B01D10224F3E701249F
:10892000F1E700002DE9F041144FDFF858800646CA
:10893000FCF71EFB0246FFF7A1FFBB689B09C3F3D0
:1089400009049B0548BF44EA08040546FFF796FF63
:1089500024B20028104608BF0025FCF711FB14F5CF
:10896000007F05D10DB1002EE2D12046BDE8F08197
:10897000034B002D08BF1C46F7E700BF00700840FE
:1089800000FEFFFF00FCFFFF024B012218619A600E
:10899000704700BF00200840074B1968074B5B6811
:1089A00001F00F02C3F3036300B103709A4208BFE2
:1089B000C1F30312104670477C0F002100400840AD
:1089C000024B1B6803B11847704700BF1C1B0020F7
:1089D0001A4A1B4B2DE9F04105461068194A9C6B59
:1089E0001268194E00FB04241A6B184B30681B6880
:1089F000D202174A4CBFE418E41A164BB4FBF3F347
:108A000013445F78144BFC40B4FBF3F31A440C603E
:108A100092F8018020B92B21FEF79EFF01233360DD
:108A2000326804EB5203B3FBF2F3013B43EA073332
:108A300043EA88232B60BDE8F08100BF201B0020A3
:108A400000300840281B002040000020241B00208C
:108A500042C7000040BE4025401B5F1338B50546A5
:108A60000C46FDF77FFA024618B92B21FEF774FF7A
:108A70000122B5FBF2F3642002FB13556843B0FBFF
:108A8000F2F000B9013B5A08013A01335B08072AAA
:108A900003F1FF330D4903D8072B01D89AB993B9D5
:108AA000002008700A480978062505600948007802
:108AB00021B118B108490220086000201B0243EAD6
:108AC0000213236038BD0120EBE700BF2D1B0020FF
:108AD000944008442E1B00209440084638B5154D9C
:108AE0002B780C4623B9144B1B6D03F03F032B70FE
:108AF000124BD3F894305B051AD5114BB0FBF3F051
:108B000040F24D534343A3F546430C3B584300F515
:108B1000C91000F5556018B92B21FEF71DFF012083
:108B20002A78084B5343B3FBF0F02060002038BD97
:108B30000220FCE72F1B00200030084000400840C6
:108B400000366E0180969800014B1868704700BF90
:108B5000281B0020014B1868704700BF201B002015
:108B6000064B1B68C3F3C20203F0070002B1504377
:108B7000C3F3821303B15843704700BF3430084039
:108B8000034BD3F8380180F01000C0F30010704799
:108B90000040084061B1074BB3FBF1F3984207D3A3
:108BA000054BB3FBF1F188428CBF002001207047D8
:108BB0000020704700371789007DDAAC2DE9F047B7
:108BC000894614469A46DDE90886FFF7C9FF05463F
:108BD00001464846FFF7DEFF20B90E21FEF7BCFE36
:108BE000022033E0FDF7BEF90746002DF8D000283B
:108BF000F6D015F1FF3318BF0123CAF800301E4B21
:108C00001B68C3F3130300EB5502B2FBF5F2A2FBA2
:108C10000301C20C194B42EA41321A60184BC3F8E7
:108C200000900A9B09FB05F11960164B1C60164B5E
:108C30009F420DD1154B6C43A1FB0301A4FB0345DF
:108C40008A09AB09C8F8002033600020BDE8F0872E
:108C50003A460023C804490B02F088FEC8F8000019
:108C6000E004630BA0FB050105FB03113A4600235A
:108C700002F07CFE3060E8E730300840241B002022
:108C8000281B0020201B002000F049020A3BB2DF15
:108C900007B501A9FFF7E2FE054B4FF4EE621A603B
:108CA000019A03F100731A6003B05DF804FB00BF82
:108CB0003040084407B5694601A8FFF789FE074B15
:108CC00043F6FF521A6003F10073019A1A6000988C
:108CD000FFF7DEFF03B05DF804FB00BFA4400844CB
:108CE00038B50D4B05460C465868C0F303600428A0
:108CF000FAD00A28F8D0B0FA80F00F214009FEF728
:108D00002BFE064B9D631CB103F5805380229A60B5
:108D1000BDE83840FFF7CEBF0040084000300840B3
:108D200038B5124D4FF400222A60114A1060114AE2
:108D30001268D2B1104B114C1B6F00F5F42000F5F6
:108D40009070B0FBF4F4033CE4B203F00703A342D9
:108D500002D02046FDF70AF9094B1B782BB1094BCD
:108D60004FF4702224041A602C6038BD94400846E9
:108D7000400000208009C64300300E4040420F00F2
:108D80002C1B00209440084430B5164B044618684C
:108D900087B000B10C3005AB0293134B0193103B2D
:108DA0000093D4E9001204ABFFF708FF0546A0B911
:108DB000049A1023A2B10D4A13600D490598FFF7DC
:108DC0008DFEFFF777FF20680A4A0B4BB0F1804F0A
:108DD0008CBF10461846FFF7A3FF284607B030BDEA
:108DE000064AE9E7D81800203C30084038410846D8
:108DF00050300840C0CF6A00E06735003841084471
:108E0000034B01221A70034B1868FFF789BF00BF9C
:108E10002C1B002040000020034B00221A70034B43
:108E20004FF400221A6070472C1B00209440084623
:108E3000024B4FF480621A60704700BF94400846AE
:108E400030B50A4C94E8070085B001AD85E807000D
:108E500084220021064803F03AFB064B1B781BB125
:108E600095E8070084E8070005B030BDE00F002159
:108E70007C0F0021ED1A00207047000038B1044B30
:108E80006FF0FF021A6003F1007310401860704722
:108E900018700844F7B506460C4641B90A46072142
:108EA00002F034FD164B1C605C6003B0F0BD154B46
:108EB000154D07271F600B7985F8643002A84B79A0
:108EC00040F8043D012102F03DFD019BC2B2D340B8
:108ED00000F00F0040EA031085F86500A37985F8DB
:108EE0006630E37985F867302368AB662379074AF3
:108EF0000133936139463A46304602F007FDD4E724
:108F0000301C002004000844CC1B00200000084056
:108F10002DE9F34BDDE90A67D0E92289044689EAA5
:108F2000070188EA060001EA030C00EA020B8CEA5A
:108F300009018BEA0800C4E9220122F0010006EAD7
:108F4000000807EA030900251946CDE9005549F054
:108F5000080348F0405201F097FD2378DB0720D545
:108F6000D4E92223002003F0080150EA010318D0BD
:108F70004FF480312046FEF799FC237865F3000317
:108F80002370D4E9222302EA000503EA010655EA28
:108F9000060306D005492A4609683346A4F10C00A9
:108FA0008847002002B0BDE8F08B00BF44000020DD
:108FB000034A0368002B08BF1346024A1360704738
:108FC000798E00004400002031F00F0001BF054AF7
:108FD000536801F00F0123F00F0306BF0B435360EA
:108FE000012070477C0F0021014B002099607047E1
:108FF0007C0F002110B5032810D8DFE800F017021D
:109000001013002211460124204602F04FF92CB122
:1090100007490868FFF732FF00230B6010BD0022EC
:109020000121F0E7012211461446EDE70022FAE79C
:10903000541B00200F4B5B68C3F30363013B0B2BF6
:109040000DD8DFE803F014140614141414080A08E9
:109050000808032070470420704705207047064B1E
:10906000DB6813F0060F14BF0420012070470220B4
:10907000704700BF0040084000500840044BD3F840
:10908000883013F0A00F0CBF01200020704700BFF4
:10909000004008407FB51546B0F84C202B79296870
:1090A000012B1BD18A421ED8891A1A1C18BF012213
:1090B0002C7B022C19D00034AB6818BF0124AE7B86
:1090C000003618BF012602966D7BB5FA85F56D094D
:1090D000CDE9004501F0ACFE04B070BD022BE3D138
:1090E0001A460021E4E70021DFE70023E7E700005C
:1090F0000138C0B202289CBF0F4B53F820200F4B01
:109100004FF06051196003F1007388BF00221A60AC
:109110004FF400121A600A4A136F23F0060343F05B
:1091200004031367074B4FF0805119600423C2F802
:1091300084300020704700BF4CC70000186008440E
:109140000000084094400846114B1B7813B1114BA6
:1091500006221A60104B0022C3F884200F4B4FF0F8
:1091600080521A600E4BD3F8883013F4800F0D4BE9
:1091700009D1826912F0800F18BF0B494FF4001219
:1091800014BF0A601A604FF060521A6000207047E6
:10919000341B00207000084400000840944008443C
:1091A00000400840186008441860084638B5144666
:1091B000826982EA04030B400D465340290783610C
:1091C00006D514F0080F14BF2B4A2C4A082313604D
:1091D000EA0706D514F0010F14BF274A274A0123D6
:1091E00013606B070CD501F0E1FE14F0040F14BFFF
:1091F000234A244A4FF400731360234B04221A605D
:10920000A80706D514F0020F14BF1B4A1B4A0223FD
:109210001360E90606D514F0100F1C4B14BF002292
:109220001B22DA642A061BD514F0800F184C19D0C3
:10923000184B4FF400121A60FBF79AFE6368C3F3F1
:109240000363032B06D1144A536823F0F00343F061
:10925000E00353600D4B40F201225A62FBF790FE8F
:10926000002038BDD4F888305B025EBF0B4B4FF452
:1092700000121A60F4E700BF4400084644000844A6
:109280001C6008461C6008448840084400000840F0
:1092900000400840186008467C0F00211860084410
:1092A000014B9869FFF71BBB00600840C26A62B1BE
:1092B0001368022B09D9536AC3F3072040B1126A1D
:1092C000DBB25343B3FBF0F070470C38FEF714B930
:1092D0007047000010B506480C7883699AB24B7845
:1092E0001B0643EA044313438361002010BD00BF03
:1092F000CC1B0020054883691A0C0B781204134319
:109300004A7843EA0223836100207047CC1B002087
:10931000FFF73ABB70B5044600F164060868606662
:109320008B88A4F868308B88C4F8F430FF2323714D
:109330000846FEF77BFE054670B93046FEF7B8FBDF
:10934000054648B92046FEF79DFD0121A4F86800B6
:1093500004F13C0001F03AF9284670BD38B50546E5
:1093600090F8640003280C4613D0FF2913D0FEF7B1
:1093700029FCA04204D895F86400FEF723FC0446BB
:109380002C712046FEF7CEFCA0F1FF035842584155
:1093900038BD0220FCE70120FAE710B590F86430F0
:1093A000032B044619D0E170836A93B190F86D30B5
:1093B0008B4209D200238362FEF7ECF90146204676
:1093C000BDE81040FEF796B90022BDE81040FFF757
:1093D000C5BFFF220271184610BD0220FCE7F8B598
:1093E0001C46154607460E46FFF7BAFB87F86C0089
:1093F000A9896B682360761A2681FFF7F1F9AB68BB
:1094000097F86C20000BC0EB8040B0FBF2F0B3EBA0
:10941000D01F88BF2168228991BF636003FB0211BE
:109420002160002188BF61603F2A08D92168900926
:109430009B0100FB031302F03F0223602281F8BD71
:10944000036A012B2DE9174804463ED049B101A912
:1094500004F17000FFF798FC68B1022003B0BDE88A
:109460001088FFF771FB236F9842F0D1FFF772FB72
:10947000636F9842EBD10121B4F87800FFF730FC1C
:1094800023781E4A6FF300032370A36A11685B6997
:109490004A1C1B6811D0581C11D12046FEF7DAFA7D
:1094A000D4E92223002003F0080150EA01030ED181
:1094B000237843F00103237007E0591CF0D09A1C75
:1094C00003D019462046FEF7C5FA0020C6E74FF440
:1094D00080312046FEF7EAF9D4E9222302EA000BA4
:1094E00003EA010C5BEA0C03EFD005495A46096810
:1094F0006346A4F10C008847E7E700BF3C0000206A
:10950000440000204FF4807102F012BA4FF48073CF
:1095100010B9024A13607047014AFBE788400846C9
:109520008840084437B50DF106020D4600F018FFDB
:10953000044688B185B12B7813F0F70F0CD0FBF7F8
:1095400017FD074BBDF806201C60064B1A80064B22
:109550006A881A80FBF714FD204603B030BD00BFB7
:10956000381B00203C1B0020361B002073B505462D
:109570001446084611B9012002B070BD002AFAD085
:10958000022905D80022114600F0EAFE0028F2D098
:10959000038882781E0402F007013DD4CE1F70427A
:1095A00070412073C2F300106073C2F38010207406
:1095B000C2F3C000C2F34012A27400226074E274CD
:1095C000AA69D20622D4063901291FD8134A063BBC
:1095D000D26C9BB206226946012000F039FD9DF84D
:1095E0000100AB6B9DF900604000C0B20BB1314689
:1095F0009847E073A673627CDDF80210284601F0FC
:10960000E6F80123206023720020B5E700208023C4
:10961000E38120602072AFE70220ADE70000084040
:10962000F8B506461446177AFFF7A0FF054650B96D
:10963000237A43B127723046FFF738FE22460146AF
:10964000304601F093F82846F8BDB3FA83F3192B9E
:10965000084610B5114610D0C3F11902D2B2062A3D
:1096600028BF0622931D01249C40A4B2A14228BF1A
:10967000214600F06BFC204610BD0022F2E70846B0
:109680001188B1FA81F1192910B50DD0C1F1190174
:10969000C9B2062928BF06218C1D0123A3401380CF
:1096A00000F070FC002010BD0021F5E7094B0121FE
:1096B000D3F8EC20996203F18063243352074FF40E
:1096C0000051196041BF03F10073C83304221A60CE
:1096D000704700BF0010084038B54B7805460C466F
:1096E000C3B9FFF731FDA378C3B9114B40F6FF7240
:1096F0005A62E378B3B90E4B40F6FF725A6503F134
:10970000C063A3F6BC7360221A600A4B40221A6041
:10971000002038BD1846FFF7EBFCE4E72846FFF7CA
:10972000C5FFE6E7044B60221A60044BEEE700BF7A
:109730000010084088400844440008448840084617
:1097400038B50C4BD3F8EC5003F18063EC334FF495
:1097500080641C60084B0020186001F0E9FC074B96
:109760004FF400521A606A0542BF03F10073983348
:109770001C6038BD00100840381B002054100844FD
:10978000082310B1024A13607047024AFBE700BF8A
:10979000884008468840084410B508461446012110
:1097A000FFF72CF820460121FFF728F8002010BD14
:1097B0002DE9F047344F04468946FFF7D1F93B685D
:1097C0008342804601D0FEF70FFC3049304B314ACE
:1097D0005D68D1F8A030E562C3F381231370D1F83E
:1097E000A4306189C3F3812353704FF6FF7399420C
:1097F00004D0294B1B680BB120469847274ED4F85C
:109800002CA033689A4513D02046FFF74FFD00F097
:109810007BFEBAF1000F19D0DAF80030B3B1DAF8F4
:1098200010309BB19A6862641A685B68E2632364D3
:109830003368AB4210D01A4B1B682BB155B1296865
:1098400001B1A96820469847072506E00023636414
:10985000E363ECE72946F5E701252046FEF712FB16
:10986000B9F1000F04D1294604F13C0000F0AEFE2E
:10987000E36A33600B4BC7F8008006221A600A4B7C
:1098800001221A70BDE8F087481B00200000084044
:10989000EC0F0021441B00204C1B0020401B00202B
:1098A000301B002070000844341B00204822002197
:1098B000014802F00CBE00BFE81B00202DE9F04378
:1098C000894685B00446002853D000220023C0E911
:1098D00025234FF06412C0E9162202664FF47F423E
:1098E00000254FF6FF73C2814FF0FF38224A4562D0
:1098F0008563A0F8EE30C0F800814565A0F81080BF
:10990000C38200F10C07112003951380FCF7CCFAF9
:1099100004282CD1384601F0D1FB3846FFF7C6FFAA
:10992000164B60225A6403A93846FFF7D5FE626AD7
:10993000064641463846FFF739FC4FF040520823AF
:1099400010461946CDE9005501F09EF8FEF720F9C2
:109950004EB92046FDF7C4FF0646B9F1000F02D00C
:1099600008B92046C847304605B0BDE8F083022656
:10997000F9E7A061FFDE00BF581B0020000008408F
:1099800070B50C46054600F13C0609884C3000F0E5
:1099900001FE6188208005F1540000F0FBFDA188E4
:1099A000608005F1520000F0F5FDE188A08005F12E
:1099B000500000F0EFFD2189E080304600F0F6FD18
:1099C00061892081304600F0F9FD07216081304631
:1099D00000F0FCFD002070BDB0F8E2304FF6FF72E1
:1099E000934211D0094A0A49D26B100CC2F30112FA
:1099F000088001320749B3FBF2F3074A07480860C1
:109A00001B0413600020704703207047006008406B
:109A1000581B00203C6008443C6008460000FFFFE3
:109A200073B504460E461546FFF728FB00286ED096
:109A30004FF40061204601F07BFF38B10121084658
:109A4000FDF750FD334B4FF400721A60314620464B
:109A5000FDF750FE0646002856D12F4B4FF44062CA
:109A60001A6015F0020204D12C4B2D491B789B0281
:109A70000B602C4B4FF44061196022B9274B2A4AE6
:109A80005B789B02136001F091FA15F0040F14BF8C
:109A9000264A274A4FF4806313601E4B04221A6043
:109AA0002046FFF72FFD18B105F00100FFF72EFD4E
:109AB000A90602D52046FFF78FFF204600F084F963
:109AC000F8B12046FFF71EFDD8B14FF40031204613
:109AD00001F02EFF002814BF02230123032201A955
