S00F00006E6F6465746573742E7333377F
S31500004000A861002069BC0100F9A70000B1BB01004E
S31500004010A70A0A010041000004180FAC10666100EF
S31500004020000000000000000000000000000000008A
S315000040300000000028D7010000000000000000007A
S315000040400000000000000000FFFFFFFFFFFFFFFF72
S31500004050FFFFFFFF00E0030000000000000000007B
S31500004060FFFFFFFFFFFFFFFF010000000000000051
S31500004070000000000000000000000000000000003A
S3150000408000000000000000000C7C00200C7C0020DA
S31500004090A861002099F7010082BC01004858002061
S311000040A084110020000004000000000055
S31500004100A861002069BC0100F9A70000B1BB01004D
S31500004110B9BB0100B5BB0100BDBB0100000000003A
S315000041200000000000000000000000001F56000014
S31500004130C1BB0100E75500000F5B0000239A000099
S3150000414031EE0000355D01001F5B0000A95801003B
S31500004150715D01003B5D01003D5D0100375D0100C1
S315000041607B450100850E010021110100759E0000AE
S31500004170C9BB0100C9BB010089B90100C9BB010067
S31500004180C9BB0100930E0100C9BB0100C9BB0100F8
S31500004190C9BB0100C9BB0100C9BB0100C9BB010005
S315000041A0C9BB0100C9BB0100C9BB0100735D0100A9
S315000041B0395D010013EC0000A55D0100C9BB0100DB
S315000041C0CDBB0100C9BB0100104210B58C498C4A19
S315000041D001E021B1491E1369DC07FAD411B96FF069
S315000041E0020010BD5060012010601169480702D519
S315000041F04FF0FF3010BD002010BD2DE9F041044600
S3150000420010460B460022002B41D06FF001053010FE
S3150000421024087A497B4FA8B994469C4537D254F86E
S31500004220040BF8600CF1010C08203860084601E028
S3150000423080B3401E3E69F65E102458B33869800785
S31500004240EBD523E0EFF3108072B694460FE03E699B
S3150000425006F01906102E08BF3E603E693607F6D5F1
S3150000426042336BFE42400A10263E609C45F3D3184B
S31500004270B962B6A610013869C348100901B94246A9
S315000042803869810700D52A8E1065BDE8F08142465F
S31500004290FAE72DE9F24F5A4CA16B834600208DB206
S315000042A005B1012541F67131A1634FEA92082768ED
S315000042B047F0010727608146DDF800A01F4613E09E
S315000042C0C6F30A06C6F50066B608A8EB0900B042B2
S315000042D038BF06463A4631465046FFF78BFF010087
S315000042E00CD1B1440AEB860AC14507D20BEB89060D
S315000042F03018126718100FE2D00FE00099DBF800B3
S31500004300200B689A4209D05818125B18102E04D157
S3150000431000983A460121FFF76CFF216849084900D9
S315000043202160EDB20DB10021A163BDE8F28F30B579
S31500004330334B30490246986B80B200B101209C1481
S3150000434004349C631D68454424101D609A60012254
S315000043505A605C69620704D500F021F874100130D8
S31500004360BD021410125A69D40710D5002918BF4986
S315000043701EF8D10BE0002919686C2401F010F8AA88
S31500004380100330BD00F00B8C100530BD5A69940740
S31500004390F03C12031812011832198410161960081D
S315000043A0B100209863704700236EE71248816B893D
S315000043B0B201B101217E102F32826346F21A320316
S315000043C06843F001030360C2644FF48073436042A4
S315000043D069D307FCD40022C264C9B203685B085BD8
S315000043E000036001B182630020441101100780962A
S315000043F098000C000E400804704700002DE9F047B5
S31500004400DFF8184823A10FF260590FF26C5ADFF853
S3150000441010880646207800F03DFE0027AAA512E087
S31500004420294600F037FE0CE093681268494600F012
S3150000443031FE306800F0A8FAF2D00FF2345100F0E5
S3150000444029FE7F1CBFB2306800EB07122078516846
S3150000445049B14145E8D15169002918BF4145F0D01D
S3150000446012685146EBE700BF29A100F013FE207841
S3150000447031A100F00FFE20783BA100F00BFE207862
S3150000448044A100F007FE20782946BDE8F04700F079
S3150000449001BE0000434F4D4D414E44205B504152FA
S315000044A0414D45544552535D205B2D2044455343B1
S315000044B052495054494F4E5D0D0A20207768657267
S315000044C0653A20623D6275666665722C2073313DE1
S315000044D0696E74385F742C2073323D696E743136A0
S315000044E05F742C2075313D75696E74385F742C20AD
S315000044F075323D75696E7431365F742C2075343DA6
S3150000450075696E7433325F740D0A0D0A000000007F
S3150000451020202120202D20526563616C6C7320744D
S3150000452068652070726576696F757320636F6D6D4F
S31500004530616E640D0A00000020205B7461625D20DC
S315000045402D20417474656D70747320746F207461CE
S315000045506220636F6D706C65746520636F6D6D614D
S315000045606E640D0A00000000202020202A2A204E1A
S315000045704F54453A20616C6C20696E7075742076D4
S31500004580616C7565732061726520696E2068657857
S31500004590210D0A00202020202A2A20436F6D6D61FC
S315000045A06E647320617265204E4F5420636173659B
S315000045B02073656E7369746976650D0A00000000E4
S315000045C0A0F141011A293CBF2030C0B2704700005B
S315000045D02DE9F84F8046DFF84C16D8F80800006839
S315000045E00A68DFF83866C3B2002412F80390002583
S315000045F0B9F1200F06DD307834A1BDE8F84F20224E
S3150000460000F048BDC0B200F065FD8246A34607E053
S315000046101AF80B00FFF7D4FF0AF80B000BF1010B99
S31500004620CB45F5DB4FEA090239A1504600F0C9FF38
S3150000463030B9012504E0307837A13A4600F02AFD6A
S31500004640D8F800202101101D405800283AD0DFF884
S31500004650D0B5641C5845A4B2F2D15758002DEAD102
S31500004660384600F0C1FF4845EAD14A465146384629
S3150000467000F09CFF0028E3D1404625460FF2DC28D7
S315000046800FF2EC290FF2980A044621682F01081D43
S31500004690C059B8B1584515D0C81983680268307832
S315000046A0514600F0F7FC2068C019C26830781AB984
S315000046B0414600F0EFFC02E0494600F0EBFC6D1CC1
S315000046C0ADB2E2E7BDE8F18F0D0A00004572726FE8
S315000046D0723A206C69737420617267756D656E74C9
S315000046E020746F6F206C6F6E672C207765206F6E5D
S315000046F06C7920737570706F727420757020746F8A
S315000047002025752062797465732E0D0A000000005D
S315000047106D6F64756C65730025700D0A00000000EE
S31500004720257020257000000070B5044688B0A0688A
S31500004730016801B10121DFF8F0542970406800B129
S315000047400120DFF8E864307016A001F06DF9A0686A
S31500004750C16801B10121DFF8D8241170006900B1E8
S315000047600120DFF8D01400BF18A308700493127854
S3150000477091F800000FF25C0118A3059207900691CC
S3150000478001203278009376A103900291019204F100
S3150000479011012B780FF24C0214A001F045F908B074
S315000047A070BD00005475726E696E67206F66662074
S315000047B074616773206E6F742079657420737570E9
S315000047C0706F727465640D0A0000000064656C69A0
S315000047D06D0000007465787400000000636F6D6DF5
S315000047E0616E640068656164657200007B264E2018
S315000047F0566572626F73697479206F7074696F6E33
S31500004800732073657420746F3A0D0A2674750D0A49
S315000048102674750D0A2674750D0A2674750D0A26FA
S3150000482074757D0D0A000000DFF80C14007CDFF8BB
S31500004830EC3351F82020187801A100F02BBC0000C1
S315000048404349204572726F723A2025700D0A0000A6
S3150000485038B5DFF8C843207840A5294600F01AFC91
S3150000486094F800000CA100F015FC2078294600F011
S3150000487011FC207811A100F00DFC207839A100F080
S3150000488009FC207810A100F005FC207811A1BDE8F4
S31500004890344000F0FFBB0000456D626572204E6F2C
S315000048A064652054657374204170706C696361742B
S315000048B0696F6E2076312E30000000004A756C203C
S315000048C0313720323031390032303A31343A3234ED
S315000048D0000000000D0A0D0A000000002DE9F24F4D
S315000048E0054692462E6B002712E01CA100F0D2FB73
S315000048F00BE08B681CA1C94C00F0CCFB286800F0CB
S3150000490043F8F2D01AA100F0C5FB7F1CBFB21036E7
S31500004910706808B3D6F80080DDF8009000240BE03C
S3150000492019F8010BFFF74CFE834618F8010BFFF749
S3150000493047FE8345E9D1641CA0B25045F0D3B74B7E
S31500004940286800EB071118784C68B54B0A689C423A
S31500004950CFD100BF08A1D6E7BDE8F18F0D0A000050
S31500004960746167002C20000020202570202570002F
S31500004970202D2025700D0A002D2D2D2D202570208F
S315000049802D2D2D2D0D0A000000EB0710C268207892
S31500004990002A70472DE9F043ADF5017D0DF10400C5
S315000049A0A6A14FF4807201F06FF84FF000098DF860
S315000049B00190A52001F0E9F801F032F900F0E3F9E1
S315000049C0002001F06FFA804628B100F0D7F90020E8
S315000049D001F068FA804600F0D6F9012001F062FA8B
S315000049E0070005D000F0CAF9012001F05BFA07467E
S315000049F000F0C9F9022001F055FA060005D000F0D2
S31500004A00BDF9022001F04EFA064601F0DBFAB8F1D4
S31500004A10000F824D0AD0002F64D0002E00F0678070
S31500004A204FF40071C5A001F0D3FA03E0002F18BFC0
S31500004A30002E58D085F80090281D01F000FC281D96
S31500004A40FFF706FFC1A628780FF2083800F0AAF98A
S31500004A5028780FF2703100F01DFB6DA700F0A5F964
S31500004A60281D01F0C7FE00F09CF928780FF260318E
S31500004A7000F010FB00F099F9281D03F01FFC00F070
S31500004A8090F928780FF2543100F004FB00F08DF90C
S31500004A90281D03F031FC00F084F928780FF2483124
S31500004AA000F0F8FA00F081F9281D03F047FC00F049
S31500004AB078F928780FF23C3100F0ECFA00F075F93D
S31500004AC0281D03F050FC00F06CF92878A3A100F033
S31500004AD0E1FA00F06AF9281D04F0D2FB4DA64EA7B4
S31500004AE041AC91E0002E64D001202870A4E7022199
S31500004AF02970A1E728780DF10103FF2241A901F0F1
S31500004B001AFA002846D001F03DF801F082F903F0C8
S31500004B10EDFF9DF8010010B341A9084410F8011CEF
S31500004B2009291CD100F041F99DF80100411E8DF8BC
S31500004B30011041A99DF80120281DFFF7CFFE9DF821
S31500004B4001100020605400F028F9002004E000F075
S31500004B501FF99DF80000401C00F008F9F7D39DF8F6
S31500004B6004012128C6D100F020F94A4601A941A82E
S31500004B7000F0CEFCA9F101008DF8010000F00DF95E
S31500004B80002000F0F3F8B5D200F002F99DF800001D
S31500004B90401CF6E700218DF800109DF80020A05C6F
S31500004BA0511C0A2818BF0D2818BF0028F3D116E09B
S31500004BB02E702878FF289CD100266946F0B201F0B5
S31500004BC0B5F938B99DF800000D2818BF0A2818BF96
S31500004BD02A28EDD0761CF1B20329EEDBE9E70D2099
S31500004BE0A0548DF8001041A99DF80020281D01F061
S31500004BF033FB9DF8002041A901A800F089FC9DF82F
S31500004C00009000218DF8011000F0C7F872E700004F
S31500004C105D0D0A00256300000D0A0000E863002010
S31500004C20F943000098640020F0670020F167002037
S31500004C30F2670020F3670020B06500200D00000039
S31500004C40000000000000000000000000000000005E
S31500004C50000000000000000000000000000000004E
S31500004C60000000000000000000000000000000003E
S31500004C70000000000000000000000000000000002E
S31500004C80000000000000000000000000000000001E
S31500004C90000000000000000000000000000000000E
S31500004CA000000000000000000000000000000000FE
S31500004CB000000000000000000000000000000000EE
S31500004CC000000000000000000000000000000000DE
S31500004CD000000000000000000000000000000000CE
S31500004CE000000000000000000000000000000000BE
S31500004CF000000000000000000000000000000000AE
S31500004D00000000000000000000000000000000009D
S31500004D10000000000000000000000000000000008D
S31500004D20000000000000000000000000000000007D
S31500004D30000000000000000000000000706C6174BC
S31500004D40666F726D746573742E6300005B494E491D
S31500004D50542000000D0A3E200000000073657450C8
S31500004D606572546573745478000000008DF8000075
S31500004D709DF801109DF8000088427047012300222B
S31500004D804FF416417047012300224FF4E13170477A
S31500004D90225C2878314600F07DB94146287800F03B
S31500004DA079B92878314600F075B92878394600F087
S31500004DB071B980B504F0DCFBBDE802400020E9E5EE
S31500004DC000207047696E6974546F6B656E730000DE
S31500004DD06372617368696E666F0000007265736561
S31500004DE074737472696E6700696E6974526164697E
S31500004DF06F00000073656564506E72670000000006
S31500004E0070B513461044DCB264B101F00F0609090F
S31500004E10451E0A2EACBF37243024A41928462C7010
S31500004E205B1EF0E7104470BDF0B5002341B10028C9
S31500004E3006D52D2313700123B0F1004F18BF404251
S31500004E40002100249AA5002601E0C01B761C55F817
S31500004E502470B842F9D2F7B20FB90F0004D0D9B214
S31500004E60303656545B1C0121641C092CEBDBD9B28D
S31500004E70303050545B1CD8B2F0BD2DE9F84F824655
S31500004E8096B04FF0000914A8884617461D4604AC94
S31500004E90CB46019012E04FF0010B074600E00446B6
S31500004EA00198844209D39DF80020A41A00F0D4F892
S31500004EB0002851D159FA84F904AC7F1C04A88DF856
S31500004EC000009DF800003978201A00290FD0252906
S31500004ED005D05FEA0B0208BF04F8011BE0D05FEAC9
S31500004EE00B0114BF4FF0000B7F1C39780A0000F04D
S31500004EF0A680B1F1250216D00B3A092A40F280802D
S31500004F00283A75D00A3A12D0521E3CD0521E57D0BB
S31500004F10083A55D0121F39D0D21E37D0921E4FD024
S31500004F20D21E65D0BCE7252004F8010BB8E7296836
S31500004F306A6803912046083502920024029A944238
S31500004F40ADD20399095D0222FFF75AFF0199884203
S31500004F5006D300F085F800287AD159FA86F904A814
S31500004F600299491E8C423CBF202200F8012B019970
S31500004F70884206D300F074F8002869D159FA86F9F8
S31500004F8004A8641CDAE755F8040BCDE755F8046B62
S31500004F90044600F061F800285AD159FA84F93146DE
S31500004FA004AC064600E0761CF0B2085C0028FAD194
S31500004FB0F2B24046D04700284AD159FA86F96FE73F
S31500004FC06C290AD17A7855F8040B752A0EBF002190
S31500004FD00121642A07D17F1C05E0752955F8040BC9
S31500004FE00CBF002101212246FFF71EFF241857E7B8
S31500004FF055F8041B0222C9B22046FFF701FF4EE70F
S315000050007878782818BF58284FF0010BEFD17F1C0D
S31500005010781E32294FF0000B04D155F8040B81B2EB
S315000050200422E9E734297FF436AF55F8046B0422ED
S31500005030310C2046FFF7E4FE0422B1B2DDE7054657
S31500005040EAB200F00AF818B9A9445FFA89F000E05C
S31500005050002017B0BDE8F08FE2B204A940465047E1
S315000050609DF80020861AF2B204A94046504708A1CE
S3150000507010E00CB438B5044604AA00F013F805464F
S3150000508003A1204600F006F8284632BC5DF80CFB6A
S315000050900D0A00000CB480B502AA00F003F802BCA9
S315000050A05DF80CFB80B505F065F9C0B202BD0000E5
S315000050B000CA9A3B00E1F5058096980040420F0031
S315000050C0A086010010270000E8030000640000002D
S315000050D00A000000DFF808140A6802EB4010704767
S315000050E0DFF800241368195470472DE9F0415FEA90
S315000050F0000831D005F05CFADFF8EC23DFF8EC139A
S315000051001678DFF8EC53FF23FE2E19D10027DFF8BF
S31500005110E463DFF8E4C3177034782C7007E07C1C76
S315000051200EF80740DCF800E00EF80730E7B23478F6
S31500005130D1F800E0A742F2DB0EEB040606F8013CCC
S315000051402E7846450AD205F039FA052005F08CFA84
S3150000515000211B2005F012FBFF2020E0A6EB08062D
S315000051602E701578DFF894631778D6F800E00124DE
S315000051700EF80740A8F10108D1F800C01CF8074056
S3150000518014705FFA88F4002CEED1DFF858230CF87F
S31500005190073000211368595505F010FA2846BDE876
S315000051A0F081F8B5044600F031F8054605F000FA3E
S315000051B0DFF83433DFF83873DFF830C3DFF83CE369
S315000051C001E02C46FF25FF2C1CD022460FE0DCF820
S315000051D00010895C0026A6543C78641C3C70FF29AC
S315000051E0DCF800601C78B4541A70EAD00A46DEF87F
S315000051F000108C5C661E8E54DEF80040A15C11F037
S315000052007F0FE4D0BDE8F24005F0D8B910B5DFF85D
S31500005210EC120A68145C210605D5DFF8C42213686F
S315000052204001185C10BDFF2010BD7CB504460D463C
S3150000523005F11F000004400DC0B2FFF756FFFF281E
S3150000524006460DD0DFF89C0201688D553CB1012061
S3150000525000902B4600223146204600F002F83046E8
S3150000526076BDF3B5054681B0DFF8780201681746CA
S315000052709DF808201E468B5CF419A34203DA4FF40E
S31500005280B77100F0E0F830000CD0089C394602A84F
S3150000529000F0DDF802469DF80810009433462846D3
S315000052A000F001F8F7BD2DE9F047089DDFF83C62F4
S315000052B0DFF82CA28046894614461F460DE02900D9
S315000052C0224612BF41460146404600F021F93068A9
S315000052D03F1BA04410F809900024F8B270B1DAF828
S315000052E00000214600EB4913581851FA87F120298E
S315000052F0B2BFFCB2C4F12004E4B2E0E7BDE8F08737
S315000053002DE9FC410746DFF8DC0188460168CC5DE3
S3150000531015461E462919CBB2A34206DB28000DD03E
S31500005320C9B2384600F05BF808B1182007E00096CD
S315000053302B46224639464046FFF793FF0020BDE83C
S31500005340F6810123DCE70A4600E0521C1378002BA5
S31500005350FBD1521A0123D2B2D2E72DE9F0418046A1
S3150000536001F11F0402F11F00E404C004240E000E24
S3150000537004B9012400B9012084422AD0DFF86C5117
S3150000538019DA001BC0B2FFF7B0FE0746FF2808BFB8
S3150000539000201FD0641E00F01FF82E68305CFF2826
S315000053A004D000F019F8305CFFF7FBFE00F014F8AB
S315000053B029680F540DE08A420BD2411EC9B200F093
S315000053C00CF804462868005DFFF7EBFE2968FF200D
S315000053D008550120BDE8F081E1B2404610E070B505
S315000053E0DFF80061336805460C46595D2246FFF733
S315000053F0B4FF18B130684455002070BD182070BD48
S3150000540004E0DFF8E8201368185C491ECAB2002AD7
S31500005410F7D1704731B50C46DFF8C8100A68155C3D
S31500005420AC4203D340F2052100F00DF82146684650
S3150000543000F00DF8DFF8A8109DF800300A6802EBBE
S315000054404311084432BD0FF2B80000F0C1BD38B5B3
S3150000545004460D46C9042078090EFFF7D1FF2070D7
S3150000546005F01F0032BD80B5FFF7D4FF007802BDFE
S3150000547010B51446FFF7CEFF047010BDFDB5089CAD
S3150000548020000D461E461BD1F7BD154B9DF80400A6
S315000054901B6803EB4010C2F12002D2B2BA42B8BF79
S315000054A0174681199DF8000003EB40133A46581938
S315000054B000F02EF8E41B7D19BE19A0B200B9F7BDA5
S315000054C0A9B26846FFF7C3FF0546B1B201A8FFF7C8
S315000054D0BEFF0646B542A7B2B4BF32462A46D4E757
S315000054E09464002098640020FC670020A0640020DB
S315000054F0F9670020F8670020A46400209C6400205F
S315000055007061636B65742D6275666665722E6300E5
S3150000551070B5814224D210441144401E491E10E049
S3150000552011F8013900F80139121F11F8014900F884
S31500005530014911F8015900F8015911F8016900F8FB
S31500005540016993B2042BEBDA93B2002B1EBF11F85C
S31500005550013900F80139521EF6D170BD00F00DF880
S3150000556093B2042BFADA93B2002B1EBF11F8013B5B
S3150000557000F8013B521EF6D170BD11F8013B00F850
S31500005580013B121F11F8014B00F8014B11F8015BAA
S3150000559000F8015B11F8016B00F8016B704713000E
S315000055A003D00A46194605F0F3B8704710B503460E
S315000055B000E0521E90B218B100F00FF8F9D0001BAF
S315000055C010BD10B5034600E0521E90B220B100F0A7
S315000055D004F8F9D0001B40B210BD13F8010B11F806
S315000055E0014BA0427047704700F10103810704D0C8
S315000055F010F8011B820781B1FAD10268A2F10131CC
S31500005600914311F0803104BF50F8042FF6E709BA30
S31500005610B1FA81F100EBD100401CC01A7047FEE7D9
S3150000562038B50446651D206A2368451B2079EAB211
S31500005630611D984708B1002032BD94F829002D1845
S31500005640611D84F829502162012032BD38B5044617
S31500005650002500E06D1CE8B2085C0028FAD120792C
S315000056602368EAB2984730B994F829002D1884F8CF
S315000056702950012032BD002032BD2DE9FF4B0746DF
S315000056800C46781D386207F11501796200209046B4
S3150000569087F82900DFF8C05315E02AB1791D396271
S315000056A001E01100F9D1044626B100F09DF97D20F4
S315000056B001F8010D386A796A884203D300F09AF935
S315000056C0002867D0641C2178002900F06B81252909
S315000056D0687818BF26290ED07B291CBF7D2923296F
S315000056E007D10028E6D03A6A521C3A6202F8011D38
S315000056F0E0E7A878F5E714F8013F252B18BF262B1D
S3150000570004D100F071F901F8013DD3E726290BD148
S3150000571050B101266E2B18BF4E2B11D000F064F944
S315000057207B2001F8010D00E00026217800224E2999
S3150000573006D0542923D06E2902D074291FD032E016
S31500005740287858F804BB0028B4D036B1386A7B21D3
S315000057500170821C3A622823437000F04BF900283E
S3150000576018D000F036F9002814D0002EA2D0386ADE
S3150000577029210170821C3A627D2343709AE700F06A
S3150000578037F9002806D000F024F9002802D000F0EE
S3150000579031F9002800F0828000F026F93A2001F85D
S315000057A0010D0122641C207894F801E0A0F1300379
S315000057B0DBB2981E052835D2BEF1640F18BFBEF1C4
S315000057C0750F2FD158F8040B012180B2BEF1640F7A
S315000057D04FF0000C814606D15FEA004E03D5C04368
S315000057E0401C8C4680B248B14FF00A0E90FBFEF08A
S315000057F080B200280CF1010CF6D10BE00CF1010C83
S3150000580008E0D7F820E00EF1010EC7F820E02020CE
S315000058100EF8010D604600F1010CC0B29842F0DBB3
S31500005820641C00E0002194F800C0601EBCF1000F6B
S315000058303FF437AFBCF1320F18BFBCF1340F00F0A4
S315000058408D80BCF1480F0AD0BCF1580F16D0BCF1C0
S31500005850630F15D0BCF1640F24D0BCF1680F72D071
S31500005860BCF16C0F51D0BCF1700F18BFBCF1730FB7
S315000058700DD0BCF1750F15D0BCF1780F65D00CE7D3
S31500005880386A411C396258F8041B01700CE700F0B5
S31500005890AFF818B100F09DF80028F7D1002004B049
S315000058A0BDE8F08B002912BF1FFA89F058F8040BE7
S315000058B080B228B900F098F8302001F8010DF3E61F
S315000058C00023BCF1640F0ED101040CD53A6A521CB8
S315000058D03A622D21B0F5004F02F8011D03D0404277
S315000058E080B2002866D04FF00A0C90FBFCFC0A211F
S315000058F001FB1C00D9B25B1C0DF801001FFA8CF0ED
S31500005900EFE7D8B200F078F854E058F8040B002816
S31500005910D0D0002200280AD500F066F82D23B0F179
S31500005920004F01F8013D02D04042002848D00A232A
S31500005930B0FBF3F30A2101FB1300D1B2521C0DF8A0
S3150000594001001846F1E700F047F8022258F8041B58
S31500005950386AC9B2FFF754FA3862A5E614F8010F9F
S31500005960682818BF48280BD100F036F814F8011C37
S31500005970386A32290AD158F8041B042289B2E9E7A9
S31500005980782818BF5828F1D0641E8DE658F804BB55
S3150000599004224FEA1B41FFF733FA386204221FFA4A
S315000059A08BF1D7E700F026F800283FF477AF97F899
S315000059B0290074E71846431EC0B20028A1D173E639
S315000059C01046421EC0B20028F9D0D0B200F014F83A
S315000059D0F6E75946384639E6386A30210170821CA6
S315000059E03A62782343707047396A491C39627047B6
S315000059F058F804BB384613E6396A1DF80000491CFE
S31500005A003962303001F8010D70470EB410B5134AF3
S31500005A10014610788BB0002428B1114A00F013F823
S31500005A2000B9012420460AE00EB410B50C4A8BB02A
S31500005A30014600F008F8002400B9012420460BB006
S31500005A4010BC5DF810FB0748137800908DF8043001
S31500005A500DAA684611E60000F1670020F0670020F5
S31500005A60E8630020A1A3000062B38B0708D0521E92
S31500005A7011F8013B00F8013B00F024808B07F6D1BA
S31500005A80830740F0208000BF103A07D330B4B1E856
S31500005A903810103AA0E83810F9D230BC530724BFAA
S31500005AA0B1E80810A0E8081044BF51F8043B40F8DC
S31500005AB0043BD20724BF31F8022B20F8022B44BF47
S31500005AC00B7803707047121F17D35B0009D151F88A
S31500005AD0043B20F8023B1B0C121F20F8023BF6D2B7
S31500005AE00BE051F8043B00F8013B1B0A20F8023B8F
S31500005AF01B0C121F00F8013BF3D238BF121D521EB9
S31500005B0024BF11F8013B00F8013BF8D87047FEE7C7
S31500005B10890001EB401101F184410868704704F0E7
S31500005B206BBE00007FB50121344804F013FF01224B
S31500005B300121012005F010F90421072005F052FA91
S31500005B4034A292E838006946032281E838000D2124
S31500005B508DF8081001268DF809208DF800608DF863
S31500005B6007606946264C204605F0DAFA25490420E6
S31500005B7008600222244962620860A26A42F00202B8
S31500005B80A2627FBD1E4805F0BFBAA52803D1002139
S31500005B901B4805F0A0BA70471948006800F00100DC
S31500005BA070471A4908680028FCD1704738B5044682
S31500005BB00D4600F016F804F00F01034624052A46A8
S31500005BC0200E01B0BDE8304005F059BB00F00F01D2
S31500005BD00005000E30220E4B50431A1802F11C002D
S31500005BE096E700F00F010005000E3022084B5043E7
S31500005BF01A1802F10C008BE70000000000050A00ED
S31500005C000020054080E200E000E100E008200540B9
S31500005C1000A0004001000000000000010F0000008D
S31500005C2080B50121864804F095FE86480121016071
S31500005C30002005F0E0FA012304220221052005F0E8
S31500005C401EFB012004F0DAFC00F00FF804F007FD5B
S31500005C5005F00BFC01234022DFF8EC118DA005F0C6
S31500005C60CFFB7A490860C00F02BD70B50122012141
S31500005C70042005F071F87648764C0168764D774E2B
S31500005C8041F0010101600021C26842F08072C260E9
S31500005C9002227348206029603160724872490A60A6
S31500005CA004F091FE7149724A724B0818B0FBF2F08B
S31500005CB0401E1860002129644FF480726E486F49B7
S31500005CC0206531606E4802602B6843F480732B6058
S31500005CD070BD80B561480168CA070ED569490B6871
S31500005CE023F440630B6001684908490001600268BB
S31500005CF01102FCD4642005F0D4FB0022002104200C
S31500005D0005F02AF858495E4B002008601860504993
S31500005D10086001BD4E48006800B10120C0B270475E
S31500005D20D12202704170090A817057490A78C270FF
S31500005D300420521C0A7070472DE9F14FDFF84CA180
S31500005D40DFF84C910446DAF8000082B0065D05F0F3
S31500005D5019FC761DF6B2002700904FF6FF7842E058
S31500005D60B91E9DF80800C9B2FFF77DFB05464146FE
S31500005D7005F030FC804627E0B54239DA05F002FC32
S31500005D800099401A80B240F2F512904230DAF8B229
S31500005D9010B95B25012718E0012804D1DAF80000C4
S31500005DA0055D022711E0F01E854207F1010B08BFD1
S31500005DB0454609D0B11E8D4208BF4FEA182503D0CB
S31500005DC0701E8542CCD15D255F4624480168CA070E
S31500005DD009D521480168CA0505D5D9F8000000286B
S31500005DE0FBD089F800501A4908680028FDB2C3D1D3
S31500005DF0B5420CBF00200120BDE8FE8F10B5234937
S31500005E000A68145C042C01DA012010BDBDE81040BC
S31500005E1092E710B50D4B186890B04022694605F020
S31500005E20D9FA58B1C1B26846FFF7FFF904462146D0
S31500005E30122005F09DFC2046FFF7B3F910B010BD07
S31500005E4000250A00108814427C740020906400200B
S31500005E50F0ED00E0B00F00E0000E00E0800E00E084
S31500005E6055CEACC506000E00F00004E0FCAC060002
S31500005E70F8590D00100004E0FF0300400D0001007A
S31500005E80040304E0001000E0037C00209864002076
S31500005E90200000E073696C616273767561727464E8
S31500005EA06F776E002DE9F0410446904601252200E9
S31500005EB08AB00F461E4606D0012C1DD0102C02D0EB
S31500005EC0202C19D01FE0002104F03AF80546012CD9
S31500005ED018BF202C08D0022C18BF212C04D0032C6C
S31500005EE01CBF222C232C1BD1012E0197ADF80C8050
S31500005EF00BD14FF480500CE04FEA0D0027A1282269
S31500005F00FFF7C2FDE3E701200BE0022E03D14FF4B9
S31500005F104050ADF80A006946204604F011F80546DF
S31500005F20E8B20AB0BDE8F08104F0D0B880B504F05C
S31500005F30D8F8C0B202BD80B504F024F9C0B202BDE3
S31500005F407CB5044600200D4616468DF8000001E09B
S31500005F50FFF718FE6B46324629462046FFF7EBFF51
S31500005F600028F5D176BD80B504F093F9C0B202BD24
S31500005F7080B504F0A9FAC0B202BD0CB480B50A46D9
S31500005F80014602AB0348FEF778FF02BC00205DF82D
S31500005F900CFB00006BA400007047000000000140ED
S31500005FA000C2010000000010000000000300020013
S31500005FB00300000000000000000000001E1E00009C
S31500005FC010001000002080F31188704742DE7047F1
S31500005FD038B504460D4606F047F8FFF7D3FD06F040
S31500005FE09AFE2946204605F007FB2B464FEA040297
S31500005FF076A10120FFF7C1FF29462046BDE83440BF
S31500006000E4E769482DE9F843684E0168B1654FF445
S315000060102068026A6649F2650B68336649687166EC
S31500006020426AB266816AF166C26A3267016B71675B
S31500006030806B96F83810B06748074CBF346CF46B29
S3150000604006F0B0FE002232658442DFF868E10146C0
S3150000605024BFAEF12007A742A146716506F1900262
S31500006060554BDFF858C118D3A0697064E469B4646D
S31500006070B56DC5F30805062D13D1604511D39842B9
S315000060800FD200884DF64264A0420AD17068B46807
S315000060905060946040F2017803E000247464B464B4
S315000060A081464748814238BF0146084670456AD254
S315000060B00C68B4F1CD3F08BF091DF6D063E0062C8D
S315000060C009D1C4B2002C0CBF0520401E06F17C0489
S315000060D0C5B244F82510F14520D25EF8041D61458D
S315000060E0F9D39942F7D2CC07F5D5002406F17C0501
S315000060F055F824708F42E2D0641C062CF8D3DEE7F4
S31500006100F16F002306F17C0506EB8304D4F880408A
S3150000611045F823405B1C042BF6D911600146481E46
S31500006120C9B20029ECD1B06DC0F30800032810D025
S31500006130042811D0052812D0062813D00C2817D011
S31500006140122818D11F480268910719D540F2025843
S3150000615016E040F6012813E040F6022810E040F66B
S3150000616003280DE0B8F5206F0AD140F6042807E0B1
S3150000617040F6052804E018B1322838BF40F6072853
S315000061804046BDE8F2831049081AF0640021002059
S3150000619006F17C04C5B2401CC7B244F82510062F90
S315000061A0F8D3002097E7000004ED00E0000000208F
S315000061B000E300E0A861002082BC0100F843000073
S315000061C09C0000201C200540A86100200D0A5B41B0
S315000061D053534552543A25703A25645D0D0A000022
S315000061E02DE9F8438146DFF8C403016811F8095028
S315000061F000260027E90748BF00201ED400240FF21E
S31500006200D448E0B2A84213DAE1B24846FFF72BF9C8
S3150000621018F8002002F00F02E00758BF170105D555
S315000062203A43F1B24846FFF723F9761C641CE8E7C7
S31500006230F1B24846FEF754FF0120BDE8F28300F1B3
S315000062402401FF228A700023C373C3830B708373F8
S315000062500068C860704700002DE9F74F82B0054618
S3150000626000208DF8010005F1240608E0687B7072B5
S315000062700122EA7329469DF8000000F0A9F9039867
S315000062800027002460BB9DF810006946FFF74EFE0C
S31500006290002839D0262826D00121284600F08AF980
S315000062A078208DF80000A046102700218DF80110F7
S315000062B0E97B0829E3D8DFE811F00A004B008E00DD
S315000062C0EA00EA0041014D01AD009E00D7E7102F1C
S315000062D0CCD09DF80000232836D10821E973CEE7FB
S315000062E09DF8100020B99DF8010005B0BDE8F08FBB
S315000062F00398401C039010F8011D9DF810008DF8BE
S315000063000010411E8DF81010A0469DF80000672869
S315000063100FD29DF800100FF2BC30405C00F0300741
S3150000632000F00F08400607D5717A884504DA012483
S3150000633002E07B2838BF10279DF800000A2818BF06
S315000063400D28B2D10121B1E7202F98D0032027E1F3
S31500006350102F1CBF9DF800005F2800D01CB13078BC
S315000063600C28F3DA86E7202F18BF302F3FD132787A
S3150000637005F11101002088544FF00009F0680190E2
S315000063800DE01AF8010B00F01CF91BF8011B814205
S315000063900CD0019800F1100109F101090191019950
S315000063A0486820B3D1F800A005F1110B9BF8000056
S315000063B00028E6D19AF800100029EAD1A5F81E9027
S315000063C0F068E98B00EB0112002190682862A9733E
S315000063D031700222EA73002C687B70722FD02B205A
S315000063E03072C6F804800421687B707276E7032158
S315000063F0284600F0DFF89DF80100002809D0287C27
S3150000640020B1696828468847002028742846FFF787
S3150000641016FF34E79DF8010018B1284600F0E4F8AD
S31500006420F4E79DF80000232805D1284600F0DCF8A3
S315000064300820E87323E7202FFCD00420B0E09DF865
S3150000644000002D2818BF2B2804D13072002171605E
S315000064500321C9E722280AD10120FEF746FEFF28BC
S31500006460B0700BD00021FEF73BFE0520E1E77B284C
S31500006470D0D10120FEF739FEFF28B07000F08F80E2
S315000064800021FEF72DFE10207072062126E744B18A
S315000064907068717A042201FB0088EA73C6F80480EA
S315000064A0EDE69DF80000782818BF582804D17068DA
S315000064B010B910217172E2E69DF80000742818BF29
S315000064C0542803D1706808B90A21F3E7032956D086
S315000064D0202F18BF302F52D1296A08784A78337A8C
S315000064E071682D2B08BF4942752808D1342A1AD065
S315000064F00020312A14BF4FF6FF72FF220FE07328E7
S3150000650008D1312A07BF6FF07F007F22284847F65F
S31500006510FF7204E00421284600F04CF86BE7814244
S31500006520A8BF8A4208DB0222284600F07CF8002831
S31500006530F4D00220E8734EE70621ECE79DF8000050
S3150000654022281ED10021284600F082F80028B2D069
S3150000655002206EE79DF800007D280DD1B078FFF788
S315000065603FFE04460121284600F072F808B10220D9
S31500006570E873002C9FD102E0202F9CD00CB9072095
S315000065800EE00A49B0780A68145CFF2C08BF0820A0
S3150000659006D001226946FEF7D4FE00288BD00220E1
S315000065A08DF800009DF8001022E700009864002096
S315000065B00080FFFF027C1AB90823C37301745DE0F3
S315000065C07047A0F141011A293CBF2030C0B2704784
S315000065D038B50C4694F82450FFF7F3FF61196D1C8B
S315000065E0487484F8245031BD10B50446216A0878F1
S315000065F030B162280CBF01200220085C2A2807D18E
S31500006600216BE28B01EB021320465968884706E0AE
S3150000661004202074204661688847002020742046A4
S31500006620BDE810402AE010B5837B047BA34201D16C
S3150000663005211FE0846844F82310817B491C81737F
S31500006640016A8B5C2A2B1CBF89180162012010BDD0
S3150000665010B500F1200213681C78622C01D00421C9
S3150000666008E09379FF2494710122BDE8104003EB02
S315000066700121D8E7FFF79EFF002010BD70B5044644
S31500006680206BE18B00EB011200269568A17BF0B22E
S31500006690884212D22878622818BF022007D1A16842
S315000066A0F2B251F82200C0B2FEF77BFD0120295C50
S315000066B02A2918BF2D18761CE8E70020A07394F845
S315000066C02600FF2804D0FEF76CFDFF2084F8260084
S315000066D070BD000000000000000000000020202027
S315000066E02020000000000000000000000000000064
S315000066F000000000200030300000000000000030E4
S3150000670000300000404142434445464748490000A6
S3150000671000000000005A5B5C5D5E5F1010101010F8
S315000067201010101010101010101010101010103043
S3150000673000000000005A5B5C5D5E5F002DE91040C2
S31500006740DFF8684705A12078FEF7A4FC94F800005E
S3150000675006A1BDE81040FEF79DBC0000286C6974D8
S31500006760746C6520656E6469616E00002C20616C36
S315000067706C206461746120726570726573656E74F5
S315000067806564206173206279746520617272617933
S31500006790290D0A0001460878A0F130030A2B38BFFC
S315000067A030380AD3A0F14103062B38BF373804D35B
S315000067B0A0F16102062A02D25738000100E000204B
S315000067C04978A1F130030A2B02D2401830380EE086
S315000067D0A1F14103062B02D24018373807E0A1F198
S315000067E06102062A39BF401857380006000FC0B2AA
S315000067F07047000010B506F0E9FA020018D0DFF87D
S31500006800AC462078042A08BF0FF2280107D0062AD2
S3150000681008BF0FF26C0102D0072A03D129A1FEF7A7
S3150000682039FC02E039A1FEF735FC207844A190E757
S3150000683010BD000068616C537461636B496E6974C6
S31500006840546F6B656E73204641494C454420776909
S31500006850746820454D4245525F454550524F4D5F45
S315000068604D46475F535441434B5F56455253494F3C
S315000068704E5F4D49534D415443480D0A00000000F8
S3150000688068616C537461636B496E6974546F6B65B0
S315000068906E73204641494C4544207769746820450B
S315000068A04D4245525F454550524F4D5F4D46475FFD
S315000068B056455253494F4E5F4D49534D41544348F7
S315000068C00D0A000068616C537461636B496E6974EC
S315000068D0546F6B656E73204641494C454420776979
S315000068E0746820454D4245525F454550524F4D5FB5
S315000068F0535441434B5F56455253494F4E5F4D49A2
S31500006900534D415443480D0A0000000068616C5322
S315000069107461636B496E6974546F6B656E73204660
S3150000692041494C4544207769746820456D6265721B
S315000069305374617475733A2025580D0A00000000DF
S31500006940546F6B656E7320617265207374696C6C2D
S3150000695020616374697665207768656E2075736952
S315000069606E672074686973206170706C6963617406
S31500006970696F6E2E0D0A00002DE9F84FC0B08068D1
S31500006980DFF828750568FFF7D9FEA8B206F07CFA8D
S315000069908046A8B206F046FC0446A8B206F023FDDF
S315000069A08346002C38781ABF4FF6FF7290450FF2D7
S315000069B0045128D02346AAB20FF2D811FEF76AFB7B
S315000069C000250FF270290FF2702A06E000F01CF87D
S315000069D0761CF0B2A042F9DB6D1CE8B2584510DA1D
S315000069E0BBF1010F234603D17F2201F087F906E0B0
S315000069F0EAB201F083F938785146FEF74BFB0026E0
S31500006A00E7E7387851465BE01DF8002038784946BC
S31500006A10FEF740BB2DE9F84F0446C0B0A168DFF889
S31500006A208C740E68B0B206F0FDFB8046B0B206F07C
S31500006A302BFA8346B0B206F0D6FC0646B8F1000F34
S31500006A40AFA006D104F11101FEF7EEFF0FF2B4215B
S31500006A5035E04FF6FF72934504F1110104D1FEF7BC
S31500006A60E3FF0FF2C4212AE0FEF7DEFF97F80000ED
S31500006A7016A14246FEF70EFB00240FF2B8190FF2DC
S31500006A80B81A06E0FFF7C0FF6D1CE8B24045F9DB17
S31500006A90641CE0B2B04211DA012E434604D17F22D3
S31500006AA0594601F02CF907E0E2B2594601F027F900
S31500006AB038785146FEF7EEFA0025E6E708A1387861
S31500006AC0FEF7E8FA41B0BDE8F08F00007B73697A03
S31500006AD0653A25647D7B76616C75653A0000000039
S31500006AE07D7D0D0A000000002DE9F047C0B08068EA
S31500006AF007684468DFF8B463FFF720FEB8B206F013
S31500006B0091FB8046B8B206F0BFF98146B8B206F0EE
S31500006B106AFC0546B8F1000F30781ABF4FF6FF72CF
S31500006B2091450FF2903130D0A5F1010A15B1E1B2CD
S31500006B308A450BDA0FF28831FEF7ACFA30780FF29D
S31500006B40B83153460022FEF7A5FA20E04346BAB212
S31500006B5010A1FEF79FFA012D08BF7F244346E2B23B
S31500006B60494601F0CCF834A530782946FEF792FA6A
S31500006B70002430A704E01DF8012001F0CDF8641CC4
S31500006B80E1B230784145F6DB2946FEF783FA40B09C
S31500006B90BDE8F0875B2532785D28256429203D0015
S31500006BA02DE9F847C1B08068C04F0668FFF7C6FDFB
S31500006BB0B0B206F037FB8046B0B206F065F9824601
S31500006BC0B0B206F010FCB8F1000F1CBF4FF6FF7113
S31500006BD08A45064605D138780FF2D821FEF75AFACB
S31500006BE027E000240FF234391FE016FB08F338784B
S31500006BF05B1E08FB04524946FEF74CFA387803221E
S31500006C006946FFF79DF96846FFF7C4FD01A9485597
S31500006C106D1C4545E9DB012E434601AA14BFE1B2CE
S31500006C207F21504606F008F9641CB442B8BF00251F
S31500006C30EFDB61E0202558000D0A00002DE9F04742
S31500006C400646C2B0B0689A49076840680A688DF877
S31500006C500400B8B29DF80430D45C06F0E3FA0546A9
S31500006C60B8B206F011F98246B8B206F0BCFB81460E
S31500006C7028008E4F0FF2880804D100F0BDF800BF3F
S31500006C8020A136E04FF6FF718A4503D100F0B4F833
S31500006C9025A12EE0EA2D05DD00F0AEF85FF0EA0250
S31500006CA02BA106E0AC4208D000F0A6F84FEA050298
S31500006CB03AA13878FEF7EEF91EE0002000902B4648
S31500006CC09DF80410002202A8FEF7CBFA0024E0B2D9
S31500006CD048450BDAB9F1010F2B4602AA14BFE1B2FF
S31500006CE07F21504606F0A8F8641CF0E700F084F80F
S31500006CF03DA13878FEF7CEF942B0BDE8F087000036
S31500006D007B264E007B72657475726E3A317D7B749C
S31500006D106F6B656E2073697A65206973207A657278
S31500006D206F7D7D0D0A0000007B72657475726E3A88
S31500006D30317D7B696E76616C696420746F6B656EFC
S31500006D4020616464726573737D7D0D0A0000000026
S31500006D507B72657475726E3A317D7B6F6E6C7920CD
S31500006D60746F6B656E73206F662073697A65207524
S31500006D707020746F202564422061726520737570DF
S31500006D80706F727465642062792074686973206319
S31500006D906F6D6D616E647D7D0D0A00007B7265749A
S31500006DA075726E3A317D7B74686520656E746572A6
S31500006DB065642062756666657220646F6573206E11
S31500006DC06F74206D61746368207468697320746FD2
S31500006DD06B656E27732073697A65202825644229BE
S31500006DE07D7D0D0A000000007B72657475726E3A37
S31500006DF0307D7D0D0A00000006F111014046FEF7C8
S31500006E0013BE00002DE9F847C1B0806804684668E3
S31500006E10DFF8C05DFFF792FCA0B206F003FA8046E9
S31500006E20A0B206F031F88246A0B206F0DCFA0446BB
S31500006E30B8F1000F28781CBF4FF6FF72924503D1B8
S31500006E401CA1FEF727F930E0671E14B1F1B28F429C
S31500006E500ADA00BF1AA1FEF71DF9287826A13B46DB
S31500006E600022FEF717F920E000270FF2B00911E023
S31500006E702878A8F101033A464946FEF70BF9287827
S31500006E8003226946FFF75CF86846FFF783FC01A911
S31500006E90C8557F1C4745EBDB012C08BF7F264346C0
S31500006EA001AAF1B2504605F0C7FF25E7E8630020C6
S31500006EB0986400206E6F7420666F756E640D0A000C
S31500006EC04552524F523A204465736972656420698F
S31500006ED06E646578206973206F7574206F66207202
S31500006EE0616E676520666F72207468697320746FBF
S31500006EF06B656E0D0A000000202020202020205601
S31500006F00616C69642072616E67652069732025581B
S31500006F1020746872752025580D0A0000646174613A
S31500006F2020627974655B2564206F662025645D3A6E
S31500006F30000000002DE9F043A5B0DFF8985CDFF80B
S31500006F40989CFFF7FBFB28784EF24552FFF75FFD52
S31500006F502878DFF8881CFFF706F8DFF8840C01882C
S31500006F60082300F0D1FE0024E1A700F0D1FE00F0D6
S31500006F70B9FEFAD30FF27C3800F0D1FE28784CF235
S31500006F805632FFF744FD2878DFF8581CFEF7EBFF72
S31500006F900124DFF8540C00F0B5FE9DF8002000F047
S31500006FA0BAFE9DF8012000F0B6FE641EF1D100F095
S31500006FB0B6FE28784EF24532FFF729FD28780FF6FF
S31500006FC04041FEF7D0FFDFF8240C0188082300F0CB
S31500006FD09BFE00F09DFE00F085FEFAD300F09FFEBA
S31500006FE028784EF67352FFF712FD28780FF62441E3
S31500006FF0FEF7B9FFDFF8F80B0188102300F084FED6
S31500007000002400F085FE00F075FEFAD300F087FE3E
S3150000701028784CF24E22FFF7FAFC28780FF600414A
S31500007020FEF7A1FFDFF8CC0B0188102300F06CFE01
S31500007030002400F06DFE00F05DFEFAD300F06FFE56
S3150000704028784CF64412FFF7E2FC28780FF6E03178
S31500007050FEF789FF0124DFF8A00B00F053FE9DF830
S31500007060002000F058FE9DF8012000F054FE641E3A
S31500007070F1D100F054FE28784DF24302FFF7C7FC29
S3150000708028780FF6BC31FEF76EFF0124DFF86C0B93
S3150000709000F038FE9DF8002000F03DFE9DF801202E
S315000070A000F039FE641EF1D100F039FE28784CF26A
S315000070B04312FFF7ACFC28780FF69431FEF753FF26
S315000070C0DFF8640C01880223E2B200F018FE9DF896
S315000070D0002000F020FE9DF8012000F01CFE641C3C
S315000070E060B21428ECDB00F01AFE28784DF6432235
S315000070F0FFF78DFC28780FF66831FEF734FFDFF8CE
S315000071002C0C0188012300F0FFFD9DF8002000F003
S3150000711002FE00F004FE28784DF64822FFF777FCC1
S3150000712028780FF65431FEF71EFFDFF8040C0188AD
S31500007130012300F0E9FD9DF8002000F0ECFD00F0D1
S31500007140EEFD28784DF65222FFF761FC28780FF6FF
S315000071504031FEF708FFDFF8DC0B0188102300F052
S31500007160D3FD002400F0D4FD00F0C4FDFAD300F0F6
S31500007170D6FD28784DF24E32FFF749FC28780FF6F7
S315000071803031FEF7F0FEDFF8B00B0188102300F077
S31500007190BBFD002400F0BCFD00F0ACFDFAD300F00E
S315000071A0BEFD28784DF24632FFF731FC28780FF6FF
S315000071B01431FEF7D8FE0124DFF8800B00F0A2FDA3
S315000071C09DF8002000F0A7FD9DF8012000F0A3FD2A
S315000071D0641EF1D100F0A3FD28784CF24332FFF78C
S315000071E016FC28780FF6BC31FEF7BDFE0124DFF849
S315000071F0500B00F087FD9DF8002000F08CFD9DF8F7
S31500007200012000F088FD641EF1D100F088FD287889
S315000072104CF65352FFF7FBFB28780FF69C31FEF72E
S31500007220A2FEDFF8200B0188082300F06DFD00F0B8
S315000072306FFD00F057FDFAD300F071FD28784CF28F
S315000072405432FFF7E4FB28780FF68031FEF78BFE09
S315000072500124DFF8F40A00F055FD9DF8002000F047
S315000072605AFD9DF8012000F056FD641EF1D100F094
S3150000727056FD28784DF65402FFF7C9FB28780FF61D
S315000072805831FEF770FE0124DFF8C00A00F03AFD1F
S315000072909DF8002000F03FFD9DF8012000F03BFD29
S315000072A0641EF1D100F03BFD28784CF65442FFF7FE
S315000072B0AEFB28780FF62C31FEF755FEDFF8900A64
S315000072C00188012300F020FD9DF8002000F023FD39
S315000072D000F025FD28784DF25702FFF798FB287835
S315000072E00FF61031FEF73FFEDFF8680A04E000BF34
S315000072F0202558000D0A00000188102300F004FD27
S3150000730000F006FD00F0F6FCFAD300F008FD287840
S315000073104CF25732FFF77BFB28780FF6EC21FEF78D
S3150000732022FEDFF8340A0188042300F0EDFC002475
S3150000733000F0EEFC00F0DAFCFAD300F0F0FC28785E
S315000073404CF65752FFF763FB28780FF6D021FEF76D
S315000073500AFEDFF8080A0188042300F0D5FC0024A1
S3150000736000F0D6FC00F0C2FCFAD300F0D8FC287876
S315000073704DF25752FFF74BFB28780FF6B421FEF774
S31500007380F2FDDFF8DC090188042300F0BDFC0024CF
S3150000739000F0BEFC00F0AAFCFAD300F0C0FC28788E
S315000073A04CF25742FFF733FB28780FF69821FEF789
S315000073B0DAFDDFF8B0090188042300F0A5FC0024FB
S315000073C000F0A6FC00F092FCFAD300F0A8FC2878A6
S315000073D04CF24B22FFF71BFB28780FF67C21FEF7B9
S315000073E0C2FDDFF884090188102300F08DFC00241B
S315000073F000F08EFC00F07EFCFAD300F090FC2878BA
S315000074004CF24232FFF703FB28780FF66421FEF7B1
S31500007410AAFDDFF8580901885C2300F075FC0024FA
S3150000742000F076FC641CE0B25C28F9D300F077FC2F
S3150000743028784CF64312FFF7EAFA28780FF640212F
S31500007440FEF791FDDFF828090188142300F05CFCA3
S31500007450002400F05DFC641CE0B21428F9D300F0AF
S315000074605EFC28784DF24332FFF7D1FA28780FF602
S315000074702821FEF778FD0124DFF8F80800F042FC29
S315000074809DF8002000F047FC9DF8012000F043FC29
S31500007490641EF1D100F043FC28784DF24232FFF72A
S315000074A0B6FA28780FF60421FEF75DFDDFF8C80866
S315000074B00188102300F028FC00F02AFC00F01AFCDA
S315000074C0FAD300F02CFC28784CF24532FFF79FFAED
S315000074D028780FF6F411FEF746FDDFF8A0080188BC
S315000074E0942300F011FC002400F012FC641CE0B2AE
S315000074F09428F9D300F013FC28784DF25832FFF7A0
S3150000750086FA28780FF6D411FEF72DFDDFF87008FD
S315000075100188202300F0F8FB002400F0F9FB00F0BE
S31500007520DDFBFAD300F0FBFB28784DF25932FFF76A
S315000075306EFA28780FF6C011FEF715FDDFF844083D
S315000075400188202300F0E0FB002400F0E1FB00F0BE
S31500007550C5FBFAD300F0E3FB28784CF64B22FFF785
S3150000756056FA28780FF6AC11FEF7FDFCDFF818087E
S315000075700188222300F0C8FB002400F0C9FB641C2C
S31500007580E0B22228F9D300F0CAFB28784BF2346225
S31500007590FFF73DFA28780FF69011FEF7E4FCDFF8C6
S315000075A0EC070188082300F0AFFB002400F0B0FBD5
S315000075B000F098FBFAD300F0B2FB28784DF6502283
S315000075C0FFF725FA28780FF66C11FEF7CCFCDFF8EA
S315000075D0C0070188202300F097FB002400F098FBE9
S315000075E000F07CFBFAD300F09AFB28784DF6552282
S315000075F0FFF70DFA28780FF64811FEF7B4FCDFF80E
S3150000760094070188202300F07FFB002400F080FB14
S3150000761000F064FBFAD300F082FB28784DF6512285
S31500007620FFF7F5F928780FF62411FEF79CFCDFF832
S31500007630680701885A2300F067FB002400F068FB06
S31500007640641CE0B25A28F9D300F069FB28784CF69E
S315000076504B62FFF7DCF928780FF60011FEF783FC82
S31500007660DFF838070188102300F04EFB002400F0F5
S315000076704FFB00F03FFBFAD300F051FB28784DF6A4
S315000076804922FFF7C4F928780FF6E401FEF76BFCF0
S31500007690DFF80C070188012300F036FB9DF8002077
S315000076A000F039FB00F03BFB28784FF60172FFF73C
S315000076B0AEF928780FF6CC01FEF755FC012402231B
S315000076C07F22002100F01BFB9DF8002000F023FB29
S315000076D09DF8012000F01FFB641EF0D100F01FFB97
S315000076E028784EF22312FFF792F928780FF6AC01AC
S315000076F0FEF739FC04237F22012100F000FB00F095
S3150000770007FB00F0F3FAFAD300F009FB28784EF2F3
S315000077107542FFF77CF928780FF69801FEF723FCEF
S3150000772011237F22022100F0EAFA002400F0F0FA89
S3150000773000F0E0FAFAD900F0F2FA28784EF2632265
S31500007740FFF765F928780FF68001FEF70CFC042395
S315000077507F22032100F0D3FA002400F0D9FA00F0CA
S31500007760C5FAFAD300F0DBFA28784EF26352FFF737
S315000077704EF928780FF66401FEF7F5FB04237F2205
S31500007780042100F0BCFA002400F0C2FA00F0AEFAC0
S31500007790FAD300F0C4FA28784EF26212FFF737F9EE
S315000077A028780FF64C01FEF7DEFB012402237F2228
S315000077B0052100F0A4FA9DF8002000F0ACFA9DF82F
S315000077C0012000F0A8FA641EF0D100F0A8FA28788B
S315000077D04EF67932FFF71BF928780FF62C01FEF7E3
S315000077E0C2FB11237F22062100F089FA00F090FAED
S315000077F000F080FAFAD900F092FA28784EF6646220
S31500007800FFF705F928780FF60C01FEF7ACFB1023FD
S315000078107F22072100F073FA002400F079FA00F0C5
S3150000782069FAFAD300F07BFA28784EF22412FFF7B1
S31500007830EEF828780FF2EC71FEF795FB1A237F22FB
S31500007840082100F05CFA002400F062FA641CE0B241
S315000078501A28F9D300F063FA28784EF22512FFF7BA
S31500007860D6F828780FF2D071FEF77DFB08237F2229
S31500007870092100F044FA002400F04AFA00F032FA36
S31500007880FAD300F04CFA28784EF22612FFF7BFF82A
S3150000789028780FF2C071FEF766FB0A237F220A21C1
S315000078A000F02DFA002400F033FA641CE0B20A2836
S315000078B0F9D300F034FA28784EF22712FFF7A7F82A
S315000078C028780FF2A471FEF74EFB012402237F22D3
S315000078D00B2100F014FA9DF8002000F01CFA9DF828
S315000078E0012000F018FA641EF0D100F018FA28788A
S315000078F04EF22812FFF78BF828780FF28C71FEF7FC
S3150000790032FB18237F220C2100F0F9F900F000FA6F
S31500007910641CE0B21828F9D300F001FA28784EF278
S315000079202912FFF774F828780FF27871FEF71BFB1F
S3150000793001237F220D2100F0E2F99DF8002000F0DE
S31500007940EAF900F0ECF928784EF21022FFF75FF81A
S3150000795028780FF26871FEF706FB00F0E0F9287848
S315000079604EF21122FFF753F828780FF26C71FEF7EA
S31500007970FAFA00F0D4F928784EF21222FFF747F807
S3150000798028780FF27471FEF7EEFA00F0C8F928783D
S315000079904EF21322FFF73BF828780FF28071FEF7BC
S315000079A0E2FA00F0BCF928784EF21422FFF72FF81D
S315000079B028780FF28C71FEF7D6FA00F0B0F9287825
S315000079C04EF21522FFF723F828780FF29C71FEF786
S315000079D0CAFA00F0A4F928784EF22022FFF717F829
S315000079E028780FF2A471FEF7BEFA04237F22142131
S315000079F000F085F9002400F08BF900F077F9FAD34E
S31500007A0000F08DF928784EF22122FFF700F8287849
S31500007A100FF29871FEF7A7FA00F081F928784EF276
S31500007A207422FEF7F4FF28780FF2AC71FEF79BFA8A
S31500007A3000F075F928784FF60D72FEF7E8FF287802
S31500007A400FF2A871FEF78FFA00240B23E2B217217A
S31500007A5000F055F90026F1B200F05BF9761CF0B2A1
S31500007A600A28F8D9641C61B20529EEDD00F057F941
S31500007A7028784EF25642FEF7CAFF28780FF2807138
S31500007A80FEF771FA00F04BF928784FF46542FEF7DD
S31500007A90BEFF28780FF27871FEF765FA00F03FF91D
S31500007AA028784EF20352FEF7B2FF28780FF278716B
S31500007AB0FEF759FA00240123E2B21A2100F01FF959
S31500007AC09DF8002000F027F9641C60B20528F2DD5D
S31500007AD000F025F928784EF20152FEF798FF287833
S31500007AE00FF26071FEF73FFA10237F221B2100F090
S31500007AF006F9002400F00CF900F0FCF8FAD300F0C7
S31500007B000EF928784EF20252FEF781FF28780FF21E
S31500007B104471FEF728FA28237F221C2100F0EFF893
S31500007B20002400F0F5F8641CE0B22828F9D300F030
S31500007B30F6F828784EF25822FEF769FF28780FF2F9
S31500007B402871FEF710FA12237F221D2100F0D7F8C4
S31500007B50002400F0DDF8641CE0B21128F9D900F029
S31500007B60DEF828784EF25922FEF751FF28780FF2F8
S31500007B700871FEF7F8F900243423E2B21E2100F062
S31500007B80BEF80026F1B200F0C4F8761CF0B2342834
S31500007B90F8D3641C61B20529EEDB00F0C0F8287842
S31500007BA04EF25A22FEF733FF28780FF2E461FEF711
S31500007BB0DAF900F0B4F828784EF25B22FEF727FFD8
S31500007BC028780FF2E061FEF7CEF900F0A8F825B0AC
S31500007BD0BDE8F083E8630020C0D60100C8D60100E6
S31500007BE01CF60100DCD601001EF6010020F601009D
S31500007BF022F6010024F6010026F6010028F601000F
S31500007C004D46475F435553544F4D5F4555495F3683
S31500007C10340000004D46475F535452494E4700001A
S31500007C204D46475F424F4152445F4E414D4500002D
S31500007C304D46475F4D414E55465F494400000000A2
S31500007C404D46475F5048595F434F4E4649470000EF
S31500007C504D46475F4153485F434F4E4649470000F4
S31500007C604D46475F5A574156455F434F554E54520E
S31500007C70595F4652455100004D46475F5A57415697
S31500007C80455F48575F56455253494F4E0000000026
S31500007C904D46475F5A574156455F50534555444FE9
S31500007CA05F52414E444F4D5F4E554D424552000086
S31500007CB04D46475F53455249414C5F4E554D4245EF
S31500007CC0520000004D46475F53594E54485F465296
S31500007CD045515F4F4646534554000000641CE0B2D0
S31500007CE020287047641CE0B208287047641CE0B284
S31500007CF004287047641CE0B2102870474146684665
S31500007D0005F086B8018802237F22684605F080B810
S31500007D10E1B21DF8012028783946FDF7BBB928786D
S31500007D204146FDF7B7B900002AF601002CF601001E
S31500007D302EF6010030F6010032F6010034F601009D
S31500007D4036F6010038F601003AF601003CF601006D
S31500007D503EF6010040F6010042F6010044F601003D
S31500007D6046F6010048F601004AF601004CF601000D
S31500007D704EF6010050F6010052F6010054F60100DD
S31500007D8056F6010058F601005AF601005CF60100AD
S31500007D905EF6010060F6010062F6010064F601007D
S31500007DA066F601004D46475F4343415F54485245DE
S31500007DB053484F4C440000004D46475F455A5350C8
S31500007DC05F53544F52414745000000004D46475F00
S31500007DD04354554E450000004D46475F584F5F548B
S31500007DE0554E45004D46475F4C46584F5F54554EDD
S31500007DF0450000004D46475F4C4F434B42495453A4
S31500007E005F504C57000000004D46475F4C4F434BB8
S31500007E10424954535F434C57300000004D46475F7C
S31500007E204C4F434B424954535F4D4C5700000000A2
S31500007E304D46475F4C4F434B424954535F554C5751
S31500007E40000000004D46475F4C4F434B4249545398
S31500007E505F444C57000000004D46475F424F4F5469
S31500007E604C4F41445F4145535F4B4559000000006C
S31500007E704D46475F43424B455F4441544100000035
S31500007E804D46475F494E5354414C4C4154494F4E21
S31500007E905F434F44450000004D46475F53454355F9
S31500007EA0524954595F434F4E464947004D46475F36
S31500007EB05345435552455F424F4F544C4F414445FD
S31500007EC0525F4B45590000004D46475F43424B45C4
S31500007ED05F3238334B315F44415441004D46475F72
S31500007EE05349474E45445F424F4F544C4F414445DA
S31500007EF0525F4B45595F58004D46475F5349474EC1
S31500007F0045445F424F4F544C4F414445525F4B45A9
S31500007F10595F59004D46475F5448524541445F4AB0
S31500007F204F494E5F4B4559004D46475F4555495FA2
S31500007F30363400004D46475F5A575F50524B00009B
S31500007F404D46475F5A575F50554B00004D46475FB9
S31500007F505A575F51525F434F444500004D46475FB5
S31500007F604E564D335F43525950544F5F4B4559005F
S31500007F704D46475F5A575F494E495449414C495A05
S31500007F8045440000535441434B5F4E5644415441CF
S31500007F905F56455253494F4E00000000535441432B
S31500007FA04B5F4150535F4652414D455F434F554EDF
S31500007FB054455200535441434B5F414C5445524E35
S31500007FC04154455F4B455900535441434B5F424F23
S31500007FD04F545F434F554E5445520000535441434E
S31500007FE04B5F4E4F4E43455F434F554E54455200EF
S31500007FF0535441434B5F414E414C595349535F5291
S3150000800045424F4F54000000535441434B5F4B458C
S3150000801059530000535441434B5F4E4F44455F4410
S3150000802041544100535441434B5F54525553545F9E
S3150000803043454E5445520000535441434B5F4E4511
S3150000804054574F524B5F4D414E4147454D454E5457
S3150000805000000000535441434B5F504152454E547B
S315000080605F494E464F000000535441434B5F504119
S3150000807052454E545F4144444954494F4E414C5F2A
S31500008080494E464F00000000535441434B5F4D5547
S315000080904C54495F5048595F4E574B5F494E464FC7
S315000080A000000000535441434B5F4D494E5F52451B
S315000080B04345495645445F52535349004D554C5428
S315000080C0495F4E4554574F524B5F535441434B5FA4
S315000080D04B455953000000004D554C54495F4E45E1
S315000080E054574F524B5F535441434B5F4E4F444599
S315000080F05F444154410000004D554C54495F4E4584
S3150000810054574F524B5F535441434B5F414C544578
S31500008110524E4154455F4B45590000004D554C5455
S31500008120495F4E4554574F524B5F535441434B5F43
S3150000813054525553545F43454E5445520000000077
S315000081404D554C54495F4E4554574F524B5F53540F
S3150000815041434B5F4E4554574F524B5F4D414E4145
S3150000816047454D454E5400004D554C54495F4E45CC
S3150000817054574F524B5F535441434B5F5041524506
S315000081804E545F494E464F004D554C54495F4E453F
S3150000819054574F524B5F535441434B5F4E4F4E43E0
S315000081A0455F434F554E5445520000004D554C54C3
S315000081B0495F4E4554574F524B5F535441434B5FB3
S315000081C0504152454E545F4144444954494F4E41F3
S315000081D04C5F494E464F0000535441434B5F424962
S315000081E04E44494E475F5441424C45005354414327
S315000081F04B5F4348494C445F5441424C45000000A4
S31500008200535441434B5F4B45595F5441424C4500E3
S31500008210535441434B5F43455254494649434154A5
S31500008220455F5441424C4500535441434B5F4144E2
S31500008230444954494F4E414C5F4348494C445F447E
S3150000824041544100535441434B5F5A4C4C5F4441A7
S3150000825054410000535441434B5F5A4C4C5F5345C5
S315000082604355524954590000535441434B5F4750BC
S315000082705F44415441000000535441434B5F475013
S315000082805F50524F58595F5441424C450000000020
S31500008290535441434B5F47505F53494E4B5F5441E4
S315000082A0424C4500535441434B5F47505F494E4350
S315000082B04F4D494E475F46430000000010B505F09C
S315000082C065F940F2A174C440E0070BD5064C20784E
S315000082D005F07CF9207805F021FA2078BDE81040F9
S315000082E005F0ECBA10BD00BFE86300205FF02A017C
S315000082F00AA0FDF76DBE000010B501F02FFB044685
S3150000830001F022FB02462346DFF80C0007A10078A5
S31500008310BDE81040FCF7BEBEE863002072657365D9
S31500008320742D746573742E63000000005245534526
S31500008330543A25702D25700D0A00000010B504462C
S31500008340002004F08FF8002004F0A6F802F0FEF9F1
S31500008350012003F0F9FF204605F0D9FF2046BDE8CD
S31500008360104000F097BF80B5022100F02FF9009869
S3150000837006F01EF901BD8068DFF8B81402680A70BD
S3150000838008780228A8BF0FF2F04305DA002814BFC8
S315000083900FF2F0430FF2F443DFF89C140FF2C842D9
S315000083A0D1F81013FFE70FF2B440FDF73DBB000014
S315000083B0F8B503F02EFFDFF884440FF2645204EBA5
S315000083C08000C368DFF87004D0F850130FF2345001
S315000083D0FDF72AFBDFF86804006806F027F9052890
S315000083E0054614D8DFE800F003100E090C060FF25C
S315000083F0E8420EE00FF2D4420BE00FF2C44208E06E
S3150000840079A206E079A204E00FF2AC4201E00FF295
S31500008410D4420FF2E8410FF2DC400FF2D047FDF7ED
S3150000842003FB0026F0B254F8201005F0010238468E
S31500008430FDF7FAFA761C6D08F0B20228F2D9BDE80B
S31500008440F2408FE038B50446DFF8EC23A0680568F3
S31500008450D2F860130FF2D440FDF7E6FAEDB215B18B
S31500008460012D07D00CE00FF2CC40FDF7DDFA03F04A
S31500008470FBFD05E00FF2D040FDF7D6FA03F0C7FE8C
S315000084800FF2D440FDF7D0FA2046BDE832408FE720
S31500008490F8B507460D4684B0284603F084FA04462C
S315000084A0284603F034FC06460FF228523CB92B4608
S315000084B007F111010FF20450FDF7B6FA10E00FF2C2
S315000084C048500FF23C510290009105F01F000190B8
S315000084D003942B4607F111010FF20050FDF7A4FAA1
S315000084E0AE420FF2A84405D032460FF22451204680
S315000084F0FDF79AFA284603F0F1FB10F1010F0FF28F
S3150000850060430FF2644102D10FF2644202E018B9EF
S315000085100FF2644218460BE0DFF82823DFF8241335
S31500008520B0FBF2F201FB120129B90FF268412046B5
S31500008530FDF77AFA13E0DFF8102313784FF47A7414
S31500008540B0FBF4F2214601FB120100290EBF0FF227
S315000085504C4102460FF254411846FCF79BFD05B00C
S31500008560BDE8F04094A0FDF75FBA10B5044603F0ED
S3150000857077FB01462046BDE8104089E738B5054639
S3150000858003F047FE0400DFF8B002D0F830130FF214
S31500008590884018BF0124FDF747FA03F038FEA868A3
S315000085A00068C0B203F064FA02460FF204310FF21B
S315000085B09C40FDF739FA0CB103F056FD03F050FB71
S315000085C001462846BDE8344062E70121684603F0CB
S315000085D04CB910B5044604F004F804F11101BDE8E5
S315000085E01040034687A231E154780000527800001B
S315000085F02DE9F84F84B007460C4615461E4603F093
S3150000860008FE010018BF01218DF8031003F022FEB9
S31500008610002D8DF8020016D10125022003F01DFE63
S31500008620642002F03EFF03F01BFB8DF80000039769
S31500008630029664B99DF80060012006F01F0400FA56
S3150000864004F4002109E0E8D56D420020E6E7E00EDB
S315000086504601F6B224F078440121019115E0039811
S3150000866000F1110133464A460FF21840FDF7DCF9D6
S3150000867004E0FDF7D9F950A0FDF7D6F99DF8010001
S3150000868001218140641A761CF6B2002C69D006F0EE
S315000086901F008DF8010024FA00F2D007F3D503F08D
S315000086A0DFFA86420FF2583904D0304603F0E0F97B
S315000086B00028D4D14FF07F0A6FF07F080027AB4621
S315000086C00DE0802002F0EDFE03F0BDFEC7198045E7
S315000086D0B8BF80465045B8BF8246ABF1010BBBF12F
S315000086E0000FEEDC9DF8400097FBF5F758B15046B9
S315000086F003F030FB824678B203F02CFB0746404677
S3150000870003F028FB8046039800F1110147A0FDF70E
S315000087108BF9019828B1324649460FF2D010FDF781
S3150000872083F902980FF2383920B10146524648467D
S31500008730FDF77AF90E9820B101463AB24846FDF7A0
S3150000874073F90F9820B1014642464846FDF76CF989
S315000087509DF84000002814BF0FF20C300FF21C30B9
S3150000876087E79DF80000864218BF03F081F99DF85F
S31500008770020003F072FD9DF8030020B105B0BDE8CC
S31500008780F04F03F071BC05B0BDE8F08FE0B50021F5
S3150000879002910191009101220FF2083308E0E0B541
S315000087A00121002202910192009221A301220021BF
S315000087B0FFF71EFF07BD00007D0D0A003EB583686A
S315000087C0847B1A680FF2EC250021022CA8BF596899
S315000087D00023029300950FF2E4240FF2D0230194B4
S315000087E0FFF706FF37BD80B503F077FF0346124853
S315000087F00FF2E022D0F8B0130FF2C820BDE8005007
S31500008800FDF712B94343410010B50B4AD2F8C01325
S3150000881004460FF2D020FDF707F9A068016848B2B8
S3150000882003F024FF2046BDE81040DCE77B264E001F
S3150000883045440000F467002060D001002064002059
S315000088407069002040420F00E863002081A0FDF718
S31500008850EBB881680968C9B21AE600007B264E208B
S315000088602674737D0D0A00005045522054657374BA
S31500008870204D6F6465000000656E61626C65642D55
S315000088806E657700656E61626C656400646973612C
S31500008890626C65640000000061736C6565700000C1
S315000088A06177616B65000000656E6572677900002F
S315000088B0737461747573000049646C650000000090
S315000088C0527841637469766500000000547841630C
S315000088D07469766500000000496E616374697665A7
S315000088E000000000556E6B6E6F776E002026746870
S315000088F000000000202674730000000052665374C6
S31500008900617465007B264E20526164696F20706F2A
S315000089107765722073746174652026747300000095
S31500008920706F776572207374617465007B264E20C4
S3150000893000000000536C656570696E6720726164A3
S31500008940696F2E2E2E00000057616B696E672072CC
S315000089506164696F2E2E2E00646F6E657D0D0A00B0
S315000089602026747000000000667265710000000029
S31500008970696C6C6567616C0050657252616D52611D
S3150000898064696F436F6E6669670000002026747520
S3150000899000000000667265714D487A00207B6672A1
S315000089A065714B487A3A256C7D000000207B667223
S315000089B06571487A3A256C7D000000007B264E20C2
S315000089C0526164696F206368616E6E656C202674FF
S315000089D0680000006368616E6E656C007B264E2041
S315000089E0526164696F206368616E6E656C202674DF
S315000089F068202826746420696E2026746429000085
S31500008A006368616E00000000706167650000000029
S31500008A105074694368616E007B264E2053657474FA
S31500008A20696E67206368616E6E656C20616E642096
S31500008A3063616C6962726174696E67202861732074
S31500008A406E6565646564292E2E2E00002674687D89
S31500008A500D0A00007B264E202674647D0D0A000058
S31500008A602026746400000000205B3830322E313539
S31500008A702E3420756E6974735D000000205B6442BD
S31500008A806D5D00007B264E20267468205B696E763D
S31500008A90616C6964206368616E6E656C5D7D0D0A4C
S31500008AA00000000052535349000000006D696E52E9
S31500008AB05353490061766752535349006D617852AA
S31500008AC0535349007B264E202674642064426D7DF4
S31500008AD00D0A0000434341205468726573686F6C49
S31500008AE0640000007B264E7D0D0A000080B5002044
S31500008AF003F090FFBDE8014005F07EBC10B5DFF83D
S31500008B001441DFF81431607D18710122E0694FF4D9
S31500008B107A7105F010FE01001CBF0121217510BD00
S31500008B20DFF8F010C861887DDFF8EC104871E5E7E2
S31500008B3070B58EB00C460CA805F0F4FD054605F0A0
S31500008B4029FE064605F0EAFDBDF836100FF24C0286
S31500008B50BDF830300B910A92059303950346BDF894
S31500008B6034100FF240020FF244050FF2480009914B
S31500008B70089201960095BDF832100FF28002079117
S31500008B8006920FF280010FF28402049102922146AE
S31500008B90DFF88820FCF748FF0EB070BD7375737060
S31500008BA00000000063726974000000006163636581
S31500008BB06C0000007B264E202674752026743268D1
S31500008BC0202674642F31303025250D0A2020267486
S31500008BD0642F3130302525202674642F313030251E
S31500008BE025202674642F3130302525202674642FE5
S31500008BF031303025257D0D0A000000006C696D6955
S31500008C000000000074616C6B000000007573656401
S31500008C10000000003C6400206C6D0020288C0000E1
S31500008C2038786946FDF782B96D6F6465000000000B
S31500008C302DE9F04706468846924605F09CFDDFF88A
S31500008C40E074F8700409387818BF641E28B1386BD0
S31500008C5007EB8000416A491C41628C2EBE700FF200
S31500008C604419DFF8645543D003F0E1FA66B1402EAB
S31500008C7022D0882E18BF892E4DD08C2E38D08D2E1E
S31500008C8034D08F2E0CD03BE03869396A401C3861ED
S31500008C9064183C62287D00283DD040F23A5137E006
S31500008CA0B869396A401CB86164183C62287D00289E
S31500008CB031D040F23F512BE0F869396A401CF86127
S31500008CC0641838783C6260B105F068FD032806D167
S31500008CD0786B401C7863386B80F00100386305F0D0
S31500008CE05FFD287DB8B140F24B5111E005F040FD23
S31500008CF07869401C7861287D68B140F2525107E0DE
S31500008D004FEA06022DA10120FDF737F940F2635123
S31500008D104846FDF75DF9402E87F801A0C7F83C806C
S31500008D2019D13879012811DD411E38893971401C65
S31500008D303881C9B22A2005F03FFDE86900224FF4C8
S31500008D407A7105F0F8FC064628B929E000212A20A8
S31500008D5005F032FD03E0002E18BF8F2E1ED0787965
S31500008D6001281BDD401E79897871491C7981DFF85D
S31500008D706405017801290ADDE969DFF85C058142AD
S31500008D8005D10278082A02DDC178491CC170688BBA
S31500008D9002F087FBBDE8F047FFF7B0BE012028755B
S31500008DA0BDE8F0877068792D636F6D6D6F6E2D74F9
S31500008DB0782D746573742E6300000000656D62651E
S31500008DC072526164696F5472616E736D6974436F38
S31500008DD06D706C65746549737243616C6C62616336
S31500008DE06B207374617475733A20307825780000AF
S31500008DF080B502F039FF00F017F8D0F8A01407E0AC
S31500008E0080B502F044FF00F00FF8D0F8C01400BFA0
S31500008E1002A0BDE80050FCF707BE00007B264E20EE
S31500008E2026746464426D7D004FEA0003DFF8B004E7
S31500008E3000A2704761637475616C506F776572004C
S31500008E403EB50446A1680D6868B202F01CFF0190A9
S31500008E506BB200F02DF8D0F8B0140FF24400FCF716
S31500008E60E3FD22A0FCF7E0FD2046BDE83E40BFE75B
S31500008E703EB50446A1680D6828B202F00DFFCDF894
S31500008E8004002BB200F014F8D0F8D01404A0FCF7BC
S31500008E90CBFD16A0FCF7C8FD2046BDE83E40AFE777
S31500008EA07B264E2026746464426D202674647D0001
S31500008EB00FF26041DFF828040FF26042009170471C
S31500008EC0E0B5DFF820140FF290420B8B009201936D
S31500008ED000F111010FF268420FF2504038E181684B
S31500008EE0DFF800340A681A83EAE700000D0A00007A
S31500008EF02DE9F14F84B081680A880192511E89419B
S31500008F00C90F02914FF0010A03F083F900B1012065
S31500008F108DF801004FF0000B814DDFF8AC626869F7
S31500008F207B4FADF80200D8460198012811D000F019
S31500008F3006F93878029921B10FF23C41FCF7AAF8FC
S31500008F4003E0019A77A1FCF7A5F800F0F2F800F02B
S31500008F50EBF8DFF88443DFF89093802249462046F9
S31500008F60FCF782FDDFF86C0301780129C4BF207885
S31500008F70082819DD99F8011001F0200141F0C1011E
S31500008F806170D0461821A1702118029818B101F815
S31500008F9005BC002004E0019801F8050C01980012B8
S31500008FA02178611801F8040CD94663E000208DF899
S31500008FB0000069463878FCF7B9FF00F0C5F85FD0C5
S31500008FC09DF800103878642906D100F0A3F80498BB
S31500008FD000F11101002007E0442907D100F09AF8BA
S31500008FE0049800F111010120FFF7A2FD09F101002B
S31500008FF0DFF8F8121FFA80F9087820B102F044FC75
S3150000900008B105F0DFFB308B02F04BFADFF8C41233
S315000090100878A0B1B8F1000F18BF84F803A0207833
S3150000902003280CDD201800F803AC4FEA2A2021782B
S31500009030611801F8020C0AF101001FFA80FA0020FB
S3150000904030750121A9702046FFF76AFD8346B8B93D
S3150000905002F098FA8346307D50B9FFF747FD02F0DB
S3150000906091FAA0EB0B0080B240F2D1718842F2D3A4
S3150000907095F802B00298002898D10198814595DBB1
S3150000908038780FF218314A46FCF704F8707B40B185
S31500009090AA8ABDF802000FF22031121A3878FBF7BF
S315000090A0F9FF38780FF234315A46FBF7F3FFDFF851
S315000090B040020FF2443102883878FBF7EBFF38782C
S315000090C00FF25431FBF7E6FF69783878002914BFB0
S315000090D00FF260310FF26431FBF7DCFF03F0B4FAF4
S315000090E028B1AA6B38780FF25C31FBF7D3FFEA6B35
S315000090F038780FF27C31FBF7CDFF642002F0D1F90E
S315000091009DF8010008B102F0AFFF05B0BDE8F08F91
S31500009110E86300204A460FF28421FBF7BBBF00003C
S315000091206C6D00202575000038780FF2DC11FBF716
S31500009130B1BF328B38780FF24C21FBF7ABBF3878D2
S315000091400FF22C21FBF7A6BF9DF80000652870479B
S31500009150FCF76AFC07BD38B500F038F800F02CF8CB
S3150000916018BF0124FBF796FF03F051F803F000FA4D
S3150000917002E02878FFF755FDFFF7E6FFF9D103F087
S3150000918008FA15E038B500F021F800F015F818BF18
S315000091900124FBF77FFF03F03AF803F009FA02E037
S315000091A02878FFF73EFDFFF7CFFFF9D103F018FA55
S315000091B00CB102F059FF31BDDFF838510FF24811FA
S315000091C004002878704700003C64002000208DF8D9
S315000091D0000003F01EB82DE9F041DFF818410FF248
S315000091E0C02120780FF2C8250FF2BC28DFF8F870EE
S315000091F0FBF750FF002615E0BA5D20784146FBF7E5
S3150000920049FF711006EB91729210B6EB820007D1FE
S3150000921039788E4204DA207832462946FBF73AFF3F
S31500009220761CF6B23878401C8642E5DBBDE8F08154
S315000092308068DFF8B4200168117070472DE9F843A3
S3150000924004460027A068DFF8AC5006680FF26C28C9
S31500009250DFF89490761CF6B2802E06DAA06800EB52
S315000092608701486809F8060005E028787B1C721E0D
S315000092704146FBF70FFF7F1C042FEBDBBDE8F183B4
S3150000928019481421017001214A1E4254491C8029A3
S31500009290FAD3704710B51148174B184C184A0021DD
S315000092A0016141618161C1610162196021600181D1
S315000092B04181116010BD80680A4A0078010018BF1C
S315000092C00121517302280F490CBF012000200870AC
S315000092D070470000F46700206C7B00206C6D002056
S315000092E060D001003C640020EC7A0020F567002085
S315000092F0F47B0020E863002094770020907700201C
S31500009300347800205D6900202765276E642E2E2E96
S3150000931000000000737461747573000072657175E6
S315000093206573746564506F77657200007B264E2006
S315000093302674647573202674327875737D00000078
S315000093407472616E736D69742064656C617920282E
S3150000935064656329000000007472616E736D697440
S315000093602064656C61792028686578290000000012
S315000093705478696E67200000696E66696E69746567
S3150000938000000000207061636B65747320257520F2
S3150000939075732061706172742E2000000D0A2575A8
S315000093A0207061636B657473207472616E736D698E
S315000093B0747465642E0D0A002575206661696C65F6
S315000093C0642064756520746F206368616E6E656CD9
S315000093D020627573792E0D0A000000004C617374CB
S315000093E0207061636B6574207374617475733A20C1
S315000093F030782532780D0A004C61737420706163F1
S315000094006B6574206261636B6F66663A20307825FF
S3150000941032780D0A000000004672616D65207065A5
S315000094206E64696E6720696E206C617374204143B7
S315000094304B3A20005965732E0D0A00004E6F2E0D13
S315000094400A0000005346442074696D652028766939
S3150000945061205346442073656E742063616C6C62B0
S3150000946061636B293A2030782532780D0A000000B6
S315000094705346442074696D652028766961205458E6
S3150000948020636F6D706C6574652063616C6C6261DE
S31500009490636B293A2030782532780D0A00000000E7
S315000094A0206C656E3A200000307825782000000098
S315000094B00D0A307825783A20000000007061796C3A
S315000094C06F6164206279746520696E6465783A20FC
S315000094D02564206973206F7574206F662072616E33
S315000094E067652E20617267756D656E742025642030
S315000094F069676E6F7265642E0D0A0000130018BF4F
S3150000950001231A46FFF794BB4901020003D4DFF892
S31500009510680481547047DFF8643402F00F021A447D
S3150000952002F8041C704700F0070010B5C0F10703ED
S31500009530042B28BF0323C41C072C34BF0020001FA4
S31500009540012404FA03F35B1E1940814004FA00F07B
S31500009550401E1040084310BD890001EB401101F187
