S00E00006E63702D7370692E7333372C
S31508004000186D0020F981020881800208858002085F
S31508004010A70A0A0100410008040B03AC10666100F8
S315080040200000000000000000000000000000000082
S315080040300000000000000000000000000000000072
S315080040400000000000000000FFFFFFFFFFFFFFFF6A
S31508004050FFFFFFFF007003080000000000000000DB
S31508004060FFFFFFFFFFFFFFFFFF000000000000004B
S315080040700000000000000000000000000000000032
S31508004080F07F002000000000F07F0020F07F002075
S31508004090186D00200C8C0208AC840208B863002056
S311080040A0702E002000000408008000209C
S31508004100186D0020F9810208ED830208F183020880
S31508004110F5830208F9830208FD83020800000000FF
S3150800412000000000000000000000000009840208EA
S315080041300D8402080000000019840208679300082D
S31508004140258402083184020835840208418402085D
S3150800415045840208518402085584020861840208CD
S3150800416065840208698402086D840208718402085D
S315080041707D840208818402088584020889840208ED
S315080041808D84020899840208A5840208A984020875
S315080041902DE9F84F8046DFF87C902222FF21484619
S315080041A000F08FF8DFF870B04FF4A372FF2158467D
S315080041B000F087F819481A4F1A4C00904FF0220A57
S315080041C00026A25D1849BD5D885D521C02EBD272BD
S315080041D0521000B11932154830F816100098D21C42
S315080041E06A4300F0A6F8012D1CBF2BF816A0AA44B6
S315080041F0761C222EE5DB22234FF4805240F2CC5166
S315080042000B4800F096F849464046BDE8F44F00F0E2
S315080042103FBC00BF28760020E0740020AC8402086A
S315080042200C860208E8850208C4850208808502080B
S31508004230C884020870B5814224D210441144401E35
S31508004240491E10E011F8013900F80139121F11F85A
S31508004250014900F8014911F8015900F8015911F806
S31508004260016900F8016993B2042BEBDA93B2002BCB
S315080042701EBF11F8013900F80139521EF6D170BD7A
S3150800428000F00DF893B2042BFADA93B2002B1EBF96
S3150800429011F8013B00F8013B521EF6D170BD11F82A
S315080042A0013B00F8013B121F11F8014B00F8014BC6
S315080042B011F8015B00F8015B11F8016B00F8016B5E
S315080042C07047130003D00A46194601F077BA7047BB
S315080042D010B5034600E0521E90B218B100F003F87C
S315080042E0F9D0001B10BD13F8010B11F8014BA042C1
S315080042F0704730B4002513E050F8042BD30744BFA9
S31508004300A9F101039A18091F042942F8045BFAD295
S3150800431013468C0744BF15809B1CC90748BF1D70F0
S3150800432050F8041B0029E7D130BC70472F490870A4
S3150800433070470EB430B52D490446087820B301F00D
S31508004340C2FA08B301F0F7FB012001F00EFCFF28C2
S31508004350054619D001F0FEFB022101F0C4FA014618
S31508004360284601F0FDFB03AB22462946204801F00A
S31508004370E8FF30B1284601F030FB10B1042000F008
S315080043800BF8284601F05BFC30BC5DF810FB0C22EC
S3150800439000211848FFF795BF164931F81020521C1E
S315080043A021F8102070470CB480B502AA02F025F94E
S315080043B001BC5DF80CFB0D4A1178A1B9010018BFC4
S315080043C0012810D0042818BF05280CD0312818BF9A
S315080043D0332808D037281EBF3B284FF6FF7188427E
S315080043E001D001207047002070470000B17F0020EF
S315080043F05B5E000848780020302818BF322806D0AF
S3150800440034281CBF3628382801D0002070470120E0
S315080044107047F0B40246106895681318506803EBA5
S315080044205004C0071DD54D441BE013F8017B05F861
S31508004430017B491EF9D1A0B1B60813F8011B06F095
S315080044400306032E08BF13F8016B01EB0621494248
S31508004450801C294405D011F8016B05F8016B401E34
S31508004460F9D1A3420ED013F8016B16F0030104BF6D
S3150800447013F8011BC91C30090F28DAD113F8010BF0
S315080044800F30D6E7F0BC02F10C00704730B5DFF804
S31508004490445ADFF8444A2B882468C01A04EB4004BF
S315080044A0002004E034F8103021F81030401C904207
S315080044B0F8DB002030BDDFF81C3ADFF81C1A1A8832
S315080044C00968801A01EB4001022002F0B9B9F8B573
S315080044D004460F461646DFF8005AF0B208B34FF600
S315080044E0FF70ADF80000002017F8011BC3B2401C8E
S315080044F00DF80310761EC1B2022902DAF1B20029BC
S31508004500F2D1DFF8D0E92868BEF800301FFA84FC3B
S31508004510ACEB030300F014FF641C0100DDD000F0CF
S31508004520E6BB0120F2BDF8B504460D461646F0B2C4
S3150800453088B1012200F010F8641C0020C2B2401CA9
S315080045401DF80230761EC7B2022F05F8013BEEDAD7
S31508004550F1B20029F2D1F1BD6946A0B296E701464B
S31508004560DFF87809DFF87829405C525CDFF8B43B5D
S31508004570595C09B102F5997240EAC21080B27047D7
S3150800458010B5DFF85839DFF8A02B1C5C012C02D1D6
S3150800459002EB400010BD32F81000091802EB41008A
S315080045A010BD70B590B005460C464FF6FF7604E090
S315080045B0A8B2FFF780FF203D2035A9B28C420FD361
S315080045C020226946A8B2FFF761FF002082B23DF8B3
S315080045D01230B342ECD1401C81B22029F6DBEBE75E
S315080045E010B070BD38B5044661882088FFF7D9FF3A
S315080045F00121DFF8383BA171DFF8901C2288187872
S315080046000D88821802EB4502921DA28031BD10B5B5
S31508004610DFF81C4B2046FFF7E5FF04F10800FFF71B
S31508004620E1FF04F11000FFF7DDFFDFF8640C04F189
S315080046300801446004F110028160C26010BD2DE9D2
S31508004640F0430446DFF8E40A0778B946B9F1060FDD
S3150800465085B003DD4FF4377100F001FB0021A1712D
S315080046607A1C208892B201A9FFF710FFBDF8041042
S315080046704FF6FF76B14218BF002910D00DF1040895
S31508004680711A38F81900884209D101254D454DDAC5
S3150800469038F8150048B1BDF80410884215D02046F0
S315080046A0FFF7A0FF05B0BDE8F083DFF8881C0A888D
S315080046B0208805FB02214118711805FB020089B202
S315080046C080B2FFF76EFF0220A0716D1CDEE720881E
S315080046D03818C01C00F02EF8BDF80200000B48453B
S315080046E0DDD120883818401D00F024F8BDF80210E6
S315080046F0BDF80200711A000A01F0FF018842CED106
S315080047000320A071012220883F187F1C6946B8B291
S31508004710FFF7BCFEBDF80000FF2802D10421A171F5
S31508004720C0E7B042BED00028B9D1BBE7A0790228BD
S31508004730CDD1B7E701220DF1020180B2A6E6F8B5A0
S31508004740DFF8EC69DFF8485B002006F1080106F19E
S315080047501002B071B073B075A960EA606E60304639
S31508004760FFF76DFF06F10800FFF769FF06F1100075
S31508004770FFF765FFB179B07BDFF85C47042908D1FC
S3150800478000220428ADF800204CD1FFF740FF012095
S31508004790F2BDB17D04282ED100200429ADF8000011
S315080047A0F3D03046FFF71EFF06F11000FFF71AFF99
S315080047B02068DFF87839378900F081F8040047D196
S315080047C00320B073B079032851D1B07B032802D1F6
S315080047D0B07D01286AD0B079012851D1B07B032871
S315080047E05BD1B07D012818BF0328CED106F1080099
S315080047F006F110015EE0042932D10020ADF8000070
S315080048003046FFF7EFFE06F10800FFF7EBFE2068DB
S31508004810DFF81839378A00F052F8040018D1032057
S31508004820B0751DE0B07D0428AFD006F10800FFF78B
S31508004830D9FE06F11000FFF7D5FE2068DFF8EC3840
S31508004840378800F03CF8040002D10320B0710AE072
S31508004850204602F07DF81CB14FF4747100F0FFF9A0
S31508004860B0790328AED1B07B0128AED1B0E70228D3
S31508004870B1D1B07B032804BFB07D012885D1B5E747
S31508004880032804BFB07B0128F8D1B07D03280BD1DB
S3150800489006F11000314608360CE0022812BF01283E
S315080048A0B07D0328EAD1F3E70228E7D1304606F1BE
S315080048B0080110366860EE60A9600020F2BD1C7819
S315080048C0E719DFF8104623887F1CFF1A012269467C
S315080048D000EB470001F0EEBF2DE9FE4F0646DFF874
S315080048E04C08DFF8548ADFF8549A0F460178ADF879
S315080048F00810012234880C19641DFFF72DFEDFF815
S315080049008C19BDF80000B1F800A0641C000AADF8C7
S31508004910000050451CBF0121397000251AE0401CD3
S31508004920C1B2514514D25FFA80FB39F81B10BDF8A5
S3150800493006209142F3D1C0B2FFF711FEBDF804304C
S315080049404FF6807210401340984208BF08F80B5083
S315080049506D1CADB2BDF80000854206DA022201A937
S31508004960FFF7FBFDA41C0020DAE70020D14601E092
S31508004970401C80B2484517DA18F800108142F7D073
S315080049800120387010E021F815A00DE00128DFF8A5
S315080049909817F8D0BBF17F0F31F8150008BF4FF014
S315080049A0000B834421F81BA0A1B27088C01E884260
S315080049B04FF6FF7A28DB00F066F8BDF80200FF25FF
S315080049C0504521D0601C00F0B9FDBDF80200BDF8C5
S315080049D00610AAEB0002914213D104F1030A040A55
S315080049E000F07F0BBDF8000084420ADA002000E0E0
S315080049F0401C484518DA18F80010A142F8D1C5B28B
S31508004A0012E0012038700DE0B4807088A1B28842A7
S31508004A1008D300F038F8BDF80200641C5045F4D0FD
S31508004A2001213970BDE8F78F3088BDF808301818AD
S31508004A3000EB4400801D012201A980B2FFF726FD84
S31508004A40BDF80400C0F3C710401C00EBD0700AEB99
S31508004A5060047088A1B28842D3D3FF2DA4D0DFF8B2
S31508004A607C04405DBBF17F0F14BF5946002181428B
S31508004A7086DABDF80210DFF8AC26535D0906C90FC1
S31508004A80994283D07CE701220DF10201A0B2FDE430
S31508004A90F8B58DF80000DFF8281BDFF83804DFF8D2
S31508004AA0EC470288DFF8880602800B884380DFF827
S31508004AB07C361D782188DFF89C3BDFF89C4BAA18CA
S31508004AC002EB4102921D8280002282711A880281BD
S31508004AD0AA1802EB41022388DFF8804B4381921D16
S31508004AE0828100228273DFF8783B1A880282AA182C
S31508004AF002EB4101891D2388DFF8944781824382AE
S31508004B000021817501F078FF002851D12070FFF748
S31508004B1016FE9DF80010084318BF01208DF8000006
S31508004B20012260680388ED18AD1CA11CA8B2FFF726
S31508004B30ADFC9DF8000000283DD16068DFF8E86507
S31508004B406946FFF7C9FEDFF8940B0588A0688179E6
S31508004B50032922D16946FFF7BFFE6168DFF87C2387
S31508004B60002010E0DFF824371F88B84202DA135C09
S31508004B70012B07D136F810300F88BB4224BF4F8867
S31508004B809F420AD2401CA842ECDB02208871A16829
S31508004B906068E2686160A260E06000204FF6FF721C
S31508004BA000E0401CA84206DA36F810109142F8D107
S31508004BB001208DF80000607828B1012100208DF8C9
S31508004BC00010607002E09DF80000B8B14D2001F0B9
S31508004BD0BFFE6088401C6080E068FFF703FD9DF813
S31508004BE0000000F051F838B100F085F820B19DF8C2
S31508004BF0000000F09FFA08B90120F2BD0020F2BDBE
S31508004C00F8B50D46DFF8841617467F2F0A8808BFC1
S31508004C1000271E4695423EBFB04B595D8F4204465B
S31508004C2004D2AF4A535D9E4200D11CB940F264617A
S31508004C3000F015F839462846FFF7A2FCDFF8281BCE
S31508004C400388485D28B11946284600F09FFC206075
S31508004C50F1BD324621461846BDE8F84063E40FF632
S31508004C60443001F0D1BE38B5044608461146FFF770
S31508004C7087FC984D0388DFF8F41A28880A681B1AF7
S31508004C8002EB4302226031BDF8B5DFF80416924DF7
S31508004C90DFF8A866002814BFC8688868DFF88C148F
S31508004CA0048808780419A41DA4B2002701E0A41CEE
S31508004CB07F1CDFF8D80501888F4216DAF8B2FFF7AD
S31508004CC04EFCADF80000A3B236F81700DFF8A0CA0C
S31508004CD0BCF800E0ADF80200A3EB0E032868022238
S31508004CE000F02FFB0100E2D001E00120F2BD01F047
S31508004CF02FFE0020F2BD2DE9F84FDFF89005DFF80A
S31508004D0090250188744C84B00025ADF80810D16848
S31508004D10DFF818240E881078BDF80810861906EBF7
S31508004D204106B61DB6B200E06D1CBDF80800854206
S31508004D3080F2C4804FF0000A78E0BDF802105FFAEE
S31508004D408AF00143ADF802104FF6FF72BDF8020073
S31508004D5060490F88BDF80010121AADF804204FF606
S31508004D60FF732068F21B761C994200EB4200B6B22C
S31508004D701DD100F0BEF801002BD12068F71B0122D7
S31508004D8001A900EB470001F095FD010021D1B61CF1
S31508004D90B6B25348DFF8DC19A8F80060425D51F84E
S31508004DA025103046FFF793FB002838D18FE04C4991
S31508004DB0495D491C01EBD1714FEAC15900F099F8D8
S31508004DC0010006D12068F31B012201A900F0BAFAF6
S31508004DD0010079D1B61CB6B2D249A8F80060485D80
S31508004DE0002845D0DFF8A82410780021039128B1BF
S31508004DF003AA6946A8B201F003FE05E0BDF8001053
S31508004E00E8B200F0C3FB0390F71B20684FEA19626B
S31508004E1003A900EB470001F04DFD010054D1DFF86E
S31508004E205819485D8619B6B20AF1010A2B494F5D31
S31508004E305FFA8AF0B842BFF477AF5FFA8AF1E8B250
S31508004E40FFF79EFB8046B749B8F80000ADF80000AA
S31508004E50485DC00140EA0520012FADF802007FF445
S31508004E606CAFBDF8020040F07F00ADF802006BE7BA
S31508004E704FF000085FFA88FBBBEB196FCFDADFF853
S31508004E80101408780028BDF8000004D100F02AF8AC
S31508004E90FFF7FCFA03E000F025F801F0AFFD206803
S31508004EA0B344ABEB070301220DF1060100F04AFA01
S31508004EB0010008BF08F10108DCD005E0DFF8D003DF
S31508004EC0C1688E80012002E001F042FD00202AE33D
S31508004ED000000000D6890208186D00200C8602081A
S31508004EE0E8850208411CADF8001001220DF1060103
S31508004EF0704701220DF1020101F0DCBC2DE9F34FE8
S31508004F0085B000218DF803104FF00C09BDF8181074
S31508004F10DFF86858DFF86038DFF864685B5C298872
S31508004F2035684C0891FBF9F90393A1444D4528BF10
S31508004F30DB1808D2182691FBF6F1641AA54203D3AA
S31508004F4003EB53039BB203930025D14CADF806003F
S31508004F508DF8042000E06D1CCC4801888D4280F253
S31508004F60CD80002686E0012202A91FFA88F0FFF705
S31508004F708DFAA368DFF8F8E79B88049800689B44D5
S31508004F80BEF80030ABEB0303012202A900F0DAF900
S31508004F90010008F1010858D10AF1010A5FFA8AFBF3
S31508004FA0BBEB176FDFDB38E05A5DBDF806308DF8CE
S31508004FB00220D318ADF8063001235A4A8DF803307B
S31508004FC0505DC30143EA0523BAF1010FADF800307D
S31508004FD040F08A80BDF8002042F07F02ADF800203C
S31508004FE08A88D21C8A800028DFF88017049100F08E
S31508004FF082804146E8B200F0C9FAA368DFF870E794
S3150800500002903A0E04989F88BEF800300068FB1A92
S3150800501002A900F097F9010017D1BDF80000A368AE
S31508005020DFF848774FF6FF71091AADF80810012224
S31508005030DFF83C179B88B1F8008038689B1EA3EB05
S31508005040080302A900F07EF9010065D1A3689B88D0
S315080050503868DB1EA3EB080300F072F901005BD188
S31508005060A1688888A9F800008A889DF80200821835
S315080050708A80761CF1B2DFF80C0710F805A05145B6
S31508005080BFF469AFE8B2FFF77BFA8146DFF8F806A6
S31508005090475DBDF81800B9F800807F1C07EBD77785
S315080050A0FF05854202BF9DF80410F0B28842E0D0A1
S315080050B060680188884524BF40884045D9D3BDF833
S315080050C006100398814225DADFF8AC36A16813F892
S315080050D005C088884A886044C01C8242BFF664AF0F
S315080050E001216170452017E0BDF80030F2B2134384
S315080050F0ADF8003074E74FF0000A4FE79DF803005B
S3150800510040B96068022181716068A168E2686160DF
S31508005110A260E060012002E001F01AFC002007B05E
S31508005120BDE8F08FC4850208E0740020358A0208BD
S31508005130346E00202DE9FE4F5FEA0009544DDFF872
S315080051404C26DFF8287692F800A014BFE868A8680D
S31508005150012201884D4800880291C0F1FF0101F043
S31508005160FF0141EA0021ADF80210029CDFF80016A3
S3150800517038680E885444631D9B1B0DF1020100F02C
S31508005180E1F801005AD140F6227040EA0A30ADF83B
S315080051900200E31C38689B1B01220DF1020100F096
S315080051A0D1F801004AD13868A31C9B1B0122A91C0F
S315080051B000EB430001F07EFB01003FD1601CA0EB31
S315080051C006085FEA09004FF6FE7B07D0FF21ADF817
S315080051D0021000F05FF8010030D109E06868008825
S315080051E001226946FFF752F9BDF80000012802D1ED
S315080051F0ADF800B002E0411EADF800104FF6FF72A0
S31508005200BDF80000121AADF80420A41B3868012264
S3150800521001A900EB440001F04DFB01000ED1029CF0
S315080052205046A0F1010A80B290B11FFA8AF3386895
S315080052301B199B1B00F084F80100F1D001F088FBD4
S315080052400020BDE8FE8FA968032088710120F8E7D1
S31508005250B9F1000FF7D0E968032088716868FFF78D
S31508005260C1F9A868FFF7BEF9EA686868A968AA607C
S31508005270A8606960E8606A600020ADF80200E9602D
S3150800528000F008F80100D9D1E0E70000F889020823
S3150800529054780020012238680DF1020100EB48001D
S315080052A001F008BBFEB50446DFF8CC04455CA088CF
S315080052B066882F18FF1CBE42134605DADFF8D0248D
S315080052C001215170452030E0C01CDFF8BC24A080C5
S315080052D080B2525C1946FFF7FAF848B3DFF8900433
S315080052E0DFF888740688A3883868DB1E9B1B0122B2
S315080052F002A900F027F8010017D1BDF808004FF6FB
S31508005300FF71091AADF800100122A38838689B1EA0
S315080053109E1B00F0E5F9010007D10898A1880180D5
S31508005320A0882D18A5800120FEBD01F011FB0020E4
S31508005330FEBD0000D2890208287600208085020872
S315080053400122694600EB430001F0B4BA2DE9F84F93
S3150800535084B00546894690461C4601F05FFCDFF896
S31508005360342413888DF804500127ADF80830B8F1B5
S315080053707F0F9DF80410BDF80800039508BF4FF08D
S3150800538000088DF8054081423FBFDFF8F813039AFD
S315080053908B5C984507D2DFF8F0138B5C9C4202D1F0
S315080053A0B9F1000F03D140F6D901FFF758FC9DF873
S315080053B004004146FFF7E4F801250646DFF8D8035E
S315080053C08179B6F800A002291FBF817B0229807D5A
S315080053D0022802D1432001F0BBFA039ADFF88813AA
S315080053E0885C002833D09DF80400514600F0CEF8BA
S315080053F0D9F80010814257D0AAF1030000F09EF8B0
S31508005400DFF88C53DDF80CC06C68DFF86C33628803
S3150800541013F80C10A088D21E521A824207DB30B14C
S31508005420A86801888A45A4BF4088504572DBE868A9
S315080054308179AC68022938D1442001F089FAE868F4
S315080054408179012931D0452001F082FA53E09DF88F
S3150800545005404FF0000B21E00BEBDB700AEB600018
S3150800546000F044F909EB0B0019F80B10407801EB32
S315080054700020611E8B4507D1BDF8001001F0FF0121
S3150800548000F0FF00ADF8001080B2BDF800108842A9
S315080054900BF1020018BF00255FFA80FBA345DBDB92
S315080054A0002D8DF80540A7D03DE0A868817901292F
S315080054B015D10020FFF7E8FB002834D00020FFF7BD
S315080054C039FE00282FD0B148BDF8083000789DF87D
S315080054D0041000EB4300C01D424680B205E00329D4
S315080054E00FD19DF8041042460020FFF707FD10B1C2
S315080054F000F01CF8B8B93846471EC0B2002810D1CB
S3150800550011E002290CBF40F6C81140F6CA11FFF790
S31508005510A6FB08E000F00AF828B93846471EC0B2CC
S3150800552000287FF444AF05B0BDE8F08F0096BDF8BB
S3150800553006309DF804104A462046B3E601220DF1CE
S31508005540060180B2FEF7A2BF7CB5054600261924DF
S3150800555001226946A8B2FEF799FFBDF800006D1C46
S3150800556030B14FF47F41401A07D0FF3803D006E028
S31508005570B61C641EECD170B276BD761CFBE7BDF88E
S315080055800000C0B200B9761CF643F4E738B50C46FD
S3150800559000217D4B009169461D5C2A4620466D1CFC
S315080055A0FEF7C1FF05EBD57504EB6504A0B2FFF75E
S315080055B0CBFF002848BFC043009940B2401832BD0F
S315080055C0DA890208F8B5734A1388044673482546EB
S315080055D030F815609C4202D26349485D18B940F616
S315080055E08321FFF73CFB68494D5D681C00EBD070D2
S315080055F006EB6007B8B2FFF7A7FF32281BD2BFB287
S31508005600DFF86CE1DFF864C107EB6007C20747BF44
S315080056100023ADF800304FF47F42ADF80020BEF805
S315080056200000DCF800303F1A0122694603EB470008
S3150800563001F040F960B131462046FFF7A7FF009018
S315080056402B46401C00907F2269462046FFF77EFEC7
S31508005650F1BD0000F0890208F2890208F6890208FD
S31508005660F4890208F8B505464848067834462146BE
S315080056704C1EC9B22888022921DBE3B200F035F8AE
S31508005680BDF800000028F2D0454829880288384F1E
S31508005690E6B206FB021188B2FEF70DFF0020ADF850
S315080056A00000012231482D883B8800687619F61AD1
S315080056B000F016F801000ED001F04AF90BE0FEF7EB
S315080056C0FAFE0120A871334A29881088761806EB55
S315080056D04006B61DAE80E0B2F2BD0000FA890208A7
S315080056E0694600EB460001F0E5B81818012269463C
S315080056F080B2FEF7CBBE28488179022908D0817B83
S31508005700022908BF083003D0817D022901D1103053
S31508005710A8E7002070477CB504461C480678002593
S315080057200BE02088F3B2FFF7E0FFBDF80000002881
S315080057301EBF4FF6FF7188426D1C3046461EC0B22A
S315080057400028EED1E8B276BD13488179022908D03F
S31508005750817B022908BF083003D0817D022901D147
S315080057601030D8E700207047C4850208186D00205D
S31508005770D689020874880208FC840208CE890208C1
S31508005780F88402080C860208E8850208358A0208A9
S3150800579054780020F8890208346E0020E07400204E
S315080057A0D289020873696D2D656570726F6D322D29
S315080057B0696E7465726E616C2E63000062F30F2267
S315080057C062F31F42401810F0030308D0C91A1FD30A
S315080057D0DB0748BF00F8012D28BF20F8022D13006B
S315080057E030B414461546103928BF20E93C00FAD8CB
S315080057F0490728BF20E90C0048BF40F8042D890056
S3150800580028BF20F8022D48BF00F8012D30BC70478C
S31508005810C91818BF00F8012DCB0728BF00F8012DBD
S315080058207047000080B5A64800214160417081702C
S31508005830A52202700120FEF779FDFEF7A8FD00F00B
S315080058401EF8002002BD9F480168CA0700D47047A9
S3150800585080B59D490B6823F440630B6001684908CD
S315080058604900016002681102FCD4984A106810B118
S31508005870642001F0A4FA96480021016001BD10B524
S315080058809448954A0168954C41F080710160012061
S3150800589010600020924901F0CDFA9248924B0221FD
S315080058A001600022914892491A6001600122914BD9
S315080058B084491A600C6040F2014202654FF4803058
S315080058C08D49086010BD8249086800281EBF7F49B7
S315080058D00868002805D07F490868000E00F0010016
S315080058E0704700207047D12202704170090A817002
S315080058F082490A78C2700420521C0A7070472DE942
S31508005900F84F82467E48016811F80A6001F0F5FAF8
S31508005910761DF6B2002400904FF6FF7B4EE0811EFE
S31508005920C9B2504600F02BFB0546594601F0CEFB9E
S31508005930834630E0B74246DA01F0DFFA0099401AAA
S3150800594080B240F2F51290423DD24FF06048D8F846
S315080059500010012932D10027B9462046C1B211B933
S315080059605B2501201CE0012905D16548016811F86D
S315080059700A50022014E0441CF21E914208BF5D46FC
S3150800598009D0B31E994208BF4FEA1B2503D0721EE1
S31508005990914202D15D25204602E0B142BFD10025E1
S315080059A0EDB24FEAC9018D4009F101092F435FFAAB
S315080059B089F2042AD2D30446C8F80070FFF783FF99
S315080059C00028E7B2B6D14FF4C87001F0F8F9B7422B
S315080059D00CBF00200120BDE8F28F10B548490A68BF
S315080059E0145C042C01D2012010BDBDE8104086E7E6
S315080059F02DE9F047324D6C78002C44D001F07DFA41
S31508005A0080462146002000F09DF90646FF28B1464B
S31508005A1002D10020687036E0202CB4BF2746202724
S31508005A2000F098F86860AF70DFF8D8A0687860B3BF
S31508005A3001F063FAA0EB080080B240F2F511884243
S31508005A4023D2A8780028F1D1E41BE4B2002C6C70AC
S31508005A50ECD0DAF8000010F80990202CACBF20270B
S31508005A602746484600F076F86860AF70DEE73046AD
S31508005A7000F0B8FD02E000206870A8703046BDE866
S31508005A80F04700F0DCB8BDE8F087002C01BF687865
S31508005A900028A8780028EED119490868805D841E78
S31508005AA0E1B2304600F023FB1228E0D1E1B23046DD
S31508005AB000F021FA3146122000F046FEDEE700002B
S31508005AC0F07F0020800E00E0001000E03400004067
S31508005AD0100004E0FCED00E0040004E00D00010005
S31508005AE020A10700F00004E0040304E0B00F00E082
S31508005AF055CEACC5000E00E000E100E0A27F002014
S31508005B00246D00202C6D00207047000080B500F041
S31508005B1013F8212002BD0CB438B504460D4601F031
S31508005B20E7FA04AB2A462146084800F00AFC32BCCC
S31508005B3000205DF80CFB7047042805DA0449085C68
S31508005B40401E8041C00F704701207047F37000085F
S31508005B5020850208DFF840170A6802EB40107047F4
S31508005B60DFF838271368195470472DE9F0415FEAC2
S31508005B70000831D001F0C2FADFF82427DFF824172D
S31508005B801678DFF82457FF23FE2E19D10027DFF8F1
S31508005B901C67DFF81CC7177034782C7007E07C1C6C
S31508005BA00EF80740DCF800E00EF80730E7B2347864
S31508005BB0D1F800E0A742F2DB0EEB040606F8013C3A
S31508005BC02E7846450AD201F09FFA0520FEF7E4FB37
S31508005BD000211B2001F0B9FBFF2020E0A6EB0806F8
S31508005BE02E701578DFF8CC661778D6F800E0012411
S31508005BF00EF80740A8F10108D1F800C01CF80740C4
S31508005C0014705FFA88F4002CEED1DFF890260CF8B1
S31508005C10073000211368595501F076FA2846BDE881
S31508005C20F08110B5044601F069FADFF888160968AC
S31508005C300A5D521C0A55BDE8104001F065BAF8B570
S31508005C40044600F031F8054601F058FADFF85036F8
S31508005C50DFF85476DFF84CC6DFF858E601E02C4644
S31508005C60FF25FF2C1CD022460FE0DCF80010895CCB
S31508005C700026A6543C78641C3C70FF29DCF80060BA
S31508005C801C78B4541A70EAD00A46DEF800108C5C08
S31508005C90661E8E54DEF80040A15C11F07F0FE4D03A
S31508005CA0BDE8F24001F030BA10B5DFF808160A6808
S31508005CB0145C210605D5DFF8E02513684001185C59
S31508005CC010BDFF2010BDB0B504460D46FFF7ECFF2A
S31508005CD0FF2818BFFFF7B3FF2846FF28DFF8D4755B
S31508005CE004D13868015D01F07F0105E0FFF799FFEF
S31508005CF03868015D41F0800101556401DFF89805B7
S31508005D0001680D55B0BD0EB430B504460120FFF745
S31508005D102CFFDFF884150A68FF2802EB40110ED025
S31508005D20DFF8782513681C5403AA002304E052F808
S31508005D30045B01F8015B5B1CDDB2A542F7D330BCFE
S31508005D405DF810FB7CB504460D4605F11F000004FE
S31508005D50400DC0B2FFF709FFFF2806460DD0DFF851
S31508005D603C0501688D553CB1012000902B46002268
S31508005D703146204600F002F8304676BDF3B50546B2
S31508005D8081B0DFF8180501681E469DF80830CC5C1E
S31508005D901746F019844203DA4FF4B77100F0DFF8BA
S31508005DA030000CD0089C394602A800F0DCF8024600
S31508005DB09DF8081000943346284600F001F8F7BD10
S31508005DC02DE9F047089DDFF8DC64DFF8CCA48046AF
S31508005DD0894614461F460DE02900224612BF414651
S31508005DE001464046FEF726FA30683F1BA04410F8E5
S31508005DF009900024F8B268B1DAF8000000EB4913FC
S31508005E001819FBB2E1182029B2BFFCB2C4F120046C
S31508005E10E4B2E1E7BDE8F0872DE9FC410746DFF883
S31508005E207C0488460168CC5D15461E462919CBB206
S31508005E30A34206DB28000DD0C9B2384600F05BF84D
S31508005E4008B1182007E000962B46224639464046F8
S31508005E50FFF794FF0020BDE8F6810123DCE70A4638
S31508005E6000E0521C1378002BFBD1521A0123D2B240
S31508005E70D2E72DE9F041804601F11F0402F11F0027
S31508005E80E404C004240E000E04B9012400B901205C
S31508005E9084422AD0DFF80C5419DA001BC0B2FFF787
S31508005EA064FE0746FF2808BF00201FD0641E00F0C6
S31508005EB01FF82E68305CFF2804D000F019F8305C13
S31508005EC0FFF7BDFE00F014F829680F540DE08A426A
S31508005ED00BD2411EC9B200F00CF804462868005DD2
S31508005EE0FFF7ADFE2968FF2008550120BDE8F081BF
S31508005EF0E1B2404610E070B5DFF8A06333680546A6
S31508005F000C46595D2246FFF7B4FF18B13068445570
S31508005F10002070BD182070BD04E0DFF888231368E0
S31508005F20185C491ECAB2002AF7D1704731B50C462B
S31508005F30DFF868130A68155CAC4203D340F2052102
S31508005F4000F00DF82146684600F00DF8DFF8481312
S31508005F509DF800300A6802EB4311084432BD0FF27F
S31508005F60583000F051BD38B504460D46C9042078AE
S31508005F70090EFFF7D1FF207005F01F0032BD80B56E
S31508005F80FFF7D4FF007802BD10B51446FFF7CEFF21
S31508005F90047010BDF8B5DFF8045304462868065D9A
S31508005FA0FF2C03D140F22521FFF7D9FF06F11F0187
S31508005FB0C904080EFFF7D9FDFF28074609D0286847
S31508005FC0C6550096002322460021384600F0C4F83C
S31508005FD03846F2BDF8B505460E4617460120FFF7C6
S31508005FE0C4FDFF28044610D0DFF8AC023246066826
S31508005FF006EB44163B462021701900F01FF82D18B1
S31508006000DFF8980201680D552046F2BD1CB504ACB0
S31508006010009400F001F816BD10B514461A46029B06
S315080060202044091BBDE81040C9B207E00CB480B58E
S3150800603002AAFFF7CFFF02BC5DF80CFB2DE9F0477B
S3150800604081464F460024884615469A460CE0F6B225
S315080060503419444542DA32463846FEF7EBF8BF199A
S31508006060641E641C6D1CE4B2444537DA2878A8B36C
S31508006070312818BF32280ED15AF8041B07F8011B1D
S315080060803228EED1641CE4B2A045A4BF091207F871
S31508006090011BE6DA22E034280ED1211D5AF8040B3A
S315080060A088451BDB3870020A010C000E7A70B9703D
S315080060B0F8703F1DE41CD4E7A0F133035AF8041B1B
S315080060C0072B38BFA0F13006C1D3A0F14103072B37
S315080060D034BFA0F137065AF8046BB8E7A7EB0901F5
S315080060E0C8B2BDE8F0876E49FE200870704770B5E3
S315080060F000F02DF8064600F004F800EB062080B202
S3150800610070BD294620463AE7E0B58DF804200123FC
S31508006110120A8DF8052000930A460146022301A8B3
S31508006120FFF72CFE07BDF8B500F011F80602FFF7D9
S31508006130E8FF8619E91CC9B2FFF7E4FF0702AD1CA0
S31508006140E9B2FFF7DFFFC71906EB0740F2BD0D46B8
S31508006150691C0446C9B212E7FDB5089C20000D4625
S315080061601E461BD1F7BD4C4B9DF804001B6803EB7C
S315080061704010C2F12002D2B2BA42B8BF17468119FE
S315080061809DF8000003EB40133A465819FEF752F8FB
S31508006190E41B7D19BE19A0B200B9F7BDA9B26846BD
S315080061A0FFF7E1FE0546B1B201A8FFF7DCFE064699
S315080061B0B542A7B2B4BF32462A46D4E770B50446FC
S315080061C00D4600F09BFF3A4A23781268FF2B08BF5A
S315080061D0555503D013441E7856551D702570BDE8D5
S315080061E0704000F091BF38B5044600F087FF21786B
S315080061F0FF22FF2908BFFF2507D02D4B1B685D5CD2
S315080062008D420EBF22705A5D5A5400F07DFF284613
S3150800621032BDF8B504460D4600F070FF2178002619
S31508006220FF2913D0224B1B680A46012603E08F423A
S315080062300CD03A46761C9F5CAF42F8D1DF5D9F547E
S31508006240A94203D18A4208BFFF22227000F05CFFF0
S31508006250F0B2F2BD0078FF2801D101207047002076
S31508006260704710B5044602E0FFF7E9FC2046FFF741
S31508006270BAFFFF28F8D110BD30B50D4B00781C6861
S31508006280255C954203D02846255C9542FBD12154CE
S315080062901868425430BD0000206D0020246D00208F
S315080062A0276F00202C6D0020076F0020066F002046
S315080062B0306D0020286D00207061636B65742D6257
S315080062C075666665722E630070B513461044DCB2B7
S315080062D064B101F00F060909451E0A2EACBF372422
S315080062E03024A41928462C705B1EF0E7104470BDB4
S315080062F0F0B5002341B1002806D52D2313700123DC
S31508006300B0F1004F18BF404200210024884D0026F6
S3150800631001E0C01B761C55F82470B842F9D2F7B2D2
S315080063200FB90F0004D0D9B2303656545B1C012180
S31508006330641C092CEBDBD9B2303050545B1CD8B244
S31508006340F0BD2DE9F84F80468AB006A8894615465D
S315080063509B4602AF4FF0000A0024019011E0012489
S31508006360054600E007460198874209D39DF80020B4
S31508006370BF1A00F0D1F8002850D1FFB2BA4402AFD4
S315080063806D1C02A88DF800009DF800002978381ABF
S3150800639000290BD0252903D014B907F8011BE2E719
S315080063A0002C14BF00246D1C29780A0000F0A78071
S315080063B0B1F1250216D00B3A092A40F28380283A11
S315080063C078D00A3A12D0521E3FD0521E5AD0083AF6
S315080063D058D0121F3CD0D21E3AD0921E52D0D21E8E
S315080063E068D0C0E7252007F8010BBCE7DBF80010EA
S315080063F0DBF80420099138460BF1080B08920027B0
S31508006400089A9742AED20999C95D0222FFF75CFF46
S315080064100199884206D300F083F8002878D1F6B2AD
S31508006420B24402A80899491E8F423CBF202200F8B0
S31508006430012B0199884206D300F072F8002867D12B
S31508006440F6B2B24402A87F1CDAE75BF8040BCAE787
S315080064505BF8046B074600F05FF8002858D1FFB2D6
S31508006460BA44314602AF064600E0761CF0B2085C34
S315080064700028FAD1F2B24846C047002848D1F6B2F9
S31508006480B24470E76C290AD16A785BF8040B752A5E
S315080064900EBF00210121642A07D16D1C05E075296C
S315080064A05BF8040B0CBF002101213A46FFF720FFD9
S315080064B0074458E75BF8041B0222C9B23846FFF7BF
S315080064C003FF4FE768780124782818BF5828F0D1C9
S315080064D06D1C0024681E322904D15BF8040B81B2B6
S315080064E00422EBE734297FF43AAF5BF8046B042205
S315080064F0310C3846FFF7E8FE0422B1B2DFE705465D
S31508006500EAB200F00AF818B9AA445FFA8AF000E07D
S3150800651000200BB0BDE8F08FFAB202A94846404702
S315080065209DF80020861AF2B202A9484640470000A4
S315080065300889020870B5FFF7E7FAAA4C2046FFF764
S3150800654089FED8B92046FFF74EFEFF28044615D027
S31508006550A5480168085D851EE9B22046FFF7C7FD14
S315080065600646E9B22046FFF7C6FC2146304600F04B
S31508006570EBF82046BDE87040FFF761BB70BD0346E7
S315080065800A4697A10420FFE70CB480B502AA00F0DA
S3150800659034F801BC5DF80CFB80B586B001F092F8C2
S315080065A0102204920021914A0092662305910393D2
S315080065B0029101910246002390A10120FFF7E4FF12
S315080065C08B48817902884379039102920193017974
S315080065D0C3788278009142208BA1FFF7D5FF07B0D8
S315080065E000BD000010B5044621467E48FFF7E6FDCB
S315080065F02046BDE81040FFF714BB2DE9F04F85B0E3
S3150800660005460F469046FDF7D6FE0024F0B9FFF77B
S315080066105AF9D8B10120FFF7A8FAFF28824615D003
S315080066200021FFF79DFA294601A8FFF75CF9054600
S3150800663087BB00F083F830B95046FFF7CEF910B1A2
S315080066400420FDF7A9FE5046FFF7F9FA05B0BDE8A4
S31508006650F08F8DF8041001251BE0634858F8046B89
S31508006660006810F80A90F2B2FF2A12D0F1B210F8B8
S3150800667001B00BEB0901C9B25046FFF73CFC0028F4
S31508006680E1D1CDF800B00023F2B249465046FFF7F3
S3150800669063FD7F1C38780028CBD0A0F130010A2989
S315080066A004D20A2101FB0404303CF2E700F046F864
S315080066B00028C8D139780025422901A80ED04429D6
S315080066C01AD0462925D057290DD06229C5D0662962
S315080066D02AD06C2925D0702926D0BAE758F8040B99
S315080066E08DF80400B7E758F8041B8DF80410022546
S315080066F00904090E4170CCE758F8041B8DF80410FC
S315080067000B0A0A0C090E437082708DF807100425CF
S31508006710BFE758F8041B5046FFF7A1FB0028B8D07E
S3150800672091E758F8044BB4E758F8041BE2B2504610
S31508006730FFF793FB002808BF0024F0E72A4601A9C3
S315080067405046FFF78ABB00002DE9F043122885B0B2
S3150800675080460D4609D03A281CD04FF6FE7188426D
S3150800676004BF284600F0EBF832E01F48214E0168C6
S315080067704F5DFF2D2CD0F8B22128B4BF3C4620240B
S315080067802846FFF7E7F9E1B200F0B5FC3068455D49
S31508006790203FEEE701F026F8814601F0B9FC0646EF
S315080067A001F0AEFF074601F0A8FF044601F0A8FC79
S315080067B011490B6816A1CDF8109002460B480390B4
S315080067C0588802900196009723463B20FFF7DCFE87
S315080067D02946404605B0BDE8F043FDF70DBE00006A
S315080067E057460000246F0020246D00200C7B0020F3
S315080067F0DC8902082C6D0020D87A002042423870C5
S3150800680042424242574242004242424257420000F6
S315080068105742425757387042000000004048018AE4
S3150800682040F6A772914204BF408A10F47F4F03D105
S31508006830022801DB01207047002070470000000095
S315080068402DE9F84F83468946364EDFF8D08000F0AA
S3150800685055FC37680546306840084000306002F04D
S3150800686039F85FF0010088F80000FFF7D7FF20B974
S3150800687040F20F112CA000F0C7F82948D0F828A03C
S3150800688049464BF48070D0470446376002F022F838
S31508006890284600F039FC002088F8000024A50CB131
S315080068A0285D04E049464BF40070D047285CBDE8F3
S315080068B0F28F00002DE9F84F81468A464FEA4208D2
S315080068C0184D00F01BFC2E68074628684008400053
S315080068D0286001F0FFFFFFF7A1FF20B94FF4AA7166
S315080068E011A000F091F80E48D0F824B000234246D3
S315080068F051464846D84704462E6001F0EBFF384615
S3150800690000F002FC0AA70CB1385D05E043460022F8
S3150800691051464846D847385CBDE8F28FB57F002017
S315080069200000080894ED00E0666C6173682E630049
S31508006930000202024B4B46477047002070477047DB
S3150800694001987047704770477047702001F0E6BF9E
S3150800695070B5044643381F4D08D0401E012809D992
S31508006960801E01280ED9C01F32D02AE0BDE870402B
S31508006970FEF7C1BEFEF7E8FE20B1FEF7BCFE002812
S31508006980FBD170BD144E307810BB01213170FDF774
S31508006990FFFB442C12D00CD3462C05D00ED3472C23
S315080069A007D140F6010001E040F6020002F0B6FA0F
S315080069B004E04FF48771284600F026F8002030706E
S315080069C070BD2846BDE870404FF4907100F01CB8C1
S315080069D070BD000074890208A87F00207047002057
S315080069E0704700207047012070470120704700203B
S315080069F07047704701F03FBE00207047012070477E
S31508006A007047000042DE704738B504460D4600F070
S31508006A1005F900F073FB29462046FFF7B0FD2B4623
S31508006A2022466F490120FFF776F829462046BDE839
S31508006A303440E7E76B482DE9F8436B4E0168B165CA
S31508006A404FF42068026A6949F2650B683366416A41
S31508006A507166826AB266C16AF166026B3267806BDA
S31508006A6096F83810706748074CBF346CF46B02F020
S31508006A708BFA002232658442DFF874E1014624BFAE
S31508006A80AEF12007A742A146716506F18C02594B63
S31508006A90DFF864C118D3A0697064E469B464B56D9D
S31508006AA0C5F30805062D13D1604511D398420FD2B8
S31508006AB000884DF64264A0420AD17068B4685060F6
S31508006AC0946040F2017803E000247464B46481465B
S31508006AD04A48814238BF01460846704570D20C685C
S31508006AE0B4F1CD3F08BF091DF6D069E0062C09D1DF
S31508006AF0C4B2002C0CBF0520401E06F17804C5B2AE
S31508006B0044F82510F1451FD25EF8041D6145F9D3F6
S31508006B109942F7D2CC07F5D5002406F1780555F841
S31508006B2024708F42E2D0641C062CF8D3DEE7B16FDE
S31508006B30002306F1780506EB8304E46F45F8234045
S31508006B405B1C042BF7D911600146481EC9B20029FF
S31508006B50EDD1B06DC0F3080002280AD0032815D07D
S31508006B60042816D0052817D0062818D00C281CD0BB
S31508006B701EE023480268910748BF40F602181CD455
S31508006B800068C10719D540F2025816E040F60128F8
S31508006B9013E040F6022810E040F603280DE0B8F5A9
S31508006BA0206F0AD140F6042807E040F6052804E0DD
S31508006BB018B1242838BF40F607284046BDE8F283B6
S31508006BC01049081AF0640021002006F17804C5B2BD
S31508006BD0401CC7B244F82510062FF8D3002091E7C9
S31508006BE03485020804ED00E00000002000E300E020
S31508006BF0186D0020AC840208904100089800002017
S31508006C001CA00040186D002002F095BA2348012107
S31508006C1081604EF6BE22426001607047204901201D
S31508006C2008607047A52805D11C484DF6AD6141603E
S31508006C300222026070471948016811F0010018BF66
S31508006C400120704780B5174910200860BFF34F8FA1
S31508006C50BFF36F8F144A15491078154A60B1032897
S31508006C6007BF002010600123136040F6510008603A
S31508006C70002000F0B3F806E0022313604FF400602A
S31508006C80086002F01BFA0B48072101600122026422
S31508006C90102009490860002002BD0000006000407D
S31508006CA00860004080E100E09F7F00200C60004003
S31508006CB00800004014A0004000E100E0704770475B
S31508006CC0002010B502F081FC40F68C2188426A4CFF
S31508006CD004DA206840F00800206010BD216821F021
S31508006CE00801216010BD38B5644D2988044600F0B6
S31508006CF061F89DF800109DF80100FF2902BFFF28E2
S31508006D0004200021220018BF801CC2B2082A5C4A4F
S31508006D10136823F46073A8BF0720C0B243EAC01300
S31508006D20136008291068A8BF0721C00841EAC001F6
S31508006D30116054490C7031BD80B55348018800F084
S31508006D4039F8BDF800004FF6FF71884204D14FF4B8
S31508006D50E162ADF8002004E00A2190FBF1F1ADF8FC
S31508006D600010484A107810B34448018802237F224D
S31508006D700DF1020002F06CFC9DF80300BDF800302E
S31508006D80FF2808BF0420811CC9B20829A8BF07210B
S31508006D90C1F12F0202EBD272C0F12F00521000FB94
S31508006DA00320C1F12F01B0FBF1F0ADF80000BDF8EA
S31508006DB0000002BD02237F22684602F049BC33491F
S31508006DC00A68032809D34B6D43F001034B650B682A
S31508006DD09B1AC3F313038342F9D3704710B5040013
S31508006DE004D110BD4FF47A70FFF7E9FF2046441E20
S31508006DF080B20028F6D110BD2549087868B9C87848
S31508006E00072818BF092814D0032818BF112810D03E
S31508006E1013281CBF15280B280BD01E48016841F4FF
S31508006E2080720260C80504D45FF038011DA0FFF720
S31508006E30EBBD704720B1012809D0032818D019E006
S31508006E40154800291ABF17220260016010E039B1FF
S31508006E50124800EB5100B0FBF1F0B0F1011F01D36D
S31508006E60202070470E4900F001024A604008086079
S31508006E70002070472120704700BC0040028A0208A3
S31508006E8018000040B37F0020048A0208382000401A
S31508006E909607080838400040100004E000366E01E6
S31508006EA068C800407573625F6572726F722E630000
S31508006EB0010007D4012200F01F017A4B8A404009DD
S31508006EC043F82020704701000BD4012200F01F016F
S31508006ED0754B8A40400943F82020BFF34F8FBFF314
S31508006EE06F8F704771480168CA0705D570490B68E6
S31508006EF05B1C0B6001210160704780B500F008F843
S31508006F0080B202BD80B500F003F80002000C02BD95
S31508006F1038B500F0F3F867490C684D6800F0F4F8E6
S31508006F2045EA044032BD10B5604C206810F0060FE3
S31508006F3006D000F0C9F806205F4A206001211170CA
S31508006F40BDE81040CEE72DE9F84304460025206841
S31508006F5010B902F0E3FB33E000F0D0F881460420D4
S31508006F60FFF7B1FF2068544E504F10F1010F1CBFB8
S31508006F70401C2060FFF7CCFF216880464F484144FB
S31508006F8089B24160022122684244120C02603570BF
S31508006F90396039640420FFF78BFF484600F0B4F8DF
S31508006FA0012002F0D4FE01213964307838B9FFF7A0
S31508006FB0AFFF2168081A40448525206000E0256057
S31508006FC02846BDE8F2832DE9F84F0F468146386812
S31508006FD093460026002418B902F0A0FB00205FE0C3
S31508006FE000F08CF88DF800000420FFF76CFF386875
S31508006FF0DFF8C4A02D4D10F1010F1CBF401C3860EE
S31508007000FFF786FF39688AF80040804641442B48D6
S315080070108AB242600B0C0360062288452A6005D3B3
S31508007020C660866005200124286401E003212964DE
S315080070300420FFF73DFF9DF8000000F065F80DE01D
S3150800704054B33868002418EB0000386021D00220B9
S31508007050286003212964A0468AF800403868F0B100
S31508007060B9F1000F03D1022002F071FE03E0594680
S31508007070022002F063FE012129649AF80000002824
S31508007080DED1FFF745FF3968081A4044852638607F
S3150800709005E08AF8004002E03E608AF80060304663
S315080070A0BDE8F28F00E100E080E100E014A00040B6
S315080070B06478002010600040B27F0020186000400D
S315080070C00146002200207EE7704700000A0A42EACD
S315080070D001225040C0F30311484080EA00304101C4
S315080070E00206C9B2D20E41EA0221484080B2704770
S315080070F0704721207047704770477047EFF311803B
S31508007100602181F31188704780F311887047000069
S3150800711038B57C487C4C00682060606048220021B5
S31508007120FDF7CFF8794A2168107808704FF6FF7195
S31508007130206800224180027323685A730B22206854
S31508007140827303232268D3734FF6FE732068038283
S31508007150418202F015FE2168087602F011FE2168C8
S31508007160487602F00DFE2168694B887669482168E1
S315080071700278CA76684920680A6840F8282F1D7878
S315080071800571664822680168116331BD10B501F0C2
S31508007190B4FA5D4C6168897B884203D0084601F0E1
S315080071A0A4FA50B901F0ACFA616891F90F10884257
S315080071B005D0084601F0A8FA08B1012010BD60689C
S315080071C0008A00F0A0FF6068408A00F0A4FF6068AB
S315080071D0017B01290CBF0120002000F07BFF002065
S315080071E010BD10B54E4C0020207003F07EFA20B971
S315080071F02046BDE8104003F0CFBA6AE080B500200B
S3150800720000F015F828B1002000F005F808B10020B4
S3150800721002BDFF2002BD3C480168487B02281CBF0E
S315080072201128432801D101207047002070473648AD
S315080072300168087B01281CBF0228032801D1012008
S315080072407047002070470020704770207047002064
S31508007250704734490870704770470020704701200E
S315080072607047704700207047002070477047704786
S315080072700020704780B50020FFF7CDFF20B1002021
S31508007280FFF7D5FF00B1012002BD80B50020FFF74A
S31508007290C2FF30B11C4801680A7B032A01DA0020C4
S315080072A002BDFF2002BD000010B5040000F00580F5
S315080072B04FF4BA7148A0FFF7A7FB1A49087808B92E
S315080072C0702010BD0F49104B0A6848204443101916
S315080072D05860BDE8104059E70B484168088A70476E
S315080072E009484168488A7047074909684A69026037
S315080072F0C97E017170470449096802684A610079C4
S31508007300C87670475C6D0020D87A00209A7F0020E6
S315080073100F6F00201A6F0020606D0020646D00203A
S31508007320C87A0020466F002070470020704700206A
S31508007330704702F0AABF7047002818BF03F050BB79
S31508007340704703F0D8BD03F0FEBE82B08DF800107A
S31508007350DDE9002311461A4602B003F057BF33B5DC
S3150800736085B005468DF8042000F0CEF90446284677
S3150800737000F0DAF97CB10028BDF818000FD100F04A
S31508007380CBFA8DF80000FF2804BF00218DF8001005
S31508007390CDF808D016E0A8B106A8029012E000F0D1
S315080073A0BBFA8DF80000FF2804BF00218DF80010F5
S315080073B09DF80000BDF818108DF80C0003AAADF86A
S315080073C00E100292DDE901010A460146284603F03D
S315080073D01DFF07B030BD0000656D6265722D6D75C5
S315080073E06C74692D6E6574776F726B2D7374756224
S315080073F02E63000070B503F0D7FFEFF30880001F77
S31508007400A4494FF0CD3201E040F804298842FBD266
S31508007410A14AA24892B20021FCF753FF012001F0CD
S31508007420D7FE0020FFF75FFC9D4C206840F008005F
S315080074302060FFF7EBFBFFF743FC9A4900F033F8AF
S3150800744099490D8805604E88466088881060CD8801
S315080074505560088918604989596000F0B9F82068AC
S3150800746020F01000206004F06BF804F0BAFA04F07B
S3150800747052F801F043FFFFF7C7FBBDE87040FFF77E
S31508007480E1BB38B5FEF7DFF9FFF736FE04F09FF8E3
S31508007490864900F008F886490C8804604D884560DE
S315080074A000F020F831BD83480A78C2604B78824ADA
S315080074B0D360824B8978D960704738B501F06AFE87
S315080074C0FFF7FEFB00F02EF800F026F804F038F877
S315080074D004F087FA01F04FFFFFF70FFEBDE83140D1
S315080074E0FEF7CDB988881060CC8854600889186082
S315080074F049895960704738B501F04CFEFFF7E0FB43
S3150800750000F010F800F008F804F06BFA01F033FF09
S31508007510BDE83140FFF7F1BD6148016821F010016F
S31508007520016070475F4963480A78C2604B78624ACF
S31508007530D360624B8978D9605B490C8804604D88B2
S31508007540456088881060CC88546008891860498925
S3150800755059603DE0F0B50F249E0004FA06F615685A
S31508007560304215D00026F7B207EB830C20FA0CF749
S31508007570FF0709D5B7009C4604FA07F731F81CE05F
S31508007580BD4307EA0E073D43761CF7B2042FEAD33C
S315080075901560F0BDF0B5FF26DC00A6401568304240
S315080075A014D000260124F7B207EBC30C20FA0CF717
S315080075B0FF0707D504FA06F711F803C0BD4307EA23
S315080075C00C073D43761CF7B2082FECD31560F0BDC7
S315080075D02DE9F84300210A2004F046FA04F0ECFAF3
S315080075E0374C2068B0B10026304FDFF8C89000F05D
S315080075F037F8761CF0B20328F9D3DFF8B4800027F1
S31508007600002600F03CF800F034F8761C7F1CF0B237
S315080076100328F6D3BDE8F1832DE9F84300210B20B2
S3150800762004F022FA04F0D4FA254C2068B0B10026FA
S315080076301C4FDFF8809000F013F8761CF0B2032890
S31508007640F9D3DFF864800027002600F018F800F068
S3150800765010F8761C7F1CF0B20328F6D3BDE8F18338
S31508007660300609EBD03000F10C022068F3B2394637
S3150800767090E77F1C2068FBB22A1D41466AE7300660
S3150800768009EBD0352068FBB22A46414662E703205B
S3150800769004F060BBB8630020D82D000098000020D5
S315080076A000BC0040DC6D0020D06D0020EC6D002091
S315080076B0E06D002000B0004000B2004000B4004079
S315080076C0F06D002010B503F0AEFE044603F0AFFEE1
S315080076D0C0B208B9012C07D1072C11D8DFE804F08D
S315080076E004100608080A0C0E002010BD092010BD5B
S315080076F0022010BD032010BD0B2010BD062010BDB2
S3150800770044F0800010BD000020B500218AA2CBB24B
S31508007710D35C834205D0491CCDB2082DF7D300208F
S3150800772020BD012020BD000020B5002184A2CBB2D7
S31508007730D35C834205D0491CCDB2082DF7D300206F
S3150800774020BD012020BD76480168488870477448E6
S315080077500168081D704772480168C87E70477049FD
S315080077600A68D076704738B56D4C6E4D21684873F7
S3150800777002286D4915D12068027B042A1CBF0846D9
S3150800778003F00AF82068007B03281EBF0428284651
S3150800779003F002F820684169C80054BF9024BC244D
S315080077A010E000200870287004F0FCFA2068007BBE
S315080077B0032818BF042802D104F0D9FB01E004F01D
S315080077C044FF9124204604F097FF50B9234613221C
S315080077D052A10320FCF7E7FD2046BDE83240FFF73B
S315080077E0B2BD31BD4E480168487B00F00F007047B6
S315080077F04B4801684A7B02F00F02022A01D1012098
S3150800780070470020704780B504F0B8FAB8B104F0A4
S31508007810CDFAA0B14548FEF71DFD80B14448FEF7F4
S3150800782019FD60B105F0FCFC48B104F075FF30B9EC
S31508007830BDE804404FF0FF313E4803F012B800207F
S3150800784002BD38B50446FFF7D3FF354D28B9286879
S31508007850417B032901D0932032BD05F08FFE20819C
S315080078602868C17BA1722868817BE172204607F0EF
S31508007870D4F80020207304F1140104F1100007F075
S315080078807BF9E081002032BD70B5254D2E680C4687
S31508007890FFF7AEFF20B9707B032801D0932070BD97
S315080078A0F07B2070002161702A68907BA070002010
S315080078B070BD10B5002300E05B1CDCB28C4205D21B
S315080078C010F8014B9442F7D0002010BD012010BDDE
S315080078D0082107F0C5BA12480168487B01281CBF71
S315080078E03128332801D1012070470020704710B590
S315080078F0044600F009FF010002D109490A68D47359
S3150800790010BD0748016891F90F00704704480168DF
S31508007910887B70470120704700207047424200006C
S31508007920D87A0020907B0020187A0020546F002017
S31508007930426F0020CCD500080001020304051D2073
S315080079400203040508090A0BDFF8E818087848B1A5
S31508007950DFF8E4080179012904BF4079042801D138
S3150800796001207047002070470FF678114008085C20
S315080079707047010604D502464FF6F83000EAC20001
S315080079807047491C800189B2B0FBF1F080B2B0F5AE
S31508007990807F2CBF0020C0F1FF00C0B2704738B509
S315080079A0DFF89C18C878012801D1002032BDDFF81D
S315080079B09C48607868B1E578087945192079854248
S315080079C0A8BF054602F0DCF9012202FA05F5691E90
S315080079D0084061790818C0B232BD2DE9F047C207E0
S315080079E0824605D54FF4D9710FF6E800FFF70CF873
S315080079F0DFF85C78386DC10748BF8C2000F18780B6
S31508007A00DFF83C28DFF8446851780020107051B937
S31508007A10307840B19AF80100B96F400900F00100CA
S31508007A2041F0010103E0B96F490800204900B96730
S31508007A305071DFF804487078A179DFF81888DFF804
S31508007A40189898B1002313710129386D40F0040085
S31508007A50386507D14FF6FF70C9F800004FF400717A
S31508007A60C8F80010FFF79BFF05460BE0386D0025A8
S31508007A7020F004000129386504D100F077FA642063
S31508007A80FFF79DF9B86F20F00800B8671421F9646C
S31508007A90BD64A47975782DB1002C01BFB86C002897
S31508007AA00121B964B0790028386D14BF40F0080088
S31508007AB020F008003865FFF747FF28B1D9F84000DD
S31508007AC040F00800C9F8400020203862C7F804A032
S31508007AD0C7F800A004217868DFF880277F3078602F
S31508007AE039624FF4E060DFF8781710600B68C8F861
S31508007AF00000386D40F00100386515B900212520D1
S31508007B0002E01CB90021232003F0AEFF0020BDE8E7
S31508007B10F087DFF85007DFF85027DFF850370021E5
S31508007B2041608160016821F0020101604FF0007038
S31508007B301060012119707047332800D2704710B5BC
S31508007B40B0F5002F0CD2DFF824470021217001F090
S31508007B5089FA02E0012002F0A2F820780028F9D07C
S31508007B6010BD2DE9F84FDFF8F086DFF8D476D8F89F
S31508007B700010D8F84000DFF8D86608401FFA80FAE7
S31508007B80C8F800A07878002840F001815FEACA703A
S31508007B90DFF8DC46DFF8B49651D53568306C716C81
S31508007BA041EA0041B96099F8000000283ED068789B
S31508007BB082063BD501233B700021282003F054FFA1
S31508007BC0FFF7C2FE00283AD01920FFF7F8F8DFF8C9
S31508007BD0A4B64FF44040CBF82800DBF8001000911B
S31508007BE0E06E40F40050E066E06E40F48050E066D7
S31508007BF02978B8684901B8310D1807F00AFC2D1A1A
S31508007C00C5F31300FFF798FFE06E40084000E066F2
S31508007C10E16EBDF800000143E16648F2607000219C
S31508007C20CBF82810E066F988216008E000212B20AF
S31508007C3003F01AFFB9680022002007F0BBFD5FEACF
S31508007C400A610ED5387830B1002139700022B9683A
S31508007C50402007F0AFFDD8F83C0020F48050C8F863
S31508007C603C005FEA4A610CD5787850B979792720C3
S31508007C7003F0FAFE07F0CDFB01460022892007F043
S31508007C8099FD5FEACA606BD5DFF8AC5528790128FB
S31508007C9004BFA879012828D10021232003F0E4FE97
S31508007CA0FFF7BAFC306F40F0010030670021A97178
S31508007CB04FF0000A07F0DEF80A20FFF780F84FF6C3
S31508007CC0FF70DFF89025C8F800004FF4E0611160F6
S31508007CD00923B3660120B064B16F41F00801B167AA
S31508007CE0306D40F0010030653AE03879401C387153
S31508007CF0C0B299F80210884225D2FFF750FE834693
S31508007D00BBF101018941C90F242003F0ADFE287992
S31508007D10012802D100F0FDF803E00021232003F03A
S31508007D20A3FEB06F20F00800B0671421B166C6F84C
S31508007D3048B04FF40070DFF81C150860326D42F049
S31508007D40010232650CE0787850B97979262003F07B
S31508007D508BFE07F05EFB014600228D2007F02AFD08
S31508007D605FEA0A7013D5FFF7EFFD48B12068F8807F
S31508007D7001212160D8F8400020F00800C8F840002A
S31508007D8099F8010018B10021252003F06DFE5FEA7D
S31508007D908A600ED520213162787850B97979272002
S31508007DA003F062FE07F035FB01460022882007F043
S31508007DB001FD787840B11AF4407F05D100212B20C7
S31508007DC003F052FE0120B870BDE8F18FDFF8AC046D
S31508007DD000887047DFF8641420B1086840F4404012
S31508007DE0086070470A6822F440420A6070477CB50A
S31508007DF0054600F046FCDFF88804DFF84844DFF85B
S31508007E003864002101601522E260092101651F22FC
S31508007E10426001210166DFF86404008800F0B1FAC7
S31508007E2007F04EF807F0BAFE00F03DF930896061B8
S31508007E3071892161FFF762F9616841F0400161606B
S31508007E40FFF762F9707800F0F9F8B07800F00DF9EC
S31508007E50DFF83004007800F03DF9DFF82C0490F9DB
S31508007E60000000F051FC307800F0AAF996F90300FA
S31508007E7000F0B5F9DFF81404018800F0D1F9BDF86F
S31508007E800000C105DFF8081448BF00200870DFF8B5
S31508007E900404007800F0FCFB28B14FF485610FF26A
S31508007EA03440FEF7B1FD012D09D12068C10715D56B
S31508007EB000F02FF800212C2003F0D6FD0EE06DB956
S31508007EC02068C1070AD4FFF7A7FB206840F0010025
S31508007ED02060C820FEF773FF0020B071F120DFF89C
S31508007EE07853286440F2F911E96303F0BBFDFFF704
S31508007EF071FF06F0BFFF2068C10707D54FF6FF7070
S31508007F00DFF8501328604FF4E0620A6001F092FA35
S31508007F1073BD70B5DFF88053DFF81C432E68A0796F
S31508007F20012822D0FFF7EAF8B6B2DFF830232E6030
S31508007F304FF4E0611160DFF840130B6A5B085B00E1
S31508007F400B620A68520852000A600B6843F0020383
S31508007F500B604A6A42F001024A620121A171FFF7E9
S31508007F60D3F8BDE87040FFF733BB70BD70B5DFF8D6
S31508007F70C852A87950B3FFF74FFBFFF7BFF804467E
S31508007F80DFF81813DFF8C062012008600021306DA1
S31508007F9040F001003065A97106F06CFF20203060C2
S31508007FA0316B41F002013163F06D40F00800F06575
S31508007FB02046FFF7A9F80A20FEF701FFA649A54BB8
S31508007FC04FF6FF7008604FF4E0621A6070BD9A4879
S31508007FD08079704798480179012900D0704780B5A3
S31508007FE0FFF797FFBDE8044000212C2003F03CBDB5
S31508007FF091480079704780B5022801DB012002BD4F
S315080080008D4908718979884209D010B9FFF7AEFF02
S3150800801005E0FFF77EFF00212C2003F025FD002058
S3150800802002BD9F480068800200149A3801B211F117
S31508008030800FB8BF6FF07F0040B2704710B5044696
S31508008040FFF75CF897490A68002C04D042F0120240
S315080080500A60012103E022F012020A600021764A32
S31508008060517049E074484078704738B50446FFF7C0
S3150800807045F8054607F01DFB58B92100894804D084
S31508008080026842F08002026003E0016821F0800184
S315080080900160694884702846BDE83240FFF734B865
S315080080A0654880787047804A537810787F4900EB96
S315080080B003230B609078D37800EB03234B60107989
S315080080C0537900EB03238B609079D37900EB032374
S315080080D0CB60704710B50446FFF710F822007149C7
S315080080E004D00B6843F020030B6003E00A6822F013
S315080080F020020A6063490C70BDE81040FFF704B817
S315080081004D48008970474C49694A08811060704794
S315080081104948408970474849664A4881106070470F
S315080081206548007870475448816A41F002018162C7
S31508008130012202607047504800210160826A22F0DD
S31508008140020282625020FEF73ABE10B55B485C49CF
S3150800815002690A800124C3695A4A4B80D36C8B8012
S315080081600021016144498B6A43F002038B620C606B
S31508008170C4610023436203624CF25D03D36448F290
S315080081800203116841F4004111604FF40042026095
S31508008190036010BD80B5FFF7CEFF48484FF4004195
S315080081A001600022474902600B68454A23F40043F0
S315080081B00B609388CB64118801615288C26101BD46
S315080081C00200204904D00B6843F002030B6003E069
S315080081D00A6822F002020A6017490870704738B523
S315080081E07F2804460AD1384C218800F019F8BDF8D2
S315080081F00000C10554BF04466FF04A04FEF77EFF2F
S31508008200054607F056FA28B960B29A3080052F4914
S31508008210000C08600848C4702846FEF775FF31BD93
S3150800822002237F22684601F013BA034890F9030037
S3150800823070470000D27F0020EA6E002040A0004070
S31508008240EC7A00208020004030200040506E00204C
S315080082501020004000E100E004A0004080E100E0BA
S31508008260A820004010E000E004ED00E0D37F0020E5
S3150800827064100040E410004060200040646E002056
S315080082805C100040D17F0020586E0020228A020828
S31508008290BB7F0020256F00201C10004028100040DE
S315080082A00C100040842000400C7B002098200040E1
S315080082B09420004090200040496F0020181000408C
S315080082C0F47E0020C0100040288A0208541000409E
S315080082D0704700007068792D636F6D6D6F6E2E6341
S315080082E000000000FEF7C801DFF8003533F810007B
S315080082F0024022FA01F07047F0B50FF2B054DFF8E9
S31508008300F03434F81050DFF8E4449D60114034F836
S31508008310105095432943D96002261E6000271F6026
S3150800832024F8101058680028FCD1F0BDDFF8C434D2
S31508008330DFF8C4141878DFF8C42408B150780FE0C1
S31508008340125612F1090F02DA30230B607047C86D16
S3150800835038B1C86D40F24A32B2FBF0F080B2C01EA6
S3150800836008607047E0B5DFF8980401880A2300F032
S3150800837068F8BDF806104FF6FF720D20FFF7BCFF30
S3150800838007BDF8B5B0F5004F0546DFF870641AD199
S31508008390DFF870442188022300F053F8BDF8000086
S315080083A0000AFF2801D0010000D118207070BDF81E
S315080083B000000006C00E10281CBF001D00F0A4F91E
S315080083C0BDF80050ED43DFF82C44607810B1002169
S315080083D0617006E0B189A8B24140CA0744BF0120CE
S315080083E06070A8B2C0F34007DFF81C04B58105F039
S315080083F00106016841F40041016031460FF2D1409F
S3150800840010F8111009074FF44052090C0220FFF723
S3150800841073FF304607F0CEFB2D064022B9010B202C
S31508008420AD0EFFF769FF05F001053D432570FFF71F
S315080084307DFF607818B1FFF795FF00206070002077
S31508008440F2BD7F22684601F003B907F0E4B82DE9CA
S31508008450F84FDFF8BC53287886B0A0F10B010490DA
S315080084600391CAB204230E21684603F01FFC9DF946
S315080084700000DFF8A0130A788DF80800012A9DF895
S3150800848001008DF807009DF902008DF806009DF899
S3150800849003008DF8050004D16878441EA441E40F52
S315080084A000E0012407F0BBF880469DF90200039E10
S315080084B0DFF8589308F10A07A8F10A0BB842B6BFC5
S315080084C083454FF0010A4FF0000A012000FA06F62C
S315080084D09DF80100010603D4B9F80220324201D002
S315080084E04FF0010A07F0DAFB9DF80300010609D4EC
S315080084F0B9F80420324205D19DF90000B842B8BF48
S31508008500834502DB4FF0010B01E04FF0000B4AEA0E
S3150800851004005BEA000000F09F80BF48BF4F016877
S31508008520BF48490801F001018DF80410016801F4FB
S31508008530E06105914FF4E060BA4908600020FFF752
S315080085403FFE00F077FF9CB1687848B100F08FF8DD
S3150800855049084900016001201070FEF730FC07E069
S31508008560386840F400503860396821F48051396021
S31508008570A848017801290FD1002C1ABF687800286D
S31508008580FFF74AF800F073F841F001010160002096
S3150800859010706420FEF713FC2CB1687818B904989B
S315080085A080B207F0B2FB687838B1396821F4805197
S315080085B03960386840F400503860F643BAF1000F65
S315080085C00AD007F091FCB9F802108DF80100314085
S315080085D08DF80280A9F80210BBF1000F0AD007F047
S315080085E030FDB9F804108DF803000E408DF80080B0
S315080085F0A9F804609DF900009DF90810884202BF99
S315080086009DF801009DF8071088420BD19DF90200DC
S315080086109DF90610884202BF9DF803009DF80510D3
S31508008620884206D0039904236A46C9B20E2003F08D
S3150800863069FB05987A49086006F01CFC9DF8040059
S31508008640FFF7BEFD00F0BBFF687828B148F26071FD
S3150800865039606420FEF7B3FB9DF8010007F0AAFB1A
S315080086609DF8030007F0E8FC07B0BDE8F08F6A48FC
S31508008670684A0168704780B5FFF7E7FEBDE8014024
S31508008680E5E6E2E6A0F10B01102928BFFF207047B6
S3150800869070B50546A0F10B06FFF799FC0446A5F14F
S315080086A00B00102801D38A2070BD5F4881680A072D
S315080086B002D40068C10701D58C2070BD54485B49B7
S315080086C005700A680C2A0ED05EA0594BB6B230F86F
S315080086D0262093F900008218CA61FFF7B8FE012C1C
S315080086E008BFFFF716FC002070BD10B50446FFF75B
S315080086F0ACFE2046BDE81040CAE7454800787047FA
S315080087003E4890F9000070472DE9F84106462025B5
S3150800871016F12B0F85B049DB464C21881423FFF749
S3150800872090FEBDF810004FF6FF71884203D0400452
S3150800873048BF012407D43F2200211020FFF7D4FDAB
S31508008740002480F0200506F12B022F2A2B483A49EF
S315080087501AD213224BA300E0521E5FFA82F813F9CD
S315080087601870BE42F8DB03EB4802032756780E6002
S31508008770002613F81810017000218846C4B1BDF808
S3150800878010104FF6BF7229E0092E0FDA825D0A60D3
S315080087900670142329480188FFF753FE4FF4C05189
S315080087A04FF480764FF080082827E7E78B201AE0F9
S315080087B04FF4605200F044F84FF4E062314600F09E
S315080087C03FF88022414600F03BF8791988B24028E4
S315080087D0A8BF3F2181F020013F2289B200F030F87E
S315080087E0FFF7A4FD002006B0BDE8F0817C780020E4
S315080087F0E8100040BC7F002064100040586E00203E
S31508008800008A0208148A02081C100040DA7E00203A
S31508008810256F0020F06E002080200040D010004018
S3150800882000E100E080E100E060200040AC1000407C
S31508008830BB7F0020FC890208C0100040FE890208A0
S315080088400B2059E5AA2129005523290000252800CF
S31508008850AA26270055282700002A2600AA2B260024
S31508008860552D2500002F2400AA3024005532230058
S3150800887000342200AA35220055372100003920008D
S31508008880AA3A2000D500E601EC02EF03F204F4054B
S31508008890F506F707F808F909FA0AFB0BFC0DFD0FB0
S315080088A0FE11FF1300160119021C031F1000110008
S315080088B02000300040004100500060007000800039
S315080088C09000A000B000C000D000E000F00000005A
S315080088D000000103BFF35F8FBFF34F8FBFF36F8FA6
S315080088E070470000DFF81C060168491C016011F892
S315080088F0010D704738B50446DFF80856084629685A
S315080089002246FBF797FC2A6822442A6031BDDFF825
S31508008910F4250146106801441160704710B5DFF868
S31508008920E815DFF8E8350A681C68141BDC2CB8BFA4
S3150800893010700868421C0A6010BD10B50446C0B223
S31508008940FFF7ECFF200A51E0DFF8B8150868401C6D
S315080089500860401E0A680078521C0A6012F8011D59
S3150800896000EB012080B2704710B5044680B2FFF7CD
S31508008970E4FF200C65E010B5FFF7E6FF00F06AF8A3
S3150800898004EB004010BD70B5DFF87C55DFF87C3588
S315080089901E68024628681446861BA619DD2EB8BF2F
S315080089A0FBF748FC28682044286070BD38B500F0FD
S315080089B061F8FFF7C9FF2081DFF848552868401C91
S315080089C0286010F9011DA1722A68521C2A6012F843
S315080089D0010DE07200F048F82073FFF7B5FFE0815B
S315080089E000F0D7F9FFF7C7FF606131BDBDE8104059
S315080089F094E738B500F02EF82080FFF7A5FF6080D1
S31508008A0000F02AF8207100F039F86071FFF79CFF32
S31508008A10E080FFF799FF208100F026F8A07231BDAB
S31508008A2010B500F014F8A078E0E710B500F012F8D9
S31508008A30208000F0C9F8A07010BD10B500F004F849
S31508008A406088BDE8104078E70446207866E7044663
S31508008A50208872E7044677E7DFF8A8542868401CA0
S31508008A602860401E007870472868401C2860401E11
S31508008A70007870470446214608203BE72968491CC8
S31508008A80296011F8010D704738B500F0E6F8A070B6
S31508008A90FFF75AFF2080211D00F0DDF8FFF7E4FFFD
S31508008AA000B10120E07000F001F831BD2868401CD3
S31508008AB02860401E007820732968491C296011F82F
S31508008AC0010D6073704710B50446214600F093F80F
S31508008AD02069BDE8104047E710B50446214600F076
S31508008AE08CF8FFF748FF206110BD10B5FFF7B2FFFD
S31508008AF0208010BD10B50446FFF7C6FF04F110002C
S31508008B0000F027F804F11C0100F0A5F8FFF71CFF98
S31508008B10A084FFF719FFE08404F1280200F011F899
S31508008B20117003685B1C036013F8011D517000F097
S31508008B300AF8917003685B1C036013F8010DD07086
S31508008B4010BDDFF8C0030168491C0160491E097899
S31508008B50704710B50446FFF70EFF2060FFF70BFFBE
S31508008B606060FFF7F1FE208110BD10B500F011F826
S31508008B70A088FFF7E2FEE088FFF7DFFE2089FFF70F
S31508008B80DCFE6089FFF7D9FEA089FFF7D6FEA07B39
S31508008B902CE704462068E7E610B50446FFF7EBFE27
S31508008BA02060FFF7D1FEA080FFF7CEFEE080FFF73A
S31508008BB0CBFE2081FFF7C8FE6081FFF7C5FEA081C6
S31508008BC000F002F8A07310BDDFF838030168491CED
S31508008BD0016011F8010D704710B5FFF7DAFF20792B
S31508008BE0FFF79CFE611D00F006F804F11501BDE8CB
S31508008BF010401020C7E61020C5E610207AE610B50A
S31508008C000446207AFFF78AFE207A30B92068FFF7F3
S31508008C10ABFE2068FFF7A8FE04E0022802D1214631
S31508008C2000F002F8607AE1E60820ACE638B500F014
S31508008C3014F8207230B9FFF79EFE2060FFF79BFEFE
S31508008C40206004E0022802D1214600F004F8FFF76C
S31508008C500BFF607231BD08204CE6DFF8A8520446C7
S31508008C602868401C2860401E0078704770B5054685
S31508008C700224DFF890623068401C3060401E00789D
S31508008C802870401E012806D9FFF75EFE6881A91CD8
S31508008C90FFF7E1FF0BE0FFF757FEA880FFF754FE4A
S31508008CA06880FFF751FEFFF74FFEFFF74DFE0C35C4
S31508008CB0641EE0D170BD38B5054602242878FFF752
S31508008CC02DFE2978491E012906D96889FFF735FE40
S31508008CD0A91CFFF7A9FF0EE0A888FFF72EFE6888F3
S31508008CE0FFF72BFEA888FFF728FE6888FFF725FE02
S31508008CF0A888FFF722FE0C35641EDFD131BD10B5FA
S31508008D00FFF7A2FE6068FFF72FFE04F10800FFF7E1
S31508008D1076FFA08AFFF711FEA07DFFF7FFFDA06989
S31508008D20FFF722FE04F11C01FFF765FF04F12C0092
S31508008D30FFF7C1FF14F8440FFFF7F0FD607855E61A
S31508008D4070B5704D04462868401C286004F12C064E
S31508008D50401E00782070FFF7F7FD6080201DFFF7A2
S31508008D6065FF00F016F804F11200FFF77FFFFFF722
S31508008D70EBFD6085FFF778FE3070FFF77FFE7070B9
S31508008D80FFF7F9FD04F1340170601020BDE870406A
S31508008D90B0E52868401C2860401E0078207470479B
S31508008DA038B5044604F12C05FFF74FFE6088FFF737
S31508008DB0C4FD201DFFF723FF207CFFF7AFFD04F15C
S31508008DC01200FFF778FF608DFFF7B7FD2878FFF7E9
S31508008DD0A5FD6878FFF7A2FD6868FFF7C5FD04F1F1
S31508008DE03401BDE8344004E710B5FFF730FE60886B
S31508008DF0FFF7A3FDA08824E610B5FFF72BFE208019
S31508008E00FFF7A2FD6080FFF79FFDA08010BD30B57B
S31508008E1002F8010B002312E031F8234002F8014B57
S31508008E2001EB830431F823502D0A02F8015B5B1C21
S31508008E30658802F8015B6488240A02F8014B8342BC
S31508008E40EADB30BD0CB42DE9F04180460F4606AE8C
S31508008E502C4C0CE056F8040B5FEA080106D00078A3
S31508008E60FFF755FD286001E0FFF78DFD7F1C387878
S31508008E70002842D056F8045B622834D07028E9D01E
S31508008E80732806D0752813D0762817D0772820D0CF
S31508008E90ECE75FEA080007D02068401C2060401E07
S31508008EA090F900002870E1E72878FFF737FDDDE73D
S31508008EB05FEA0800F8D000F02BF8F3E75FEA08004D
S31508008EC003D0FFF741FD2880D0E72888FFF735FD56
S31508008ED0CCE75FEA080002D0FFF74DFDC2E7286835
S31508008EE0FFF742FDC2E756F8040B00785FEA08016F
S31508008EF02946B9D0FFF7FEFCB8E7BDE8F0015DF8F2
S31508008F000CFB0000687800206C780020087B0020A5
S31508008F102068401C2060401E0078704710B5044643
S31508008F20FEF7ECF81D491E4B302008601860102229
S31508008F301C491D4B08601A60200A00281B4808BFF8
S31508008F4024024FF20F0104804180BFF35F8F184857
S31508008F500022026042601748174A106010BD174881
S31508008F600168CA0708D5164B032119700121026C3E
S31508008F7052085200026401600268110703D5026CA8
S31508008F8022F00802026470470E48006870470D48D0
S31508008F900068203870470C487047000030200040B1
S31508008FA030C8004030C0004010E0004000000020FB
S31508008FB01C4000400400FA050CED00E018A0004033
S31508008FC0B97F00204C6E0020980000202DE9F04162
S31508008FD0DFF8C4640546F0780328D4BF3027602735
S31508008FE04FF4F070B0FBF7F41E2D24B201DB281BFA
S31508008FF004D5A8B2BDE8F041FDF7E1BEFEF77EF85C
S3150800900000F071F970700722DFF890040021026001
S315080090102D1B41602DB281607D43DFF88424DFF883
S315080090207474ED1C4FF00071AD0811606D1E45603B
S31508009030DFF8705400F00FF83C6800F059F93C600E
S315080090402E60FFF747FC002080F310884046BDE8F5
S31508009050F041FEF759B82E68286840084000286095
S31508009060FFF738BC38B50446DFF82C04C178032965
S31508009070D4BF302560254FF4F070B0FBF5F0241A04
S315080090801E2C04DAAB210FF27C40FDF7BDFCDFF89D
S315080090900C04072101600022426082606C43DFF8FD
S315080090A00024E41C4FF00071A4081160641E44609B
S315080090B031BDDFF8E42301215170D3E72DE9F041F2
S315080090C0DFF8E463DFF8E473002535603D604FF4AC
S315080090D0A0427A6041F29A084046FFF777FF706827
S315080090E044F69041081A00B24FF4487290FBF2F029
S315080090F001B20829A8BF072004DA11F1080FB8BF82
S315080091006FF0070000B2386008244046FFF75EFF9C
S315080091104046FFF75BFF70684519641EF8D12D1DA0
S31508009120ED0808BF0125DFF88803B0FBF5F080B22B
S315080091307860BDE8F08138B5DFF8785301216FF023
S315080091400F04A9602C608020FFF740FFE868B0F59F
S31508009150807F02D2641C102CF4DB31BD70B5DFF8B9
S315080091605803DFF84053016841F00101016001220C
S315080091704260FDF7C3FF2E680446FFF76DFFC54939
S31508009180512008602E60FFF7A5FB2046BDE8704019
S31508009190FDF7BABF10B5C04C01202070002121711F
S315080091A0C648816901F00301032907D10021A1708E
S315080091B0042000F061F80121217110BD0F22026020
S315080091C0022181610120E0706420BDE8104070E74B
S315080091D02DE9F041BA4CB94EA188AF4F4FF6FF784A
S315080091E0414540F2DC551CD1B648018802237F224E
S315080091F0201D00F02DFAA088404504BF0221A18059
S31508009200B069810703D4B06940F00200B06101205B
S31508009210B8702846A1883160FFF74BFF2846BDE89D
S31508009220F081B0698207EED5B8780028F6D1B26821
S31508009230B06812F0010204D10F290AD2491CA18094
S3150800924007E0830705D5207818B10229C4BF481E50
S31508009250A080A08822700228BCBF0221A1803068A5
S31508009260A1888842D3D1B06900F00300032818BF4B
S31508009270FFF774FF0020D2E72DE9F04792498146AF
S315080092800878002468B9C878072818BF09280DD0B7
S31508009290032818BF112809D013281CBF15280B2826
S315080092A004D08A48016841F480710160FDF726FF01
S315080092B000F019F84846FFF78BFF08B901240CE0BF
S315080092C0784D744FFFF7C7FED7F800A000F010F8E6
S315080092D0C7F800A02E60FFF7FDFA00F00CF9002C85
S315080092E0E4D0BDE8F0878046012080F310887047F7
S315080092F0386820F04000386006F070BF0220BBE7EF
S3150800930010B56648664B00214160002282600168FC
S3150800931021F00201016060494A704FF000721A603C
S31508009320887808B100228A70C878012815D168485B
S31508009330684B012202601C68E20702D50320C87048
S3150800934010BD0222CA70016C634B41F00101016431
S31508009350042062490860186010BDC878042804BF54
S315080093600522CA7010BD4C494878002818BFFFF777
S31508009370C7BFFEF7CEBB2DE9F843474D287918B38A
S3150800938056E0FDF7BBFE0446012080F31088E97815
S31508009390032913D0434EDFF8FC8000F0A5F8D8F86F
S315080093A00090D8F8000020F04000C8F8000006F049
S315080093B015FFC8F800903760FFF78CFA002080F395
S315080093C010882046FDF7A0FEE8780328D9D13C4E40
S315080093D03A4CB08820604FF6FF777188B9420CD1B5
S315080093E03F48018802237F22B01C00F031F97088BB
S315080093F0B84202D16421718001E0708878B1708822
S3150800940038494A6D42F001024A650A68A368DE07D0
S31508009410FBD50B689B1AC3F313038342F6D3FFF7F6
S315080094209DFE0420E8704FF4C870BDE8F24340E69C
S31508009430BDE8F1832DE9F843174D287808B1287956
S31508009440E0B10021297022E0FDF758FEFFF74BFF37
S31508009450E978052910D0134E0E4C00F045F8D4F8DB
S315080094600090206820F04000206006F0B7FEC4F89F
S3150800947000903760FFF72EFA00F03DF8E8780528E7
S31508009480E2D10021A970FFF7F7FE00202870BDE899
S31508009490F183000000800040B67F002010E000E065
S315080094A004ED00E094ED00E0104000400C000040A0
S315080094B00060E316084000401C400040044000409D
S315080094C0D06E0020208A0208960708083840004017
S315080094D018A000400C40004000E100E080E200E0F7
S315080094E0248A02083820004037683068400840005F
S315080094F03060FFF7EFB9002080F310884046FDF78B
S3150800950003BE0000636C6F636B732E63000000007C
S3150800951070B504460D4606F065FE3F4E306C20F0E9
S3150800952008003064E40106F05FFEFDF7E7FD44F04D
S3150800953001043A4944EA05340C6008223260BDE861
S315080095407040FDF7E1BD2DE9F041354C354D324E01
S3150800955025E006F047FE344904200860326C42F0E4
